{"contracts/BrainArkValidatorTimeLock.sol":{"BrainArkValidatorTimeLock":{"abi":[{"inputs":[{"internalType":"address","name":"_bakToken","type":"address"},{"internalType":"address","name":"_validatorRewardDistributor","type":"address"},{"internalType":"uint256","name":"_startTime","type":"uint256"}],"stateMutability":"nonpayable","type":"constructor"},{"inputs":[],"name":"EnforcedPause","type":"error"},{"inputs":[],"name":"ExpectedPause","type":"error"},{"inputs":[{"internalType":"address","name":"owner","type":"address"}],"name":"OwnableInvalidOwner","type":"error"},{"inputs":[{"internalType":"address","name":"account","type":"address"}],"name":"OwnableUnauthorizedAccount","type":"error"},{"inputs":[],"name":"ReentrancyGuardReentrantCall","type":"error"},{"inputs":[{"internalType":"address","name":"token","type":"address"}],"name":"SafeERC20FailedOperation","type":"error"},{"anonymous":false,"inputs":[{"indexed":false,"internalType":"uint256","name":"amount","type":"uint256"},{"indexed":false,"internalType":"uint256","name":"timestamp","type":"uint256"}],"name":"EmergencyWithdrawExecuted","type":"event"},{"anonymous":false,"inputs":[{"indexed":false,"internalType":"uint256","name":"requestTime","type":"uint256"}],"name":"EmergencyWithdrawRequested","type":"event"},{"anonymous":false,"inputs":[{"indexed":true,"internalType":"address","name":"previousOwner","type":"address"},{"indexed":true,"internalType":"address","name":"newOwner","type":"address"}],"name":"OwnershipTransferred","type":"event"},{"anonymous":false,"inputs":[{"indexed":false,"internalType":"address","name":"account","type":"address"}],"name":"Paused","type":"event"},{"anonymous":false,"inputs":[{"indexed":false,"internalType":"uint256","name":"amount","type":"uint256"},{"indexed":false,"internalType":"uint256","name":"timestamp","type":"uint256"},{"indexed":false,"internalType":"uint256","name":"totalReleased","type":"uint256"}],"name":"TokensReleased","type":"event"},{"anonymous":false,"inputs":[{"indexed":false,"internalType":"address","name":"account","type":"address"}],"name":"Unpaused","type":"event"},{"anonymous":false,"inputs":[{"indexed":false,"internalType":"address","name":"newDistributor","type":"address"}],"name":"ValidatorRewardDistributorUpdated","type":"event"},{"inputs":[],"name":"ANNUAL_RELEASE_AMOUNT","outputs":[{"internalType":"uint256","name":"","type":"uint256"}],"stateMutability":"view","type":"function"},{"inputs":[],"name":"LOCK_DURATION","outputs":[{"internalType":"uint256","name":"","type":"uint256"}],"stateMutability":"view","type":"function"},{"inputs":[],"name":"MONTHLY_RELEASE_AMOUNT","outputs":[{"internalType":"uint256","name":"","type":"uint256"}],"stateMutability":"view","type":"function"},{"inputs":[],"name":"RELEASE_INTERVAL","outputs":[{"internalType":"uint256","name":"","type":"uint256"}],"stateMutability":"view","type":"function"},{"inputs":[],"name":"TOTAL_LOCKED_AMOUNT","outputs":[{"internalType":"uint256","name":"","type":"uint256"}],"stateMutability":"view","type":"function"},{"inputs":[],"name":"bakToken","outputs":[{"internalType":"contract IERC20","name":"","type":"address"}],"stateMutability":"view","type":"function"},{"inputs":[],"name":"calculateReleaseAmount","outputs":[{"internalType":"uint256","name":"","type":"uint256"}],"stateMutability":"view","type":"function"},{"inputs":[],"name":"checkReleaseStatus","outputs":[{"internalType":"bool","name":"canRelease_","type":"bool"},{"internalType":"uint256","name":"releaseAmount","type":"uint256"},{"internalType":"uint256","name":"timeUntilRelease","type":"uint256"}],"stateMutability":"view","type":"function"},{"inputs":[],"name":"emergencyPause","outputs":[],"stateMutability":"nonpayable","type":"function"},{"inputs":[],"name":"emergencyWithdrawDelay","outputs":[{"internalType":"uint256","name":"","type":"uint256"}],"stateMutability":"view","type":"function"},{"inputs":[],"name":"emergencyWithdrawEnabled","outputs":[{"internalType":"bool","name":"","type":"bool"}],"stateMutability":"view","type":"function"},{"inputs":[],"name":"emergencyWithdrawRequestTime","outputs":[{"internalType":"uint256","name":"","type":"uint256"}],"stateMutability":"view","type":"function"},{"inputs":[],"name":"endTime","outputs":[{"internalType":"uint256","name":"","type":"uint256"}],"stateMutability":"view","type":"function"},{"inputs":[],"name":"executeEmergencyWithdraw","outputs":[],"stateMutability":"nonpayable","type":"function"},{"inputs":[],"name":"getContractStatus","outputs":[{"internalType":"uint256","name":"locked","type":"uint256"},{"internalType":"uint256","name":"released","type":"uint256"},{"internalType":"uint256","name":"nextRelease","type":"uint256"},{"internalType":"uint256","name":"progress","type":"uint256"}],"stateMutability":"view","type":"function"},{"inputs":[],"name":"getLockParameters","outputs":[{"internalType":"uint256","name":"totalLocked","type":"uint256"},{"internalType":"uint256","name":"annualRelease","type":"uint256"},{"internalType":"uint256","name":"monthlyRelease","type":"uint256"},{"internalType":"uint256","name":"lockDuration","type":"uint256"},{"internalType":"uint256","name":"startTimestamp","type":"uint256"},{"internalType":"uint256","name":"endTimestamp","type":"uint256"}],"stateMutability":"view","type":"function"},{"inputs":[],"name":"getProjectedReleases","outputs":[{"internalType":"uint256","name":"totalMonths","type":"uint256"},{"internalType":"uint256","name":"projectedTotal","type":"uint256"}],"stateMutability":"pure","type":"function"},{"inputs":[],"name":"lastReleaseTime","outputs":[{"internalType":"uint256","name":"","type":"uint256"}],"stateMutability":"view","type":"function"},{"inputs":[],"name":"nextReleaseTime","outputs":[{"internalType":"uint256","name":"","type":"uint256"}],"stateMutability":"view","type":"function"},{"inputs":[],"name":"owner","outputs":[{"internalType":"address","name":"","type":"address"}],"stateMutability":"view","type":"function"},{"inputs":[],"name":"paused","outputs":[{"internalType":"bool","name":"","type":"bool"}],"stateMutability":"view","type":"function"},{"inputs":[],"name":"releaseTokens","outputs":[],"stateMutability":"nonpayable","type":"function"},{"inputs":[],"name":"renounceOwnership","outputs":[],"stateMutability":"nonpayable","type":"function"},{"inputs":[],"name":"requestEmergencyWithdraw","outputs":[],"stateMutability":"nonpayable","type":"function"},{"inputs":[],"name":"startTime","outputs":[{"internalType":"uint256","name":"","type":"uint256"}],"stateMutability":"view","type":"function"},{"inputs":[],"name":"totalReleased","outputs":[{"internalType":"uint256","name":"","type":"uint256"}],"stateMutability":"view","type":"function"},{"inputs":[{"internalType":"address","name":"newOwner","type":"address"}],"name":"transferOwnership","outputs":[],"stateMutability":"nonpayable","type":"function"},{"inputs":[],"name":"unpause","outputs":[],"stateMutability":"nonpayable","type":"function"},{"inputs":[{"internalType":"address","name":"_newDistributor","type":"address"}],"name":"updateValidatorRewardDistributor","outputs":[],"stateMutability":"nonpayable","type":"function"},{"inputs":[],"name":"validatorRewardDistributor","outputs":[{"internalType":"address","name":"","type":"address"}],"stateMutability":"view","type":"function"}],"evm":{"bytecode":{"linkReferences":{},"object":"6101006040526005805460ff1916905562093a806006553480156200002357600080fd5b50604051620013733803806200137383398101604081905262000046916200023f565b600160005533806200007357604051631e4fbdf760e01b8152600060048201526024015b60405180910390fd5b6200007e81620001c8565b506001600160a01b038316620000d75760405162461bcd60e51b815260206004820152601960248201527f496e76616c69642042414b20746f6b656e20616464726573730000000000000060448201526064016200006a565b6001600160a01b0382166200012f5760405162461bcd60e51b815260206004820152601b60248201527f496e76616c6964206469737472696275746f722061646472657373000000000060448201526064016200006a565b42811015620001815760405162461bcd60e51b815260206004820181905260248201527f53746172742074696d65206d75737420626520696e207468652066757475726560448201526064016200006a565b6001600160a01b03808416608052821660a05260c0819052620001a963386409008262000280565b60e052620001bb62278d008262000280565b60045550620002a8915050565b600180546001600160a01b03838116610100818102610100600160a81b031985161790945560405193909204169182907f8be0079c531659141344cd1fd0a4f28419497f9722a3daafe3b4186f6b6457e090600090a35050565b80516001600160a01b03811681146200023a57600080fd5b919050565b6000806000606084860312156200025557600080fd5b620002608462000222565b9250620002706020850162000222565b9150604084015190509250925092565b80820180821115620002a257634e487b7160e01b600052601160045260246000fd5b92915050565b60805160a05160c05160e05161103d62000336600039600081816102390152818161041d015281816108ae0152610a2401526000818161032a015281816103f7015281816104bc0152818161050b0152818161088201526109b401526000818161028d0152610b920152600081816104830152818161072c015281816108080152610b70015261103d6000f3fe608060405234801561001057600080fd5b50600436106101da5760003560e01c806372070b8111610104578063cde5f58f116100a2578063dfaf734a11610071578063dfaf734a1461046c578063e33b7de314610475578063f1218db01461047e578063f2fde38b146104a557600080fd5b8063cde5f58f146103ac578063d9469d13146103b6578063dd7d4e0714610449578063de7489e51461045a57600080fd5b8063a96f8668116100de578063a96f866814610362578063b3ba5b511461036a578063c032846b1461037c578063c28f7c3b146103a457600080fd5b806372070b811461031c57806378e97925146103255780638da5cb5b1461034c57600080fd5b8063427b99741161017c5780635c975abb1161014b5780635c975abb146102f7578063646e945b146103025780636d6a48891461030b578063715018a61461031457600080fd5b8063427b997414610288578063485d3834146102c757806351858e27146102d25780635747e69f146102da57600080fd5b80632a8821cc116101b85780632a8821cc1461022c5780633197cbb614610234578063340349d21461025b5780633f4ba83a1461028057600080fd5b806309f24524146101df5780630af3b59a146101fa5780631aebc29314610217575b600080fd5b6101e76104b8565b6040519081526020015b60405180910390f35b610202610599565b604080519283526020830191909152016101f1565b61022a610225366004610f43565b6105b8565b005b61022a61065b565b6101e77f000000000000000000000000000000000000000000000000000000000000000081565b61026361086e565b6040805193151584526020840192909252908201526060016101f1565b61022a61091c565b6102af7f000000000000000000000000000000000000000000000000000000000000000081565b6040516001600160a01b0390911681526020016101f1565b6101e7633864090081565b61022a61092e565b6005546102e79060ff1681565b60405190151581526020016101f1565b60015460ff166102e7565b6101e760075481565b6101e760045481565b61022a61093e565b6101e760065481565b6101e77f000000000000000000000000000000000000000000000000000000000000000081565b60015461010090046001600160a01b03166102af565b61022a610950565b6101e76a0b07716e251a248034000081565b610384610c04565b6040805194855260208501939093529183015260608201526080016101f1565b61022a610c5a565b6101e762278d0081565b604080516714adf4b7320334b9601c1b81526a0b07716e251a2480340000602082015269eb4972b05d9ebcbc000091810191909152633864090060608201527f000000000000000000000000000000000000000000000000000000000000000060808201527f000000000000000000000000000000000000000000000000000000000000000060a082015260c0016101f1565b6101e769eb4972b05d9ebcbc000081565b6101e76714adf4b7320334b9601c1b81565b6101e760035481565b6101e760025481565b6102af7f000000000000000000000000000000000000000000000000000000000000000081565b61022a6104b3366004610f43565b610cb1565b60007f00000000000000000000000000000000000000000000000000000000000000004210806104f557506714adf4b7320334b9601c1b60025410155b156105005750600090565b600062278d006105307f000000000000000000000000000000000000000000000000000000000000000042610f89565b61053a9190610fa2565b9050600069eb4972b05d9ebcbc0000610554836001610fc4565b61055e9190610fd7565b90506714adf4b7320334b9601c1b81111561058157506714adf4b7320334b9601c1b5b6000600254826105919190610f89565b949350505050565b61016860006105b269eb4972b05d9ebcbc000083610fd7565b90509091565b6105c0610cef565b6001600160a01b03811661061b5760405162461bcd60e51b815260206004820152601b60248201527f496e76616c6964206469737472696275746f722061646472657373000000000060448201526064015b60405180910390fd5b6040516001600160a01b03821681527f78588b5a307338706a1f30628473b89e474e8f59a0defabf46559921b967bdd9906020015b60405180910390a150565b610663610cef565b60055460ff166106b55760405162461bcd60e51b815260206004820152601e60248201527f456d657267656e6379207769746864726177206e6f7420656e61626c656400006044820152606401610612565b6006546007546106c59190610fc4565b4210156107145760405162461bcd60e51b815260206004820181905260248201527f456d657267656e63792077697468647261772064656c6179206e6f74206d65746044820152606401610612565b6040516370a0823160e01b81523060048201526000907f00000000000000000000000000000000000000000000000000000000000000006001600160a01b0316906370a0823190602401602060405180830381865afa15801561077b573d6000803e3d6000fd5b505050506040513d601f19601f8201168201806040525081019061079f9190610fee565b9050600081116107e95760405162461bcd60e51b81526020600482015260156024820152744e6f20746f6b656e7320746f20776974686472617760581b6044820152606401610612565b60015461082f9061010090046001600160a01b03166001600160a01b037f0000000000000000000000000000000000000000000000000000000000000000169083610d22565b6005805460ff19169055604080518281524260208201527f6c7180f0ae61d4344d7d15bb00641184202a73b189564aeb59973c35342178329101610650565b600080600060045442101580156108a557507f00000000000000000000000000000000000000000000000000000000000000004210155b80156108d157507f00000000000000000000000000000000000000000000000000000000000000004211155b80156108e957506714adf4b7320334b9601c1b600254105b92506108f36104b8565b9150600454421015610914574260045461090d9190610f89565b9050909192565b506000909192565b610924610cef565b61092c610d79565b565b610936610cef565b61092c610dc6565b610946610cef565b61092c6000610e01565b610958610e5b565b610960610e85565b6004544210156109b25760405162461bcd60e51b815260206004820152601860248201527f52656c656173652074696d65206e6f74207265616368656400000000000000006044820152606401610612565b7f0000000000000000000000000000000000000000000000000000000000000000421015610a225760405162461bcd60e51b815260206004820152601760248201527f4c6f636b20706572696f64206e6f7420737461727465640000000000000000006044820152606401610612565b7f0000000000000000000000000000000000000000000000000000000000000000421115610a865760405162461bcd60e51b8152602060048201526011602482015270131bd8dac81c195c9a5bd908195b991959607a1b6044820152606401610612565b6714adf4b7320334b9601c1b60025410610ae25760405162461bcd60e51b815260206004820152601b60248201527f416c6c20746f6b656e7320616c72656164792072656c656173656400000000006044820152606401610612565b6000610aec6104b8565b905060008111610b355760405162461bcd60e51b81526020600482015260146024820152734e6f20746f6b656e7320746f2072656c6561736560601b6044820152606401610612565b8060026000828254610b479190610fc4565b9091555050426003819055610b609062278d0090610fc4565b600455610bb76001600160a01b037f0000000000000000000000000000000000000000000000000000000000000000167f000000000000000000000000000000000000000000000000000000000000000083610d22565b6002546040805183815242602082015280820192909252517fea91ec69d9ab5a214205bad93781970df8c1f8fa5321a97b10a6cbbe99c29d9c9181900360600190a15061092c6001600055565b6000806000806002546714adf4b7320334b9601c1b610c239190610f89565b600254600454919550935091506714adf4b7320334b9601c1b610c4884612710610fd7565b610c529190610fa2565b905090919293565b610c62610cef565b6005805460ff191660011790554260078190556040517f6c51e0e9648746b65a27425fd08714243ff8799934a67ee370cde94eb5e4150391610ca79190815260200190565b60405180910390a1565b610cb9610cef565b6001600160a01b038116610ce357604051631e4fbdf760e01b815260006004820152602401610612565b610cec81610e01565b50565b6001546001600160a01b0361010090910416331461092c5760405163118cdaa760e01b8152336004820152602401610612565b604080516001600160a01b038416602482015260448082018490528251808303909101815260649091019091526020810180516001600160e01b031663a9059cbb60e01b179052610d74908490610ea9565b505050565b610d81610f20565b6001805460ff191690557f5db9ee0a495bf2e6ff9c91a7834c1ba4fdd244a5e8aa4e537bd38aeae4b073aa335b6040516001600160a01b039091168152602001610ca7565b610dce610e85565b6001805460ff1916811790557f62e78cea01bee320cd4e420270b5ea74000d11b0c9f74754ebdbfc544b05a25833610dae565b600180546001600160a01b03838116610100818102610100600160a81b031985161790945560405193909204169182907f8be0079c531659141344cd1fd0a4f28419497f9722a3daafe3b4186f6b6457e090600090a35050565b600260005403610e7e57604051633ee5aeb560e01b815260040160405180910390fd5b6002600055565b60015460ff161561092c5760405163d93c066560e01b815260040160405180910390fd5b600080602060008451602086016000885af180610ecc576040513d6000823e3d81fd5b50506000513d91508115610ee4578060011415610ef1565b6001600160a01b0384163b155b15610f1a57604051635274afe760e01b81526001600160a01b0385166004820152602401610612565b50505050565b60015460ff1661092c57604051638dfc202b60e01b815260040160405180910390fd5b600060208284031215610f5557600080fd5b81356001600160a01b0381168114610f6c57600080fd5b9392505050565b634e487b7160e01b600052601160045260246000fd5b81810381811115610f9c57610f9c610f73565b92915050565b600082610fbf57634e487b7160e01b600052601260045260246000fd5b500490565b80820180821115610f9c57610f9c610f73565b8082028115828204841417610f9c57610f9c610f73565b60006020828403121561100057600080fd5b505191905056fea264697066735822122007524556f4b6adda49a76efed058d62fa4a47e584616cd3b9746ec04333bcde264736f6c63430008140033","opcodes":"PUSH2 0x100 PUSH1 0x40 MSTORE PUSH1 0x5 DUP1 SLOAD PUSH1 0xFF NOT AND SWAP1 SSTORE PUSH3 0x93A80 PUSH1 0x6 SSTORE CALLVALUE DUP1 ISZERO PUSH3 0x23 JUMPI PUSH1 0x0 DUP1 REVERT JUMPDEST POP PUSH1 0x40 MLOAD PUSH3 0x1373 CODESIZE SUB DUP1 PUSH3 0x1373 DUP4 CODECOPY DUP2 ADD PUSH1 0x40 DUP2 SWAP1 MSTORE PUSH3 0x46 SWAP2 PUSH3 0x23F JUMP JUMPDEST PUSH1 0x1 PUSH1 0x0 SSTORE CALLER DUP1 PUSH3 0x73 JUMPI PUSH1 0x40 MLOAD PUSH4 0x1E4FBDF7 PUSH1 0xE0 SHL DUP2 MSTORE PUSH1 0x0 PUSH1 0x4 DUP3 ADD MSTORE PUSH1 0x24 ADD JUMPDEST PUSH1 0x40 MLOAD DUP1 SWAP2 SUB SWAP1 REVERT JUMPDEST PUSH3 0x7E DUP2 PUSH3 0x1C8 JUMP JUMPDEST POP PUSH1 0x1 PUSH1 0x1 PUSH1 0xA0 SHL SUB DUP4 AND PUSH3 0xD7 JUMPI PUSH1 0x40 MLOAD PUSH3 0x461BCD PUSH1 0xE5 SHL DUP2 MSTORE PUSH1 0x20 PUSH1 0x4 DUP3 ADD MSTORE PUSH1 0x19 PUSH1 0x24 DUP3 ADD MSTORE PUSH32 0x496E76616C69642042414B20746F6B656E206164647265737300000000000000 PUSH1 0x44 DUP3 ADD MSTORE PUSH1 0x64 ADD PUSH3 0x6A JUMP JUMPDEST PUSH1 0x1 PUSH1 0x1 PUSH1 0xA0 SHL SUB DUP3 AND PUSH3 0x12F JUMPI PUSH1 0x40 MLOAD PUSH3 0x461BCD PUSH1 0xE5 SHL DUP2 MSTORE PUSH1 0x20 PUSH1 0x4 DUP3 ADD MSTORE PUSH1 0x1B PUSH1 0x24 DUP3 ADD MSTORE PUSH32 0x496E76616C6964206469737472696275746F7220616464726573730000000000 PUSH1 0x44 DUP3 ADD MSTORE PUSH1 0x64 ADD PUSH3 0x6A JUMP JUMPDEST TIMESTAMP DUP2 LT ISZERO PUSH3 0x181 JUMPI PUSH1 0x40 MLOAD PUSH3 0x461BCD PUSH1 0xE5 SHL DUP2 MSTORE PUSH1 0x20 PUSH1 0x4 DUP3 ADD DUP2 SWAP1 MSTORE PUSH1 0x24 DUP3 ADD MSTORE PUSH32 0x53746172742074696D65206D75737420626520696E2074686520667574757265 PUSH1 0x44 DUP3 ADD MSTORE PUSH1 0x64 ADD PUSH3 0x6A JUMP JUMPDEST PUSH1 0x1 PUSH1 0x1 PUSH1 0xA0 SHL SUB DUP1 DUP5 AND PUSH1 0x80 MSTORE DUP3 AND PUSH1 0xA0 MSTORE PUSH1 0xC0 DUP2 SWAP1 MSTORE PUSH3 0x1A9 PUSH4 0x38640900 DUP3 PUSH3 0x280 JUMP JUMPDEST PUSH1 0xE0 MSTORE PUSH3 0x1BB PUSH3 0x278D00 DUP3 PUSH3 0x280 JUMP JUMPDEST PUSH1 0x4 SSTORE POP PUSH3 0x2A8 SWAP2 POP POP JUMP JUMPDEST PUSH1 0x1 DUP1 SLOAD PUSH1 0x1 PUSH1 0x1 PUSH1 0xA0 SHL SUB DUP4 DUP2 AND PUSH2 0x100 DUP2 DUP2 MUL PUSH2 0x100 PUSH1 0x1 PUSH1 0xA8 SHL SUB NOT DUP6 AND OR SWAP1 SWAP5 SSTORE PUSH1 0x40 MLOAD SWAP4 SWAP1 SWAP3 DIV AND SWAP2 DUP3 SWAP1 PUSH32 0x8BE0079C531659141344CD1FD0A4F28419497F9722A3DAAFE3B4186F6B6457E0 SWAP1 PUSH1 0x0 SWAP1 LOG3 POP POP JUMP JUMPDEST DUP1 MLOAD PUSH1 0x1 PUSH1 0x1 PUSH1 0xA0 SHL SUB DUP2 AND DUP2 EQ PUSH3 0x23A JUMPI PUSH1 0x0 DUP1 REVERT JUMPDEST SWAP2 SWAP1 POP JUMP JUMPDEST PUSH1 0x0 DUP1 PUSH1 0x0 PUSH1 0x60 DUP5 DUP7 SUB SLT ISZERO PUSH3 0x255 JUMPI PUSH1 0x0 DUP1 REVERT JUMPDEST PUSH3 0x260 DUP5 PUSH3 0x222 JUMP JUMPDEST SWAP3 POP PUSH3 0x270 PUSH1 0x20 DUP6 ADD PUSH3 0x222 JUMP JUMPDEST SWAP2 POP PUSH1 0x40 DUP5 ADD MLOAD SWAP1 POP SWAP3 POP SWAP3 POP SWAP3 JUMP JUMPDEST DUP1 DUP3 ADD DUP1 DUP3 GT ISZERO PUSH3 0x2A2 JUMPI PUSH4 0x4E487B71 PUSH1 0xE0 SHL PUSH1 0x0 MSTORE PUSH1 0x11 PUSH1 0x4 MSTORE PUSH1 0x24 PUSH1 0x0 REVERT JUMPDEST SWAP3 SWAP2 POP POP JUMP JUMPDEST PUSH1 0x80 MLOAD PUSH1 0xA0 MLOAD PUSH1 0xC0 MLOAD PUSH1 0xE0 MLOAD PUSH2 0x103D PUSH3 0x336 PUSH1 0x0 CODECOPY PUSH1 0x0 DUP2 DUP2 PUSH2 0x239 ADD MSTORE DUP2 DUP2 PUSH2 0x41D ADD MSTORE DUP2 DUP2 PUSH2 0x8AE ADD MSTORE PUSH2 0xA24 ADD MSTORE PUSH1 0x0 DUP2 DUP2 PUSH2 0x32A ADD MSTORE DUP2 DUP2 PUSH2 0x3F7 ADD MSTORE DUP2 DUP2 PUSH2 0x4BC ADD MSTORE DUP2 DUP2 PUSH2 0x50B ADD MSTORE DUP2 DUP2 PUSH2 0x882 ADD MSTORE PUSH2 0x9B4 ADD MSTORE PUSH1 0x0 DUP2 DUP2 PUSH2 0x28D ADD MSTORE PUSH2 0xB92 ADD MSTORE PUSH1 0x0 DUP2 DUP2 PUSH2 0x483 ADD MSTORE DUP2 DUP2 PUSH2 0x72C ADD MSTORE DUP2 DUP2 PUSH2 0x808 ADD MSTORE PUSH2 0xB70 ADD MSTORE PUSH2 0x103D PUSH1 0x0 RETURN INVALID PUSH1 0x80 PUSH1 0x40 MSTORE CALLVALUE DUP1 ISZERO PUSH2 0x10 JUMPI PUSH1 0x0 DUP1 REVERT JUMPDEST POP PUSH1 0x4 CALLDATASIZE LT PUSH2 0x1DA JUMPI PUSH1 0x0 CALLDATALOAD PUSH1 0xE0 SHR DUP1 PUSH4 0x72070B81 GT PUSH2 0x104 JUMPI DUP1 PUSH4 0xCDE5F58F GT PUSH2 0xA2 JUMPI DUP1 PUSH4 0xDFAF734A GT PUSH2 0x71 JUMPI DUP1 PUSH4 0xDFAF734A EQ PUSH2 0x46C JUMPI DUP1 PUSH4 0xE33B7DE3 EQ PUSH2 0x475 JUMPI DUP1 PUSH4 0xF1218DB0 EQ PUSH2 0x47E JUMPI DUP1 PUSH4 0xF2FDE38B EQ PUSH2 0x4A5 JUMPI PUSH1 0x0 DUP1 REVERT JUMPDEST DUP1 PUSH4 0xCDE5F58F EQ PUSH2 0x3AC JUMPI DUP1 PUSH4 0xD9469D13 EQ PUSH2 0x3B6 JUMPI DUP1 PUSH4 0xDD7D4E07 EQ PUSH2 0x449 JUMPI DUP1 PUSH4 0xDE7489E5 EQ PUSH2 0x45A JUMPI PUSH1 0x0 DUP1 REVERT JUMPDEST DUP1 PUSH4 0xA96F8668 GT PUSH2 0xDE JUMPI DUP1 PUSH4 0xA96F8668 EQ PUSH2 0x362 JUMPI DUP1 PUSH4 0xB3BA5B51 EQ PUSH2 0x36A JUMPI DUP1 PUSH4 0xC032846B EQ PUSH2 0x37C JUMPI DUP1 PUSH4 0xC28F7C3B EQ PUSH2 0x3A4 JUMPI PUSH1 0x0 DUP1 REVERT JUMPDEST DUP1 PUSH4 0x72070B81 EQ PUSH2 0x31C JUMPI DUP1 PUSH4 0x78E97925 EQ PUSH2 0x325 JUMPI DUP1 PUSH4 0x8DA5CB5B EQ PUSH2 0x34C JUMPI PUSH1 0x0 DUP1 REVERT JUMPDEST DUP1 PUSH4 0x427B9974 GT PUSH2 0x17C JUMPI DUP1 PUSH4 0x5C975ABB GT PUSH2 0x14B JUMPI DUP1 PUSH4 0x5C975ABB EQ PUSH2 0x2F7 JUMPI DUP1 PUSH4 0x646E945B EQ PUSH2 0x302 JUMPI DUP1 PUSH4 0x6D6A4889 EQ PUSH2 0x30B JUMPI DUP1 PUSH4 0x715018A6 EQ PUSH2 0x314 JUMPI PUSH1 0x0 DUP1 REVERT JUMPDEST DUP1 PUSH4 0x427B9974 EQ PUSH2 0x288 JUMPI DUP1 PUSH4 0x485D3834 EQ PUSH2 0x2C7 JUMPI DUP1 PUSH4 0x51858E27 EQ PUSH2 0x2D2 JUMPI DUP1 PUSH4 0x5747E69F EQ PUSH2 0x2DA JUMPI PUSH1 0x0 DUP1 REVERT JUMPDEST DUP1 PUSH4 0x2A8821CC GT PUSH2 0x1B8 JUMPI DUP1 PUSH4 0x2A8821CC EQ PUSH2 0x22C JUMPI DUP1 PUSH4 0x3197CBB6 EQ PUSH2 0x234 JUMPI DUP1 PUSH4 0x340349D2 EQ PUSH2 0x25B JUMPI DUP1 PUSH4 0x3F4BA83A EQ PUSH2 0x280 JUMPI PUSH1 0x0 DUP1 REVERT JUMPDEST DUP1 PUSH4 0x9F24524 EQ PUSH2 0x1DF JUMPI DUP1 PUSH4 0xAF3B59A EQ PUSH2 0x1FA JUMPI DUP1 PUSH4 0x1AEBC293 EQ PUSH2 0x217 JUMPI JUMPDEST PUSH1 0x0 DUP1 REVERT JUMPDEST PUSH2 0x1E7 PUSH2 0x4B8 JUMP JUMPDEST PUSH1 0x40 MLOAD SWAP1 DUP2 MSTORE PUSH1 0x20 ADD JUMPDEST PUSH1 0x40 MLOAD DUP1 SWAP2 SUB SWAP1 RETURN JUMPDEST PUSH2 0x202 PUSH2 0x599 JUMP JUMPDEST PUSH1 0x40 DUP1 MLOAD SWAP3 DUP4 MSTORE PUSH1 0x20 DUP4 ADD SWAP2 SWAP1 SWAP2 MSTORE ADD PUSH2 0x1F1 JUMP JUMPDEST PUSH2 0x22A PUSH2 0x225 CALLDATASIZE PUSH1 0x4 PUSH2 0xF43 JUMP JUMPDEST PUSH2 0x5B8 JUMP JUMPDEST STOP JUMPDEST PUSH2 0x22A PUSH2 0x65B JUMP JUMPDEST PUSH2 0x1E7 PUSH32 0x0 DUP2 JUMP JUMPDEST PUSH2 0x263 PUSH2 0x86E JUMP JUMPDEST PUSH1 0x40 DUP1 MLOAD SWAP4 ISZERO ISZERO DUP5 MSTORE PUSH1 0x20 DUP5 ADD SWAP3 SWAP1 SWAP3 MSTORE SWAP1 DUP3 ADD MSTORE PUSH1 0x60 ADD PUSH2 0x1F1 JUMP JUMPDEST PUSH2 0x22A PUSH2 0x91C JUMP JUMPDEST PUSH2 0x2AF PUSH32 0x0 DUP2 JUMP JUMPDEST PUSH1 0x40 MLOAD PUSH1 0x1 PUSH1 0x1 PUSH1 0xA0 SHL SUB SWAP1 SWAP2 AND DUP2 MSTORE PUSH1 0x20 ADD PUSH2 0x1F1 JUMP JUMPDEST PUSH2 0x1E7 PUSH4 0x38640900 DUP2 JUMP JUMPDEST PUSH2 0x22A PUSH2 0x92E JUMP JUMPDEST PUSH1 0x5 SLOAD PUSH2 0x2E7 SWAP1 PUSH1 0xFF AND DUP2 JUMP JUMPDEST PUSH1 0x40 MLOAD SWAP1 ISZERO ISZERO DUP2 MSTORE PUSH1 0x20 ADD PUSH2 0x1F1 JUMP JUMPDEST PUSH1 0x1 SLOAD PUSH1 0xFF AND PUSH2 0x2E7 JUMP JUMPDEST PUSH2 0x1E7 PUSH1 0x7 SLOAD DUP2 JUMP JUMPDEST PUSH2 0x1E7 PUSH1 0x4 SLOAD DUP2 JUMP JUMPDEST PUSH2 0x22A PUSH2 0x93E JUMP JUMPDEST PUSH2 0x1E7 PUSH1 0x6 SLOAD DUP2 JUMP JUMPDEST PUSH2 0x1E7 PUSH32 0x0 DUP2 JUMP JUMPDEST PUSH1 0x1 SLOAD PUSH2 0x100 SWAP1 DIV PUSH1 0x1 PUSH1 0x1 PUSH1 0xA0 SHL SUB AND PUSH2 0x2AF JUMP JUMPDEST PUSH2 0x22A PUSH2 0x950 JUMP JUMPDEST PUSH2 0x1E7 PUSH11 0xB07716E251A2480340000 DUP2 JUMP JUMPDEST PUSH2 0x384 PUSH2 0xC04 JUMP JUMPDEST PUSH1 0x40 DUP1 MLOAD SWAP5 DUP6 MSTORE PUSH1 0x20 DUP6 ADD SWAP4 SWAP1 SWAP4 MSTORE SWAP2 DUP4 ADD MSTORE PUSH1 0x60 DUP3 ADD MSTORE PUSH1 0x80 ADD PUSH2 0x1F1 JUMP JUMPDEST PUSH2 0x22A PUSH2 0xC5A JUMP JUMPDEST PUSH2 0x1E7 PUSH3 0x278D00 DUP2 JUMP JUMPDEST PUSH1 0x40 DUP1 MLOAD PUSH8 0x14ADF4B7320334B9 PUSH1 0x1C SHL DUP2 MSTORE PUSH11 0xB07716E251A2480340000 PUSH1 0x20 DUP3 ADD MSTORE PUSH10 0xEB4972B05D9EBCBC0000 SWAP2 DUP2 ADD SWAP2 SWAP1 SWAP2 MSTORE PUSH4 0x38640900 PUSH1 0x60 DUP3 ADD MSTORE PUSH32 0x0 PUSH1 0x80 DUP3 ADD MSTORE PUSH32 0x0 PUSH1 0xA0 DUP3 ADD MSTORE PUSH1 0xC0 ADD PUSH2 0x1F1 JUMP JUMPDEST PUSH2 0x1E7 PUSH10 0xEB4972B05D9EBCBC0000 DUP2 JUMP JUMPDEST PUSH2 0x1E7 PUSH8 0x14ADF4B7320334B9 PUSH1 0x1C SHL DUP2 JUMP JUMPDEST PUSH2 0x1E7 PUSH1 0x3 SLOAD DUP2 JUMP JUMPDEST PUSH2 0x1E7 PUSH1 0x2 SLOAD DUP2 JUMP JUMPDEST PUSH2 0x2AF PUSH32 0x0 DUP2 JUMP JUMPDEST PUSH2 0x22A PUSH2 0x4B3 CALLDATASIZE PUSH1 0x4 PUSH2 0xF43 JUMP JUMPDEST PUSH2 0xCB1 JUMP JUMPDEST PUSH1 0x0 PUSH32 0x0 TIMESTAMP LT DUP1 PUSH2 0x4F5 JUMPI POP PUSH8 0x14ADF4B7320334B9 PUSH1 0x1C SHL PUSH1 0x2 SLOAD LT ISZERO JUMPDEST ISZERO PUSH2 0x500 JUMPI POP PUSH1 0x0 SWAP1 JUMP JUMPDEST PUSH1 0x0 PUSH3 0x278D00 PUSH2 0x530 PUSH32 0x0 TIMESTAMP PUSH2 0xF89 JUMP JUMPDEST PUSH2 0x53A SWAP2 SWAP1 PUSH2 0xFA2 JUMP JUMPDEST SWAP1 POP PUSH1 0x0 PUSH10 0xEB4972B05D9EBCBC0000 PUSH2 0x554 DUP4 PUSH1 0x1 PUSH2 0xFC4 JUMP JUMPDEST PUSH2 0x55E SWAP2 SWAP1 PUSH2 0xFD7 JUMP JUMPDEST SWAP1 POP PUSH8 0x14ADF4B7320334B9 PUSH1 0x1C SHL DUP2 GT ISZERO PUSH2 0x581 JUMPI POP PUSH8 0x14ADF4B7320334B9 PUSH1 0x1C SHL JUMPDEST PUSH1 0x0 PUSH1 0x2 SLOAD DUP3 PUSH2 0x591 SWAP2 SWAP1 PUSH2 0xF89 JUMP JUMPDEST SWAP5 SWAP4 POP POP POP POP JUMP JUMPDEST PUSH2 0x168 PUSH1 0x0 PUSH2 0x5B2 PUSH10 0xEB4972B05D9EBCBC0000 DUP4 PUSH2 0xFD7 JUMP JUMPDEST SWAP1 POP SWAP1 SWAP2 JUMP JUMPDEST PUSH2 0x5C0 PUSH2 0xCEF JUMP JUMPDEST PUSH1 0x1 PUSH1 0x1 PUSH1 0xA0 SHL SUB DUP2 AND PUSH2 0x61B JUMPI PUSH1 0x40 MLOAD PUSH3 0x461BCD PUSH1 0xE5 SHL DUP2 MSTORE PUSH1 0x20 PUSH1 0x4 DUP3 ADD MSTORE PUSH1 0x1B PUSH1 0x24 DUP3 ADD MSTORE PUSH32 0x496E76616C6964206469737472696275746F7220616464726573730000000000 PUSH1 0x44 DUP3 ADD MSTORE PUSH1 0x64 ADD JUMPDEST PUSH1 0x40 MLOAD DUP1 SWAP2 SUB SWAP1 REVERT JUMPDEST PUSH1 0x40 MLOAD PUSH1 0x1 PUSH1 0x1 PUSH1 0xA0 SHL SUB DUP3 AND DUP2 MSTORE PUSH32 0x78588B5A307338706A1F30628473B89E474E8F59A0DEFABF46559921B967BDD9 SWAP1 PUSH1 0x20 ADD JUMPDEST PUSH1 0x40 MLOAD DUP1 SWAP2 SUB SWAP1 LOG1 POP JUMP JUMPDEST PUSH2 0x663 PUSH2 0xCEF JUMP JUMPDEST PUSH1 0x5 SLOAD PUSH1 0xFF AND PUSH2 0x6B5 JUMPI PUSH1 0x40 MLOAD PUSH3 0x461BCD PUSH1 0xE5 SHL DUP2 MSTORE PUSH1 0x20 PUSH1 0x4 DUP3 ADD MSTORE PUSH1 0x1E PUSH1 0x24 DUP3 ADD MSTORE PUSH32 0x456D657267656E6379207769746864726177206E6F7420656E61626C65640000 PUSH1 0x44 DUP3 ADD MSTORE PUSH1 0x64 ADD PUSH2 0x612 JUMP JUMPDEST PUSH1 0x6 SLOAD PUSH1 0x7 SLOAD PUSH2 0x6C5 SWAP2 SWAP1 PUSH2 0xFC4 JUMP JUMPDEST TIMESTAMP LT ISZERO PUSH2 0x714 JUMPI PUSH1 0x40 MLOAD PUSH3 0x461BCD PUSH1 0xE5 SHL DUP2 MSTORE PUSH1 0x20 PUSH1 0x4 DUP3 ADD DUP2 SWAP1 MSTORE PUSH1 0x24 DUP3 ADD MSTORE PUSH32 0x456D657267656E63792077697468647261772064656C6179206E6F74206D6574 PUSH1 0x44 DUP3 ADD MSTORE PUSH1 0x64 ADD PUSH2 0x612 JUMP JUMPDEST PUSH1 0x40 MLOAD PUSH4 0x70A08231 PUSH1 0xE0 SHL DUP2 MSTORE ADDRESS PUSH1 0x4 DUP3 ADD MSTORE PUSH1 0x0 SWAP1 PUSH32 0x0 PUSH1 0x1 PUSH1 0x1 PUSH1 0xA0 SHL SUB AND SWAP1 PUSH4 0x70A08231 SWAP1 PUSH1 0x24 ADD PUSH1 0x20 PUSH1 0x40 MLOAD DUP1 DUP4 SUB DUP2 DUP7 GAS STATICCALL ISZERO DUP1 ISZERO PUSH2 0x77B JUMPI RETURNDATASIZE PUSH1 0x0 DUP1 RETURNDATACOPY RETURNDATASIZE PUSH1 0x0 REVERT JUMPDEST POP POP POP POP PUSH1 0x40 MLOAD RETURNDATASIZE PUSH1 0x1F NOT PUSH1 0x1F DUP3 ADD AND DUP3 ADD DUP1 PUSH1 0x40 MSTORE POP DUP2 ADD SWAP1 PUSH2 0x79F SWAP2 SWAP1 PUSH2 0xFEE JUMP JUMPDEST SWAP1 POP PUSH1 0x0 DUP2 GT PUSH2 0x7E9 JUMPI PUSH1 0x40 MLOAD PUSH3 0x461BCD PUSH1 0xE5 SHL DUP2 MSTORE PUSH1 0x20 PUSH1 0x4 DUP3 ADD MSTORE PUSH1 0x15 PUSH1 0x24 DUP3 ADD MSTORE PUSH21 0x4E6F20746F6B656E7320746F207769746864726177 PUSH1 0x58 SHL PUSH1 0x44 DUP3 ADD MSTORE PUSH1 0x64 ADD PUSH2 0x612 JUMP JUMPDEST PUSH1 0x1 SLOAD PUSH2 0x82F SWAP1 PUSH2 0x100 SWAP1 DIV PUSH1 0x1 PUSH1 0x1 PUSH1 0xA0 SHL SUB AND PUSH1 0x1 PUSH1 0x1 PUSH1 0xA0 SHL SUB PUSH32 0x0 AND SWAP1 DUP4 PUSH2 0xD22 JUMP JUMPDEST PUSH1 0x5 DUP1 SLOAD PUSH1 0xFF NOT AND SWAP1 SSTORE PUSH1 0x40 DUP1 MLOAD DUP3 DUP2 MSTORE TIMESTAMP PUSH1 0x20 DUP3 ADD MSTORE PUSH32 0x6C7180F0AE61D4344D7D15BB00641184202A73B189564AEB59973C3534217832 SWAP2 ADD PUSH2 0x650 JUMP JUMPDEST PUSH1 0x0 DUP1 PUSH1 0x0 PUSH1 0x4 SLOAD TIMESTAMP LT ISZERO DUP1 ISZERO PUSH2 0x8A5 JUMPI POP PUSH32 0x0 TIMESTAMP LT ISZERO JUMPDEST DUP1 ISZERO PUSH2 0x8D1 JUMPI POP PUSH32 0x0 TIMESTAMP GT ISZERO JUMPDEST DUP1 ISZERO PUSH2 0x8E9 JUMPI POP PUSH8 0x14ADF4B7320334B9 PUSH1 0x1C SHL PUSH1 0x2 SLOAD LT JUMPDEST SWAP3 POP PUSH2 0x8F3 PUSH2 0x4B8 JUMP JUMPDEST SWAP2 POP PUSH1 0x4 SLOAD TIMESTAMP LT ISZERO PUSH2 0x914 JUMPI TIMESTAMP PUSH1 0x4 SLOAD PUSH2 0x90D SWAP2 SWAP1 PUSH2 0xF89 JUMP JUMPDEST SWAP1 POP SWAP1 SWAP2 SWAP3 JUMP JUMPDEST POP PUSH1 0x0 SWAP1 SWAP2 SWAP3 JUMP JUMPDEST PUSH2 0x924 PUSH2 0xCEF JUMP JUMPDEST PUSH2 0x92C PUSH2 0xD79 JUMP JUMPDEST JUMP JUMPDEST PUSH2 0x936 PUSH2 0xCEF JUMP JUMPDEST PUSH2 0x92C PUSH2 0xDC6 JUMP JUMPDEST PUSH2 0x946 PUSH2 0xCEF JUMP JUMPDEST PUSH2 0x92C PUSH1 0x0 PUSH2 0xE01 JUMP JUMPDEST PUSH2 0x958 PUSH2 0xE5B JUMP JUMPDEST PUSH2 0x960 PUSH2 0xE85 JUMP JUMPDEST PUSH1 0x4 SLOAD TIMESTAMP LT ISZERO PUSH2 0x9B2 JUMPI PUSH1 0x40 MLOAD PUSH3 0x461BCD PUSH1 0xE5 SHL DUP2 MSTORE PUSH1 0x20 PUSH1 0x4 DUP3 ADD MSTORE PUSH1 0x18 PUSH1 0x24 DUP3 ADD MSTORE PUSH32 0x52656C656173652074696D65206E6F7420726561636865640000000000000000 PUSH1 0x44 DUP3 ADD MSTORE PUSH1 0x64 ADD PUSH2 0x612 JUMP JUMPDEST PUSH32 0x0 TIMESTAMP LT ISZERO PUSH2 0xA22 JUMPI PUSH1 0x40 MLOAD PUSH3 0x461BCD PUSH1 0xE5 SHL DUP2 MSTORE PUSH1 0x20 PUSH1 0x4 DUP3 ADD MSTORE PUSH1 0x17 PUSH1 0x24 DUP3 ADD MSTORE PUSH32 0x4C6F636B20706572696F64206E6F742073746172746564000000000000000000 PUSH1 0x44 DUP3 ADD MSTORE PUSH1 0x64 ADD PUSH2 0x612 JUMP JUMPDEST PUSH32 0x0 TIMESTAMP GT ISZERO PUSH2 0xA86 JUMPI PUSH1 0x40 MLOAD PUSH3 0x461BCD PUSH1 0xE5 SHL DUP2 MSTORE PUSH1 0x20 PUSH1 0x4 DUP3 ADD MSTORE PUSH1 0x11 PUSH1 0x24 DUP3 ADD MSTORE PUSH17 0x131BD8DAC81C195C9A5BD908195B991959 PUSH1 0x7A SHL PUSH1 0x44 DUP3 ADD MSTORE PUSH1 0x64 ADD PUSH2 0x612 JUMP JUMPDEST PUSH8 0x14ADF4B7320334B9 PUSH1 0x1C SHL PUSH1 0x2 SLOAD LT PUSH2 0xAE2 JUMPI PUSH1 0x40 MLOAD PUSH3 0x461BCD PUSH1 0xE5 SHL DUP2 MSTORE PUSH1 0x20 PUSH1 0x4 DUP3 ADD MSTORE PUSH1 0x1B PUSH1 0x24 DUP3 ADD MSTORE PUSH32 0x416C6C20746F6B656E7320616C72656164792072656C65617365640000000000 PUSH1 0x44 DUP3 ADD MSTORE PUSH1 0x64 ADD PUSH2 0x612 JUMP JUMPDEST PUSH1 0x0 PUSH2 0xAEC PUSH2 0x4B8 JUMP JUMPDEST SWAP1 POP PUSH1 0x0 DUP2 GT PUSH2 0xB35 JUMPI PUSH1 0x40 MLOAD PUSH3 0x461BCD PUSH1 0xE5 SHL DUP2 MSTORE PUSH1 0x20 PUSH1 0x4 DUP3 ADD MSTORE PUSH1 0x14 PUSH1 0x24 DUP3 ADD MSTORE PUSH20 0x4E6F20746F6B656E7320746F2072656C65617365 PUSH1 0x60 SHL PUSH1 0x44 DUP3 ADD MSTORE PUSH1 0x64 ADD PUSH2 0x612 JUMP JUMPDEST DUP1 PUSH1 0x2 PUSH1 0x0 DUP3 DUP3 SLOAD PUSH2 0xB47 SWAP2 SWAP1 PUSH2 0xFC4 JUMP JUMPDEST SWAP1 SWAP2 SSTORE POP POP TIMESTAMP PUSH1 0x3 DUP2 SWAP1 SSTORE PUSH2 0xB60 SWAP1 PUSH3 0x278D00 SWAP1 PUSH2 0xFC4 JUMP JUMPDEST PUSH1 0x4 SSTORE PUSH2 0xBB7 PUSH1 0x1 PUSH1 0x1 PUSH1 0xA0 SHL SUB PUSH32 0x0 AND PUSH32 0x0 DUP4 PUSH2 0xD22 JUMP JUMPDEST PUSH1 0x2 SLOAD PUSH1 0x40 DUP1 MLOAD DUP4 DUP2 MSTORE TIMESTAMP PUSH1 0x20 DUP3 ADD MSTORE DUP1 DUP3 ADD SWAP3 SWAP1 SWAP3 MSTORE MLOAD PUSH32 0xEA91EC69D9AB5A214205BAD93781970DF8C1F8FA5321A97B10A6CBBE99C29D9C SWAP2 DUP2 SWAP1 SUB PUSH1 0x60 ADD SWAP1 LOG1 POP PUSH2 0x92C PUSH1 0x1 PUSH1 0x0 SSTORE JUMP JUMPDEST PUSH1 0x0 DUP1 PUSH1 0x0 DUP1 PUSH1 0x2 SLOAD PUSH8 0x14ADF4B7320334B9 PUSH1 0x1C SHL PUSH2 0xC23 SWAP2 SWAP1 PUSH2 0xF89 JUMP JUMPDEST PUSH1 0x2 SLOAD PUSH1 0x4 SLOAD SWAP2 SWAP6 POP SWAP4 POP SWAP2 POP PUSH8 0x14ADF4B7320334B9 PUSH1 0x1C SHL PUSH2 0xC48 DUP5 PUSH2 0x2710 PUSH2 0xFD7 JUMP JUMPDEST PUSH2 0xC52 SWAP2 SWAP1 PUSH2 0xFA2 JUMP JUMPDEST SWAP1 POP SWAP1 SWAP2 SWAP3 SWAP4 JUMP JUMPDEST PUSH2 0xC62 PUSH2 0xCEF JUMP JUMPDEST PUSH1 0x5 DUP1 SLOAD PUSH1 0xFF NOT AND PUSH1 0x1 OR SWAP1 SSTORE TIMESTAMP PUSH1 0x7 DUP2 SWAP1 SSTORE PUSH1 0x40 MLOAD PUSH32 0x6C51E0E9648746B65A27425FD08714243FF8799934A67EE370CDE94EB5E41503 SWAP2 PUSH2 0xCA7 SWAP2 SWAP1 DUP2 MSTORE PUSH1 0x20 ADD SWAP1 JUMP JUMPDEST PUSH1 0x40 MLOAD DUP1 SWAP2 SUB SWAP1 LOG1 JUMP JUMPDEST PUSH2 0xCB9 PUSH2 0xCEF JUMP JUMPDEST PUSH1 0x1 PUSH1 0x1 PUSH1 0xA0 SHL SUB DUP2 AND PUSH2 0xCE3 JUMPI PUSH1 0x40 MLOAD PUSH4 0x1E4FBDF7 PUSH1 0xE0 SHL DUP2 MSTORE PUSH1 0x0 PUSH1 0x4 DUP3 ADD MSTORE PUSH1 0x24 ADD PUSH2 0x612 JUMP JUMPDEST PUSH2 0xCEC DUP2 PUSH2 0xE01 JUMP JUMPDEST POP JUMP JUMPDEST PUSH1 0x1 SLOAD PUSH1 0x1 PUSH1 0x1 PUSH1 0xA0 SHL SUB PUSH2 0x100 SWAP1 SWAP2 DIV AND CALLER EQ PUSH2 0x92C JUMPI PUSH1 0x40 MLOAD PUSH4 0x118CDAA7 PUSH1 0xE0 SHL DUP2 MSTORE CALLER PUSH1 0x4 DUP3 ADD MSTORE PUSH1 0x24 ADD PUSH2 0x612 JUMP JUMPDEST PUSH1 0x40 DUP1 MLOAD PUSH1 0x1 PUSH1 0x1 PUSH1 0xA0 SHL SUB DUP5 AND PUSH1 0x24 DUP3 ADD MSTORE PUSH1 0x44 DUP1 DUP3 ADD DUP5 SWAP1 MSTORE DUP3 MLOAD DUP1 DUP4 SUB SWAP1 SWAP2 ADD DUP2 MSTORE PUSH1 0x64 SWAP1 SWAP2 ADD SWAP1 SWAP2 MSTORE PUSH1 0x20 DUP2 ADD DUP1 MLOAD PUSH1 0x1 PUSH1 0x1 PUSH1 0xE0 SHL SUB AND PUSH4 0xA9059CBB PUSH1 0xE0 SHL OR SWAP1 MSTORE PUSH2 0xD74 SWAP1 DUP5 SWAP1 PUSH2 0xEA9 JUMP JUMPDEST POP POP POP JUMP JUMPDEST PUSH2 0xD81 PUSH2 0xF20 JUMP JUMPDEST PUSH1 0x1 DUP1 SLOAD PUSH1 0xFF NOT AND SWAP1 SSTORE PUSH32 0x5DB9EE0A495BF2E6FF9C91A7834C1BA4FDD244A5E8AA4E537BD38AEAE4B073AA CALLER JUMPDEST PUSH1 0x40 MLOAD PUSH1 0x1 PUSH1 0x1 PUSH1 0xA0 SHL SUB SWAP1 SWAP2 AND DUP2 MSTORE PUSH1 0x20 ADD PUSH2 0xCA7 JUMP JUMPDEST PUSH2 0xDCE PUSH2 0xE85 JUMP JUMPDEST PUSH1 0x1 DUP1 SLOAD PUSH1 0xFF NOT AND DUP2 OR SWAP1 SSTORE PUSH32 0x62E78CEA01BEE320CD4E420270B5EA74000D11B0C9F74754EBDBFC544B05A258 CALLER PUSH2 0xDAE JUMP JUMPDEST PUSH1 0x1 DUP1 SLOAD PUSH1 0x1 PUSH1 0x1 PUSH1 0xA0 SHL SUB DUP4 DUP2 AND PUSH2 0x100 DUP2 DUP2 MUL PUSH2 0x100 PUSH1 0x1 PUSH1 0xA8 SHL SUB NOT DUP6 AND OR SWAP1 SWAP5 SSTORE PUSH1 0x40 MLOAD SWAP4 SWAP1 SWAP3 DIV AND SWAP2 DUP3 SWAP1 PUSH32 0x8BE0079C531659141344CD1FD0A4F28419497F9722A3DAAFE3B4186F6B6457E0 SWAP1 PUSH1 0x0 SWAP1 LOG3 POP POP JUMP JUMPDEST PUSH1 0x2 PUSH1 0x0 SLOAD SUB PUSH2 0xE7E JUMPI PUSH1 0x40 MLOAD PUSH4 0x3EE5AEB5 PUSH1 0xE0 SHL DUP2 MSTORE PUSH1 0x4 ADD PUSH1 0x40 MLOAD DUP1 SWAP2 SUB SWAP1 REVERT JUMPDEST PUSH1 0x2 PUSH1 0x0 SSTORE JUMP JUMPDEST PUSH1 0x1 SLOAD PUSH1 0xFF AND ISZERO PUSH2 0x92C JUMPI PUSH1 0x40 MLOAD PUSH4 0xD93C0665 PUSH1 0xE0 SHL DUP2 MSTORE PUSH1 0x4 ADD PUSH1 0x40 MLOAD DUP1 SWAP2 SUB SWAP1 REVERT JUMPDEST PUSH1 0x0 DUP1 PUSH1 0x20 PUSH1 0x0 DUP5 MLOAD PUSH1 0x20 DUP7 ADD PUSH1 0x0 DUP9 GAS CALL DUP1 PUSH2 0xECC JUMPI PUSH1 0x40 MLOAD RETURNDATASIZE PUSH1 0x0 DUP3 RETURNDATACOPY RETURNDATASIZE DUP2 REVERT JUMPDEST POP POP PUSH1 0x0 MLOAD RETURNDATASIZE SWAP2 POP DUP2 ISZERO PUSH2 0xEE4 JUMPI DUP1 PUSH1 0x1 EQ ISZERO PUSH2 0xEF1 JUMP JUMPDEST PUSH1 0x1 PUSH1 0x1 PUSH1 0xA0 SHL SUB DUP5 AND EXTCODESIZE ISZERO JUMPDEST ISZERO PUSH2 0xF1A JUMPI PUSH1 0x40 MLOAD PUSH4 0x5274AFE7 PUSH1 0xE0 SHL DUP2 MSTORE PUSH1 0x1 PUSH1 0x1 PUSH1 0xA0 SHL SUB DUP6 AND PUSH1 0x4 DUP3 ADD MSTORE PUSH1 0x24 ADD PUSH2 0x612 JUMP JUMPDEST POP POP POP POP JUMP JUMPDEST PUSH1 0x1 SLOAD PUSH1 0xFF AND PUSH2 0x92C JUMPI PUSH1 0x40 MLOAD PUSH4 0x8DFC202B PUSH1 0xE0 SHL DUP2 MSTORE PUSH1 0x4 ADD PUSH1 0x40 MLOAD DUP1 SWAP2 SUB SWAP1 REVERT JUMPDEST PUSH1 0x0 PUSH1 0x20 DUP3 DUP5 SUB SLT ISZERO PUSH2 0xF55 JUMPI PUSH1 0x0 DUP1 REVERT JUMPDEST DUP2 CALLDATALOAD PUSH1 0x1 PUSH1 0x1 PUSH1 0xA0 SHL SUB DUP2 AND DUP2 EQ PUSH2 0xF6C JUMPI PUSH1 0x0 DUP1 REVERT JUMPDEST SWAP4 SWAP3 POP POP POP JUMP JUMPDEST PUSH4 0x4E487B71 PUSH1 0xE0 SHL PUSH1 0x0 MSTORE PUSH1 0x11 PUSH1 0x4 MSTORE PUSH1 0x24 PUSH1 0x0 REVERT JUMPDEST DUP2 DUP2 SUB DUP2 DUP2 GT ISZERO PUSH2 0xF9C JUMPI PUSH2 0xF9C PUSH2 0xF73 JUMP JUMPDEST SWAP3 SWAP2 POP POP JUMP JUMPDEST PUSH1 0x0 DUP3 PUSH2 0xFBF JUMPI PUSH4 0x4E487B71 PUSH1 0xE0 SHL PUSH1 0x0 MSTORE PUSH1 0x12 PUSH1 0x4 MSTORE PUSH1 0x24 PUSH1 0x0 REVERT JUMPDEST POP DIV SWAP1 JUMP JUMPDEST DUP1 DUP3 ADD DUP1 DUP3 GT ISZERO PUSH2 0xF9C JUMPI PUSH2 0xF9C PUSH2 0xF73 JUMP JUMPDEST DUP1 DUP3 MUL DUP2 ISZERO DUP3 DUP3 DIV DUP5 EQ OR PUSH2 0xF9C JUMPI PUSH2 0xF9C PUSH2 0xF73 JUMP JUMPDEST PUSH1 0x0 PUSH1 0x20 DUP3 DUP5 SUB SLT ISZERO PUSH2 0x1000 JUMPI PUSH1 0x0 DUP1 REVERT JUMPDEST POP MLOAD SWAP2 SWAP1 POP JUMP INVALID LOG2 PUSH5 0x6970667358 0x22 SLT KECCAK256 SMOD MSTORE GASLIMIT JUMP DELEGATECALL 0xB6 0xAD 0xDA 0x49 0xA7 PUSH15 0xFED058D62FA4A47E584616CD3B9746 0xEC DIV CALLER EXTCODESIZE 0xCD 0xE2 PUSH5 0x736F6C6343 STOP ADDMOD EQ STOP CALLER "},"methodIdentifiers":{"ANNUAL_RELEASE_AMOUNT()":"b3ba5b51","LOCK_DURATION()":"485d3834","MONTHLY_RELEASE_AMOUNT()":"dd7d4e07","RELEASE_INTERVAL()":"cde5f58f","TOTAL_LOCKED_AMOUNT()":"de7489e5","bakToken()":"f1218db0","calculateReleaseAmount()":"09f24524","checkReleaseStatus()":"340349d2","emergencyPause()":"51858e27","emergencyWithdrawDelay()":"72070b81","emergencyWithdrawEnabled()":"5747e69f","emergencyWithdrawRequestTime()":"646e945b","endTime()":"3197cbb6","executeEmergencyWithdraw()":"2a8821cc","getContractStatus()":"c032846b","getLockParameters()":"d9469d13","getProjectedReleases()":"0af3b59a","lastReleaseTime()":"dfaf734a","nextReleaseTime()":"6d6a4889","owner()":"8da5cb5b","paused()":"5c975abb","releaseTokens()":"a96f8668","renounceOwnership()":"715018a6","requestEmergencyWithdraw()":"c28f7c3b","startTime()":"78e97925","totalReleased()":"e33b7de3","transferOwnership(address)":"f2fde38b","unpause()":"3f4ba83a","updateValidatorRewardDistributor(address)":"1aebc293","validatorRewardDistributor()":"427b9974"}}}}}