{
  "_format": "hh-sol-artifact-1",
  "contractName": "BrainArkEPO",
  "sourceName": "contracts/BrainArkEPO.sol",
  "abi": [
    {
      "inputs": [
        {
          "internalType": "address",
          "name": "_fundingWallet",
          "type": "address"
        },
        {
          "internalType": "address",
          "name": "_ethWallet",
          "type": "address"
        },
        {
          "internalType": "address",
          "name": "_usdtWallet",
          "type": "address"
        },
        {
          "internalType": "address",
          "name": "_usdcWallet",
          "type": "address"
        },
        {
          "internalType": "address",
          "name": "_bnbWallet",
          "type": "address"
        },
        {
          "internalType": "address",
          "name": "_defaultWallet",
          "type": "address"
        }
      ],
      "stateMutability": "nonpayable",
      "type": "constructor"
    },
    {
      "anonymous": false,
      "inputs": [
        {
          "indexed": true,
          "internalType": "address",
          "name": "token",
          "type": "address"
        },
        {
          "indexed": false,
          "internalType": "uint256",
          "name": "amount",
          "type": "uint256"
        },
        {
          "indexed": true,
          "internalType": "address",
          "name": "to",
          "type": "address"
        },
        {
          "indexed": false,
          "internalType": "uint256",
          "name": "timestamp",
          "type": "uint256"
        }
      ],
      "name": "FundsWithdrawn",
      "type": "event"
    },
    {
      "anonymous": false,
      "inputs": [
        {
          "indexed": true,
          "internalType": "address",
          "name": "previousOwner",
          "type": "address"
        },
        {
          "indexed": true,
          "internalType": "address",
          "name": "newOwner",
          "type": "address"
        }
      ],
      "name": "OwnershipTransferred",
      "type": "event"
    },
    {
      "anonymous": false,
      "inputs": [
        {
          "indexed": false,
          "internalType": "address",
          "name": "account",
          "type": "address"
        }
      ],
      "name": "Paused",
      "type": "event"
    },
    {
      "anonymous": false,
      "inputs": [
        {
          "indexed": true,
          "internalType": "address",
          "name": "token",
          "type": "address"
        },
        {
          "indexed": false,
          "internalType": "bool",
          "name": "enabled",
          "type": "bool"
        },
        {
          "indexed": false,
          "internalType": "uint256",
          "name": "priceUSD",
          "type": "uint256"
        },
        {
          "indexed": false,
          "internalType": "uint256",
          "name": "timestamp",
          "type": "uint256"
        }
      ],
      "name": "PaymentTokenUpdated",
      "type": "event"
    },
    {
      "anonymous": false,
      "inputs": [
        {
          "indexed": false,
          "internalType": "uint256",
          "name": "newPriceUSD",
          "type": "uint256"
        },
        {
          "indexed": false,
          "internalType": "uint256",
          "name": "timestamp",
          "type": "uint256"
        }
      ],
      "name": "PriceUpdated",
      "type": "event"
    },
    {
      "anonymous": false,
      "inputs": [
        {
          "indexed": true,
          "internalType": "address",
          "name": "buyer",
          "type": "address"
        },
        {
          "indexed": true,
          "internalType": "address",
          "name": "paymentToken",
          "type": "address"
        },
        {
          "indexed": false,
          "internalType": "uint256",
          "name": "paymentAmount",
          "type": "uint256"
        },
        {
          "indexed": false,
          "internalType": "uint256",
          "name": "bakAmount",
          "type": "uint256"
        },
        {
          "indexed": false,
          "internalType": "uint256",
          "name": "usdValue",
          "type": "uint256"
        },
        {
          "indexed": false,
          "internalType": "address",
          "name": "treasuryWallet",
          "type": "address"
        },
        {
          "indexed": false,
          "internalType": "uint256",
          "name": "timestamp",
          "type": "uint256"
        }
      ],
      "name": "TokenPurchase",
      "type": "event"
    },
    {
      "anonymous": false,
      "inputs": [
        {
          "indexed": true,
          "internalType": "address",
          "name": "token",
          "type": "address"
        },
        {
          "indexed": true,
          "internalType": "address",
          "name": "oldWallet",
          "type": "address"
        },
        {
          "indexed": true,
          "internalType": "address",
          "name": "newWallet",
          "type": "address"
        },
        {
          "indexed": false,
          "internalType": "uint256",
          "name": "timestamp",
          "type": "uint256"
        }
      ],
      "name": "TreasuryWalletUpdated",
      "type": "event"
    },
    {
      "anonymous": false,
      "inputs": [
        {
          "indexed": false,
          "internalType": "address",
          "name": "account",
          "type": "address"
        }
      ],
      "name": "Unpaused",
      "type": "event"
    },
    {
      "inputs": [],
      "name": "BAK_PRICE_USD",
      "outputs": [
        {
          "internalType": "uint256",
          "name": "",
          "type": "uint256"
        }
      ],
      "stateMutability": "view",
      "type": "function"
    },
    {
      "inputs": [],
      "name": "TOTAL_BAK_SUPPLY",
      "outputs": [
        {
          "internalType": "uint256",
          "name": "",
          "type": "uint256"
        }
      ],
      "stateMutability": "view",
      "type": "function"
    },
    {
      "inputs": [],
      "name": "USD_DECIMALS",
      "outputs": [
        {
          "internalType": "uint256",
          "name": "",
          "type": "uint256"
        }
      ],
      "stateMutability": "view",
      "type": "function"
    },
    {
      "inputs": [
        {
          "internalType": "uint256",
          "name": "",
          "type": "uint256"
        }
      ],
      "name": "allPurchases",
      "outputs": [
        {
          "internalType": "address",
          "name": "buyer",
          "type": "address"
        },
        {
          "internalType": "address",
          "name": "paymentToken",
          "type": "address"
        },
        {
          "internalType": "uint256",
          "name": "paymentAmount",
          "type": "uint256"
        },
        {
          "internalType": "uint256",
          "name": "bakAmount",
          "type": "uint256"
        },
        {
          "internalType": "uint256",
          "name": "usdValue",
          "type": "uint256"
        },
        {
          "internalType": "uint256",
          "name": "timestamp",
          "type": "uint256"
        }
      ],
      "stateMutability": "view",
      "type": "function"
    },
    {
      "inputs": [
        {
          "internalType": "address",
          "name": "paymentToken",
          "type": "address"
        },
        {
          "internalType": "uint256",
          "name": "paymentAmount",
          "type": "uint256"
        }
      ],
      "name": "calculatePurchase",
      "outputs": [
        {
          "internalType": "uint256",
          "name": "usdValue",
          "type": "uint256"
        },
        {
          "internalType": "uint256",
          "name": "bakAmount",
          "type": "uint256"
        }
      ],
      "stateMutability": "view",
      "type": "function"
    },
    {
      "inputs": [
        {
          "internalType": "address",
          "name": "token",
          "type": "address"
        },
        {
          "internalType": "uint256",
          "name": "amount",
          "type": "uint256"
        },
        {
          "internalType": "address",
          "name": "to",
          "type": "address"
        }
      ],
      "name": "emergencyWithdraw",
      "outputs": [],
      "stateMutability": "nonpayable",
      "type": "function"
    },
    {
      "inputs": [],
      "name": "fundingWallet",
      "outputs": [
        {
          "internalType": "address",
          "name": "",
          "type": "address"
        }
      ],
      "stateMutability": "view",
      "type": "function"
    },
    {
      "inputs": [
        {
          "internalType": "uint256",
          "name": "offset",
          "type": "uint256"
        },
        {
          "internalType": "uint256",
          "name": "limit",
          "type": "uint256"
        }
      ],
      "name": "getAllPurchases",
      "outputs": [
        {
          "components": [
            {
              "internalType": "address",
              "name": "buyer",
              "type": "address"
            },
            {
              "internalType": "address",
              "name": "paymentToken",
              "type": "address"
            },
            {
              "internalType": "uint256",
              "name": "paymentAmount",
              "type": "uint256"
            },
            {
              "internalType": "uint256",
              "name": "bakAmount",
              "type": "uint256"
            },
            {
              "internalType": "uint256",
              "name": "usdValue",
              "type": "uint256"
            },
            {
              "internalType": "uint256",
              "name": "timestamp",
              "type": "uint256"
            }
          ],
          "internalType": "struct BrainArkEPO.PurchaseInfo[]",
          "name": "",
          "type": "tuple[]"
        }
      ],
      "stateMutability": "view",
      "type": "function"
    },
    {
      "inputs": [],
      "name": "getEPOStats",
      "outputs": [
        {
          "components": [
            {
              "internalType": "uint256",
              "name": "totalBakSold",
              "type": "uint256"
            },
            {
              "internalType": "uint256",
              "name": "totalUSDRaised",
              "type": "uint256"
            },
            {
              "internalType": "uint256",
              "name": "totalPurchases",
              "type": "uint256"
            },
            {
              "internalType": "uint256",
              "name": "remainingSupply",
              "type": "uint256"
            },
            {
              "internalType": "uint256",
              "name": "bakPriceUSD",
              "type": "uint256"
            },
            {
              "internalType": "bool",
              "name": "isActive",
              "type": "bool"
            }
          ],
          "internalType": "struct BrainArkEPO.EPOStats",
          "name": "",
          "type": "tuple"
        }
      ],
      "stateMutability": "view",
      "type": "function"
    },
    {
      "inputs": [
        {
          "internalType": "address",
          "name": "paymentToken",
          "type": "address"
        },
        {
          "internalType": "uint256",
          "name": "paymentAmount",
          "type": "uint256"
        }
      ],
      "name": "getQuote",
      "outputs": [
        {
          "internalType": "uint256",
          "name": "bakAmount",
          "type": "uint256"
        },
        {
          "internalType": "uint256",
          "name": "usdValue",
          "type": "uint256"
        },
        {
          "internalType": "uint256",
          "name": "effectivePrice",
          "type": "uint256"
        }
      ],
      "stateMutability": "view",
      "type": "function"
    },
    {
      "inputs": [],
      "name": "getSupportedTokens",
      "outputs": [
        {
          "internalType": "address[]",
          "name": "",
          "type": "address[]"
        }
      ],
      "stateMutability": "view",
      "type": "function"
    },
    {
      "inputs": [
        {
          "internalType": "address",
          "name": "paymentToken",
          "type": "address"
        }
      ],
      "name": "getTreasuryWallet",
      "outputs": [
        {
          "internalType": "address",
          "name": "",
          "type": "address"
        }
      ],
      "stateMutability": "view",
      "type": "function"
    },
    {
      "inputs": [
        {
          "internalType": "address",
          "name": "user",
          "type": "address"
        }
      ],
      "name": "getUserPurchaseHistory",
      "outputs": [
        {
          "components": [
            {
              "internalType": "address",
              "name": "buyer",
              "type": "address"
            },
            {
              "internalType": "address",
              "name": "paymentToken",
              "type": "address"
            },
            {
              "internalType": "uint256",
              "name": "paymentAmount",
              "type": "uint256"
            },
            {
              "internalType": "uint256",
              "name": "bakAmount",
              "type": "uint256"
            },
            {
              "internalType": "uint256",
              "name": "usdValue",
              "type": "uint256"
            },
            {
              "internalType": "uint256",
              "name": "timestamp",
              "type": "uint256"
            }
          ],
          "internalType": "struct BrainArkEPO.PurchaseInfo[]",
          "name": "",
          "type": "tuple[]"
        }
      ],
      "stateMutability": "view",
      "type": "function"
    },
    {
      "inputs": [],
      "name": "getWalletConfig",
      "outputs": [
        {
          "components": [
            {
              "internalType": "address",
              "name": "ethWallet",
              "type": "address"
            },
            {
              "internalType": "address",
              "name": "usdtWallet",
              "type": "address"
            },
            {
              "internalType": "address",
              "name": "usdcWallet",
              "type": "address"
            },
            {
              "internalType": "address",
              "name": "bnbWallet",
              "type": "address"
            },
            {
              "internalType": "address",
              "name": "defaultWallet",
              "type": "address"
            }
          ],
          "internalType": "struct BrainArkEPO.WalletConfig",
          "name": "",
          "type": "tuple"
        }
      ],
      "stateMutability": "view",
      "type": "function"
    },
    {
      "inputs": [],
      "name": "owner",
      "outputs": [
        {
          "internalType": "address",
          "name": "",
          "type": "address"
        }
      ],
      "stateMutability": "view",
      "type": "function"
    },
    {
      "inputs": [],
      "name": "pause",
      "outputs": [],
      "stateMutability": "nonpayable",
      "type": "function"
    },
    {
      "inputs": [],
      "name": "paused",
      "outputs": [
        {
          "internalType": "bool",
          "name": "",
          "type": "bool"
        }
      ],
      "stateMutability": "view",
      "type": "function"
    },
    {
      "inputs": [
        {
          "internalType": "uint256",
          "name": "",
          "type": "uint256"
        }
      ],
      "name": "paymentTokenList",
      "outputs": [
        {
          "internalType": "address",
          "name": "",
          "type": "address"
        }
      ],
      "stateMutability": "view",
      "type": "function"
    },
    {
      "inputs": [
        {
          "internalType": "address",
          "name": "",
          "type": "address"
        }
      ],
      "name": "paymentTokens",
      "outputs": [
        {
          "internalType": "bool",
          "name": "enabled",
          "type": "bool"
        },
        {
          "internalType": "uint8",
          "name": "decimals",
          "type": "uint8"
        },
        {
          "internalType": "uint256",
          "name": "priceUSD",
          "type": "uint256"
        },
        {
          "internalType": "uint256",
          "name": "minPurchaseUSD",
          "type": "uint256"
        },
        {
          "internalType": "uint256",
          "name": "maxPurchaseUSD",
          "type": "uint256"
        },
        {
          "internalType": "string",
          "name": "symbol",
          "type": "string"
        },
        {
          "internalType": "address",
          "name": "treasuryWallet",
          "type": "address"
        }
      ],
      "stateMutability": "view",
      "type": "function"
    },
    {
      "inputs": [
        {
          "internalType": "address",
          "name": "paymentToken",
          "type": "address"
        },
        {
          "internalType": "uint256",
          "name": "paymentAmount",
          "type": "uint256"
        },
        {
          "internalType": "uint256",
          "name": "minBakAmount",
          "type": "uint256"
        }
      ],
      "name": "purchaseBAK",
      "outputs": [],
      "stateMutability": "payable",
      "type": "function"
    },
    {
      "inputs": [],
      "name": "renounceOwnership",
      "outputs": [],
      "stateMutability": "nonpayable",
      "type": "function"
    },
    {
      "inputs": [],
      "name": "totalBakSold",
      "outputs": [
        {
          "internalType": "uint256",
          "name": "",
          "type": "uint256"
        }
      ],
      "stateMutability": "view",
      "type": "function"
    },
    {
      "inputs": [],
      "name": "totalUSDRaised",
      "outputs": [
        {
          "internalType": "uint256",
          "name": "",
          "type": "uint256"
        }
      ],
      "stateMutability": "view",
      "type": "function"
    },
    {
      "inputs": [
        {
          "internalType": "address",
          "name": "newOwner",
          "type": "address"
        }
      ],
      "name": "transferOwnership",
      "outputs": [],
      "stateMutability": "nonpayable",
      "type": "function"
    },
    {
      "inputs": [],
      "name": "unpause",
      "outputs": [],
      "stateMutability": "nonpayable",
      "type": "function"
    },
    {
      "inputs": [
        {
          "internalType": "address",
          "name": "token",
          "type": "address"
        },
        {
          "internalType": "bool",
          "name": "enabled",
          "type": "bool"
        },
        {
          "internalType": "uint8",
          "name": "decimals",
          "type": "uint8"
        },
        {
          "internalType": "uint256",
          "name": "priceUSD",
          "type": "uint256"
        },
        {
          "internalType": "uint256",
          "name": "minPurchaseUSD",
          "type": "uint256"
        },
        {
          "internalType": "uint256",
          "name": "maxPurchaseUSD",
          "type": "uint256"
        },
        {
          "internalType": "string",
          "name": "symbol",
          "type": "string"
        },
        {
          "internalType": "address",
          "name": "treasuryWallet",
          "type": "address"
        }
      ],
      "name": "updatePaymentToken",
      "outputs": [],
      "stateMutability": "nonpayable",
      "type": "function"
    },
    {
      "inputs": [
        {
          "internalType": "address",
          "name": "token",
          "type": "address"
        },
        {
          "internalType": "uint256",
          "name": "priceUSD",
          "type": "uint256"
        }
      ],
      "name": "updateTokenPrice",
      "outputs": [],
      "stateMutability": "nonpayable",
      "type": "function"
    },
    {
      "inputs": [
        {
          "internalType": "address",
          "name": "token",
          "type": "address"
        },
        {
          "internalType": "address",
          "name": "newWallet",
          "type": "address"
        }
      ],
      "name": "updateTokenTreasuryWallet",
      "outputs": [],
      "stateMutability": "nonpayable",
      "type": "function"
    },
    {
      "inputs": [
        {
          "internalType": "address",
          "name": "_ethWallet",
          "type": "address"
        },
        {
          "internalType": "address",
          "name": "_usdtWallet",
          "type": "address"
        },
        {
          "internalType": "address",
          "name": "_usdcWallet",
          "type": "address"
        },
        {
          "internalType": "address",
          "name": "_bnbWallet",
          "type": "address"
        },
        {
          "internalType": "address",
          "name": "_defaultWallet",
          "type": "address"
        }
      ],
      "name": "updateWalletConfig",
      "outputs": [],
      "stateMutability": "nonpayable",
      "type": "function"
    },
    {
      "inputs": [
        {
          "internalType": "address",
          "name": "",
          "type": "address"
        },
        {
          "internalType": "uint256",
          "name": "",
          "type": "uint256"
        }
      ],
      "name": "userPurchaseHistory",
      "outputs": [
        {
          "internalType": "address",
          "name": "buyer",
          "type": "address"
        },
        {
          "internalType": "address",
          "name": "paymentToken",
          "type": "address"
        },
        {
          "internalType": "uint256",
          "name": "paymentAmount",
          "type": "uint256"
        },
        {
          "internalType": "uint256",
          "name": "bakAmount",
          "type": "uint256"
        },
        {
          "internalType": "uint256",
          "name": "usdValue",
          "type": "uint256"
        },
        {
          "internalType": "uint256",
          "name": "timestamp",
          "type": "uint256"
        }
      ],
      "stateMutability": "view",
      "type": "function"
    },
    {
      "inputs": [
        {
          "internalType": "address",
          "name": "",
          "type": "address"
        }
      ],
      "name": "userPurchases",
      "outputs": [
        {
          "internalType": "uint256",
          "name": "",
          "type": "uint256"
        }
      ],
      "stateMutability": "view",
      "type": "function"
    },
    {
      "inputs": [],
      "name": "walletConfig",
      "outputs": [
        {
          "internalType": "address",
          "name": "ethWallet",
          "type": "address"
        },
        {
          "internalType": "address",
          "name": "usdtWallet",
          "type": "address"
        },
        {
          "internalType": "address",
          "name": "usdcWallet",
          "type": "address"
        },
        {
          "internalType": "address",
          "name": "bnbWallet",
          "type": "address"
        },
        {
          "internalType": "address",
          "name": "defaultWallet",
          "type": "address"
        }
      ],
      "stateMutability": "view",
      "type": "function"
    },
    {
      "stateMutability": "payable",
      "type": "receive"
    }
  ],
  "bytecode": "0x60a06040523480156200001157600080fd5b50604051620031bf380380620031bf8339810160408190526200003491620002c1565b6001600055620000443362000252565b6001805460ff60a01b191690556001600160a01b038616620000ad5760405162461bcd60e51b815260206004820152601660248201527f496e76616c69642066756e64696e672077616c6c65740000000000000000000060448201526064015b60405180910390fd5b6001600160a01b038116620001055760405162461bcd60e51b815260206004820152601660248201527f496e76616c69642064656661756c742077616c6c6574000000000000000000006044820152606401620000a4565b6001600160a01b038087166080526040805160a0810190915290819087166200012f578262000131565b865b6001600160a01b0316815260200160006001600160a01b0316866001600160a01b03160362000161578262000163565b855b6001600160a01b0316815260200160006001600160a01b0316856001600160a01b03160362000193578262000195565b845b6001600160a01b0316815260200160006001600160a01b0316846001600160a01b031603620001c55782620001c7565b835b6001600160a01b0390811682529283166020918201528151600980549185166001600160a01b031992831617905590820151600a80549185169183169190911790556040820151600b80549185169183169190911790556060820151600c8054918516918316919091179055608090910151600d805491909316911617905550620003429350505050565b600180546001600160a01b038381166001600160a01b0319831681179093556040519116919082907f8be0079c531659141344cd1fd0a4f28419497f9722a3daafe3b4186f6b6457e090600090a35050565b80516001600160a01b0381168114620002bc57600080fd5b919050565b60008060008060008060c08789031215620002db57600080fd5b620002e687620002a4565b9550620002f660208801620002a4565b94506200030660408801620002a4565b93506200031660608801620002a4565b92506200032660808801620002a4565b91506200033660a08801620002a4565b90509295509295509295565b608051612e616200035e60003960006102e30152612e616000f3fe6080604052600436106101e75760003560e01c80638456cb5911610102578063c3b88b4211610095578063d4ee651b11610064578063d4ee651b14610749578063dea9ae0614610769578063eed3e09714610789578063f2fde38b146107a957600080fd5b8063c3b88b4214610661578063cbb110dc14610694578063d34ddc05146106b4578063d3c7c2c71461072757600080fd5b80639c93ef96116100d15780639c93ef96146104e1578063ac6c93d7146105b4578063aca06ab21461060c578063b5a275441461062c57600080fd5b80638456cb591461047857806385cbc8811461048d57806386f41ba0146104a35780638da5cb5b146104c357600080fd5b80634cbe933b1161017a578063715018a611610149578063715018a6146103ff578063789701e8146104145780637a07e8b61461042a57806382c0ab211461043d57600080fd5b80634cbe933b146103325780634fb4eff114610352578063551512de146103b55780635c975abb146103d557600080fd5b806335c38d1e116101b657806335c38d1e1461027757806339f65c09146102a45780633c4b40b8146102d15780633f4ba83a1461031d57600080fd5b80630196d7be146101f3578063096402cb146102155780631f597b6e146102475780632f6ee6951461026257600080fd5b366101ee57005b600080fd5b3480156101ff57600080fd5b5061021361020e3660046126c0565b6107c9565b005b34801561022157600080fd5b506102346a52b7d2dcc80cd2e400000081565b6040519081526020015b60405180910390f35b34801561025357600080fd5b5061023466470de4df82000081565b34801561026e57600080fd5b50610234601281565b34801561028357600080fd5b506102976102923660046126f3565b6108fd565b60405161023e9190612715565b3480156102b057600080fd5b506102346102bf3660046126f3565b60046020526000908152604090205481565b3480156102dd57600080fd5b506103057f000000000000000000000000000000000000000000000000000000000000000081565b6040516001600160a01b03909116815260200161023e565b34801561032957600080fd5b506102136109b6565b34801561033e57600080fd5b5061021361034d3660046127bd565b6109c8565b34801561035e57600080fd5b50610367610c27565b60405161023e9190600060c082019050825182526020830151602083015260408301516040830152606083015160608301526080830151608083015260a0830151151560a083015292915050565b3480156103c157600080fd5b506102136103d03660046128d8565b610ccf565b3480156103e157600080fd5b50600154600160a01b900460ff16604051901515815260200161023e565b34801561040b57600080fd5b50610213610e1c565b34801561042057600080fd5b5061023460075481565b610213610438366004612914565b610e2e565b34801561044957600080fd5b5061045d610458366004612947565b6114e7565b6040805193845260208401929092529082015260600161023e565b34801561048457600080fd5b5061021361150a565b34801561049957600080fd5b5061023460085481565b3480156104af57600080fd5b506102136104be366004612971565b61151a565b3480156104cf57600080fd5b506001546001600160a01b0316610305565b3480156104ed57600080fd5b506105656040805160a081018252600080825260208201819052918101829052606081018290526080810191909152506040805160a0810182526009546001600160a01b039081168252600a5481166020830152600b54811692820192909252600c5482166060820152600d54909116608082015290565b60405161023e919081516001600160a01b039081168252602080840151821690830152604080840151821690830152606080840151821690830152608092830151169181019190915260a00190565b3480156105c057600080fd5b506105d46105cf3660046129d6565b6116a8565b604080516001600160a01b039788168152969095166020870152938501929092526060840152608083015260a082015260c00161023e565b34801561061857600080fd5b506103056106273660046129d6565b6116fb565b34801561063857600080fd5b5061064c610647366004612947565b611725565b6040805192835260208301919091520161023e565b34801561066d57600080fd5b5061068161067c3660046126f3565b6118f3565b60405161023e9796959493929190612a3f565b3480156106a057600080fd5b506103056106af3660046126f3565b6119c5565b3480156106c057600080fd5b50600954600a54600b54600c54600d546106ed946001600160a01b03908116948116938116928116911685565b604080516001600160a01b03968716815294861660208601529285169284019290925283166060830152909116608082015260a00161023e565b34801561073357600080fd5b5061073c611bdd565b60405161023e9190612a91565b34801561075557600080fd5b50610213610764366004612947565b611c3f565b34801561077557600080fd5b50610297610784366004612ade565b611d49565b34801561079557600080fd5b506105d46107a4366004612947565b611f17565b3480156107b557600080fd5b506102136107c43660046126f3565b611f77565b6107d1611ff0565b6001600160a01b03821660009081526002602052604090205460ff166108355760405162461bcd60e51b8152602060048201526014602482015273151bdad95b881b9bdd0818dbdb999a59dd5c995960621b60448201526064015b60405180910390fd5b6001600160a01b0381166108845760405162461bcd60e51b8152602060048201526016602482015275496e76616c69642077616c6c6574206164647265737360501b604482015260640161082c565b6001600160a01b038083166000818152600260205260409081902060050180548585166001600160a01b031982168117909255915191909316929183917fe365fb3e4153c998edc136383d4bb88b2f55b895e62c68cea280ba28b2a36fb4906108f09042815260200190565b60405180910390a4505050565b6001600160a01b0381166000908152600560209081526040808320805482518185028101850190935280835260609492939192909184015b828210156109ab5760008481526020908190206040805160c0810182526006860290920180546001600160a01b0390811684526001808301549091168486015260028201549284019290925260038101546060840152600481015460808401526005015460a08301529083529092019101610935565b505050509050919050565b6109be611ff0565b6109c661204a565b565b6109d0611ff0565b60008511610a105760405162461bcd60e51b815260206004820152600d60248201526c496e76616c696420707269636560981b604482015260640161082c565b838311610a5f5760405162461bcd60e51b815260206004820152601760248201527f496e76616c6964207075726368617365206c696d697473000000000000000000604482015260640161082c565b6001600160a01b03881660009081526002602052604090205460ff16158015610a855750865b15610ad657600380546001810182556000919091527fc2575a0e9e593c00f959f8c92f12db2869c3395a3b0502d05e2516446f71f85b0180546001600160a01b0319166001600160a01b038a161790555b6040518060e0016040528088151581526020018760ff168152602001868152602001858152602001848152602001838152602001826001600160a01b0316815250600260008a6001600160a01b03166001600160a01b0316815260200190815260200160002060008201518160000160006101000a81548160ff02191690831515021790555060208201518160000160016101000a81548160ff021916908360ff16021790555060408201518160010155606082015181600201556080820151816003015560a0820151816004019081610bb09190612b88565b5060c09190910151600590910180546001600160a01b0319166001600160a01b039283161790556040805189151581526020810188905242818301529051918a16917fdb8ce90d26eb0f2c05e210f29bd0a57d60f404f3f8022cee68265ea6e8ca3835916060908290030190a25050505050505050565b610c626040518060c0016040528060008152602001600081526020016000815260200160008152602001600081526020016000151581525090565b6040518060c001604052806007548152602001600854815260200160068054905081526020016007546a52b7d2dcc80cd2e4000000610ca19190612c5e565b815260200166470de4df8200008152602001610cc760015460ff600160a01b9091041690565b159052919050565b610cd7611ff0565b6001600160a01b038116610d215760405162461bcd60e51b8152602060048201526011602482015270125b9d985b1a59081c9958da5c1a595b9d607a1b604482015260640161082c565b6001600160a01b038316610dbb5747821115610d7f5760405162461bcd60e51b815260206004820152601860248201527f496e73756666696369656e74204554482062616c616e63650000000000000000604482015260640161082c565b6040516001600160a01b0382169083156108fc029084906000818181858888f19350505050158015610db5573d6000803e3d6000fd5b50610dcf565b610dcf6001600160a01b038416828461209f565b604080518381524260208201526001600160a01b0380841692908616917f81b7e06bddc0f5d18bd1f59d65064c763750eca9aed3ca08795fe5bfffcc9eb6910160405180910390a3505050565b610e24611ff0565b6109c66000612102565b610e36612154565b610e3e6121ad565b6001600160a01b03831660009081526002602052604090205460ff16610ea65760405162461bcd60e51b815260206004820152601b60248201527f5061796d656e7420746f6b656e206e6f7420737570706f727465640000000000604482015260640161082c565b60008211610f045760405162461bcd60e51b815260206004820152602560248201527f5061796d656e7420616d6f756e74206d75737420626520677265617465722074604482015264068616e20360dc1b606482015260840161082c565b6001600160a01b0383166000908152600260208181526040808420815160e081018352815460ff8082161515835261010090910416938101939093526001810154918301919091529182015460608201526003820154608082015260048201805491929160a084019190610f7790612b00565b80601f0160208091040260200160405190810160405280929190818152602001828054610fa390612b00565b8015610ff05780601f10610fc557610100808354040283529160200191610ff0565b820191906000526020600020905b815481529060010190602001808311610fd357829003601f168201915b5050509183525050600591909101546001600160a01b0316602090910152905060008061101d8686611725565b9150915082606001518210156110755760405162461bcd60e51b815260206004820152601d60248201527f42656c6f77206d696e696d756d20707572636861736520616d6f756e74000000604482015260640161082c565b82608001518211156110c95760405162461bcd60e51b815260206004820152601d60248201527f41626f7665206d6178696d756d20707572636861736520616d6f756e74000000604482015260640161082c565b838110156111195760405162461bcd60e51b815260206004820152601b60248201527f536c69707061676520746f6c6572616e63652065786365656465640000000000604482015260640161082c565b6a52b7d2dcc80cd2e4000000816007546111339190612c71565b11156111815760405162461bcd60e51b815260206004820152601860248201527f4578636565647320617661696c61626c6520737570706c790000000000000000604482015260640161082c565b600061118c876119c5565b90506001600160a01b03871661121e578534146111e25760405162461bcd60e51b8152602060048201526014602482015273125b98dbdc9c9958dd0811551208185b5bdd5b9d60621b604482015260640161082c565b6040516001600160a01b0382169087156108fc029088906000818181858888f19350505050158015611218573d6000803e3d6000fd5b50611233565b6112336001600160a01b0388163383896121fa565b61123d3383612238565b816007600082825461124f9190612c71565b9250508190555082600860008282546112689190612c71565b9091555050336000908152600460205260408120805484929061128c908490612c71565b9250508190555060006040518060c00160405280336001600160a01b03168152602001896001600160a01b0316815260200188815260200184815260200185815260200142815250905060056000336001600160a01b03166001600160a01b0316815260200190815260200160002081908060018154018082558091505060019003906000526020600020906006020160009091909190915060008201518160000160006101000a8154816001600160a01b0302191690836001600160a01b0316021790555060208201518160010160006101000a8154816001600160a01b0302191690836001600160a01b0316021790555060408201518160020155606082015181600301556080820151816004015560a082015181600501555050600681908060018154018082558091505060019003906000526020600020906006020160009091909190915060008201518160000160006101000a8154816001600160a01b0302191690836001600160a01b0316021790555060208201518160010160006101000a8154816001600160a01b0302191690836001600160a01b0316021790555060408201518160020155606082015181600301556080820151816004015560a082015181600501555050876001600160a01b0316336001600160a01b03167f355b943140b1c8c99b2758a4d21c8858e602443ed75603e2465689d647abf15489868887426040516114cb959493929190948552602085019390935260408401919091526001600160a01b03166060830152608082015260a00190565b60405180910390a350505050506114e26001600055565b505050565b60008060006114f68585611725565b9690955066470de4df820000945092505050565b611512611ff0565b6109c66123ac565b611522611ff0565b6001600160a01b0381166115715760405162461bcd60e51b8152602060048201526016602482015275125b9d985b1a5908191959985d5b1d081dd85b1b195d60521b604482015260640161082c565b6040805160a08101909152806001600160a01b0387166115915782611593565b865b6001600160a01b0316815260200160006001600160a01b0316866001600160a01b0316036115c157826115c3565b855b6001600160a01b0316815260200160006001600160a01b0316856001600160a01b0316036115f157826115f3565b845b6001600160a01b0316815260200160006001600160a01b0316846001600160a01b0316036116215782611623565b835b6001600160a01b0390811682529283166020918201528151600980549185166001600160a01b031992831617905590820151600a80549185169183169190911790556040820151600b80549185169183169190911790556060820151600c8054918516918316919091179055608090910151600d805491909316911617905550505050565b600681815481106116b857600080fd5b60009182526020909120600690910201805460018201546002830154600384015460048501546005909501546001600160a01b0394851696509390921693909286565b6003818154811061170b57600080fd5b6000918252602090912001546001600160a01b0316905081565b6001600160a01b038216600090815260026020526040812054819060ff1661178f5760405162461bcd60e51b815260206004820152601b60248201527f5061796d656e7420746f6b656e206e6f7420737570706f727465640000000000604482015260640161082c565b6001600160a01b0384166000908152600260208181526040808420815160e081018352815460ff8082161515835261010090910416938101939093526001810154918301919091529182015460608201526003820154608082015260048201805491929160a08401919061180290612b00565b80601f016020809104026020016040519081016040528092919081815260200182805461182e90612b00565b801561187b5780601f106118505761010080835404028352916020019161187b565b820191906000526020600020905b81548152906001019060200180831161185e57829003601f168201915b5050509183525050600591909101546001600160a01b03166020918201528101519091506118aa90600a612d68565b60408201516118b99086612d77565b6118c39190612d8e565b925066470de4df8200006118df84670de0b6b3a7640000612d77565b6118e99190612d8e565b9150509250929050565b60026020819052600091825260409091208054600182015492820154600383015460048401805460ff808616976101009096041695919061193390612b00565b80601f016020809104026020016040519081016040528092919081815260200182805461195f90612b00565b80156119ac5780601f10611981576101008083540402835291602001916119ac565b820191906000526020600020905b81548152906001019060200180831161198f57829003601f168201915b505050600590930154919250506001600160a01b031687565b6001600160a01b0381811660009081526002602052604081206005015490911615611a0c57506001600160a01b039081166000908152600260205260409020600501541690565b6001600160a01b038216611a2b5750506009546001600160a01b031690565b6001600160a01b03821660009081526002602052604081206004018054611a5190612b00565b80601f0160208091040260200160405190810160405280929190818152602001828054611a7d90612b00565b8015611aca5780601f10611a9f57610100808354040283529160200191611aca565b820191906000526020600020905b815481529060010190602001808311611aad57829003601f168201915b50505050509050604051806040016040528060048152602001631554d11560e21b81525080519060200120818051906020012003611b15575050600a546001600160a01b0316919050565b6040805180820190915260048152635553444360e01b6020918201528151908201207f29535e4168d63ec2988ccae9ecde9b63335195a6eaab88dae98ff067906bd15601611b70575050600b546001600160a01b0316919050565b60408051808201909152600381526221272160e91b6020918201528151908201207fc12fc3c71a6239f384963d5b409706deb5326acdad4a56f170a0a6a7c1643c5201611bca575050600c546001600160a01b0316919050565b5050600d546001600160a01b0316919050565b60606003805480602002602001604051908101604052809291908181526020018280548015611c3557602002820191906000526020600020905b81546001600160a01b03168152600190910190602001808311611c17575b5050505050905090565b611c47611ff0565b6001600160a01b03821660009081526002602052604090205460ff16611ca55760405162461bcd60e51b8152602060048201526013602482015272151bdad95b881b9bdd081cdd5c1c1bdc9d1959606a1b604482015260640161082c565b60008111611ce55760405162461bcd60e51b815260206004820152600d60248201526c496e76616c696420707269636560981b604482015260640161082c565b6001600160a01b03821660008181526002602090815260409182902060019081018590558251908152908101849052428183015290517fdb8ce90d26eb0f2c05e210f29bd0a57d60f404f3f8022cee68265ea6e8ca38359181900360600190a25050565b6006546060908310611d945760405162461bcd60e51b81526020600482015260146024820152734f6666736574206f7574206f6620626f756e647360601b604482015260640161082c565b6000611da08385612c71565b600654909150811115611db257506006545b6000611dbe8583612c5e565b67ffffffffffffffff811115611dd657611dd66127a7565b604051908082528060200260200182016040528015611e5257816020015b611e3f6040518060c0016040528060006001600160a01b0316815260200160006001600160a01b03168152602001600081526020016000815260200160008152602001600081525090565b815260200190600190039081611df45790505b509050845b82811015611f0c5760068181548110611e7257611e72612db0565b60009182526020918290206040805160c081018252600690930290910180546001600160a01b03908116845260018201541693830193909352600283015490820152600382015460608201526004820154608082015260059091015460a082015282611ede8884612c5e565b81518110611eee57611eee612db0565b60200260200101819052508080611f0490612dc6565b915050611e57565b509150505b92915050565b60056020528160005260406000208181548110611f3357600080fd5b60009182526020909120600690910201805460018201546002830154600384015460048501546005909501546001600160a01b039485169750929093169450929086565b611f7f611ff0565b6001600160a01b038116611fe45760405162461bcd60e51b815260206004820152602660248201527f4f776e61626c653a206e6577206f776e657220697320746865207a65726f206160448201526564647265737360d01b606482015260840161082c565b611fed81612102565b50565b6001546001600160a01b031633146109c65760405162461bcd60e51b815260206004820181905260248201527f4f776e61626c653a2063616c6c6572206973206e6f7420746865206f776e6572604482015260640161082c565b6120526123ef565b6001805460ff60a01b191690557f5db9ee0a495bf2e6ff9c91a7834c1ba4fdd244a5e8aa4e537bd38aeae4b073aa335b6040516001600160a01b03909116815260200160405180910390a1565b6040516001600160a01b0383166024820152604481018290526114e290849063a9059cbb60e01b906064015b60408051601f198184030181529190526020810180516001600160e01b03166001600160e01b03199093169290921790915261243f565b600180546001600160a01b038381166001600160a01b0319831681179093556040519116919082907f8be0079c531659141344cd1fd0a4f28419497f9722a3daafe3b4186f6b6457e090600090a35050565b6002600054036121a65760405162461bcd60e51b815260206004820152601f60248201527f5265656e7472616e637947756172643a207265656e7472616e742063616c6c00604482015260640161082c565b6002600055565b600154600160a01b900460ff16156109c65760405162461bcd60e51b815260206004820152601060248201526f14185d5cd8589b194e881c185d5cd95960821b604482015260640161082c565b6040516001600160a01b03808516602483015283166044820152606481018290526122329085906323b872dd60e01b906084016120cb565b50505050565b6001600160a01b0382166122825760405162461bcd60e51b8152602060048201526011602482015270125b9d985b1a59081c9958da5c1a595b9d607a1b604482015260640161082c565b600081116122c35760405162461bcd60e51b815260206004820152600e60248201526d125b9d985b1a5908185b5bdd5b9d60921b604482015260640161082c565b804710156123135760405162461bcd60e51b815260206004820152601860248201527f496e73756666696369656e742042414b2062616c616e63650000000000000000604482015260640161082c565b6000826001600160a01b03168260405160006040518083038185875af1925050503d8060008114612360576040519150601f19603f3d011682016040523d82523d6000602084013e612365565b606091505b50509050806114e25760405162461bcd60e51b8152602060048201526013602482015272109052c81d1c985b9cd9995c8819985a5b1959606a1b604482015260640161082c565b6123b46121ad565b6001805460ff60a01b1916600160a01b1790557f62e78cea01bee320cd4e420270b5ea74000d11b0c9f74754ebdbfc544b05a2586120823390565b600154600160a01b900460ff166109c65760405162461bcd60e51b815260206004820152601460248201527314185d5cd8589b194e881b9bdd081c185d5cd95960621b604482015260640161082c565b6000612494826040518060400160405280602081526020017f5361666545524332303a206c6f772d6c6576656c2063616c6c206661696c6564815250856001600160a01b03166125149092919063ffffffff16565b90508051600014806124b55750808060200190518101906124b59190612ddf565b6114e25760405162461bcd60e51b815260206004820152602a60248201527f5361666545524332303a204552433230206f7065726174696f6e20646964206e6044820152691bdd081cdd58d8d9595960b21b606482015260840161082c565b6060612523848460008561252b565b949350505050565b60608247101561258c5760405162461bcd60e51b815260206004820152602660248201527f416464726573733a20696e73756666696369656e742062616c616e636520666f6044820152651c8818d85b1b60d21b606482015260840161082c565b600080866001600160a01b031685876040516125a89190612dfc565b60006040518083038185875af1925050503d80600081146125e5576040519150601f19603f3d011682016040523d82523d6000602084013e6125ea565b606091505b50915091506125fb87838387612606565b979650505050505050565b6060831561267557825160000361266e576001600160a01b0385163b61266e5760405162461bcd60e51b815260206004820152601d60248201527f416464726573733a2063616c6c20746f206e6f6e2d636f6e7472616374000000604482015260640161082c565b5081612523565b612523838381511561268a5781518083602001fd5b8060405162461bcd60e51b815260040161082c9190612e18565b80356001600160a01b03811681146126bb57600080fd5b919050565b600080604083850312156126d357600080fd5b6126dc836126a4565b91506126ea602084016126a4565b90509250929050565b60006020828403121561270557600080fd5b61270e826126a4565b9392505050565b602080825282518282018190526000919060409081850190868401855b8281101561278c57815180516001600160a01b0390811686528782015116878601528581015186860152606080820151908601526080808201519086015260a0908101519085015260c09093019290850190600101612732565b5091979650505050505050565b8015158114611fed57600080fd5b634e487b7160e01b600052604160045260246000fd5b600080600080600080600080610100898b0312156127da57600080fd5b6127e3896126a4565b975060208901356127f381612799565b9650604089013560ff8116811461280957600080fd5b9550606089013594506080890135935060a0890135925060c089013567ffffffffffffffff8082111561283b57600080fd5b818b0191508b601f83011261284f57600080fd5b813581811115612861576128616127a7565b604051601f8201601f19908116603f01168101908382118183101715612889576128896127a7565b816040528281528e60208487010111156128a257600080fd5b8260208601602083013760006020848301015280965050505050506128c960e08a016126a4565b90509295985092959890939650565b6000806000606084860312156128ed57600080fd5b6128f6846126a4565b92506020840135915061290b604085016126a4565b90509250925092565b60008060006060848603121561292957600080fd5b612932846126a4565b95602085013595506040909401359392505050565b6000806040838503121561295a57600080fd5b612963836126a4565b946020939093013593505050565b600080600080600060a0868803121561298957600080fd5b612992866126a4565b94506129a0602087016126a4565b93506129ae604087016126a4565b92506129bc606087016126a4565b91506129ca608087016126a4565b90509295509295909350565b6000602082840312156129e857600080fd5b5035919050565b60005b83811015612a0a5781810151838201526020016129f2565b50506000910152565b60008151808452612a2b8160208601602086016129ef565b601f01601f19169290920160200192915050565b871515815260ff8716602082015285604082015284606082015283608082015260e060a08201526000612a7560e0830185612a13565b905060018060a01b03831660c083015298975050505050505050565b6020808252825182820181905260009190848201906040850190845b81811015612ad25783516001600160a01b031683529284019291840191600101612aad565b50909695505050505050565b60008060408385031215612af157600080fd5b50508035926020909101359150565b600181811c90821680612b1457607f821691505b602082108103612b3457634e487b7160e01b600052602260045260246000fd5b50919050565b601f8211156114e257600081815260208120601f850160051c81016020861015612b615750805b601f850160051c820191505b81811015612b8057828155600101612b6d565b505050505050565b815167ffffffffffffffff811115612ba257612ba26127a7565b612bb681612bb08454612b00565b84612b3a565b602080601f831160018114612beb5760008415612bd35750858301515b600019600386901b1c1916600185901b178555612b80565b600085815260208120601f198616915b82811015612c1a57888601518255948401946001909101908401612bfb565b5085821015612c385787850151600019600388901b60f8161c191681555b5050505050600190811b01905550565b634e487b7160e01b600052601160045260246000fd5b81810381811115611f1157611f11612c48565b80820180821115611f1157611f11612c48565b600181815b80851115612cbf578160001904821115612ca557612ca5612c48565b80851615612cb257918102915b93841c9390800290612c89565b509250929050565b600082612cd657506001611f11565b81612ce357506000611f11565b8160018114612cf95760028114612d0357612d1f565b6001915050611f11565b60ff841115612d1457612d14612c48565b50506001821b611f11565b5060208310610133831016604e8410600b8410161715612d42575081810a611f11565b612d4c8383612c84565b8060001904821115612d6057612d60612c48565b029392505050565b600061270e60ff841683612cc7565b8082028115828204841417611f1157611f11612c48565b600082612dab57634e487b7160e01b600052601260045260246000fd5b500490565b634e487b7160e01b600052603260045260246000fd5b600060018201612dd857612dd8612c48565b5060010190565b600060208284031215612df157600080fd5b815161270e81612799565b60008251612e0e8184602087016129ef565b9190910192915050565b60208152600061270e6020830184612a1356fea2646970667358221220b17352ce86066edb5e24e49276690c4f337f03a2b88e99adad4a48afaa6ca52c64736f6c63430008140033",
  "linkReferences": {},
  "deployedLinkReferences": {}
}