{
  "_format": "hh-sol-artifact-1",
  "contractName": "BrainArkEPOCrossChain",
  "sourceName": "contracts/BrainArkEPOCrossChain.sol",
  "abi": [
    {
      "inputs": [],
      "stateMutability": "nonpayable",
      "type": "constructor"
    },
    {
      "anonymous": false,
      "inputs": [
        {
          "indexed": true,
          "internalType": "address",
          "name": "buyer",
          "type": "address"
        },
        {
          "indexed": false,
          "internalType": "string",
          "name": "sourceChain",
          "type": "string"
        },
        {
          "indexed": false,
          "internalType": "string",
          "name": "paymentToken",
          "type": "string"
        },
        {
          "indexed": false,
          "internalType": "uint256",
          "name": "paymentAmount",
          "type": "uint256"
        },
        {
          "indexed": false,
          "internalType": "uint256",
          "name": "bakAmount",
          "type": "uint256"
        },
        {
          "indexed": false,
          "internalType": "string",
          "name": "sourceTxHash",
          "type": "string"
        },
        {
          "indexed": false,
          "internalType": "uint256",
          "name": "timestamp",
          "type": "uint256"
        }
      ],
      "name": "CrossChainPurchase",
      "type": "event"
    },
    {
      "anonymous": false,
      "inputs": [
        {
          "indexed": true,
          "internalType": "address",
          "name": "buyer",
          "type": "address"
        },
        {
          "indexed": false,
          "internalType": "uint256",
          "name": "bakAmount",
          "type": "uint256"
        },
        {
          "indexed": false,
          "internalType": "uint256",
          "name": "timestamp",
          "type": "uint256"
        }
      ],
      "name": "DirectPurchase",
      "type": "event"
    },
    {
      "anonymous": false,
      "inputs": [
        {
          "indexed": true,
          "internalType": "address",
          "name": "previousOwner",
          "type": "address"
        },
        {
          "indexed": true,
          "internalType": "address",
          "name": "newOwner",
          "type": "address"
        }
      ],
      "name": "OwnershipTransferred",
      "type": "event"
    },
    {
      "anonymous": false,
      "inputs": [
        {
          "indexed": false,
          "internalType": "address",
          "name": "account",
          "type": "address"
        }
      ],
      "name": "Paused",
      "type": "event"
    },
    {
      "anonymous": false,
      "inputs": [
        {
          "indexed": false,
          "internalType": "address",
          "name": "account",
          "type": "address"
        }
      ],
      "name": "Unpaused",
      "type": "event"
    },
    {
      "inputs": [],
      "name": "BAK_PRICE_USD",
      "outputs": [
        {
          "internalType": "uint256",
          "name": "",
          "type": "uint256"
        }
      ],
      "stateMutability": "view",
      "type": "function"
    },
    {
      "inputs": [],
      "name": "TOTAL_BAK_SUPPLY",
      "outputs": [
        {
          "internalType": "uint256",
          "name": "",
          "type": "uint256"
        }
      ],
      "stateMutability": "view",
      "type": "function"
    },
    {
      "inputs": [
        {
          "internalType": "address",
          "name": "",
          "type": "address"
        }
      ],
      "name": "authorizedOracles",
      "outputs": [
        {
          "internalType": "bool",
          "name": "",
          "type": "bool"
        }
      ],
      "stateMutability": "view",
      "type": "function"
    },
    {
      "inputs": [
        {
          "internalType": "uint256",
          "name": "",
          "type": "uint256"
        }
      ],
      "name": "crossChainPurchases",
      "outputs": [
        {
          "internalType": "address",
          "name": "buyer",
          "type": "address"
        },
        {
          "internalType": "string",
          "name": "sourceChain",
          "type": "string"
        },
        {
          "internalType": "string",
          "name": "paymentToken",
          "type": "string"
        },
        {
          "internalType": "uint256",
          "name": "paymentAmount",
          "type": "uint256"
        },
        {
          "internalType": "uint256",
          "name": "bakAmount",
          "type": "uint256"
        },
        {
          "internalType": "string",
          "name": "sourceTxHash",
          "type": "string"
        },
        {
          "internalType": "uint256",
          "name": "timestamp",
          "type": "uint256"
        },
        {
          "internalType": "bool",
          "name": "processed",
          "type": "bool"
        }
      ],
      "stateMutability": "view",
      "type": "function"
    },
    {
      "inputs": [
        {
          "internalType": "uint256",
          "name": "amount",
          "type": "uint256"
        },
        {
          "internalType": "address",
          "name": "to",
          "type": "address"
        }
      ],
      "name": "emergencyWithdraw",
      "outputs": [],
      "stateMutability": "nonpayable",
      "type": "function"
    },
    {
      "inputs": [],
      "name": "getCrossChainPurchaseCount",
      "outputs": [
        {
          "internalType": "uint256",
          "name": "",
          "type": "uint256"
        }
      ],
      "stateMutability": "view",
      "type": "function"
    },
    {
      "inputs": [],
      "name": "getStats",
      "outputs": [
        {
          "internalType": "uint256",
          "name": "totalSold",
          "type": "uint256"
        },
        {
          "internalType": "uint256",
          "name": "totalRaised",
          "type": "uint256"
        },
        {
          "internalType": "uint256",
          "name": "remainingSupply",
          "type": "uint256"
        },
        {
          "internalType": "uint256",
          "name": "contractBalance",
          "type": "uint256"
        }
      ],
      "stateMutability": "view",
      "type": "function"
    },
    {
      "inputs": [
        {
          "internalType": "string",
          "name": "txHash",
          "type": "string"
        }
      ],
      "name": "isTransactionProcessed",
      "outputs": [
        {
          "internalType": "bool",
          "name": "",
          "type": "bool"
        }
      ],
      "stateMutability": "view",
      "type": "function"
    },
    {
      "inputs": [],
      "name": "owner",
      "outputs": [
        {
          "internalType": "address",
          "name": "",
          "type": "address"
        }
      ],
      "stateMutability": "view",
      "type": "function"
    },
    {
      "inputs": [],
      "name": "pause",
      "outputs": [],
      "stateMutability": "nonpayable",
      "type": "function"
    },
    {
      "inputs": [],
      "name": "paused",
      "outputs": [
        {
          "internalType": "bool",
          "name": "",
          "type": "bool"
        }
      ],
      "stateMutability": "view",
      "type": "function"
    },
    {
      "inputs": [
        {
          "internalType": "address",
          "name": "buyer",
          "type": "address"
        },
        {
          "internalType": "string",
          "name": "sourceChain",
          "type": "string"
        },
        {
          "internalType": "string",
          "name": "paymentToken",
          "type": "string"
        },
        {
          "internalType": "uint256",
          "name": "paymentAmount",
          "type": "uint256"
        },
        {
          "internalType": "string",
          "name": "sourceTxHash",
          "type": "string"
        }
      ],
      "name": "processCrossChainPurchase",
      "outputs": [],
      "stateMutability": "nonpayable",
      "type": "function"
    },
    {
      "inputs": [
        {
          "internalType": "string",
          "name": "",
          "type": "string"
        }
      ],
      "name": "processedTxHashes",
      "outputs": [
        {
          "internalType": "bool",
          "name": "",
          "type": "bool"
        }
      ],
      "stateMutability": "view",
      "type": "function"
    },
    {
      "inputs": [],
      "name": "purchaseBAKDirect",
      "outputs": [],
      "stateMutability": "payable",
      "type": "function"
    },
    {
      "inputs": [],
      "name": "renounceOwnership",
      "outputs": [],
      "stateMutability": "nonpayable",
      "type": "function"
    },
    {
      "inputs": [
        {
          "internalType": "address",
          "name": "oracle",
          "type": "address"
        },
        {
          "internalType": "bool",
          "name": "authorized",
          "type": "bool"
        }
      ],
      "name": "setAuthorizedOracle",
      "outputs": [],
      "stateMutability": "nonpayable",
      "type": "function"
    },
    {
      "inputs": [],
      "name": "totalBakSold",
      "outputs": [
        {
          "internalType": "uint256",
          "name": "",
          "type": "uint256"
        }
      ],
      "stateMutability": "view",
      "type": "function"
    },
    {
      "inputs": [],
      "name": "totalUSDRaised",
      "outputs": [
        {
          "internalType": "uint256",
          "name": "",
          "type": "uint256"
        }
      ],
      "stateMutability": "view",
      "type": "function"
    },
    {
      "inputs": [
        {
          "internalType": "address",
          "name": "newOwner",
          "type": "address"
        }
      ],
      "name": "transferOwnership",
      "outputs": [],
      "stateMutability": "nonpayable",
      "type": "function"
    },
    {
      "inputs": [],
      "name": "unpause",
      "outputs": [],
      "stateMutability": "nonpayable",
      "type": "function"
    },
    {
      "inputs": [
        {
          "internalType": "address",
          "name": "",
          "type": "address"
        }
      ],
      "name": "userPurchases",
      "outputs": [
        {
          "internalType": "uint256",
          "name": "",
          "type": "uint256"
        }
      ],
      "stateMutability": "view",
      "type": "function"
    },
    {
      "stateMutability": "payable",
      "type": "receive"
    }
  ],
  "bytecode": "0x608060405234801561001057600080fd5b50600160005561001f3361004b565b6001805460ff60a01b19168155336000908152600760205260409020805460ff1916909117905561009d565b600180546001600160a01b038381166001600160a01b0319831681179093556040519116919082907f8be0079c531659141344cd1fd0a4f28419497f9722a3daafe3b4186f6b6457e090600090a35050565b6117b3806100ac6000396000f3fe60806040526004361061012e5760003560e01c806380ab2efd116100ab578063a495b9631161006f578063a495b96314610319578063bcb34ea514610321578063c2e9c12214610355578063c59d484714610390578063c7a6de4d146103c5578063f2fde38b146103e557600080fd5b806380ab2efd146102915780638456cb59146102a657806385cbc881146102bb57806387258982146102d15780638da5cb5b146102f157600080fd5b8063409e805e116100f2578063409e805e146101eb5780635c975abb1461020b57806361c992a314610236578063715018a614610266578063789701e81461027b57600080fd5b8063096402cb1461013a5780631f597b6e1461016c5780632f940c701461018757806339f65c09146101a95780633f4ba83a146101d657600080fd5b3661013557005b600080fd5b34801561014657600080fd5b506101596a52b7d2dcc80cd2e400000081565b6040519081526020015b60405180910390f35b34801561017857600080fd5b5061015966470de4df82000081565b34801561019357600080fd5b506101a76101a2366004611215565b610405565b005b3480156101b557600080fd5b506101596101c4366004611241565b60056020526000908152604090205481565b3480156101e257600080fd5b506101a761053d565b3480156101f757600080fd5b506101a7610206366004611306565b61054f565b34801561021757600080fd5b50600154600160a01b900460ff165b6040519015158152602001610163565b34801561024257600080fd5b50610226610251366004611241565b60076020526000908152604090205460ff1681565b34801561027257600080fd5b506101a7610a21565b34801561028757600080fd5b5061015960025481565b34801561029d57600080fd5b50600654610159565b3480156102b257600080fd5b506101a7610a33565b3480156102c757600080fd5b5061015960035481565b3480156102dd57600080fd5b506102266102ec3660046113a9565b610a43565b3480156102fd57600080fd5b506001546040516001600160a01b039091168152602001610163565b6101a7610a6e565b34801561032d57600080fd5b5061034161033c3660046113e6565b610c96565b60405161016398979695949392919061144f565b34801561036157600080fd5b506102266103703660046113a9565b805160208183018101805160048252928201919093012091525460ff1681565b34801561039c57600080fd5b506103a5610e90565b604080519485526020850193909352918301526060820152608001610163565b3480156103d157600080fd5b506101a76103e03660046114c5565b610ec4565b3480156103f157600080fd5b506101a7610400366004611241565b610f46565b61040d610fbf565b6001600160a01b03811661045c5760405162461bcd60e51b8152602060048201526011602482015270125b9d985b1a59081c9958da5c1a595b9d607a1b60448201526064015b60405180910390fd5b478211156104a35760405162461bcd60e51b8152602060048201526014602482015273496e73756666696369656e742062616c616e636560601b6044820152606401610453565b6000816001600160a01b03168360405160006040518083038185875af1925050503d80600081146104f0576040519150601f19603f3d011682016040523d82523d6000602084013e6104f5565b606091505b50509050806105385760405162461bcd60e51b815260206004820152600f60248201526e151c985b9cd9995c8819985a5b1959608a1b6044820152606401610453565b505050565b610545610fbf565b61054d611019565b565b61055761106e565b61055f6110c7565b3360009081526007602052604090205460ff166105b65760405162461bcd60e51b81526020600482015260156024820152744e6f7420617574686f72697a6564206f7261636c6560581b6044820152606401610453565b6001600160a01b0385166106045760405162461bcd60e51b8152602060048201526015602482015274496e76616c6964206275796572206164647265737360581b6044820152606401610453565b6004816040516106149190611501565b9081526040519081900360200190205460ff16156106745760405162461bcd60e51b815260206004820152601d60248201527f5472616e73616374696f6e20616c72656164792070726f6365737365640000006044820152606401610453565b60008151116106c55760405162461bcd60e51b815260206004820152601860248201527f496e76616c6964207472616e73616374696f6e206861736800000000000000006044820152606401610453565b81600066470de4df8200006106e283670de0b6b3a7640000611533565b6106ec9190611550565b90506a52b7d2dcc80cd2e4000000816002546107089190611572565b11156107515760405162461bcd60e51b81526020600482015260186024820152774578636565647320617661696c61626c6520737570706c7960401b6044820152606401610453565b804710156107715760405162461bcd60e51b815260040161045390611585565b60016004846040516107839190611501565b908152604051908190036020018120805492151560ff19909316929092179091556000906001600160a01b0389169083908381818185875af1925050503d80600081146107ec576040519150601f19603f3d011682016040523d82523d6000602084013e6107f1565b606091505b50509050806108385760405162461bcd60e51b8152602060048201526013602482015272109052c81d1c985b9cd9995c8819985a5b1959606a1b6044820152606401610453565b816002600082825461084a9190611572565b9250508190555082600360008282546108639190611572565b90915550506001600160a01b03881660009081526005602052604081208054849290610890908490611572565b909155505060408051610100810182526001600160a01b038a81168252602082018a8152928201899052606082018890526080820185905260a082018790524260c0830152600160e0830181905260068054918201815560005282517ff652222313e28459528d920b65115c16c04f3efc82aaedc97be59f3f377c0d3f600890920291820180546001600160a01b031916919093161782559251919290917ff652222313e28459528d920b65115c16c04f3efc82aaedc97be59f3f377c0d409091019061095d9082611651565b50604082015160028201906109729082611651565b50606082015160038201556080820151600482015560a0820151600582019061099b9082611651565b5060c0820151600682015560e0909101516007909101805460ff19169115159190911790556040516001600160a01b038916907f7dd244a3319a53ed98b53a75a3b13709cbfabac33215a2c547cdf645210781b190610a05908a908a908a9088908b904290611711565b60405180910390a2505050610a1a6001600055565b5050505050565b610a29610fbf565b61054d6000611114565b610a3b610fbf565b61054d611166565b6000600482604051610a559190611501565b9081526040519081900360200190205460ff1692915050565b610a7661106e565b610a7e6110c7565b60003411610ac15760405162461bcd60e51b815260206004820152601060248201526f14185e5b595b9d081c995c5d5a5c995960821b6044820152606401610453565b34600066470de4df820000610ade83670de0b6b3a7640000611533565b610ae89190611550565b90506a52b7d2dcc80cd2e400000081600254610b049190611572565b1115610b4d5760405162461bcd60e51b81526020600482015260186024820152774578636565647320617661696c61626c6520737570706c7960401b6044820152606401610453565b80471015610b6d5760405162461bcd60e51b815260040161045390611585565b604051600090339083908381818185875af1925050503d8060008114610baf576040519150601f19603f3d011682016040523d82523d6000602084013e610bb4565b606091505b5050905080610bfb5760405162461bcd60e51b8152602060048201526013602482015272109052c81d1c985b9cd9995c8819985a5b1959606a1b6044820152606401610453565b8160026000828254610c0d9190611572565b925050819055508260036000828254610c269190611572565b90915550503360009081526005602052604081208054849290610c4a908490611572565b90915550506040805183815242602082015233917f16b0630c5edf6d72a5389ef786ad45f7299b67b9c97793dd772b1ad0cde50cb0910160405180910390a250505061054d6001600055565b60068181548110610ca657600080fd5b6000918252602090912060089091020180546001820180546001600160a01b03909216935090610cd5906115c9565b80601f0160208091040260200160405190810160405280929190818152602001828054610d01906115c9565b8015610d4e5780601f10610d2357610100808354040283529160200191610d4e565b820191906000526020600020905b815481529060010190602001808311610d3157829003601f168201915b505050505090806002018054610d63906115c9565b80601f0160208091040260200160405190810160405280929190818152602001828054610d8f906115c9565b8015610ddc5780601f10610db157610100808354040283529160200191610ddc565b820191906000526020600020905b815481529060010190602001808311610dbf57829003601f168201915b505050505090806003015490806004015490806005018054610dfd906115c9565b80601f0160208091040260200160405190810160405280929190818152602001828054610e29906115c9565b8015610e765780601f10610e4b57610100808354040283529160200191610e76565b820191906000526020600020905b815481529060010190602001808311610e5957829003601f168201915b50505050600683015460079093015491929160ff16905088565b6000806000806002546003546002546a52b7d2dcc80cd2e4000000610eb5919061176a565b47935093509350935090919293565b610ecc610fbf565b6001600160a01b038216610f1b5760405162461bcd60e51b8152602060048201526016602482015275496e76616c6964206f7261636c65206164647265737360501b6044820152606401610453565b6001600160a01b03919091166000908152600760205260409020805460ff1916911515919091179055565b610f4e610fbf565b6001600160a01b038116610fb35760405162461bcd60e51b815260206004820152602660248201527f4f776e61626c653a206e6577206f776e657220697320746865207a65726f206160448201526564647265737360d01b6064820152608401610453565b610fbc81611114565b50565b6001546001600160a01b0316331461054d5760405162461bcd60e51b815260206004820181905260248201527f4f776e61626c653a2063616c6c6572206973206e6f7420746865206f776e65726044820152606401610453565b6110216111a9565b6001805460ff60a01b191690557f5db9ee0a495bf2e6ff9c91a7834c1ba4fdd244a5e8aa4e537bd38aeae4b073aa335b6040516001600160a01b03909116815260200160405180910390a1565b6002600054036110c05760405162461bcd60e51b815260206004820152601f60248201527f5265656e7472616e637947756172643a207265656e7472616e742063616c6c006044820152606401610453565b6002600055565b600154600160a01b900460ff161561054d5760405162461bcd60e51b815260206004820152601060248201526f14185d5cd8589b194e881c185d5cd95960821b6044820152606401610453565b600180546001600160a01b038381166001600160a01b0319831681179093556040519116919082907f8be0079c531659141344cd1fd0a4f28419497f9722a3daafe3b4186f6b6457e090600090a35050565b61116e6110c7565b6001805460ff60a01b1916600160a01b1790557f62e78cea01bee320cd4e420270b5ea74000d11b0c9f74754ebdbfc544b05a2586110513390565b600154600160a01b900460ff1661054d5760405162461bcd60e51b815260206004820152601460248201527314185d5cd8589b194e881b9bdd081c185d5cd95960621b6044820152606401610453565b80356001600160a01b038116811461121057600080fd5b919050565b6000806040838503121561122857600080fd5b82359150611238602084016111f9565b90509250929050565b60006020828403121561125357600080fd5b61125c826111f9565b9392505050565b634e487b7160e01b600052604160045260246000fd5b600082601f83011261128a57600080fd5b813567ffffffffffffffff808211156112a5576112a5611263565b604051601f8301601f19908116603f011681019082821181831017156112cd576112cd611263565b816040528381528660208588010111156112e657600080fd5b836020870160208301376000602085830101528094505050505092915050565b600080600080600060a0868803121561131e57600080fd5b611327866111f9565b9450602086013567ffffffffffffffff8082111561134457600080fd5b61135089838a01611279565b9550604088013591508082111561136657600080fd5b61137289838a01611279565b945060608801359350608088013591508082111561138f57600080fd5b5061139c88828901611279565b9150509295509295909350565b6000602082840312156113bb57600080fd5b813567ffffffffffffffff8111156113d257600080fd5b6113de84828501611279565b949350505050565b6000602082840312156113f857600080fd5b5035919050565b60005b8381101561141a578181015183820152602001611402565b50506000910152565b6000815180845261143b8160208601602086016113ff565b601f01601f19169290920160200192915050565b6001600160a01b0389168152610100602082018190526000906114748382018b611423565b90508281036040840152611488818a611423565b905087606084015286608084015282810360a08401526114a88187611423565b60c0840195909552505090151560e0909101529695505050505050565b600080604083850312156114d857600080fd5b6114e1836111f9565b9150602083013580151581146114f657600080fd5b809150509250929050565b600082516115138184602087016113ff565b9190910192915050565b634e487b7160e01b600052601160045260246000fd5b808202811582820484141761154a5761154a61151d565b92915050565b60008261156d57634e487b7160e01b600052601260045260246000fd5b500490565b8082018082111561154a5761154a61151d565b60208082526024908201527f496e73756666696369656e742042414b2062616c616e636520696e20636f6e746040820152631c9858dd60e21b606082015260800190565b600181811c908216806115dd57607f821691505b6020821081036115fd57634e487b7160e01b600052602260045260246000fd5b50919050565b601f82111561053857600081815260208120601f850160051c8101602086101561162a5750805b601f850160051c820191505b8181101561164957828155600101611636565b505050505050565b815167ffffffffffffffff81111561166b5761166b611263565b61167f8161167984546115c9565b84611603565b602080601f8311600181146116b4576000841561169c5750858301515b600019600386901b1c1916600185901b178555611649565b600085815260208120601f198616915b828110156116e3578886015182559484019460019091019084016116c4565b50858210156117015787850151600019600388901b60f8161c191681555b5050505050600190811b01905550565b60c08152600061172460c0830189611423565b82810360208401526117368189611423565b905086604084015285606084015282810360808401526117568186611423565b9150508260a0830152979650505050505050565b8181038181111561154a5761154a61151d56fea26469706673582212205bcd11f1fb599427922f89d88021aefed8c3a40efc85ac5f69508618492f02bd64736f6c63430008140033",
  "linkReferences": {},
  "deployedLinkReferences": {}
}