{
  "_format": "hh-sol-artifact-1",
  "contractName": "BrainArkBridge",
  "sourceName": "contracts/BrainArkBridge.sol",
  "abi": [
    {
      "anonymous": false,
      "inputs": [
        {
          "indexed": true,
          "internalType": "address",
          "name": "user",
          "type": "address"
        },
        {
          "indexed": false,
          "internalType": "uint256",
          "name": "amount",
          "type": "uint256"
        },
        {
          "indexed": false,
          "internalType": "bytes32",
          "name": "txHash",
          "type": "bytes32"
        }
      ],
      "name": "BalanceBridged",
      "type": "event"
    },
    {
      "inputs": [
        {
          "internalType": "address",
          "name": "user",
          "type": "address"
        },
        {
          "internalType": "uint256",
          "name": "amount",
          "type": "uint256"
        },
        {
          "internalType": "bytes32",
          "name": "sourceTxHash",
          "type": "bytes32"
        },
        {
          "internalType": "bytes",
          "name": "signature",
          "type": "bytes"
        }
      ],
      "name": "bridgeBalance",
      "outputs": [],
      "stateMutability": "nonpayable",
      "type": "function"
    },
    {
      "inputs": [
        {
          "internalType": "address",
          "name": "",
          "type": "address"
        }
      ],
      "name": "bridgedBalances",
      "outputs": [
        {
          "internalType": "uint256",
          "name": "",
          "type": "uint256"
        }
      ],
      "stateMutability": "view",
      "type": "function"
    },
    {
      "inputs": [
        {
          "internalType": "bytes32",
          "name": "",
          "type": "bytes32"
        }
      ],
      "name": "processedTransactions",
      "outputs": [
        {
          "internalType": "bool",
          "name": "",
          "type": "bool"
        }
      ],
      "stateMutability": "view",
      "type": "function"
    }
  ],
  "bytecode": "0x608060405234801561001057600080fd5b50610348806100206000396000f3fe608060405234801561001057600080fd5b50600436106100405760003560e01c8062d646a7146100455780633f8bbca21461005a578063ac2e49361461008d575b600080fd5b6100586100533660046101db565b6100c0565b005b61007a6100683660046102b0565b60006020819052908152604090205481565b6040519081526020015b60405180910390f35b6100b061009b3660046102d2565b60016020526000908152604090205460ff1681565b6040519015158152602001610084565b60008281526001602052604090205460ff16156101175760405162461bcd60e51b8152602060048201526011602482015270105b1c9958591e481c1c9bd8d95cdcd959607a1b604482015260640160405180910390fd5b6001600160a01b0384166000908152602081905260408120805485929061013f9084906102eb565b9091555050600082815260016020818152604092839020805460ff191690921790915581518581529081018490526001600160a01b038616917fc446a4731802d83625f87cbba4ad6d68322e501bd112c5e1c235440ca650ce6a910160405180910390a250505050565b80356001600160a01b03811681146101c057600080fd5b919050565b634e487b7160e01b600052604160045260246000fd5b600080600080608085870312156101f157600080fd5b6101fa856101a9565b93506020850135925060408501359150606085013567ffffffffffffffff8082111561022557600080fd5b818701915087601f83011261023957600080fd5b81358181111561024b5761024b6101c5565b604051601f8201601f19908116603f01168101908382118183101715610273576102736101c5565b816040528281528a602084870101111561028c57600080fd5b82602086016020830137600060208483010152809550505050505092959194509250565b6000602082840312156102c257600080fd5b6102cb826101a9565b9392505050565b6000602082840312156102e457600080fd5b5035919050565b8082018082111561030c57634e487b7160e01b600052601160045260246000fd5b9291505056fea26469706673582212203afcc64d07791f311b2bdf90bb707fd5f578d6ff5036955fc523bd48972d42fe64736f6c63430008140033",
  "linkReferences": {},
  "deployedLinkReferences": {}
}