{"contracts/BrainArkEPOComplete.sol":{"BrainArkEPOComplete":{"abi":[{"inputs":[],"stateMutability":"nonpayable","type":"constructor"},{"anonymous":false,"inputs":[{"indexed":false,"internalType":"uint256","name":"totalSold","type":"uint256"},{"indexed":false,"internalType":"uint256","name":"newPrice","type":"uint256"},{"indexed":false,"internalType":"uint256","name":"timestamp","type":"uint256"}],"name":"BondingCurveUpdate","type":"event"},{"anonymous":false,"inputs":[{"indexed":true,"internalType":"address","name":"buyer","type":"address"},{"indexed":true,"internalType":"string","name":"sourceNetwork","type":"string"},{"indexed":true,"internalType":"string","name":"paymentToken","type":"string"},{"indexed":false,"internalType":"bytes32","name":"txHash","type":"bytes32"},{"indexed":false,"internalType":"uint256","name":"paymentAmountUSD","type":"uint256"},{"indexed":false,"internalType":"uint256","name":"bakAmount","type":"uint256"},{"indexed":false,"internalType":"uint256","name":"effectivePrice","type":"uint256"},{"indexed":false,"internalType":"uint256","name":"timestamp","type":"uint256"}],"name":"CrossChainPurchase","type":"event"},{"anonymous":false,"inputs":[{"indexed":true,"internalType":"address","name":"token","type":"address"},{"indexed":true,"internalType":"address","name":"to","type":"address"},{"indexed":false,"internalType":"uint256","name":"amount","type":"uint256"},{"indexed":false,"internalType":"uint256","name":"timestamp","type":"uint256"}],"name":"EmergencyWithdraw","type":"event"},{"anonymous":false,"inputs":[{"indexed":true,"internalType":"address","name":"previousOwner","type":"address"},{"indexed":true,"internalType":"address","name":"newOwner","type":"address"}],"name":"OwnershipTransferred","type":"event"},{"anonymous":false,"inputs":[{"indexed":false,"internalType":"address","name":"account","type":"address"}],"name":"Paused","type":"event"},{"anonymous":false,"inputs":[{"indexed":true,"internalType":"address","name":"token","type":"address"},{"indexed":false,"internalType":"bool","name":"enabled","type":"bool"},{"indexed":false,"internalType":"uint256","name":"treasuryIndex","type":"uint256"},{"indexed":false,"internalType":"uint256","name":"timestamp","type":"uint256"}],"name":"PaymentTokenUpdated","type":"event"},{"anonymous":false,"inputs":[{"indexed":true,"internalType":"address","name":"buyer","type":"address"},{"indexed":true,"internalType":"address","name":"paymentToken","type":"address"},{"indexed":false,"internalType":"uint256","name":"paymentAmount","type":"uint256"},{"indexed":false,"internalType":"uint256","name":"bakAmount","type":"uint256"},{"indexed":false,"internalType":"uint256","name":"usdValue","type":"uint256"},{"indexed":false,"internalType":"address","name":"treasuryWallet","type":"address"},{"indexed":false,"internalType":"uint256","name":"timestamp","type":"uint256"}],"name":"TokenPurchase","type":"event"},{"anonymous":false,"inputs":[{"indexed":false,"internalType":"address","name":"account","type":"address"}],"name":"Unpaused","type":"event"},{"inputs":[],"name":"BASE_PRICE_USD","outputs":[{"internalType":"uint256","name":"","type":"uint256"}],"stateMutability":"view","type":"function"},{"inputs":[],"name":"TOTAL_BAK_FOR_SALE","outputs":[{"internalType":"uint256","name":"","type":"uint256"}],"stateMutability":"view","type":"function"},{"inputs":[{"internalType":"address","name":"tokenAddress","type":"address"},{"internalType":"uint256","name":"decimals","type":"uint256"},{"internalType":"uint256","name":"pricePerUSDInToken","type":"uint256"},{"internalType":"address","name":"treasuryWallet","type":"address"},{"internalType":"bool","name":"isNativeToken","type":"bool"},{"internalType":"string","name":"symbol","type":"string"}],"name":"addPaymentToken","outputs":[],"stateMutability":"nonpayable","type":"function"},{"inputs":[{"internalType":"address","name":"","type":"address"}],"name":"authorizedOracles","outputs":[{"internalType":"bool","name":"","type":"bool"}],"stateMutability":"view","type":"function"},{"inputs":[],"name":"bondingCurve","outputs":[{"internalType":"uint256","name":"basePrice","type":"uint256"},{"internalType":"uint256","name":"priceIncrement","type":"uint256"},{"internalType":"uint256","name":"tierSize","type":"uint256"},{"internalType":"bool","name":"enabled","type":"bool"}],"stateMutability":"view","type":"function"},{"inputs":[{"internalType":"uint256","name":"usdValue","type":"uint256"}],"name":"calculateBAKAmount","outputs":[{"internalType":"uint256","name":"","type":"uint256"}],"stateMutability":"view","type":"function"},{"inputs":[{"internalType":"address","name":"tokenAddress","type":"address"},{"internalType":"uint256","name":"tokenAmount","type":"uint256"}],"name":"calculateUSDValue","outputs":[{"internalType":"uint256","name":"","type":"uint256"}],"stateMutability":"view","type":"function"},{"inputs":[{"internalType":"uint256","name":"","type":"uint256"}],"name":"crossChainPurchases","outputs":[{"internalType":"address","name":"buyer","type":"address"},{"internalType":"string","name":"sourceChain","type":"string"},{"internalType":"string","name":"paymentToken","type":"string"},{"internalType":"uint256","name":"paymentAmount","type":"uint256"},{"internalType":"uint256","name":"bakAmount","type":"uint256"},{"internalType":"string","name":"sourceTxHash","type":"string"},{"internalType":"uint256","name":"timestamp","type":"uint256"},{"internalType":"bool","name":"processed","type":"bool"}],"stateMutability":"view","type":"function"},{"inputs":[],"name":"currentPrice","outputs":[{"internalType":"uint256","name":"","type":"uint256"}],"stateMutability":"view","type":"function"},{"inputs":[],"name":"emergencyStop","outputs":[{"internalType":"bool","name":"","type":"bool"}],"stateMutability":"view","type":"function"},{"inputs":[{"internalType":"uint256","name":"amount","type":"uint256"},{"internalType":"address","name":"to","type":"address"}],"name":"emergencyWithdrawBAK","outputs":[],"stateMutability":"nonpayable","type":"function"},{"inputs":[{"internalType":"address","name":"token","type":"address"},{"internalType":"uint256","name":"amount","type":"uint256"},{"internalType":"address","name":"to","type":"address"}],"name":"emergencyWithdrawToken","outputs":[],"stateMutability":"nonpayable","type":"function"},{"inputs":[{"internalType":"uint256","name":"","type":"uint256"}],"name":"enabledTokens","outputs":[{"internalType":"address","name":"","type":"address"}],"stateMutability":"view","type":"function"},{"inputs":[],"name":"getContractStats","outputs":[{"internalType":"uint256","name":"totalSold","type":"uint256"},{"internalType":"uint256","name":"totalRaised","type":"uint256"},{"internalType":"uint256","name":"remainingSupply","type":"uint256"},{"internalType":"uint256","name":"price","type":"uint256"},{"internalType":"uint256","name":"contractBalance","type":"uint256"}],"stateMutability":"view","type":"function"},{"inputs":[],"name":"getCrossChainPurchaseCount","outputs":[{"internalType":"uint256","name":"","type":"uint256"}],"stateMutability":"view","type":"function"},{"inputs":[],"name":"getEnabledTokensCount","outputs":[{"internalType":"uint256","name":"","type":"uint256"}],"stateMutability":"view","type":"function"},{"inputs":[{"internalType":"string","name":"network","type":"string"},{"internalType":"string","name":"token","type":"string"}],"name":"getTreasuryWallet","outputs":[{"internalType":"address","name":"","type":"address"}],"stateMutability":"view","type":"function"},{"inputs":[{"internalType":"string","name":"txHash","type":"string"}],"name":"isTransactionProcessed","outputs":[{"internalType":"bool","name":"","type":"bool"}],"stateMutability":"view","type":"function"},{"inputs":[],"name":"maxPurchaseAmount","outputs":[{"internalType":"uint256","name":"","type":"uint256"}],"stateMutability":"view","type":"function"},{"inputs":[],"name":"owner","outputs":[{"internalType":"address","name":"","type":"address"}],"stateMutability":"view","type":"function"},{"inputs":[],"name":"pause","outputs":[],"stateMutability":"nonpayable","type":"function"},{"inputs":[],"name":"paused","outputs":[{"internalType":"bool","name":"","type":"bool"}],"stateMutability":"view","type":"function"},{"inputs":[{"internalType":"address","name":"","type":"address"}],"name":"paymentTokens","outputs":[{"internalType":"contract IERC20","name":"token","type":"address"},{"internalType":"bool","name":"isEnabled","type":"bool"},{"internalType":"uint256","name":"decimals","type":"uint256"},{"internalType":"uint256","name":"pricePerUSDInToken","type":"uint256"},{"internalType":"address","name":"treasuryWallet","type":"address"},{"internalType":"bool","name":"isNativeToken","type":"bool"},{"internalType":"string","name":"symbol","type":"string"}],"stateMutability":"view","type":"function"},{"inputs":[{"internalType":"address","name":"buyer","type":"address"},{"internalType":"string","name":"sourceChain","type":"string"},{"internalType":"string","name":"paymentToken","type":"string"},{"internalType":"uint256","name":"paymentAmount","type":"uint256"},{"internalType":"string","name":"sourceTxHash","type":"string"}],"name":"processCrossChainPurchase","outputs":[],"stateMutability":"nonpayable","type":"function"},{"inputs":[{"internalType":"string","name":"","type":"string"}],"name":"processedTxHashes","outputs":[{"internalType":"bool","name":"","type":"bool"}],"stateMutability":"view","type":"function"},{"inputs":[{"internalType":"address","name":"paymentTokenAddress","type":"address"},{"internalType":"uint256","name":"paymentAmount","type":"uint256"}],"name":"purchaseTokens","outputs":[],"stateMutability":"payable","type":"function"},{"inputs":[],"name":"renounceOwnership","outputs":[],"stateMutability":"nonpayable","type":"function"},{"inputs":[{"internalType":"address","name":"oracle","type":"address"},{"internalType":"bool","name":"authorized","type":"bool"}],"name":"setAuthorizedOracle","outputs":[],"stateMutability":"nonpayable","type":"function"},{"inputs":[{"internalType":"uint256","name":"basePrice","type":"uint256"},{"internalType":"uint256","name":"priceIncrement","type":"uint256"},{"internalType":"uint256","name":"tierSize","type":"uint256"},{"internalType":"bool","name":"enabled","type":"bool"}],"name":"setBondingCurve","outputs":[],"stateMutability":"nonpayable","type":"function"},{"inputs":[{"internalType":"bool","name":"_stop","type":"bool"}],"name":"setEmergencyStop","outputs":[],"stateMutability":"nonpayable","type":"function"},{"inputs":[{"internalType":"uint256","name":"_maxAmount","type":"uint256"}],"name":"setMaxPurchaseAmount","outputs":[],"stateMutability":"nonpayable","type":"function"},{"inputs":[],"name":"totalBakSold","outputs":[{"internalType":"uint256","name":"","type":"uint256"}],"stateMutability":"view","type":"function"},{"inputs":[],"name":"totalUSDRaised","outputs":[{"internalType":"uint256","name":"","type":"uint256"}],"stateMutability":"view","type":"function"},{"inputs":[{"internalType":"address","name":"newOwner","type":"address"}],"name":"transferOwnership","outputs":[],"stateMutability":"nonpayable","type":"function"},{"inputs":[{"internalType":"string","name":"","type":"string"},{"internalType":"string","name":"","type":"string"}],"name":"treasuryWallets","outputs":[{"internalType":"address","name":"","type":"address"}],"stateMutability":"view","type":"function"},{"inputs":[],"name":"unpause","outputs":[],"stateMutability":"nonpayable","type":"function"},{"inputs":[{"internalType":"address","name":"","type":"address"}],"name":"userPurchases","outputs":[{"internalType":"uint256","name":"","type":"uint256"}],"stateMutability":"view","type":"function"},{"stateMutability":"payable","type":"receive"}],"evm":{"bytecode":{"linkReferences":{},"object":"60806040526010805460ff1916905569021e19e0c9bab240000060115534801561002857600080fd5b50600160005561003733610373565b6001805460ff60a01b1916815566470de4df82000060048181556040805160808101825283815266038d7ea4c68000602080830182905269d3c21bcecceda10000008385018190526060909301879052600595865560069190915560079182556008805460ff1990811688178255336000908152600b9093529184902080549092169096179055815167657468657265756d60c01b808252600f828801819052845160289381900384018120620cae8d60eb1b825260038083019190915286516023928190038301812080546001600160a01b031990811673c91a5902da7321054cedaeb49ce9a6a3835fc41717909155858252818c0185905288519182900387018220631d5cd91d60e21b808452838c01919091528951602493819003840181208054841673c9de877a53f85bf51d76faed0c8c8842efb357821790559687529b86018590528851958690039096018520637573646360e01b808752868b01919091528851958690038201862080548816733a9ca3d316f2032d3a21741cbea2e047fd3c11451790556262736360e81b808752868401869052895196879003850187206231373160e91b885287850152895196879003850187208054891673794f67aa174bd0a252beca0089490a58cc695a05179055808752868401869052895196879003850187208d8852878c0152895196879003830187208054891673c13527f3bbaaf4cd726d07a78da9c5b74876527f179055865291850184905287519485900390920184208185528489015286519384900382018420805486167321fccbb9b9b7c620bcba61b6668c30f64c22859c179055663837b63cb3b7b760c91b808552848701849052875160279581900386018120646d6174696360d81b82529a81019a909a52875160259a8190039a909a018a2080548716736351f025e2dde967a1fad29d0ff44c3620f4eed7179055808a528987018490528751998a900385018a209a8a528989019a909a52865198899003820189208054861673d413afab39d24462ace36cfe5d710ce9b813c84b179055988852938701528351958690030185209585529284019490945251918290039092019020805490911673e97bf18735a1ab4a1ba9ddf284d7798a5b0f8a841790556103c5565b600180546001600160a01b038381166001600160a01b0319831681179093556040519116919082907f8be0079c531659141344cd1fd0a4f28419497f9722a3daafe3b4186f6b6457e090600090a35050565b61290f806103d46000396000f3fe60806040526004361061021e5760003560e01c80638482ee9d11610123578063bcb34ea5116100ab578063ccc70a0c1161006f578063ccc70a0c1461068b578063dfe6b5d6146106ab578063eff1d50e146106e8578063f2fde38b14610730578063f952fcad1461075057600080fd5b8063bcb34ea5146105a9578063c2e9c122146105dd578063c3b88b4214610618578063c73d7c7b1461064b578063c7a6de4d1461066b57600080fd5b80639463e068116100f25780639463e06814610513578063949d6c0e146105335780639d1b464a14610553578063a5fa12f014610569578063ac4ffcdf1461058957600080fd5b80638482ee9d146104a457806385cbc881146104bf57806387258982146104d55780638da5cb5b146104f557600080fd5b806361c992a3116101a6578063715018a611610175578063715018a61461042f578063789701e81461044457806380ab2efd1461045a578063835090801461046f5780638456cb591461048f57600080fd5b806361c992a31461036757806363a599a4146103975780636807bfd1146103b157806370a8f6211461040f57600080fd5b80633f4ba83a116101ed5780633f4ba83a146102c8578063409e805e146102dd5780634223a464146102fd5780634828e6a01461031d5780635c975abb1461033c57600080fd5b80630622a18e1461022a57806319f996e71461024e57806322ea22311461028657806339f65c091461029b57600080fd5b3661022557005b600080fd5b34801561023657600080fd5b50600a545b6040519081526020015b60405180910390f35b34801561025a57600080fd5b5061026e610269366004612178565b610766565b6040516001600160a01b039091168152602001610245565b6102996102943660046121f8565b6107b6565b005b3480156102a757600080fd5b5061023b6102b6366004612222565b600d6020526000908152604090205481565b3480156102d457600080fd5b50610299610c21565b3480156102e957600080fd5b506102996102f8366004612244565b610c33565b34801561030957600080fd5b506102996103183660046122f5565b61117e565b34801561032957600080fd5b5061023b6a52b7d2dcc80cd2e400000081565b34801561034857600080fd5b50600154600160a01b900460ff165b6040519015158152602001610245565b34801561037357600080fd5b50610357610382366004612222565b600b6020526000908152604090205460ff1681565b3480156103a357600080fd5b506010546103579060ff1681565b3480156103bd57600080fd5b5061026e6103cc366004612178565b8151602081840181018051600f8252928201948201949094209190935281518083018401805192815290840192909301919091209152546001600160a01b031681565b34801561041b57600080fd5b5061029961042a366004612378565b611349565b34801561043b57600080fd5b506102996114c3565b34801561045057600080fd5b5061023b60025481565b34801561046657600080fd5b50600e5461023b565b34801561047b57600080fd5b5061029961048a3660046123a4565b6114d5565b34801561049b57600080fd5b50610299611580565b3480156104b057600080fd5b5061023b66470de4df82000081565b3480156104cb57600080fd5b5061023b60035481565b3480156104e157600080fd5b506103576104f03660046123e0565b611590565b34801561050157600080fd5b506001546001600160a01b031661026e565b34801561051f57600080fd5b5061026e61052e366004612415565b6115bb565b34801561053f57600080fd5b5061029961054e36600461242e565b6115e5565b34801561055f57600080fd5b5061023b60045481565b34801561057557600080fd5b50610299610584366004612415565b611630565b34801561059557600080fd5b5061023b6105a43660046121f8565b61163d565b3480156105b557600080fd5b506105c96105c4366004612415565b6116d4565b6040516102459897969594939291906124bf565b3480156105e957600080fd5b506103576105f83660046123e0565b8051602081830181018051600c8252928201919093012091525460ff1681565b34801561062457600080fd5b50610638610633366004612222565b6118ce565b6040516102459796959493929190612535565b34801561065757600080fd5b5061029961066636600461258c565b6119a7565b34801561067757600080fd5b506102996106863660046125a9565b6119c2565b34801561069757600080fd5b5061023b6106a6366004612415565b611a44565b3480156106b757600080fd5b506106c0611ab7565b604080519586526020860194909452928401919091526060830152608082015260a001610245565b3480156106f457600080fd5b5060055460065460075460085461070e9392919060ff1684565b6040805194855260208501939093529183015215156060820152608001610245565b34801561073c57600080fd5b5061029961074b366004612222565b611af2565b34801561075c57600080fd5b5061023b60115481565b6000600f8360405161077891906125e0565b90815260200160405180910390208260405161079491906125e0565b908152604051908190036020019020546001600160a01b031690505b92915050565b6107be611b6b565b6107c6611bc4565b60105460ff161561081e5760405162461bcd60e51b815260206004820152601860248201527f456d657267656e63792073746f7020616374697661746564000000000000000060448201526064015b60405180910390fd5b6000811161087c5760405162461bcd60e51b815260206004820152602560248201527f5061796d656e7420616d6f756e74206d75737420626520677265617465722074604482015264068616e20360dc1b6064820152608401610815565b6001600160a01b03821660009081526009602052604090208054600160a01b900460ff166108ec5760405162461bcd60e51b815260206004820152601b60248201527f5061796d656e7420746f6b656e206e6f7420737570706f7274656400000000006044820152606401610815565b60006108f8848461163d565b905060115481111561094c5760405162461bcd60e51b815260206004820152601f60248201527f45786365656473206d6178696d756d20707572636861736520616d6f756e74006044820152606401610815565b600061095782611a44565b90506a52b7d2dcc80cd2e4000000816002546109739190612612565b11156109bc5760405162461bcd60e51b81526020600482015260186024820152774578636565647320617661696c61626c6520737570706c7960401b6044820152606401610815565b6003830154600160a01b900460ff1615610aa25783341015610a205760405162461bcd60e51b815260206004820152601e60248201527f496e73756666696369656e74206e617469766520746f6b656e2073656e7400006044820152606401610815565b60038301546040516001600160a01b039091169085156108fc029086906000818181858888f19350505050158015610a5c573d6000803e3d6000fd5b5083341115610a9d57336108fc610a738634612625565b6040518115909202916000818181858888f19350505050158015610a9b573d6000803e3d6000fd5b505b610ac2565b60038301548354610ac2916001600160a01b039182169133911687611c11565b604051600090339083908381818185875af1925050503d8060008114610b04576040519150601f19603f3d011682016040523d82523d6000602084013e610b09565b606091505b5050905080610b505760405162461bcd60e51b8152602060048201526013602482015272109052c81d1c985b9cd9995c8819985a5b1959606a1b6044820152606401610815565b8160026000828254610b629190612612565b925050819055508260036000828254610b7b9190612612565b9091555050336000908152600d602052604081208054849290610b9f908490612612565b90915550610bad9050611c82565b600384015460408051878152602081018590529081018590526001600160a01b0391821660608201524260808201529087169033907f355b943140b1c8c99b2758a4d21c8858e602443ed75603e2465689d647abf1549060a00160405180910390a350505050610c1d6001600055565b5050565b610c29611d14565b610c31611d6e565b565b610c3b611b6b565b610c43611bc4565b336000908152600b602052604090205460ff16610c9a5760405162461bcd60e51b81526020600482015260156024820152744e6f7420617574686f72697a6564206f7261636c6560581b6044820152606401610815565b6001600160a01b038516610ce85760405162461bcd60e51b8152602060048201526015602482015274496e76616c6964206275796572206164647265737360581b6044820152606401610815565b600c81604051610cf891906125e0565b9081526040519081900360200190205460ff1615610d585760405162461bcd60e51b815260206004820152601d60248201527f5472616e73616374696f6e20616c72656164792070726f6365737365640000006044820152606401610815565b6000815111610da95760405162461bcd60e51b815260206004820152601860248201527f496e76616c6964207472616e73616374696f6e206861736800000000000000006044820152606401610815565b816000610db582611a44565b90506a52b7d2dcc80cd2e400000081600254610dd19190612612565b1115610e1a5760405162461bcd60e51b81526020600482015260186024820152774578636565647320617661696c61626c6520737570706c7960401b6044820152606401610815565b80471015610e6a5760405162461bcd60e51b815260206004820152601860248201527f496e73756666696369656e742042414b2062616c616e636500000000000000006044820152606401610815565b6001600c84604051610e7c91906125e0565b908152604051908190036020018120805492151560ff19909316929092179091556000906001600160a01b0389169083908381818185875af1925050503d8060008114610ee5576040519150601f19603f3d011682016040523d82523d6000602084013e610eea565b606091505b5050905080610f315760405162461bcd60e51b8152602060048201526013602482015272109052c81d1c985b9cd9995c8819985a5b1959606a1b6044820152606401610815565b8160026000828254610f439190612612565b925050819055508260036000828254610f5c9190612612565b90915550506001600160a01b0388166000908152600d602052604081208054849290610f89908490612612565b90915550610f979050611c82565b60408051610100810182526001600160a01b038a81168252602082018a8152928201899052606082018890526080820185905260a082018790524260c0830152600160e08301819052600e8054918201815560005282517fbb7b4a454dc3493923482f07822329ed19e8244eff582cc204f8554c3620c3fd600890920291820180546001600160a01b031916919093161782559251919290917fbb7b4a454dc3493923482f07822329ed19e8244eff582cc204f8554c3620c3fe9091019061105f90826126c0565b506040820151600282019061107490826126c0565b50606082015160038201556080820151600482015560a0820151600582019061109d90826126c0565b5060c0820151600682015560e0909101516007909101805460ff19169115159190911790556040516110d09087906125e0565b6040518091039020876040516110e691906125e0565b6040518091039020896001600160a01b03167ff53767326419e47456340542e4d5fe0b426c6de7ecc392267681c29f0171cddf8760405160200161112a91906125e0565b60408051808303601f1901815282825280516020918201206004549084529083018c9052908201889052606082015242608082015260a00160405180910390a45050506111776001600055565b5050505050565b611186611d14565b6001600160a01b0383166111dc5760405162461bcd60e51b815260206004820152601760248201527f496e76616c69642074726561737572792077616c6c65740000000000000000006044820152606401610815565b6040805160e0810182526001600160a01b03888116808352600160208085018281528587018c8152606087018c81528b8716608089019081528b151560a08a0190815260c08a018c815260009889526009909652999096208851815494519089166001600160a81b031995861617600160a01b9115158202178255925195810195909555516002850155935160038401805498519190961697909116969096179515159092029490941790915551909190600482019061129c90826126c0565b5050600a80546001808201835560008390527fc65a7bb8d6351c1cf70c95a316cc6a92839c986682d98bc35f958f4883f9d2a890910180546001600160a01b0319166001600160a01b038b1690811790915591549192507fdb8ce90d26eb0f2c05e210f29bd0a57d60f404f3f8022cee68265ea6e8ca383591611320908290612625565b6040805192151583526020830191909152429082015260600160405180910390a2505050505050565b611351611d14565b6001600160a01b03811661139b5760405162461bcd60e51b8152602060048201526011602482015270125b9d985b1a59081c9958da5c1a595b9d607a1b6044820152606401610815565b478211156113e25760405162461bcd60e51b8152602060048201526014602482015273496e73756666696369656e742062616c616e636560601b6044820152606401610815565b6000816001600160a01b03168360405160006040518083038185875af1925050503d806000811461142f576040519150601f19603f3d011682016040523d82523d6000602084013e611434565b606091505b50509050806114775760405162461bcd60e51b815260206004820152600f60248201526e151c985b9cd9995c8819985a5b1959608a1b6044820152606401610815565b604080518481524260208201526001600160a01b038416916000917f1401b6ff3b281e84fd77353369caed48ba7e787dd3821db05cc006437360820191015b60405180910390a3505050565b6114cb611d14565b610c316000611dc3565b6114dd611d14565b6001600160a01b0381166115275760405162461bcd60e51b8152602060048201526011602482015270125b9d985b1a59081c9958da5c1a595b9d607a1b6044820152606401610815565b61153b6001600160a01b0384168284611e15565b604080518381524260208201526001600160a01b0380841692908616917f1401b6ff3b281e84fd77353369caed48ba7e787dd3821db05cc006437360820191016114b6565b611588611d14565b610c31611e4a565b6000600c826040516115a291906125e0565b9081526040519081900360200190205460ff1692915050565b600a81815481106115cb57600080fd5b6000918252602090912001546001600160a01b0316905081565b6115ed611d14565b604080516080810182528581526020810185905290810183905290151560609091018190526005939093556006919091556007556008805460ff19169091179055565b611638611d14565b601155565b6001600160a01b03821660009081526009602052604081208054600160a01b900460ff166116a35760405162461bcd60e51b8152602060048201526013602482015272151bdad95b881b9bdd081cdd5c1c1bdc9d1959606a1b6044820152606401610815565b60018101546116b390600a612864565b60028201546116c29085612870565b6116cc9190612887565b949350505050565b600e81815481106116e457600080fd5b6000918252602090912060089091020180546001820180546001600160a01b0390921693509061171390612638565b80601f016020809104026020016040519081016040528092919081815260200182805461173f90612638565b801561178c5780601f106117615761010080835404028352916020019161178c565b820191906000526020600020905b81548152906001019060200180831161176f57829003601f168201915b5050505050908060020180546117a190612638565b80601f01602080910402602001604051908101604052809291908181526020018280546117cd90612638565b801561181a5780601f106117ef5761010080835404028352916020019161181a565b820191906000526020600020905b8154815290600101906020018083116117fd57829003601f168201915b50505050509080600301549080600401549080600501805461183b90612638565b80601f016020809104026020016040519081016040528092919081815260200182805461186790612638565b80156118b45780601f10611889576101008083540402835291602001916118b4565b820191906000526020600020905b81548152906001019060200180831161189757829003601f168201915b50505050600683015460079093015491929160ff16905088565b600960205260009081526040902080546001820154600283015460038401546004850180546001600160a01b038087169760ff600160a01b98899004811698928616959290920490911692909161192490612638565b80601f016020809104026020016040519081016040528092919081815260200182805461195090612638565b801561199d5780601f106119725761010080835404028352916020019161199d565b820191906000526020600020905b81548152906001019060200180831161198057829003601f168201915b5050505050905087565b6119af611d14565b6010805460ff1916911515919091179055565b6119ca611d14565b6001600160a01b038216611a195760405162461bcd60e51b8152602060048201526016602482015275496e76616c6964206f7261636c65206164647265737360501b6044820152606401610815565b6001600160a01b03919091166000908152600b60205260409020805460ff1916911515919091179055565b60085460009060ff16611a7057600454611a6683670de0b6b3a7640000612870565b6107b09190612887565b600754600254600091611a8291612887565b600654909150600090611a959083612870565b600554611aa29190612612565b9050806116c285670de0b6b3a7640000612870565b60008060008060006002546003546002546a52b7d2dcc80cd2e4000000611ade9190612625565b600454929891975095509093504792509050565b611afa611d14565b6001600160a01b038116611b5f5760405162461bcd60e51b815260206004820152602660248201527f4f776e61626c653a206e6577206f776e657220697320746865207a65726f206160448201526564647265737360d01b6064820152608401610815565b611b6881611dc3565b50565b600260005403611bbd5760405162461bcd60e51b815260206004820152601f60248201527f5265656e7472616e637947756172643a207265656e7472616e742063616c6c006044820152606401610815565b6002600055565b600154600160a01b900460ff1615610c315760405162461bcd60e51b815260206004820152601060248201526f14185d5cd8589b194e881c185d5cd95960821b6044820152606401610815565b6040516001600160a01b0380851660248301528316604482015260648101829052611c7c9085906323b872dd60e01b906084015b60408051601f198184030181529190526020810180516001600160e01b03166001600160e01b031990931692909217909152611e8d565b50505050565b60085460ff1615610c3157600754600254600091611c9f91612887565b600654909150600090611cb29083612870565b600554611cbf9190612612565b90506004548114610c1d57600481905560025460408051918252602082018390524282820152517fc519af3206e5c325883986d7e86f3cd5415959f018339d023529ed7d6f4ed1419181900360600190a15050565b6001546001600160a01b03163314610c315760405162461bcd60e51b815260206004820181905260248201527f4f776e61626c653a2063616c6c6572206973206e6f7420746865206f776e65726044820152606401610815565b611d76611f62565b6001805460ff60a01b191690557f5db9ee0a495bf2e6ff9c91a7834c1ba4fdd244a5e8aa4e537bd38aeae4b073aa335b6040516001600160a01b03909116815260200160405180910390a1565b600180546001600160a01b038381166001600160a01b0319831681179093556040519116919082907f8be0079c531659141344cd1fd0a4f28419497f9722a3daafe3b4186f6b6457e090600090a35050565b6040516001600160a01b038316602482015260448101829052611e4590849063a9059cbb60e01b90606401611c45565b505050565b611e52611bc4565b6001805460ff60a01b1916600160a01b1790557f62e78cea01bee320cd4e420270b5ea74000d11b0c9f74754ebdbfc544b05a258611da63390565b6000611ee2826040518060400160405280602081526020017f5361666545524332303a206c6f772d6c6576656c2063616c6c206661696c6564815250856001600160a01b0316611fb29092919063ffffffff16565b9050805160001480611f03575080806020019051810190611f0391906128a9565b611e455760405162461bcd60e51b815260206004820152602a60248201527f5361666545524332303a204552433230206f7065726174696f6e20646964206e6044820152691bdd081cdd58d8d9595960b21b6064820152608401610815565b600154600160a01b900460ff16610c315760405162461bcd60e51b815260206004820152601460248201527314185d5cd8589b194e881b9bdd081c185d5cd95960621b6044820152606401610815565b60606116cc848460008585600080866001600160a01b03168587604051611fd991906125e0565b60006040518083038185875af1925050503d8060008114612016576040519150601f19603f3d011682016040523d82523d6000602084013e61201b565b606091505b509150915061202c87838387612037565b979650505050505050565b606083156120a657825160000361209f576001600160a01b0385163b61209f5760405162461bcd60e51b815260206004820152601d60248201527f416464726573733a2063616c6c20746f206e6f6e2d636f6e74726163740000006044820152606401610815565b50816116cc565b6116cc83838151156120bb5781518083602001fd5b8060405162461bcd60e51b815260040161081591906128c6565b634e487b7160e01b600052604160045260246000fd5b600082601f8301126120fc57600080fd5b813567ffffffffffffffff80821115612117576121176120d5565b604051601f8301601f19908116603f0116810190828211818310171561213f5761213f6120d5565b8160405283815286602085880101111561215857600080fd5b836020870160208301376000602085830101528094505050505092915050565b6000806040838503121561218b57600080fd5b823567ffffffffffffffff808211156121a357600080fd5b6121af868387016120eb565b935060208501359150808211156121c557600080fd5b506121d2858286016120eb565b9150509250929050565b80356001600160a01b03811681146121f357600080fd5b919050565b6000806040838503121561220b57600080fd5b612214836121dc565b946020939093013593505050565b60006020828403121561223457600080fd5b61223d826121dc565b9392505050565b600080600080600060a0868803121561225c57600080fd5b612265866121dc565b9450602086013567ffffffffffffffff8082111561228257600080fd5b61228e89838a016120eb565b955060408801359150808211156122a457600080fd5b6122b089838a016120eb565b94506060880135935060808801359150808211156122cd57600080fd5b506122da888289016120eb565b9150509295509295909350565b8015158114611b6857600080fd5b60008060008060008060c0878903121561230e57600080fd5b612317876121dc565b95506020870135945060408701359350612333606088016121dc565b92506080870135612343816122e7565b915060a087013567ffffffffffffffff81111561235f57600080fd5b61236b89828a016120eb565b9150509295509295509295565b6000806040838503121561238b57600080fd5b8235915061239b602084016121dc565b90509250929050565b6000806000606084860312156123b957600080fd5b6123c2846121dc565b9250602084013591506123d7604085016121dc565b90509250925092565b6000602082840312156123f257600080fd5b813567ffffffffffffffff81111561240957600080fd5b6116cc848285016120eb565b60006020828403121561242757600080fd5b5035919050565b6000806000806080858703121561244457600080fd5b8435935060208501359250604085013591506060850135612464816122e7565b939692955090935050565b60005b8381101561248a578181015183820152602001612472565b50506000910152565b600081518084526124ab81602086016020860161246f565b601f01601f19169290920160200192915050565b6001600160a01b0389168152610100602082018190526000906124e48382018b612493565b905082810360408401526124f8818a612493565b905087606084015286608084015282810360a08401526125188187612493565b60c0840195909552505090151560e0909101529695505050505050565b6001600160a01b038881168252871515602083015260408201879052606082018690528416608082015282151560a082015260e060c0820181905260009061257f90830184612493565b9998505050505050505050565b60006020828403121561259e57600080fd5b813561223d816122e7565b600080604083850312156125bc57600080fd5b6125c5836121dc565b915060208301356125d5816122e7565b809150509250929050565b600082516125f281846020870161246f565b9190910192915050565b634e487b7160e01b600052601160045260246000fd5b808201808211156107b0576107b06125fc565b818103818111156107b0576107b06125fc565b600181811c9082168061264c57607f821691505b60208210810361266c57634e487b7160e01b600052602260045260246000fd5b50919050565b601f821115611e4557600081815260208120601f850160051c810160208610156126995750805b601f850160051c820191505b818110156126b8578281556001016126a5565b505050505050565b815167ffffffffffffffff8111156126da576126da6120d5565b6126ee816126e88454612638565b84612672565b602080601f831160018114612723576000841561270b5750858301515b600019600386901b1c1916600185901b1785556126b8565b600085815260208120601f198616915b8281101561275257888601518255948401946001909101908401612733565b50858210156127705787850151600019600388901b60f8161c191681555b5050505050600190811b01905550565b600181815b808511156127bb5781600019048211156127a1576127a16125fc565b808516156127ae57918102915b93841c9390800290612785565b509250929050565b6000826127d2575060016107b0565b816127df575060006107b0565b81600181146127f557600281146127ff5761281b565b60019150506107b0565b60ff841115612810576128106125fc565b50506001821b6107b0565b5060208310610133831016604e8410600b841016171561283e575081810a6107b0565b6128488383612780565b806000190482111561285c5761285c6125fc565b029392505050565b600061223d83836127c3565b80820281158282048414176107b0576107b06125fc565b6000826128a457634e487b7160e01b600052601260045260246000fd5b500490565b6000602082840312156128bb57600080fd5b815161223d816122e7565b60208152600061223d602083018461249356fea2646970667358221220a6a5854a219020b92a4e5b2d645af3e91c75b7a729a66ca38f9c3c33214e3dbc64736f6c63430008140033","opcodes":"PUSH1 0x80 PUSH1 0x40 MSTORE PUSH1 0x10 DUP1 SLOAD PUSH1 0xFF NOT AND SWAP1 SSTORE PUSH10 0x21E19E0C9BAB2400000 PUSH1 0x11 SSTORE CALLVALUE DUP1 ISZERO PUSH2 0x28 JUMPI PUSH1 0x0 DUP1 REVERT JUMPDEST POP PUSH1 0x1 PUSH1 0x0 SSTORE PUSH2 0x37 CALLER PUSH2 0x373 JUMP JUMPDEST PUSH1 0x1 DUP1 SLOAD PUSH1 0xFF PUSH1 0xA0 SHL NOT AND DUP2 SSTORE PUSH7 0x470DE4DF820000 PUSH1 0x4 DUP2 DUP2 SSTORE PUSH1 0x40 DUP1 MLOAD PUSH1 0x80 DUP2 ADD DUP3 MSTORE DUP4 DUP2 MSTORE PUSH7 0x38D7EA4C68000 PUSH1 0x20 DUP1 DUP4 ADD DUP3 SWAP1 MSTORE PUSH10 0xD3C21BCECCEDA1000000 DUP4 DUP6 ADD DUP2 SWAP1 MSTORE PUSH1 0x60 SWAP1 SWAP4 ADD DUP8 SWAP1 MSTORE PUSH1 0x5 SWAP6 DUP7 SSTORE PUSH1 0x6 SWAP2 SWAP1 SWAP2 SSTORE PUSH1 0x7 SWAP2 DUP3 SSTORE PUSH1 0x8 DUP1 SLOAD PUSH1 0xFF NOT SWAP1 DUP2 AND DUP9 OR DUP3 SSTORE CALLER PUSH1 0x0 SWAP1 DUP2 MSTORE PUSH1 0xB SWAP1 SWAP4 MSTORE SWAP2 DUP5 SWAP1 KECCAK256 DUP1 SLOAD SWAP1 SWAP3 AND SWAP1 SWAP7 OR SWAP1 SSTORE DUP2 MLOAD PUSH8 0x657468657265756D PUSH1 0xC0 SHL DUP1 DUP3 MSTORE PUSH1 0xF DUP3 DUP9 ADD DUP2 SWAP1 MSTORE DUP5 MLOAD PUSH1 0x28 SWAP4 DUP2 SWAP1 SUB DUP5 ADD DUP2 KECCAK256 PUSH3 0xCAE8D PUSH1 0xEB SHL DUP3 MSTORE PUSH1 0x3 DUP1 DUP4 ADD SWAP2 SWAP1 SWAP2 MSTORE DUP7 MLOAD PUSH1 0x23 SWAP3 DUP2 SWAP1 SUB DUP4 ADD DUP2 KECCAK256 DUP1 SLOAD PUSH1 0x1 PUSH1 0x1 PUSH1 0xA0 SHL SUB NOT SWAP1 DUP2 AND PUSH20 0xC91A5902DA7321054CEDAEB49CE9A6A3835FC417 OR SWAP1 SWAP2 SSTORE DUP6 DUP3 MSTORE DUP2 DUP13 ADD DUP6 SWAP1 MSTORE DUP9 MLOAD SWAP2 DUP3 SWAP1 SUB DUP8 ADD DUP3 KECCAK256 PUSH4 0x1D5CD91D PUSH1 0xE2 SHL DUP1 DUP5 MSTORE DUP4 DUP13 ADD SWAP2 SWAP1 SWAP2 MSTORE DUP10 MLOAD PUSH1 0x24 SWAP4 DUP2 SWAP1 SUB DUP5 ADD DUP2 KECCAK256 DUP1 SLOAD DUP5 AND PUSH20 0xC9DE877A53F85BF51D76FAED0C8C8842EFB35782 OR SWAP1 SSTORE SWAP7 DUP8 MSTORE SWAP12 DUP7 ADD DUP6 SWAP1 MSTORE DUP9 MLOAD SWAP6 DUP7 SWAP1 SUB SWAP1 SWAP7 ADD DUP6 KECCAK256 PUSH4 0x75736463 PUSH1 0xE0 SHL DUP1 DUP8 MSTORE DUP7 DUP12 ADD SWAP2 SWAP1 SWAP2 MSTORE DUP9 MLOAD SWAP6 DUP7 SWAP1 SUB DUP3 ADD DUP7 KECCAK256 DUP1 SLOAD DUP9 AND PUSH20 0x3A9CA3D316F2032D3A21741CBEA2E047FD3C1145 OR SWAP1 SSTORE PUSH3 0x627363 PUSH1 0xE8 SHL DUP1 DUP8 MSTORE DUP7 DUP5 ADD DUP7 SWAP1 MSTORE DUP10 MLOAD SWAP7 DUP8 SWAP1 SUB DUP6 ADD DUP8 KECCAK256 PUSH3 0x313731 PUSH1 0xE9 SHL DUP9 MSTORE DUP8 DUP6 ADD MSTORE DUP10 MLOAD SWAP7 DUP8 SWAP1 SUB DUP6 ADD DUP8 KECCAK256 DUP1 SLOAD DUP10 AND PUSH20 0x794F67AA174BD0A252BECA0089490A58CC695A05 OR SWAP1 SSTORE DUP1 DUP8 MSTORE DUP7 DUP5 ADD DUP7 SWAP1 MSTORE DUP10 MLOAD SWAP7 DUP8 SWAP1 SUB DUP6 ADD DUP8 KECCAK256 DUP14 DUP9 MSTORE DUP8 DUP13 ADD MSTORE DUP10 MLOAD SWAP7 DUP8 SWAP1 SUB DUP4 ADD DUP8 KECCAK256 DUP1 SLOAD DUP10 AND PUSH20 0xC13527F3BBAAF4CD726D07A78DA9C5B74876527F OR SWAP1 SSTORE DUP7 MSTORE SWAP2 DUP6 ADD DUP5 SWAP1 MSTORE DUP8 MLOAD SWAP5 DUP6 SWAP1 SUB SWAP1 SWAP3 ADD DUP5 KECCAK256 DUP2 DUP6 MSTORE DUP5 DUP10 ADD MSTORE DUP7 MLOAD SWAP4 DUP5 SWAP1 SUB DUP3 ADD DUP5 KECCAK256 DUP1 SLOAD DUP7 AND PUSH20 0x21FCCBB9B9B7C620BCBA61B6668C30F64C22859C OR SWAP1 SSTORE PUSH7 0x3837B63CB3B7B7 PUSH1 0xC9 SHL DUP1 DUP6 MSTORE DUP5 DUP8 ADD DUP5 SWAP1 MSTORE DUP8 MLOAD PUSH1 0x27 SWAP6 DUP2 SWAP1 SUB DUP7 ADD DUP2 KECCAK256 PUSH5 0x6D61746963 PUSH1 0xD8 SHL DUP3 MSTORE SWAP11 DUP2 ADD SWAP11 SWAP1 SWAP11 MSTORE DUP8 MLOAD PUSH1 0x25 SWAP11 DUP2 SWAP1 SUB SWAP11 SWAP1 SWAP11 ADD DUP11 KECCAK256 DUP1 SLOAD DUP8 AND PUSH20 0x6351F025E2DDE967A1FAD29D0FF44C3620F4EED7 OR SWAP1 SSTORE DUP1 DUP11 MSTORE DUP10 DUP8 ADD DUP5 SWAP1 MSTORE DUP8 MLOAD SWAP10 DUP11 SWAP1 SUB DUP6 ADD DUP11 KECCAK256 SWAP11 DUP11 MSTORE DUP10 DUP10 ADD SWAP11 SWAP1 SWAP11 MSTORE DUP7 MLOAD SWAP9 DUP10 SWAP1 SUB DUP3 ADD DUP10 KECCAK256 DUP1 SLOAD DUP7 AND PUSH20 0xD413AFAB39D24462ACE36CFE5D710CE9B813C84B OR SWAP1 SSTORE SWAP9 DUP9 MSTORE SWAP4 DUP8 ADD MSTORE DUP4 MLOAD SWAP6 DUP7 SWAP1 SUB ADD DUP6 KECCAK256 SWAP6 DUP6 MSTORE SWAP3 DUP5 ADD SWAP5 SWAP1 SWAP5 MSTORE MLOAD SWAP2 DUP3 SWAP1 SUB SWAP1 SWAP3 ADD SWAP1 KECCAK256 DUP1 SLOAD SWAP1 SWAP2 AND PUSH20 0xE97BF18735A1AB4A1BA9DDF284D7798A5B0F8A84 OR SWAP1 SSTORE PUSH2 0x3C5 JUMP JUMPDEST PUSH1 0x1 DUP1 SLOAD PUSH1 0x1 PUSH1 0x1 PUSH1 0xA0 SHL SUB DUP4 DUP2 AND PUSH1 0x1 PUSH1 0x1 PUSH1 0xA0 SHL SUB NOT DUP4 AND DUP2 OR SWAP1 SWAP4 SSTORE PUSH1 0x40 MLOAD SWAP2 AND SWAP2 SWAP1 DUP3 SWAP1 PUSH32 0x8BE0079C531659141344CD1FD0A4F28419497F9722A3DAAFE3B4186F6B6457E0 SWAP1 PUSH1 0x0 SWAP1 LOG3 POP POP JUMP JUMPDEST PUSH2 0x290F DUP1 PUSH2 0x3D4 PUSH1 0x0 CODECOPY PUSH1 0x0 RETURN INVALID PUSH1 0x80 PUSH1 0x40 MSTORE PUSH1 0x4 CALLDATASIZE LT PUSH2 0x21E JUMPI PUSH1 0x0 CALLDATALOAD PUSH1 0xE0 SHR DUP1 PUSH4 0x8482EE9D GT PUSH2 0x123 JUMPI DUP1 PUSH4 0xBCB34EA5 GT PUSH2 0xAB JUMPI DUP1 PUSH4 0xCCC70A0C GT PUSH2 0x6F JUMPI DUP1 PUSH4 0xCCC70A0C EQ PUSH2 0x68B JUMPI DUP1 PUSH4 0xDFE6B5D6 EQ PUSH2 0x6AB JUMPI DUP1 PUSH4 0xEFF1D50E EQ PUSH2 0x6E8 JUMPI DUP1 PUSH4 0xF2FDE38B EQ PUSH2 0x730 JUMPI DUP1 PUSH4 0xF952FCAD EQ PUSH2 0x750 JUMPI PUSH1 0x0 DUP1 REVERT JUMPDEST DUP1 PUSH4 0xBCB34EA5 EQ PUSH2 0x5A9 JUMPI DUP1 PUSH4 0xC2E9C122 EQ PUSH2 0x5DD JUMPI DUP1 PUSH4 0xC3B88B42 EQ PUSH2 0x618 JUMPI DUP1 PUSH4 0xC73D7C7B EQ PUSH2 0x64B JUMPI DUP1 PUSH4 0xC7A6DE4D EQ PUSH2 0x66B JUMPI PUSH1 0x0 DUP1 REVERT JUMPDEST DUP1 PUSH4 0x9463E068 GT PUSH2 0xF2 JUMPI DUP1 PUSH4 0x9463E068 EQ PUSH2 0x513 JUMPI DUP1 PUSH4 0x949D6C0E EQ PUSH2 0x533 JUMPI DUP1 PUSH4 0x9D1B464A EQ PUSH2 0x553 JUMPI DUP1 PUSH4 0xA5FA12F0 EQ PUSH2 0x569 JUMPI DUP1 PUSH4 0xAC4FFCDF EQ PUSH2 0x589 JUMPI PUSH1 0x0 DUP1 REVERT JUMPDEST DUP1 PUSH4 0x8482EE9D EQ PUSH2 0x4A4 JUMPI DUP1 PUSH4 0x85CBC881 EQ PUSH2 0x4BF JUMPI DUP1 PUSH4 0x87258982 EQ PUSH2 0x4D5 JUMPI DUP1 PUSH4 0x8DA5CB5B EQ PUSH2 0x4F5 JUMPI PUSH1 0x0 DUP1 REVERT JUMPDEST DUP1 PUSH4 0x61C992A3 GT PUSH2 0x1A6 JUMPI DUP1 PUSH4 0x715018A6 GT PUSH2 0x175 JUMPI DUP1 PUSH4 0x715018A6 EQ PUSH2 0x42F JUMPI DUP1 PUSH4 0x789701E8 EQ PUSH2 0x444 JUMPI DUP1 PUSH4 0x80AB2EFD EQ PUSH2 0x45A JUMPI DUP1 PUSH4 0x83509080 EQ PUSH2 0x46F JUMPI DUP1 PUSH4 0x8456CB59 EQ PUSH2 0x48F JUMPI PUSH1 0x0 DUP1 REVERT JUMPDEST DUP1 PUSH4 0x61C992A3 EQ PUSH2 0x367 JUMPI DUP1 PUSH4 0x63A599A4 EQ PUSH2 0x397 JUMPI DUP1 PUSH4 0x6807BFD1 EQ PUSH2 0x3B1 JUMPI DUP1 PUSH4 0x70A8F621 EQ PUSH2 0x40F JUMPI PUSH1 0x0 DUP1 REVERT JUMPDEST DUP1 PUSH4 0x3F4BA83A GT PUSH2 0x1ED JUMPI DUP1 PUSH4 0x3F4BA83A EQ PUSH2 0x2C8 JUMPI DUP1 PUSH4 0x409E805E EQ PUSH2 0x2DD JUMPI DUP1 PUSH4 0x4223A464 EQ PUSH2 0x2FD JUMPI DUP1 PUSH4 0x4828E6A0 EQ PUSH2 0x31D JUMPI DUP1 PUSH4 0x5C975ABB EQ PUSH2 0x33C JUMPI PUSH1 0x0 DUP1 REVERT JUMPDEST DUP1 PUSH4 0x622A18E EQ PUSH2 0x22A JUMPI DUP1 PUSH4 0x19F996E7 EQ PUSH2 0x24E JUMPI DUP1 PUSH4 0x22EA2231 EQ PUSH2 0x286 JUMPI DUP1 PUSH4 0x39F65C09 EQ PUSH2 0x29B JUMPI PUSH1 0x0 DUP1 REVERT JUMPDEST CALLDATASIZE PUSH2 0x225 JUMPI STOP JUMPDEST PUSH1 0x0 DUP1 REVERT JUMPDEST CALLVALUE DUP1 ISZERO PUSH2 0x236 JUMPI PUSH1 0x0 DUP1 REVERT JUMPDEST POP PUSH1 0xA SLOAD JUMPDEST PUSH1 0x40 MLOAD SWAP1 DUP2 MSTORE PUSH1 0x20 ADD JUMPDEST PUSH1 0x40 MLOAD DUP1 SWAP2 SUB SWAP1 RETURN JUMPDEST CALLVALUE DUP1 ISZERO PUSH2 0x25A JUMPI PUSH1 0x0 DUP1 REVERT JUMPDEST POP PUSH2 0x26E PUSH2 0x269 CALLDATASIZE PUSH1 0x4 PUSH2 0x2178 JUMP JUMPDEST PUSH2 0x766 JUMP JUMPDEST PUSH1 0x40 MLOAD PUSH1 0x1 PUSH1 0x1 PUSH1 0xA0 SHL SUB SWAP1 SWAP2 AND DUP2 MSTORE PUSH1 0x20 ADD PUSH2 0x245 JUMP JUMPDEST PUSH2 0x299 PUSH2 0x294 CALLDATASIZE PUSH1 0x4 PUSH2 0x21F8 JUMP JUMPDEST PUSH2 0x7B6 JUMP JUMPDEST STOP JUMPDEST CALLVALUE DUP1 ISZERO PUSH2 0x2A7 JUMPI PUSH1 0x0 DUP1 REVERT JUMPDEST POP PUSH2 0x23B PUSH2 0x2B6 CALLDATASIZE PUSH1 0x4 PUSH2 0x2222 JUMP JUMPDEST PUSH1 0xD PUSH1 0x20 MSTORE PUSH1 0x0 SWAP1 DUP2 MSTORE PUSH1 0x40 SWAP1 KECCAK256 SLOAD DUP2 JUMP JUMPDEST CALLVALUE DUP1 ISZERO PUSH2 0x2D4 JUMPI PUSH1 0x0 DUP1 REVERT JUMPDEST POP PUSH2 0x299 PUSH2 0xC21 JUMP JUMPDEST CALLVALUE DUP1 ISZERO PUSH2 0x2E9 JUMPI PUSH1 0x0 DUP1 REVERT JUMPDEST POP PUSH2 0x299 PUSH2 0x2F8 CALLDATASIZE PUSH1 0x4 PUSH2 0x2244 JUMP JUMPDEST PUSH2 0xC33 JUMP JUMPDEST CALLVALUE DUP1 ISZERO PUSH2 0x309 JUMPI PUSH1 0x0 DUP1 REVERT JUMPDEST POP PUSH2 0x299 PUSH2 0x318 CALLDATASIZE PUSH1 0x4 PUSH2 0x22F5 JUMP JUMPDEST PUSH2 0x117E JUMP JUMPDEST CALLVALUE DUP1 ISZERO PUSH2 0x329 JUMPI PUSH1 0x0 DUP1 REVERT JUMPDEST POP PUSH2 0x23B PUSH11 0x52B7D2DCC80CD2E4000000 DUP2 JUMP JUMPDEST CALLVALUE DUP1 ISZERO PUSH2 0x348 JUMPI PUSH1 0x0 DUP1 REVERT JUMPDEST POP PUSH1 0x1 SLOAD PUSH1 0x1 PUSH1 0xA0 SHL SWAP1 DIV PUSH1 0xFF AND JUMPDEST PUSH1 0x40 MLOAD SWAP1 ISZERO ISZERO DUP2 MSTORE PUSH1 0x20 ADD PUSH2 0x245 JUMP JUMPDEST CALLVALUE DUP1 ISZERO PUSH2 0x373 JUMPI PUSH1 0x0 DUP1 REVERT JUMPDEST POP PUSH2 0x357 PUSH2 0x382 CALLDATASIZE PUSH1 0x4 PUSH2 0x2222 JUMP JUMPDEST PUSH1 0xB PUSH1 0x20 MSTORE PUSH1 0x0 SWAP1 DUP2 MSTORE PUSH1 0x40 SWAP1 KECCAK256 SLOAD PUSH1 0xFF AND DUP2 JUMP JUMPDEST CALLVALUE DUP1 ISZERO PUSH2 0x3A3 JUMPI PUSH1 0x0 DUP1 REVERT JUMPDEST POP PUSH1 0x10 SLOAD PUSH2 0x357 SWAP1 PUSH1 0xFF AND DUP2 JUMP JUMPDEST CALLVALUE DUP1 ISZERO PUSH2 0x3BD JUMPI PUSH1 0x0 DUP1 REVERT JUMPDEST POP PUSH2 0x26E PUSH2 0x3CC CALLDATASIZE PUSH1 0x4 PUSH2 0x2178 JUMP JUMPDEST DUP2 MLOAD PUSH1 0x20 DUP2 DUP5 ADD DUP2 ADD DUP1 MLOAD PUSH1 0xF DUP3 MSTORE SWAP3 DUP3 ADD SWAP5 DUP3 ADD SWAP5 SWAP1 SWAP5 KECCAK256 SWAP2 SWAP1 SWAP4 MSTORE DUP2 MLOAD DUP1 DUP4 ADD DUP5 ADD DUP1 MLOAD SWAP3 DUP2 MSTORE SWAP1 DUP5 ADD SWAP3 SWAP1 SWAP4 ADD SWAP2 SWAP1 SWAP2 KECCAK256 SWAP2 MSTORE SLOAD PUSH1 0x1 PUSH1 0x1 PUSH1 0xA0 SHL SUB AND DUP2 JUMP JUMPDEST CALLVALUE DUP1 ISZERO PUSH2 0x41B JUMPI PUSH1 0x0 DUP1 REVERT JUMPDEST POP PUSH2 0x299 PUSH2 0x42A CALLDATASIZE PUSH1 0x4 PUSH2 0x2378 JUMP JUMPDEST PUSH2 0x1349 JUMP JUMPDEST CALLVALUE DUP1 ISZERO PUSH2 0x43B JUMPI PUSH1 0x0 DUP1 REVERT JUMPDEST POP PUSH2 0x299 PUSH2 0x14C3 JUMP JUMPDEST CALLVALUE DUP1 ISZERO PUSH2 0x450 JUMPI PUSH1 0x0 DUP1 REVERT JUMPDEST POP PUSH2 0x23B PUSH1 0x2 SLOAD DUP2 JUMP JUMPDEST CALLVALUE DUP1 ISZERO PUSH2 0x466 JUMPI PUSH1 0x0 DUP1 REVERT JUMPDEST POP PUSH1 0xE SLOAD PUSH2 0x23B JUMP JUMPDEST CALLVALUE DUP1 ISZERO PUSH2 0x47B JUMPI PUSH1 0x0 DUP1 REVERT JUMPDEST POP PUSH2 0x299 PUSH2 0x48A CALLDATASIZE PUSH1 0x4 PUSH2 0x23A4 JUMP JUMPDEST PUSH2 0x14D5 JUMP JUMPDEST CALLVALUE DUP1 ISZERO PUSH2 0x49B JUMPI PUSH1 0x0 DUP1 REVERT JUMPDEST POP PUSH2 0x299 PUSH2 0x1580 JUMP JUMPDEST CALLVALUE DUP1 ISZERO PUSH2 0x4B0 JUMPI PUSH1 0x0 DUP1 REVERT JUMPDEST POP PUSH2 0x23B PUSH7 0x470DE4DF820000 DUP2 JUMP JUMPDEST CALLVALUE DUP1 ISZERO PUSH2 0x4CB JUMPI PUSH1 0x0 DUP1 REVERT JUMPDEST POP PUSH2 0x23B PUSH1 0x3 SLOAD DUP2 JUMP JUMPDEST CALLVALUE DUP1 ISZERO PUSH2 0x4E1 JUMPI PUSH1 0x0 DUP1 REVERT JUMPDEST POP PUSH2 0x357 PUSH2 0x4F0 CALLDATASIZE PUSH1 0x4 PUSH2 0x23E0 JUMP JUMPDEST PUSH2 0x1590 JUMP JUMPDEST CALLVALUE DUP1 ISZERO PUSH2 0x501 JUMPI PUSH1 0x0 DUP1 REVERT JUMPDEST POP PUSH1 0x1 SLOAD PUSH1 0x1 PUSH1 0x1 PUSH1 0xA0 SHL SUB AND PUSH2 0x26E JUMP JUMPDEST CALLVALUE DUP1 ISZERO PUSH2 0x51F JUMPI PUSH1 0x0 DUP1 REVERT JUMPDEST POP PUSH2 0x26E PUSH2 0x52E CALLDATASIZE PUSH1 0x4 PUSH2 0x2415 JUMP JUMPDEST PUSH2 0x15BB JUMP JUMPDEST CALLVALUE DUP1 ISZERO PUSH2 0x53F JUMPI PUSH1 0x0 DUP1 REVERT JUMPDEST POP PUSH2 0x299 PUSH2 0x54E CALLDATASIZE PUSH1 0x4 PUSH2 0x242E JUMP JUMPDEST PUSH2 0x15E5 JUMP JUMPDEST CALLVALUE DUP1 ISZERO PUSH2 0x55F JUMPI PUSH1 0x0 DUP1 REVERT JUMPDEST POP PUSH2 0x23B PUSH1 0x4 SLOAD DUP2 JUMP JUMPDEST CALLVALUE DUP1 ISZERO PUSH2 0x575 JUMPI PUSH1 0x0 DUP1 REVERT JUMPDEST POP PUSH2 0x299 PUSH2 0x584 CALLDATASIZE PUSH1 0x4 PUSH2 0x2415 JUMP JUMPDEST PUSH2 0x1630 JUMP JUMPDEST CALLVALUE DUP1 ISZERO PUSH2 0x595 JUMPI PUSH1 0x0 DUP1 REVERT JUMPDEST POP PUSH2 0x23B PUSH2 0x5A4 CALLDATASIZE PUSH1 0x4 PUSH2 0x21F8 JUMP JUMPDEST PUSH2 0x163D JUMP JUMPDEST CALLVALUE DUP1 ISZERO PUSH2 0x5B5 JUMPI PUSH1 0x0 DUP1 REVERT JUMPDEST POP PUSH2 0x5C9 PUSH2 0x5C4 CALLDATASIZE PUSH1 0x4 PUSH2 0x2415 JUMP JUMPDEST PUSH2 0x16D4 JUMP JUMPDEST PUSH1 0x40 MLOAD PUSH2 0x245 SWAP9 SWAP8 SWAP7 SWAP6 SWAP5 SWAP4 SWAP3 SWAP2 SWAP1 PUSH2 0x24BF JUMP JUMPDEST CALLVALUE DUP1 ISZERO PUSH2 0x5E9 JUMPI PUSH1 0x0 DUP1 REVERT JUMPDEST POP PUSH2 0x357 PUSH2 0x5F8 CALLDATASIZE PUSH1 0x4 PUSH2 0x23E0 JUMP JUMPDEST DUP1 MLOAD PUSH1 0x20 DUP2 DUP4 ADD DUP2 ADD DUP1 MLOAD PUSH1 0xC DUP3 MSTORE SWAP3 DUP3 ADD SWAP2 SWAP1 SWAP4 ADD KECCAK256 SWAP2 MSTORE SLOAD PUSH1 0xFF AND DUP2 JUMP JUMPDEST CALLVALUE DUP1 ISZERO PUSH2 0x624 JUMPI PUSH1 0x0 DUP1 REVERT JUMPDEST POP PUSH2 0x638 PUSH2 0x633 CALLDATASIZE PUSH1 0x4 PUSH2 0x2222 JUMP JUMPDEST PUSH2 0x18CE JUMP JUMPDEST PUSH1 0x40 MLOAD PUSH2 0x245 SWAP8 SWAP7 SWAP6 SWAP5 SWAP4 SWAP3 SWAP2 SWAP1 PUSH2 0x2535 JUMP JUMPDEST CALLVALUE DUP1 ISZERO PUSH2 0x657 JUMPI PUSH1 0x0 DUP1 REVERT JUMPDEST POP PUSH2 0x299 PUSH2 0x666 CALLDATASIZE PUSH1 0x4 PUSH2 0x258C JUMP JUMPDEST PUSH2 0x19A7 JUMP JUMPDEST CALLVALUE DUP1 ISZERO PUSH2 0x677 JUMPI PUSH1 0x0 DUP1 REVERT JUMPDEST POP PUSH2 0x299 PUSH2 0x686 CALLDATASIZE PUSH1 0x4 PUSH2 0x25A9 JUMP JUMPDEST PUSH2 0x19C2 JUMP JUMPDEST CALLVALUE DUP1 ISZERO PUSH2 0x697 JUMPI PUSH1 0x0 DUP1 REVERT JUMPDEST POP PUSH2 0x23B PUSH2 0x6A6 CALLDATASIZE PUSH1 0x4 PUSH2 0x2415 JUMP JUMPDEST PUSH2 0x1A44 JUMP JUMPDEST CALLVALUE DUP1 ISZERO PUSH2 0x6B7 JUMPI PUSH1 0x0 DUP1 REVERT JUMPDEST POP PUSH2 0x6C0 PUSH2 0x1AB7 JUMP JUMPDEST PUSH1 0x40 DUP1 MLOAD SWAP6 DUP7 MSTORE PUSH1 0x20 DUP7 ADD SWAP5 SWAP1 SWAP5 MSTORE SWAP3 DUP5 ADD SWAP2 SWAP1 SWAP2 MSTORE PUSH1 0x60 DUP4 ADD MSTORE PUSH1 0x80 DUP3 ADD MSTORE PUSH1 0xA0 ADD PUSH2 0x245 JUMP JUMPDEST CALLVALUE DUP1 ISZERO PUSH2 0x6F4 JUMPI PUSH1 0x0 DUP1 REVERT JUMPDEST POP PUSH1 0x5 SLOAD PUSH1 0x6 SLOAD PUSH1 0x7 SLOAD PUSH1 0x8 SLOAD PUSH2 0x70E SWAP4 SWAP3 SWAP2 SWAP1 PUSH1 0xFF AND DUP5 JUMP JUMPDEST PUSH1 0x40 DUP1 MLOAD SWAP5 DUP6 MSTORE PUSH1 0x20 DUP6 ADD SWAP4 SWAP1 SWAP4 MSTORE SWAP2 DUP4 ADD MSTORE ISZERO ISZERO PUSH1 0x60 DUP3 ADD MSTORE PUSH1 0x80 ADD PUSH2 0x245 JUMP JUMPDEST CALLVALUE DUP1 ISZERO PUSH2 0x73C JUMPI PUSH1 0x0 DUP1 REVERT JUMPDEST POP PUSH2 0x299 PUSH2 0x74B CALLDATASIZE PUSH1 0x4 PUSH2 0x2222 JUMP JUMPDEST PUSH2 0x1AF2 JUMP JUMPDEST CALLVALUE DUP1 ISZERO PUSH2 0x75C JUMPI PUSH1 0x0 DUP1 REVERT JUMPDEST POP PUSH2 0x23B PUSH1 0x11 SLOAD DUP2 JUMP JUMPDEST PUSH1 0x0 PUSH1 0xF DUP4 PUSH1 0x40 MLOAD PUSH2 0x778 SWAP2 SWAP1 PUSH2 0x25E0 JUMP JUMPDEST SWAP1 DUP2 MSTORE PUSH1 0x20 ADD PUSH1 0x40 MLOAD DUP1 SWAP2 SUB SWAP1 KECCAK256 DUP3 PUSH1 0x40 MLOAD PUSH2 0x794 SWAP2 SWAP1 PUSH2 0x25E0 JUMP JUMPDEST SWAP1 DUP2 MSTORE PUSH1 0x40 MLOAD SWAP1 DUP2 SWAP1 SUB PUSH1 0x20 ADD SWAP1 KECCAK256 SLOAD PUSH1 0x1 PUSH1 0x1 PUSH1 0xA0 SHL SUB AND SWAP1 POP JUMPDEST SWAP3 SWAP2 POP POP JUMP JUMPDEST PUSH2 0x7BE PUSH2 0x1B6B JUMP JUMPDEST PUSH2 0x7C6 PUSH2 0x1BC4 JUMP JUMPDEST PUSH1 0x10 SLOAD PUSH1 0xFF AND ISZERO PUSH2 0x81E JUMPI PUSH1 0x40 MLOAD PUSH3 0x461BCD PUSH1 0xE5 SHL DUP2 MSTORE PUSH1 0x20 PUSH1 0x4 DUP3 ADD MSTORE PUSH1 0x18 PUSH1 0x24 DUP3 ADD MSTORE PUSH32 0x456D657267656E63792073746F70206163746976617465640000000000000000 PUSH1 0x44 DUP3 ADD MSTORE PUSH1 0x64 ADD JUMPDEST PUSH1 0x40 MLOAD DUP1 SWAP2 SUB SWAP1 REVERT JUMPDEST PUSH1 0x0 DUP2 GT PUSH2 0x87C JUMPI PUSH1 0x40 MLOAD PUSH3 0x461BCD PUSH1 0xE5 SHL DUP2 MSTORE PUSH1 0x20 PUSH1 0x4 DUP3 ADD MSTORE PUSH1 0x25 PUSH1 0x24 DUP3 ADD MSTORE PUSH32 0x5061796D656E7420616D6F756E74206D75737420626520677265617465722074 PUSH1 0x44 DUP3 ADD MSTORE PUSH5 0x68616E203 PUSH1 0xDC SHL PUSH1 0x64 DUP3 ADD MSTORE PUSH1 0x84 ADD PUSH2 0x815 JUMP JUMPDEST PUSH1 0x1 PUSH1 0x1 PUSH1 0xA0 SHL SUB DUP3 AND PUSH1 0x0 SWAP1 DUP2 MSTORE PUSH1 0x9 PUSH1 0x20 MSTORE PUSH1 0x40 SWAP1 KECCAK256 DUP1 SLOAD PUSH1 0x1 PUSH1 0xA0 SHL SWAP1 DIV PUSH1 0xFF AND PUSH2 0x8EC JUMPI PUSH1 0x40 MLOAD PUSH3 0x461BCD PUSH1 0xE5 SHL DUP2 MSTORE PUSH1 0x20 PUSH1 0x4 DUP3 ADD MSTORE PUSH1 0x1B PUSH1 0x24 DUP3 ADD MSTORE PUSH32 0x5061796D656E7420746F6B656E206E6F7420737570706F727465640000000000 PUSH1 0x44 DUP3 ADD MSTORE PUSH1 0x64 ADD PUSH2 0x815 JUMP JUMPDEST PUSH1 0x0 PUSH2 0x8F8 DUP5 DUP5 PUSH2 0x163D JUMP JUMPDEST SWAP1 POP PUSH1 0x11 SLOAD DUP2 GT ISZERO PUSH2 0x94C JUMPI PUSH1 0x40 MLOAD PUSH3 0x461BCD PUSH1 0xE5 SHL DUP2 MSTORE PUSH1 0x20 PUSH1 0x4 DUP3 ADD MSTORE PUSH1 0x1F PUSH1 0x24 DUP3 ADD MSTORE PUSH32 0x45786365656473206D6178696D756D20707572636861736520616D6F756E7400 PUSH1 0x44 DUP3 ADD MSTORE PUSH1 0x64 ADD PUSH2 0x815 JUMP JUMPDEST PUSH1 0x0 PUSH2 0x957 DUP3 PUSH2 0x1A44 JUMP JUMPDEST SWAP1 POP PUSH11 0x52B7D2DCC80CD2E4000000 DUP2 PUSH1 0x2 SLOAD PUSH2 0x973 SWAP2 SWAP1 PUSH2 0x2612 JUMP JUMPDEST GT ISZERO PUSH2 0x9BC JUMPI PUSH1 0x40 MLOAD PUSH3 0x461BCD PUSH1 0xE5 SHL DUP2 MSTORE PUSH1 0x20 PUSH1 0x4 DUP3 ADD MSTORE PUSH1 0x18 PUSH1 0x24 DUP3 ADD MSTORE PUSH24 0x4578636565647320617661696C61626C6520737570706C79 PUSH1 0x40 SHL PUSH1 0x44 DUP3 ADD MSTORE PUSH1 0x64 ADD PUSH2 0x815 JUMP JUMPDEST PUSH1 0x3 DUP4 ADD SLOAD PUSH1 0x1 PUSH1 0xA0 SHL SWAP1 DIV PUSH1 0xFF AND ISZERO PUSH2 0xAA2 JUMPI DUP4 CALLVALUE LT ISZERO PUSH2 0xA20 JUMPI PUSH1 0x40 MLOAD PUSH3 0x461BCD PUSH1 0xE5 SHL DUP2 MSTORE PUSH1 0x20 PUSH1 0x4 DUP3 ADD MSTORE PUSH1 0x1E PUSH1 0x24 DUP3 ADD MSTORE PUSH32 0x496E73756666696369656E74206E617469766520746F6B656E2073656E740000 PUSH1 0x44 DUP3 ADD MSTORE PUSH1 0x64 ADD PUSH2 0x815 JUMP JUMPDEST PUSH1 0x3 DUP4 ADD SLOAD PUSH1 0x40 MLOAD PUSH1 0x1 PUSH1 0x1 PUSH1 0xA0 SHL SUB SWAP1 SWAP2 AND SWAP1 DUP6 ISZERO PUSH2 0x8FC MUL SWAP1 DUP7 SWAP1 PUSH1 0x0 DUP2 DUP2 DUP2 DUP6 DUP9 DUP9 CALL SWAP4 POP POP POP POP ISZERO DUP1 ISZERO PUSH2 0xA5C JUMPI RETURNDATASIZE PUSH1 0x0 DUP1 RETURNDATACOPY RETURNDATASIZE PUSH1 0x0 REVERT JUMPDEST POP DUP4 CALLVALUE GT ISZERO PUSH2 0xA9D JUMPI CALLER PUSH2 0x8FC PUSH2 0xA73 DUP7 CALLVALUE PUSH2 0x2625 JUMP JUMPDEST PUSH1 0x40 MLOAD DUP2 ISZERO SWAP1 SWAP3 MUL SWAP2 PUSH1 0x0 DUP2 DUP2 DUP2 DUP6 DUP9 DUP9 CALL SWAP4 POP POP POP POP ISZERO DUP1 ISZERO PUSH2 0xA9B JUMPI RETURNDATASIZE PUSH1 0x0 DUP1 RETURNDATACOPY RETURNDATASIZE PUSH1 0x0 REVERT JUMPDEST POP JUMPDEST PUSH2 0xAC2 JUMP JUMPDEST PUSH1 0x3 DUP4 ADD SLOAD DUP4 SLOAD PUSH2 0xAC2 SWAP2 PUSH1 0x1 PUSH1 0x1 PUSH1 0xA0 SHL SUB SWAP2 DUP3 AND SWAP2 CALLER SWAP2 AND DUP8 PUSH2 0x1C11 JUMP JUMPDEST PUSH1 0x40 MLOAD PUSH1 0x0 SWAP1 CALLER SWAP1 DUP4 SWAP1 DUP4 DUP2 DUP2 DUP2 DUP6 DUP8 GAS CALL SWAP3 POP POP POP RETURNDATASIZE DUP1 PUSH1 0x0 DUP2 EQ PUSH2 0xB04 JUMPI PUSH1 0x40 MLOAD SWAP2 POP PUSH1 0x1F NOT PUSH1 0x3F RETURNDATASIZE ADD AND DUP3 ADD PUSH1 0x40 MSTORE RETURNDATASIZE DUP3 MSTORE RETURNDATASIZE PUSH1 0x0 PUSH1 0x20 DUP5 ADD RETURNDATACOPY PUSH2 0xB09 JUMP JUMPDEST PUSH1 0x60 SWAP2 POP JUMPDEST POP POP SWAP1 POP DUP1 PUSH2 0xB50 JUMPI PUSH1 0x40 MLOAD PUSH3 0x461BCD PUSH1 0xE5 SHL DUP2 MSTORE PUSH1 0x20 PUSH1 0x4 DUP3 ADD MSTORE PUSH1 0x13 PUSH1 0x24 DUP3 ADD MSTORE PUSH19 0x109052C81D1C985B9CD9995C8819985A5B1959 PUSH1 0x6A SHL PUSH1 0x44 DUP3 ADD MSTORE PUSH1 0x64 ADD PUSH2 0x815 JUMP JUMPDEST DUP2 PUSH1 0x2 PUSH1 0x0 DUP3 DUP3 SLOAD PUSH2 0xB62 SWAP2 SWAP1 PUSH2 0x2612 JUMP JUMPDEST SWAP3 POP POP DUP2 SWAP1 SSTORE POP DUP3 PUSH1 0x3 PUSH1 0x0 DUP3 DUP3 SLOAD PUSH2 0xB7B SWAP2 SWAP1 PUSH2 0x2612 JUMP JUMPDEST SWAP1 SWAP2 SSTORE POP POP CALLER PUSH1 0x0 SWAP1 DUP2 MSTORE PUSH1 0xD PUSH1 0x20 MSTORE PUSH1 0x40 DUP2 KECCAK256 DUP1 SLOAD DUP5 SWAP3 SWAP1 PUSH2 0xB9F SWAP1 DUP5 SWAP1 PUSH2 0x2612 JUMP JUMPDEST SWAP1 SWAP2 SSTORE POP PUSH2 0xBAD SWAP1 POP PUSH2 0x1C82 JUMP JUMPDEST PUSH1 0x3 DUP5 ADD SLOAD PUSH1 0x40 DUP1 MLOAD DUP8 DUP2 MSTORE PUSH1 0x20 DUP2 ADD DUP6 SWAP1 MSTORE SWAP1 DUP2 ADD DUP6 SWAP1 MSTORE PUSH1 0x1 PUSH1 0x1 PUSH1 0xA0 SHL SUB SWAP2 DUP3 AND PUSH1 0x60 DUP3 ADD MSTORE TIMESTAMP PUSH1 0x80 DUP3 ADD MSTORE SWAP1 DUP8 AND SWAP1 CALLER SWAP1 PUSH32 0x355B943140B1C8C99B2758A4D21C8858E602443ED75603E2465689D647ABF154 SWAP1 PUSH1 0xA0 ADD PUSH1 0x40 MLOAD DUP1 SWAP2 SUB SWAP1 LOG3 POP POP POP POP PUSH2 0xC1D PUSH1 0x1 PUSH1 0x0 SSTORE JUMP JUMPDEST POP POP JUMP JUMPDEST PUSH2 0xC29 PUSH2 0x1D14 JUMP JUMPDEST PUSH2 0xC31 PUSH2 0x1D6E JUMP JUMPDEST JUMP JUMPDEST PUSH2 0xC3B PUSH2 0x1B6B JUMP JUMPDEST PUSH2 0xC43 PUSH2 0x1BC4 JUMP JUMPDEST CALLER PUSH1 0x0 SWAP1 DUP2 MSTORE PUSH1 0xB PUSH1 0x20 MSTORE PUSH1 0x40 SWAP1 KECCAK256 SLOAD PUSH1 0xFF AND PUSH2 0xC9A JUMPI PUSH1 0x40 MLOAD PUSH3 0x461BCD PUSH1 0xE5 SHL DUP2 MSTORE PUSH1 0x20 PUSH1 0x4 DUP3 ADD MSTORE PUSH1 0x15 PUSH1 0x24 DUP3 ADD MSTORE PUSH21 0x4E6F7420617574686F72697A6564206F7261636C65 PUSH1 0x58 SHL PUSH1 0x44 DUP3 ADD MSTORE PUSH1 0x64 ADD PUSH2 0x815 JUMP JUMPDEST PUSH1 0x1 PUSH1 0x1 PUSH1 0xA0 SHL SUB DUP6 AND PUSH2 0xCE8 JUMPI PUSH1 0x40 MLOAD PUSH3 0x461BCD PUSH1 0xE5 SHL DUP2 MSTORE PUSH1 0x20 PUSH1 0x4 DUP3 ADD MSTORE PUSH1 0x15 PUSH1 0x24 DUP3 ADD MSTORE PUSH21 0x496E76616C69642062757965722061646472657373 PUSH1 0x58 SHL PUSH1 0x44 DUP3 ADD MSTORE PUSH1 0x64 ADD PUSH2 0x815 JUMP JUMPDEST PUSH1 0xC DUP2 PUSH1 0x40 MLOAD PUSH2 0xCF8 SWAP2 SWAP1 PUSH2 0x25E0 JUMP JUMPDEST SWAP1 DUP2 MSTORE PUSH1 0x40 MLOAD SWAP1 DUP2 SWAP1 SUB PUSH1 0x20 ADD SWAP1 KECCAK256 SLOAD PUSH1 0xFF AND ISZERO PUSH2 0xD58 JUMPI PUSH1 0x40 MLOAD PUSH3 0x461BCD PUSH1 0xE5 SHL DUP2 MSTORE PUSH1 0x20 PUSH1 0x4 DUP3 ADD MSTORE PUSH1 0x1D PUSH1 0x24 DUP3 ADD MSTORE PUSH32 0x5472616E73616374696F6E20616C72656164792070726F636573736564000000 PUSH1 0x44 DUP3 ADD MSTORE PUSH1 0x64 ADD PUSH2 0x815 JUMP JUMPDEST PUSH1 0x0 DUP2 MLOAD GT PUSH2 0xDA9 JUMPI PUSH1 0x40 MLOAD PUSH3 0x461BCD PUSH1 0xE5 SHL DUP2 MSTORE PUSH1 0x20 PUSH1 0x4 DUP3 ADD MSTORE PUSH1 0x18 PUSH1 0x24 DUP3 ADD MSTORE PUSH32 0x496E76616C6964207472616E73616374696F6E20686173680000000000000000 PUSH1 0x44 DUP3 ADD MSTORE PUSH1 0x64 ADD PUSH2 0x815 JUMP JUMPDEST DUP2 PUSH1 0x0 PUSH2 0xDB5 DUP3 PUSH2 0x1A44 JUMP JUMPDEST SWAP1 POP PUSH11 0x52B7D2DCC80CD2E4000000 DUP2 PUSH1 0x2 SLOAD PUSH2 0xDD1 SWAP2 SWAP1 PUSH2 0x2612 JUMP JUMPDEST GT ISZERO PUSH2 0xE1A JUMPI PUSH1 0x40 MLOAD PUSH3 0x461BCD PUSH1 0xE5 SHL DUP2 MSTORE PUSH1 0x20 PUSH1 0x4 DUP3 ADD MSTORE PUSH1 0x18 PUSH1 0x24 DUP3 ADD MSTORE PUSH24 0x4578636565647320617661696C61626C6520737570706C79 PUSH1 0x40 SHL PUSH1 0x44 DUP3 ADD MSTORE PUSH1 0x64 ADD PUSH2 0x815 JUMP JUMPDEST DUP1 SELFBALANCE LT ISZERO PUSH2 0xE6A JUMPI PUSH1 0x40 MLOAD PUSH3 0x461BCD PUSH1 0xE5 SHL DUP2 MSTORE PUSH1 0x20 PUSH1 0x4 DUP3 ADD MSTORE PUSH1 0x18 PUSH1 0x24 DUP3 ADD MSTORE PUSH32 0x496E73756666696369656E742042414B2062616C616E63650000000000000000 PUSH1 0x44 DUP3 ADD MSTORE PUSH1 0x64 ADD PUSH2 0x815 JUMP JUMPDEST PUSH1 0x1 PUSH1 0xC DUP5 PUSH1 0x40 MLOAD PUSH2 0xE7C SWAP2 SWAP1 PUSH2 0x25E0 JUMP JUMPDEST SWAP1 DUP2 MSTORE PUSH1 0x40 MLOAD SWAP1 DUP2 SWAP1 SUB PUSH1 0x20 ADD DUP2 KECCAK256 DUP1 SLOAD SWAP3 ISZERO ISZERO PUSH1 0xFF NOT SWAP1 SWAP4 AND SWAP3 SWAP1 SWAP3 OR SWAP1 SWAP2 SSTORE PUSH1 0x0 SWAP1 PUSH1 0x1 PUSH1 0x1 PUSH1 0xA0 SHL SUB DUP10 AND SWAP1 DUP4 SWAP1 DUP4 DUP2 DUP2 DUP2 DUP6 DUP8 GAS CALL SWAP3 POP POP POP RETURNDATASIZE DUP1 PUSH1 0x0 DUP2 EQ PUSH2 0xEE5 JUMPI PUSH1 0x40 MLOAD SWAP2 POP PUSH1 0x1F NOT PUSH1 0x3F RETURNDATASIZE ADD AND DUP3 ADD PUSH1 0x40 MSTORE RETURNDATASIZE DUP3 MSTORE RETURNDATASIZE PUSH1 0x0 PUSH1 0x20 DUP5 ADD RETURNDATACOPY PUSH2 0xEEA JUMP JUMPDEST PUSH1 0x60 SWAP2 POP JUMPDEST POP POP SWAP1 POP DUP1 PUSH2 0xF31 JUMPI PUSH1 0x40 MLOAD PUSH3 0x461BCD PUSH1 0xE5 SHL DUP2 MSTORE PUSH1 0x20 PUSH1 0x4 DUP3 ADD MSTORE PUSH1 0x13 PUSH1 0x24 DUP3 ADD MSTORE PUSH19 0x109052C81D1C985B9CD9995C8819985A5B1959 PUSH1 0x6A SHL PUSH1 0x44 DUP3 ADD MSTORE PUSH1 0x64 ADD PUSH2 0x815 JUMP JUMPDEST DUP2 PUSH1 0x2 PUSH1 0x0 DUP3 DUP3 SLOAD PUSH2 0xF43 SWAP2 SWAP1 PUSH2 0x2612 JUMP JUMPDEST SWAP3 POP POP DUP2 SWAP1 SSTORE POP DUP3 PUSH1 0x3 PUSH1 0x0 DUP3 DUP3 SLOAD PUSH2 0xF5C SWAP2 SWAP1 PUSH2 0x2612 JUMP JUMPDEST SWAP1 SWAP2 SSTORE POP POP PUSH1 0x1 PUSH1 0x1 PUSH1 0xA0 SHL SUB DUP9 AND PUSH1 0x0 SWAP1 DUP2 MSTORE PUSH1 0xD PUSH1 0x20 MSTORE PUSH1 0x40 DUP2 KECCAK256 DUP1 SLOAD DUP5 SWAP3 SWAP1 PUSH2 0xF89 SWAP1 DUP5 SWAP1 PUSH2 0x2612 JUMP JUMPDEST SWAP1 SWAP2 SSTORE POP PUSH2 0xF97 SWAP1 POP PUSH2 0x1C82 JUMP JUMPDEST PUSH1 0x40 DUP1 MLOAD PUSH2 0x100 DUP2 ADD DUP3 MSTORE PUSH1 0x1 PUSH1 0x1 PUSH1 0xA0 SHL SUB DUP11 DUP2 AND DUP3 MSTORE PUSH1 0x20 DUP3 ADD DUP11 DUP2 MSTORE SWAP3 DUP3 ADD DUP10 SWAP1 MSTORE PUSH1 0x60 DUP3 ADD DUP9 SWAP1 MSTORE PUSH1 0x80 DUP3 ADD DUP6 SWAP1 MSTORE PUSH1 0xA0 DUP3 ADD DUP8 SWAP1 MSTORE TIMESTAMP PUSH1 0xC0 DUP4 ADD MSTORE PUSH1 0x1 PUSH1 0xE0 DUP4 ADD DUP2 SWAP1 MSTORE PUSH1 0xE DUP1 SLOAD SWAP2 DUP3 ADD DUP2 SSTORE PUSH1 0x0 MSTORE DUP3 MLOAD PUSH32 0xBB7B4A454DC3493923482F07822329ED19E8244EFF582CC204F8554C3620C3FD PUSH1 0x8 SWAP1 SWAP3 MUL SWAP2 DUP3 ADD DUP1 SLOAD PUSH1 0x1 PUSH1 0x1 PUSH1 0xA0 SHL SUB NOT AND SWAP2 SWAP1 SWAP4 AND OR DUP3 SSTORE SWAP3 MLOAD SWAP2 SWAP3 SWAP1 SWAP2 PUSH32 0xBB7B4A454DC3493923482F07822329ED19E8244EFF582CC204F8554C3620C3FE SWAP1 SWAP2 ADD SWAP1 PUSH2 0x105F SWAP1 DUP3 PUSH2 0x26C0 JUMP JUMPDEST POP PUSH1 0x40 DUP3 ADD MLOAD PUSH1 0x2 DUP3 ADD SWAP1 PUSH2 0x1074 SWAP1 DUP3 PUSH2 0x26C0 JUMP JUMPDEST POP PUSH1 0x60 DUP3 ADD MLOAD PUSH1 0x3 DUP3 ADD SSTORE PUSH1 0x80 DUP3 ADD MLOAD PUSH1 0x4 DUP3 ADD SSTORE PUSH1 0xA0 DUP3 ADD MLOAD PUSH1 0x5 DUP3 ADD SWAP1 PUSH2 0x109D SWAP1 DUP3 PUSH2 0x26C0 JUMP JUMPDEST POP PUSH1 0xC0 DUP3 ADD MLOAD PUSH1 0x6 DUP3 ADD SSTORE PUSH1 0xE0 SWAP1 SWAP2 ADD MLOAD PUSH1 0x7 SWAP1 SWAP2 ADD DUP1 SLOAD PUSH1 0xFF NOT AND SWAP2 ISZERO ISZERO SWAP2 SWAP1 SWAP2 OR SWAP1 SSTORE PUSH1 0x40 MLOAD PUSH2 0x10D0 SWAP1 DUP8 SWAP1 PUSH2 0x25E0 JUMP JUMPDEST PUSH1 0x40 MLOAD DUP1 SWAP2 SUB SWAP1 KECCAK256 DUP8 PUSH1 0x40 MLOAD PUSH2 0x10E6 SWAP2 SWAP1 PUSH2 0x25E0 JUMP JUMPDEST PUSH1 0x40 MLOAD DUP1 SWAP2 SUB SWAP1 KECCAK256 DUP10 PUSH1 0x1 PUSH1 0x1 PUSH1 0xA0 SHL SUB AND PUSH32 0xF53767326419E47456340542E4D5FE0B426C6DE7ECC392267681C29F0171CDDF DUP8 PUSH1 0x40 MLOAD PUSH1 0x20 ADD PUSH2 0x112A SWAP2 SWAP1 PUSH2 0x25E0 JUMP JUMPDEST PUSH1 0x40 DUP1 MLOAD DUP1 DUP4 SUB PUSH1 0x1F NOT ADD DUP2 MSTORE DUP3 DUP3 MSTORE DUP1 MLOAD PUSH1 0x20 SWAP2 DUP3 ADD KECCAK256 PUSH1 0x4 SLOAD SWAP1 DUP5 MSTORE SWAP1 DUP4 ADD DUP13 SWAP1 MSTORE SWAP1 DUP3 ADD DUP9 SWAP1 MSTORE PUSH1 0x60 DUP3 ADD MSTORE TIMESTAMP PUSH1 0x80 DUP3 ADD MSTORE PUSH1 0xA0 ADD PUSH1 0x40 MLOAD DUP1 SWAP2 SUB SWAP1 LOG4 POP POP POP PUSH2 0x1177 PUSH1 0x1 PUSH1 0x0 SSTORE JUMP JUMPDEST POP POP POP POP POP JUMP JUMPDEST PUSH2 0x1186 PUSH2 0x1D14 JUMP JUMPDEST PUSH1 0x1 PUSH1 0x1 PUSH1 0xA0 SHL SUB DUP4 AND PUSH2 0x11DC JUMPI PUSH1 0x40 MLOAD PUSH3 0x461BCD PUSH1 0xE5 SHL DUP2 MSTORE PUSH1 0x20 PUSH1 0x4 DUP3 ADD MSTORE PUSH1 0x17 PUSH1 0x24 DUP3 ADD MSTORE PUSH32 0x496E76616C69642074726561737572792077616C6C6574000000000000000000 PUSH1 0x44 DUP3 ADD MSTORE PUSH1 0x64 ADD PUSH2 0x815 JUMP JUMPDEST PUSH1 0x40 DUP1 MLOAD PUSH1 0xE0 DUP2 ADD DUP3 MSTORE PUSH1 0x1 PUSH1 0x1 PUSH1 0xA0 SHL SUB DUP9 DUP2 AND DUP1 DUP4 MSTORE PUSH1 0x1 PUSH1 0x20 DUP1 DUP6 ADD DUP3 DUP2 MSTORE DUP6 DUP8 ADD DUP13 DUP2 MSTORE PUSH1 0x60 DUP8 ADD DUP13 DUP2 MSTORE DUP12 DUP8 AND PUSH1 0x80 DUP10 ADD SWAP1 DUP2 MSTORE DUP12 ISZERO ISZERO PUSH1 0xA0 DUP11 ADD SWAP1 DUP2 MSTORE PUSH1 0xC0 DUP11 ADD DUP13 DUP2 MSTORE PUSH1 0x0 SWAP9 DUP10 MSTORE PUSH1 0x9 SWAP1 SWAP7 MSTORE SWAP10 SWAP1 SWAP7 KECCAK256 DUP9 MLOAD DUP2 SLOAD SWAP5 MLOAD SWAP1 DUP10 AND PUSH1 0x1 PUSH1 0x1 PUSH1 0xA8 SHL SUB NOT SWAP6 DUP7 AND OR PUSH1 0x1 PUSH1 0xA0 SHL SWAP2 ISZERO ISZERO DUP3 MUL OR DUP3 SSTORE SWAP3 MLOAD SWAP6 DUP2 ADD SWAP6 SWAP1 SWAP6 SSTORE MLOAD PUSH1 0x2 DUP6 ADD SSTORE SWAP4 MLOAD PUSH1 0x3 DUP5 ADD DUP1 SLOAD SWAP9 MLOAD SWAP2 SWAP1 SWAP7 AND SWAP8 SWAP1 SWAP2 AND SWAP7 SWAP1 SWAP7 OR SWAP6 ISZERO ISZERO SWAP1 SWAP3 MUL SWAP5 SWAP1 SWAP5 OR SWAP1 SWAP2 SSTORE MLOAD SWAP1 SWAP2 SWAP1 PUSH1 0x4 DUP3 ADD SWAP1 PUSH2 0x129C SWAP1 DUP3 PUSH2 0x26C0 JUMP JUMPDEST POP POP PUSH1 0xA DUP1 SLOAD PUSH1 0x1 DUP1 DUP3 ADD DUP4 SSTORE PUSH1 0x0 DUP4 SWAP1 MSTORE PUSH32 0xC65A7BB8D6351C1CF70C95A316CC6A92839C986682D98BC35F958F4883F9D2A8 SWAP1 SWAP2 ADD DUP1 SLOAD PUSH1 0x1 PUSH1 0x1 PUSH1 0xA0 SHL SUB NOT AND PUSH1 0x1 PUSH1 0x1 PUSH1 0xA0 SHL SUB DUP12 AND SWAP1 DUP2 OR SWAP1 SWAP2 SSTORE SWAP2 SLOAD SWAP2 SWAP3 POP PUSH32 0xDB8CE90D26EB0F2C05E210F29BD0A57D60F404F3F8022CEE68265EA6E8CA3835 SWAP2 PUSH2 0x1320 SWAP1 DUP3 SWAP1 PUSH2 0x2625 JUMP JUMPDEST PUSH1 0x40 DUP1 MLOAD SWAP3 ISZERO ISZERO DUP4 MSTORE PUSH1 0x20 DUP4 ADD SWAP2 SWAP1 SWAP2 MSTORE TIMESTAMP SWAP1 DUP3 ADD MSTORE PUSH1 0x60 ADD PUSH1 0x40 MLOAD DUP1 SWAP2 SUB SWAP1 LOG2 POP POP POP POP POP POP JUMP JUMPDEST PUSH2 0x1351 PUSH2 0x1D14 JUMP JUMPDEST PUSH1 0x1 PUSH1 0x1 PUSH1 0xA0 SHL SUB DUP2 AND PUSH2 0x139B JUMPI PUSH1 0x40 MLOAD PUSH3 0x461BCD PUSH1 0xE5 SHL DUP2 MSTORE PUSH1 0x20 PUSH1 0x4 DUP3 ADD MSTORE PUSH1 0x11 PUSH1 0x24 DUP3 ADD MSTORE PUSH17 0x125B9D985B1A59081C9958DA5C1A595B9D PUSH1 0x7A SHL PUSH1 0x44 DUP3 ADD MSTORE PUSH1 0x64 ADD PUSH2 0x815 JUMP JUMPDEST SELFBALANCE DUP3 GT ISZERO PUSH2 0x13E2 JUMPI PUSH1 0x40 MLOAD PUSH3 0x461BCD PUSH1 0xE5 SHL DUP2 MSTORE PUSH1 0x20 PUSH1 0x4 DUP3 ADD MSTORE PUSH1 0x14 PUSH1 0x24 DUP3 ADD MSTORE PUSH20 0x496E73756666696369656E742062616C616E6365 PUSH1 0x60 SHL PUSH1 0x44 DUP3 ADD MSTORE PUSH1 0x64 ADD PUSH2 0x815 JUMP JUMPDEST PUSH1 0x0 DUP2 PUSH1 0x1 PUSH1 0x1 PUSH1 0xA0 SHL SUB AND DUP4 PUSH1 0x40 MLOAD PUSH1 0x0 PUSH1 0x40 MLOAD DUP1 DUP4 SUB DUP2 DUP6 DUP8 GAS CALL SWAP3 POP POP POP RETURNDATASIZE DUP1 PUSH1 0x0 DUP2 EQ PUSH2 0x142F JUMPI PUSH1 0x40 MLOAD SWAP2 POP PUSH1 0x1F NOT PUSH1 0x3F RETURNDATASIZE ADD AND DUP3 ADD PUSH1 0x40 MSTORE RETURNDATASIZE DUP3 MSTORE RETURNDATASIZE PUSH1 0x0 PUSH1 0x20 DUP5 ADD RETURNDATACOPY PUSH2 0x1434 JUMP JUMPDEST PUSH1 0x60 SWAP2 POP JUMPDEST POP POP SWAP1 POP DUP1 PUSH2 0x1477 JUMPI PUSH1 0x40 MLOAD PUSH3 0x461BCD PUSH1 0xE5 SHL DUP2 MSTORE PUSH1 0x20 PUSH1 0x4 DUP3 ADD MSTORE PUSH1 0xF PUSH1 0x24 DUP3 ADD MSTORE PUSH15 0x151C985B9CD9995C8819985A5B1959 PUSH1 0x8A SHL PUSH1 0x44 DUP3 ADD MSTORE PUSH1 0x64 ADD PUSH2 0x815 JUMP JUMPDEST PUSH1 0x40 DUP1 MLOAD DUP5 DUP2 MSTORE TIMESTAMP PUSH1 0x20 DUP3 ADD MSTORE PUSH1 0x1 PUSH1 0x1 PUSH1 0xA0 SHL SUB DUP5 AND SWAP2 PUSH1 0x0 SWAP2 PUSH32 0x1401B6FF3B281E84FD77353369CAED48BA7E787DD3821DB05CC0064373608201 SWAP2 ADD JUMPDEST PUSH1 0x40 MLOAD DUP1 SWAP2 SUB SWAP1 LOG3 POP POP POP JUMP JUMPDEST PUSH2 0x14CB PUSH2 0x1D14 JUMP JUMPDEST PUSH2 0xC31 PUSH1 0x0 PUSH2 0x1DC3 JUMP JUMPDEST PUSH2 0x14DD PUSH2 0x1D14 JUMP JUMPDEST PUSH1 0x1 PUSH1 0x1 PUSH1 0xA0 SHL SUB DUP2 AND PUSH2 0x1527 JUMPI PUSH1 0x40 MLOAD PUSH3 0x461BCD PUSH1 0xE5 SHL DUP2 MSTORE PUSH1 0x20 PUSH1 0x4 DUP3 ADD MSTORE PUSH1 0x11 PUSH1 0x24 DUP3 ADD MSTORE PUSH17 0x125B9D985B1A59081C9958DA5C1A595B9D PUSH1 0x7A SHL PUSH1 0x44 DUP3 ADD MSTORE PUSH1 0x64 ADD PUSH2 0x815 JUMP JUMPDEST PUSH2 0x153B PUSH1 0x1 PUSH1 0x1 PUSH1 0xA0 SHL SUB DUP5 AND DUP3 DUP5 PUSH2 0x1E15 JUMP JUMPDEST PUSH1 0x40 DUP1 MLOAD DUP4 DUP2 MSTORE TIMESTAMP PUSH1 0x20 DUP3 ADD MSTORE PUSH1 0x1 PUSH1 0x1 PUSH1 0xA0 SHL SUB DUP1 DUP5 AND SWAP3 SWAP1 DUP7 AND SWAP2 PUSH32 0x1401B6FF3B281E84FD77353369CAED48BA7E787DD3821DB05CC0064373608201 SWAP2 ADD PUSH2 0x14B6 JUMP JUMPDEST PUSH2 0x1588 PUSH2 0x1D14 JUMP JUMPDEST PUSH2 0xC31 PUSH2 0x1E4A JUMP JUMPDEST PUSH1 0x0 PUSH1 0xC DUP3 PUSH1 0x40 MLOAD PUSH2 0x15A2 SWAP2 SWAP1 PUSH2 0x25E0 JUMP JUMPDEST SWAP1 DUP2 MSTORE PUSH1 0x40 MLOAD SWAP1 DUP2 SWAP1 SUB PUSH1 0x20 ADD SWAP1 KECCAK256 SLOAD PUSH1 0xFF AND SWAP3 SWAP2 POP POP JUMP JUMPDEST PUSH1 0xA DUP2 DUP2 SLOAD DUP2 LT PUSH2 0x15CB JUMPI PUSH1 0x0 DUP1 REVERT JUMPDEST PUSH1 0x0 SWAP2 DUP3 MSTORE PUSH1 0x20 SWAP1 SWAP2 KECCAK256 ADD SLOAD PUSH1 0x1 PUSH1 0x1 PUSH1 0xA0 SHL SUB AND SWAP1 POP DUP2 JUMP JUMPDEST PUSH2 0x15ED PUSH2 0x1D14 JUMP JUMPDEST PUSH1 0x40 DUP1 MLOAD PUSH1 0x80 DUP2 ADD DUP3 MSTORE DUP6 DUP2 MSTORE PUSH1 0x20 DUP2 ADD DUP6 SWAP1 MSTORE SWAP1 DUP2 ADD DUP4 SWAP1 MSTORE SWAP1 ISZERO ISZERO PUSH1 0x60 SWAP1 SWAP2 ADD DUP2 SWAP1 MSTORE PUSH1 0x5 SWAP4 SWAP1 SWAP4 SSTORE PUSH1 0x6 SWAP2 SWAP1 SWAP2 SSTORE PUSH1 0x7 SSTORE PUSH1 0x8 DUP1 SLOAD PUSH1 0xFF NOT AND SWAP1 SWAP2 OR SWAP1 SSTORE JUMP JUMPDEST PUSH2 0x1638 PUSH2 0x1D14 JUMP JUMPDEST PUSH1 0x11 SSTORE JUMP JUMPDEST PUSH1 0x1 PUSH1 0x1 PUSH1 0xA0 SHL SUB DUP3 AND PUSH1 0x0 SWAP1 DUP2 MSTORE PUSH1 0x9 PUSH1 0x20 MSTORE PUSH1 0x40 DUP2 KECCAK256 DUP1 SLOAD PUSH1 0x1 PUSH1 0xA0 SHL SWAP1 DIV PUSH1 0xFF AND PUSH2 0x16A3 JUMPI PUSH1 0x40 MLOAD PUSH3 0x461BCD PUSH1 0xE5 SHL DUP2 MSTORE PUSH1 0x20 PUSH1 0x4 DUP3 ADD MSTORE PUSH1 0x13 PUSH1 0x24 DUP3 ADD MSTORE PUSH19 0x151BDAD95B881B9BDD081CDD5C1C1BDC9D1959 PUSH1 0x6A SHL PUSH1 0x44 DUP3 ADD MSTORE PUSH1 0x64 ADD PUSH2 0x815 JUMP JUMPDEST PUSH1 0x1 DUP2 ADD SLOAD PUSH2 0x16B3 SWAP1 PUSH1 0xA PUSH2 0x2864 JUMP JUMPDEST PUSH1 0x2 DUP3 ADD SLOAD PUSH2 0x16C2 SWAP1 DUP6 PUSH2 0x2870 JUMP JUMPDEST PUSH2 0x16CC SWAP2 SWAP1 PUSH2 0x2887 JUMP JUMPDEST SWAP5 SWAP4 POP POP POP POP JUMP JUMPDEST PUSH1 0xE DUP2 DUP2 SLOAD DUP2 LT PUSH2 0x16E4 JUMPI PUSH1 0x0 DUP1 REVERT JUMPDEST PUSH1 0x0 SWAP2 DUP3 MSTORE PUSH1 0x20 SWAP1 SWAP2 KECCAK256 PUSH1 0x8 SWAP1 SWAP2 MUL ADD DUP1 SLOAD PUSH1 0x1 DUP3 ADD DUP1 SLOAD PUSH1 0x1 PUSH1 0x1 PUSH1 0xA0 SHL SUB SWAP1 SWAP3 AND SWAP4 POP SWAP1 PUSH2 0x1713 SWAP1 PUSH2 0x2638 JUMP JUMPDEST DUP1 PUSH1 0x1F ADD PUSH1 0x20 DUP1 SWAP2 DIV MUL PUSH1 0x20 ADD PUSH1 0x40 MLOAD SWAP1 DUP2 ADD PUSH1 0x40 MSTORE DUP1 SWAP3 SWAP2 SWAP1 DUP2 DUP2 MSTORE PUSH1 0x20 ADD DUP3 DUP1 SLOAD PUSH2 0x173F SWAP1 PUSH2 0x2638 JUMP JUMPDEST DUP1 ISZERO PUSH2 0x178C JUMPI DUP1 PUSH1 0x1F LT PUSH2 0x1761 JUMPI PUSH2 0x100 DUP1 DUP4 SLOAD DIV MUL DUP4 MSTORE SWAP2 PUSH1 0x20 ADD SWAP2 PUSH2 0x178C JUMP JUMPDEST DUP3 ADD SWAP2 SWAP1 PUSH1 0x0 MSTORE PUSH1 0x20 PUSH1 0x0 KECCAK256 SWAP1 JUMPDEST DUP2 SLOAD DUP2 MSTORE SWAP1 PUSH1 0x1 ADD SWAP1 PUSH1 0x20 ADD DUP1 DUP4 GT PUSH2 0x176F JUMPI DUP3 SWAP1 SUB PUSH1 0x1F AND DUP3 ADD SWAP2 JUMPDEST POP POP POP POP POP SWAP1 DUP1 PUSH1 0x2 ADD DUP1 SLOAD PUSH2 0x17A1 SWAP1 PUSH2 0x2638 JUMP JUMPDEST DUP1 PUSH1 0x1F ADD PUSH1 0x20 DUP1 SWAP2 DIV MUL PUSH1 0x20 ADD PUSH1 0x40 MLOAD SWAP1 DUP2 ADD PUSH1 0x40 MSTORE DUP1 SWAP3 SWAP2 SWAP1 DUP2 DUP2 MSTORE PUSH1 0x20 ADD DUP3 DUP1 SLOAD PUSH2 0x17CD SWAP1 PUSH2 0x2638 JUMP JUMPDEST DUP1 ISZERO PUSH2 0x181A JUMPI DUP1 PUSH1 0x1F LT PUSH2 0x17EF JUMPI PUSH2 0x100 DUP1 DUP4 SLOAD DIV MUL DUP4 MSTORE SWAP2 PUSH1 0x20 ADD SWAP2 PUSH2 0x181A JUMP JUMPDEST DUP3 ADD SWAP2 SWAP1 PUSH1 0x0 MSTORE PUSH1 0x20 PUSH1 0x0 KECCAK256 SWAP1 JUMPDEST DUP2 SLOAD DUP2 MSTORE SWAP1 PUSH1 0x1 ADD SWAP1 PUSH1 0x20 ADD DUP1 DUP4 GT PUSH2 0x17FD JUMPI DUP3 SWAP1 SUB PUSH1 0x1F AND DUP3 ADD SWAP2 JUMPDEST POP POP POP POP POP SWAP1 DUP1 PUSH1 0x3 ADD SLOAD SWAP1 DUP1 PUSH1 0x4 ADD SLOAD SWAP1 DUP1 PUSH1 0x5 ADD DUP1 SLOAD PUSH2 0x183B SWAP1 PUSH2 0x2638 JUMP JUMPDEST DUP1 PUSH1 0x1F ADD PUSH1 0x20 DUP1 SWAP2 DIV MUL PUSH1 0x20 ADD PUSH1 0x40 MLOAD SWAP1 DUP2 ADD PUSH1 0x40 MSTORE DUP1 SWAP3 SWAP2 SWAP1 DUP2 DUP2 MSTORE PUSH1 0x20 ADD DUP3 DUP1 SLOAD PUSH2 0x1867 SWAP1 PUSH2 0x2638 JUMP JUMPDEST DUP1 ISZERO PUSH2 0x18B4 JUMPI DUP1 PUSH1 0x1F LT PUSH2 0x1889 JUMPI PUSH2 0x100 DUP1 DUP4 SLOAD DIV MUL DUP4 MSTORE SWAP2 PUSH1 0x20 ADD SWAP2 PUSH2 0x18B4 JUMP JUMPDEST DUP3 ADD SWAP2 SWAP1 PUSH1 0x0 MSTORE PUSH1 0x20 PUSH1 0x0 KECCAK256 SWAP1 JUMPDEST DUP2 SLOAD DUP2 MSTORE SWAP1 PUSH1 0x1 ADD SWAP1 PUSH1 0x20 ADD DUP1 DUP4 GT PUSH2 0x1897 JUMPI DUP3 SWAP1 SUB PUSH1 0x1F AND DUP3 ADD SWAP2 JUMPDEST POP POP POP POP PUSH1 0x6 DUP4 ADD SLOAD PUSH1 0x7 SWAP1 SWAP4 ADD SLOAD SWAP2 SWAP3 SWAP2 PUSH1 0xFF AND SWAP1 POP DUP9 JUMP JUMPDEST PUSH1 0x9 PUSH1 0x20 MSTORE PUSH1 0x0 SWAP1 DUP2 MSTORE PUSH1 0x40 SWAP1 KECCAK256 DUP1 SLOAD PUSH1 0x1 DUP3 ADD SLOAD PUSH1 0x2 DUP4 ADD SLOAD PUSH1 0x3 DUP5 ADD SLOAD PUSH1 0x4 DUP6 ADD DUP1 SLOAD PUSH1 0x1 PUSH1 0x1 PUSH1 0xA0 SHL SUB DUP1 DUP8 AND SWAP8 PUSH1 0xFF PUSH1 0x1 PUSH1 0xA0 SHL SWAP9 DUP10 SWAP1 DIV DUP2 AND SWAP9 SWAP3 DUP7 AND SWAP6 SWAP3 SWAP1 SWAP3 DIV SWAP1 SWAP2 AND SWAP3 SWAP1 SWAP2 PUSH2 0x1924 SWAP1 PUSH2 0x2638 JUMP JUMPDEST DUP1 PUSH1 0x1F ADD PUSH1 0x20 DUP1 SWAP2 DIV MUL PUSH1 0x20 ADD PUSH1 0x40 MLOAD SWAP1 DUP2 ADD PUSH1 0x40 MSTORE DUP1 SWAP3 SWAP2 SWAP1 DUP2 DUP2 MSTORE PUSH1 0x20 ADD DUP3 DUP1 SLOAD PUSH2 0x1950 SWAP1 PUSH2 0x2638 JUMP JUMPDEST DUP1 ISZERO PUSH2 0x199D JUMPI DUP1 PUSH1 0x1F LT PUSH2 0x1972 JUMPI PUSH2 0x100 DUP1 DUP4 SLOAD DIV MUL DUP4 MSTORE SWAP2 PUSH1 0x20 ADD SWAP2 PUSH2 0x199D JUMP JUMPDEST DUP3 ADD SWAP2 SWAP1 PUSH1 0x0 MSTORE PUSH1 0x20 PUSH1 0x0 KECCAK256 SWAP1 JUMPDEST DUP2 SLOAD DUP2 MSTORE SWAP1 PUSH1 0x1 ADD SWAP1 PUSH1 0x20 ADD DUP1 DUP4 GT PUSH2 0x1980 JUMPI DUP3 SWAP1 SUB PUSH1 0x1F AND DUP3 ADD SWAP2 JUMPDEST POP POP POP POP POP SWAP1 POP DUP8 JUMP JUMPDEST PUSH2 0x19AF PUSH2 0x1D14 JUMP JUMPDEST PUSH1 0x10 DUP1 SLOAD PUSH1 0xFF NOT AND SWAP2 ISZERO ISZERO SWAP2 SWAP1 SWAP2 OR SWAP1 SSTORE JUMP JUMPDEST PUSH2 0x19CA PUSH2 0x1D14 JUMP JUMPDEST PUSH1 0x1 PUSH1 0x1 PUSH1 0xA0 SHL SUB DUP3 AND PUSH2 0x1A19 JUMPI PUSH1 0x40 MLOAD PUSH3 0x461BCD PUSH1 0xE5 SHL DUP2 MSTORE PUSH1 0x20 PUSH1 0x4 DUP3 ADD MSTORE PUSH1 0x16 PUSH1 0x24 DUP3 ADD MSTORE PUSH22 0x496E76616C6964206F7261636C652061646472657373 PUSH1 0x50 SHL PUSH1 0x44 DUP3 ADD MSTORE PUSH1 0x64 ADD PUSH2 0x815 JUMP JUMPDEST PUSH1 0x1 PUSH1 0x1 PUSH1 0xA0 SHL SUB SWAP2 SWAP1 SWAP2 AND PUSH1 0x0 SWAP1 DUP2 MSTORE PUSH1 0xB PUSH1 0x20 MSTORE PUSH1 0x40 SWAP1 KECCAK256 DUP1 SLOAD PUSH1 0xFF NOT AND SWAP2 ISZERO ISZERO SWAP2 SWAP1 SWAP2 OR SWAP1 SSTORE JUMP JUMPDEST PUSH1 0x8 SLOAD PUSH1 0x0 SWAP1 PUSH1 0xFF AND PUSH2 0x1A70 JUMPI PUSH1 0x4 SLOAD PUSH2 0x1A66 DUP4 PUSH8 0xDE0B6B3A7640000 PUSH2 0x2870 JUMP JUMPDEST PUSH2 0x7B0 SWAP2 SWAP1 PUSH2 0x2887 JUMP JUMPDEST PUSH1 0x7 SLOAD PUSH1 0x2 SLOAD PUSH1 0x0 SWAP2 PUSH2 0x1A82 SWAP2 PUSH2 0x2887 JUMP JUMPDEST PUSH1 0x6 SLOAD SWAP1 SWAP2 POP PUSH1 0x0 SWAP1 PUSH2 0x1A95 SWAP1 DUP4 PUSH2 0x2870 JUMP JUMPDEST PUSH1 0x5 SLOAD PUSH2 0x1AA2 SWAP2 SWAP1 PUSH2 0x2612 JUMP JUMPDEST SWAP1 POP DUP1 PUSH2 0x16C2 DUP6 PUSH8 0xDE0B6B3A7640000 PUSH2 0x2870 JUMP JUMPDEST PUSH1 0x0 DUP1 PUSH1 0x0 DUP1 PUSH1 0x0 PUSH1 0x2 SLOAD PUSH1 0x3 SLOAD PUSH1 0x2 SLOAD PUSH11 0x52B7D2DCC80CD2E4000000 PUSH2 0x1ADE SWAP2 SWAP1 PUSH2 0x2625 JUMP JUMPDEST PUSH1 0x4 SLOAD SWAP3 SWAP9 SWAP2 SWAP8 POP SWAP6 POP SWAP1 SWAP4 POP SELFBALANCE SWAP3 POP SWAP1 POP JUMP JUMPDEST PUSH2 0x1AFA PUSH2 0x1D14 JUMP JUMPDEST PUSH1 0x1 PUSH1 0x1 PUSH1 0xA0 SHL SUB DUP2 AND PUSH2 0x1B5F JUMPI PUSH1 0x40 MLOAD PUSH3 0x461BCD PUSH1 0xE5 SHL DUP2 MSTORE PUSH1 0x20 PUSH1 0x4 DUP3 ADD MSTORE PUSH1 0x26 PUSH1 0x24 DUP3 ADD MSTORE PUSH32 0x4F776E61626C653A206E6577206F776E657220697320746865207A65726F2061 PUSH1 0x44 DUP3 ADD MSTORE PUSH6 0x646472657373 PUSH1 0xD0 SHL PUSH1 0x64 DUP3 ADD MSTORE PUSH1 0x84 ADD PUSH2 0x815 JUMP JUMPDEST PUSH2 0x1B68 DUP2 PUSH2 0x1DC3 JUMP JUMPDEST POP JUMP JUMPDEST PUSH1 0x2 PUSH1 0x0 SLOAD SUB PUSH2 0x1BBD JUMPI PUSH1 0x40 MLOAD PUSH3 0x461BCD PUSH1 0xE5 SHL DUP2 MSTORE PUSH1 0x20 PUSH1 0x4 DUP3 ADD MSTORE PUSH1 0x1F PUSH1 0x24 DUP3 ADD MSTORE PUSH32 0x5265656E7472616E637947756172643A207265656E7472616E742063616C6C00 PUSH1 0x44 DUP3 ADD MSTORE PUSH1 0x64 ADD PUSH2 0x815 JUMP JUMPDEST PUSH1 0x2 PUSH1 0x0 SSTORE JUMP JUMPDEST PUSH1 0x1 SLOAD PUSH1 0x1 PUSH1 0xA0 SHL SWAP1 DIV PUSH1 0xFF AND ISZERO PUSH2 0xC31 JUMPI PUSH1 0x40 MLOAD PUSH3 0x461BCD PUSH1 0xE5 SHL DUP2 MSTORE PUSH1 0x20 PUSH1 0x4 DUP3 ADD MSTORE PUSH1 0x10 PUSH1 0x24 DUP3 ADD MSTORE PUSH16 0x14185D5CD8589B194E881C185D5CD959 PUSH1 0x82 SHL PUSH1 0x44 DUP3 ADD MSTORE PUSH1 0x64 ADD PUSH2 0x815 JUMP JUMPDEST PUSH1 0x40 MLOAD PUSH1 0x1 PUSH1 0x1 PUSH1 0xA0 SHL SUB DUP1 DUP6 AND PUSH1 0x24 DUP4 ADD MSTORE DUP4 AND PUSH1 0x44 DUP3 ADD MSTORE PUSH1 0x64 DUP2 ADD DUP3 SWAP1 MSTORE PUSH2 0x1C7C SWAP1 DUP6 SWAP1 PUSH4 0x23B872DD PUSH1 0xE0 SHL SWAP1 PUSH1 0x84 ADD JUMPDEST PUSH1 0x40 DUP1 MLOAD PUSH1 0x1F NOT DUP2 DUP5 SUB ADD DUP2 MSTORE SWAP2 SWAP1 MSTORE PUSH1 0x20 DUP2 ADD DUP1 MLOAD PUSH1 0x1 PUSH1 0x1 PUSH1 0xE0 SHL SUB AND PUSH1 0x1 PUSH1 0x1 PUSH1 0xE0 SHL SUB NOT SWAP1 SWAP4 AND SWAP3 SWAP1 SWAP3 OR SWAP1 SWAP2 MSTORE PUSH2 0x1E8D JUMP JUMPDEST POP POP POP POP JUMP JUMPDEST PUSH1 0x8 SLOAD PUSH1 0xFF AND ISZERO PUSH2 0xC31 JUMPI PUSH1 0x7 SLOAD PUSH1 0x2 SLOAD PUSH1 0x0 SWAP2 PUSH2 0x1C9F SWAP2 PUSH2 0x2887 JUMP JUMPDEST PUSH1 0x6 SLOAD SWAP1 SWAP2 POP PUSH1 0x0 SWAP1 PUSH2 0x1CB2 SWAP1 DUP4 PUSH2 0x2870 JUMP JUMPDEST PUSH1 0x5 SLOAD PUSH2 0x1CBF SWAP2 SWAP1 PUSH2 0x2612 JUMP JUMPDEST SWAP1 POP PUSH1 0x4 SLOAD DUP2 EQ PUSH2 0xC1D JUMPI PUSH1 0x4 DUP2 SWAP1 SSTORE PUSH1 0x2 SLOAD PUSH1 0x40 DUP1 MLOAD SWAP2 DUP3 MSTORE PUSH1 0x20 DUP3 ADD DUP4 SWAP1 MSTORE TIMESTAMP DUP3 DUP3 ADD MSTORE MLOAD PUSH32 0xC519AF3206E5C325883986D7E86F3CD5415959F018339D023529ED7D6F4ED141 SWAP2 DUP2 SWAP1 SUB PUSH1 0x60 ADD SWAP1 LOG1 POP POP JUMP JUMPDEST PUSH1 0x1 SLOAD PUSH1 0x1 PUSH1 0x1 PUSH1 0xA0 SHL SUB AND CALLER EQ PUSH2 0xC31 JUMPI PUSH1 0x40 MLOAD PUSH3 0x461BCD PUSH1 0xE5 SHL DUP2 MSTORE PUSH1 0x20 PUSH1 0x4 DUP3 ADD DUP2 SWAP1 MSTORE PUSH1 0x24 DUP3 ADD MSTORE PUSH32 0x4F776E61626C653A2063616C6C6572206973206E6F7420746865206F776E6572 PUSH1 0x44 DUP3 ADD MSTORE PUSH1 0x64 ADD PUSH2 0x815 JUMP JUMPDEST PUSH2 0x1D76 PUSH2 0x1F62 JUMP JUMPDEST PUSH1 0x1 DUP1 SLOAD PUSH1 0xFF PUSH1 0xA0 SHL NOT AND SWAP1 SSTORE PUSH32 0x5DB9EE0A495BF2E6FF9C91A7834C1BA4FDD244A5E8AA4E537BD38AEAE4B073AA CALLER JUMPDEST PUSH1 0x40 MLOAD PUSH1 0x1 PUSH1 0x1 PUSH1 0xA0 SHL SUB SWAP1 SWAP2 AND DUP2 MSTORE PUSH1 0x20 ADD PUSH1 0x40 MLOAD DUP1 SWAP2 SUB SWAP1 LOG1 JUMP JUMPDEST PUSH1 0x1 DUP1 SLOAD PUSH1 0x1 PUSH1 0x1 PUSH1 0xA0 SHL SUB DUP4 DUP2 AND PUSH1 0x1 PUSH1 0x1 PUSH1 0xA0 SHL SUB NOT DUP4 AND DUP2 OR SWAP1 SWAP4 SSTORE PUSH1 0x40 MLOAD SWAP2 AND SWAP2 SWAP1 DUP3 SWAP1 PUSH32 0x8BE0079C531659141344CD1FD0A4F28419497F9722A3DAAFE3B4186F6B6457E0 SWAP1 PUSH1 0x0 SWAP1 LOG3 POP POP JUMP JUMPDEST PUSH1 0x40 MLOAD PUSH1 0x1 PUSH1 0x1 PUSH1 0xA0 SHL SUB DUP4 AND PUSH1 0x24 DUP3 ADD MSTORE PUSH1 0x44 DUP2 ADD DUP3 SWAP1 MSTORE PUSH2 0x1E45 SWAP1 DUP5 SWAP1 PUSH4 0xA9059CBB PUSH1 0xE0 SHL SWAP1 PUSH1 0x64 ADD PUSH2 0x1C45 JUMP JUMPDEST POP POP POP JUMP JUMPDEST PUSH2 0x1E52 PUSH2 0x1BC4 JUMP JUMPDEST PUSH1 0x1 DUP1 SLOAD PUSH1 0xFF PUSH1 0xA0 SHL NOT AND PUSH1 0x1 PUSH1 0xA0 SHL OR SWAP1 SSTORE PUSH32 0x62E78CEA01BEE320CD4E420270B5EA74000D11B0C9F74754EBDBFC544B05A258 PUSH2 0x1DA6 CALLER SWAP1 JUMP JUMPDEST PUSH1 0x0 PUSH2 0x1EE2 DUP3 PUSH1 0x40 MLOAD DUP1 PUSH1 0x40 ADD PUSH1 0x40 MSTORE DUP1 PUSH1 0x20 DUP2 MSTORE PUSH1 0x20 ADD PUSH32 0x5361666545524332303A206C6F772D6C6576656C2063616C6C206661696C6564 DUP2 MSTORE POP DUP6 PUSH1 0x1 PUSH1 0x1 PUSH1 0xA0 SHL SUB AND PUSH2 0x1FB2 SWAP1 SWAP3 SWAP2 SWAP1 PUSH4 0xFFFFFFFF AND JUMP JUMPDEST SWAP1 POP DUP1 MLOAD PUSH1 0x0 EQ DUP1 PUSH2 0x1F03 JUMPI POP DUP1 DUP1 PUSH1 0x20 ADD SWAP1 MLOAD DUP2 ADD SWAP1 PUSH2 0x1F03 SWAP2 SWAP1 PUSH2 0x28A9 JUMP JUMPDEST PUSH2 0x1E45 JUMPI PUSH1 0x40 MLOAD PUSH3 0x461BCD PUSH1 0xE5 SHL DUP2 MSTORE PUSH1 0x20 PUSH1 0x4 DUP3 ADD MSTORE PUSH1 0x2A PUSH1 0x24 DUP3 ADD MSTORE PUSH32 0x5361666545524332303A204552433230206F7065726174696F6E20646964206E PUSH1 0x44 DUP3 ADD MSTORE PUSH10 0x1BDD081CDD58D8D95959 PUSH1 0xB2 SHL PUSH1 0x64 DUP3 ADD MSTORE PUSH1 0x84 ADD PUSH2 0x815 JUMP JUMPDEST PUSH1 0x1 SLOAD PUSH1 0x1 PUSH1 0xA0 SHL SWAP1 DIV PUSH1 0xFF AND PUSH2 0xC31 JUMPI PUSH1 0x40 MLOAD PUSH3 0x461BCD PUSH1 0xE5 SHL DUP2 MSTORE PUSH1 0x20 PUSH1 0x4 DUP3 ADD MSTORE PUSH1 0x14 PUSH1 0x24 DUP3 ADD MSTORE PUSH20 0x14185D5CD8589B194E881B9BDD081C185D5CD959 PUSH1 0x62 SHL PUSH1 0x44 DUP3 ADD MSTORE PUSH1 0x64 ADD PUSH2 0x815 JUMP JUMPDEST PUSH1 0x60 PUSH2 0x16CC DUP5 DUP5 PUSH1 0x0 DUP6 DUP6 PUSH1 0x0 DUP1 DUP7 PUSH1 0x1 PUSH1 0x1 PUSH1 0xA0 SHL SUB AND DUP6 DUP8 PUSH1 0x40 MLOAD PUSH2 0x1FD9 SWAP2 SWAP1 PUSH2 0x25E0 JUMP JUMPDEST PUSH1 0x0 PUSH1 0x40 MLOAD DUP1 DUP4 SUB DUP2 DUP6 DUP8 GAS CALL SWAP3 POP POP POP RETURNDATASIZE DUP1 PUSH1 0x0 DUP2 EQ PUSH2 0x2016 JUMPI PUSH1 0x40 MLOAD SWAP2 POP PUSH1 0x1F NOT PUSH1 0x3F RETURNDATASIZE ADD AND DUP3 ADD PUSH1 0x40 MSTORE RETURNDATASIZE DUP3 MSTORE RETURNDATASIZE PUSH1 0x0 PUSH1 0x20 DUP5 ADD RETURNDATACOPY PUSH2 0x201B JUMP JUMPDEST PUSH1 0x60 SWAP2 POP JUMPDEST POP SWAP2 POP SWAP2 POP PUSH2 0x202C DUP8 DUP4 DUP4 DUP8 PUSH2 0x2037 JUMP JUMPDEST SWAP8 SWAP7 POP POP POP POP POP POP POP JUMP JUMPDEST PUSH1 0x60 DUP4 ISZERO PUSH2 0x20A6 JUMPI DUP3 MLOAD PUSH1 0x0 SUB PUSH2 0x209F JUMPI PUSH1 0x1 PUSH1 0x1 PUSH1 0xA0 SHL SUB DUP6 AND EXTCODESIZE PUSH2 0x209F JUMPI PUSH1 0x40 MLOAD PUSH3 0x461BCD PUSH1 0xE5 SHL DUP2 MSTORE PUSH1 0x20 PUSH1 0x4 DUP3 ADD MSTORE PUSH1 0x1D PUSH1 0x24 DUP3 ADD MSTORE PUSH32 0x416464726573733A2063616C6C20746F206E6F6E2D636F6E7472616374000000 PUSH1 0x44 DUP3 ADD MSTORE PUSH1 0x64 ADD PUSH2 0x815 JUMP JUMPDEST POP DUP2 PUSH2 0x16CC JUMP JUMPDEST PUSH2 0x16CC DUP4 DUP4 DUP2 MLOAD ISZERO PUSH2 0x20BB JUMPI DUP2 MLOAD DUP1 DUP4 PUSH1 0x20 ADD REVERT JUMPDEST DUP1 PUSH1 0x40 MLOAD PUSH3 0x461BCD PUSH1 0xE5 SHL DUP2 MSTORE PUSH1 0x4 ADD PUSH2 0x815 SWAP2 SWAP1 PUSH2 0x28C6 JUMP JUMPDEST PUSH4 0x4E487B71 PUSH1 0xE0 SHL PUSH1 0x0 MSTORE PUSH1 0x41 PUSH1 0x4 MSTORE PUSH1 0x24 PUSH1 0x0 REVERT JUMPDEST PUSH1 0x0 DUP3 PUSH1 0x1F DUP4 ADD SLT PUSH2 0x20FC JUMPI PUSH1 0x0 DUP1 REVERT JUMPDEST DUP2 CALLDATALOAD PUSH8 0xFFFFFFFFFFFFFFFF DUP1 DUP3 GT ISZERO PUSH2 0x2117 JUMPI PUSH2 0x2117 PUSH2 0x20D5 JUMP JUMPDEST PUSH1 0x40 MLOAD PUSH1 0x1F DUP4 ADD PUSH1 0x1F NOT SWAP1 DUP2 AND PUSH1 0x3F ADD AND DUP2 ADD SWAP1 DUP3 DUP3 GT DUP2 DUP4 LT OR ISZERO PUSH2 0x213F JUMPI PUSH2 0x213F PUSH2 0x20D5 JUMP JUMPDEST DUP2 PUSH1 0x40 MSTORE DUP4 DUP2 MSTORE DUP7 PUSH1 0x20 DUP6 DUP9 ADD ADD GT ISZERO PUSH2 0x2158 JUMPI PUSH1 0x0 DUP1 REVERT JUMPDEST DUP4 PUSH1 0x20 DUP8 ADD PUSH1 0x20 DUP4 ADD CALLDATACOPY PUSH1 0x0 PUSH1 0x20 DUP6 DUP4 ADD ADD MSTORE DUP1 SWAP5 POP POP POP POP POP SWAP3 SWAP2 POP POP JUMP JUMPDEST PUSH1 0x0 DUP1 PUSH1 0x40 DUP4 DUP6 SUB SLT ISZERO PUSH2 0x218B JUMPI PUSH1 0x0 DUP1 REVERT JUMPDEST DUP3 CALLDATALOAD PUSH8 0xFFFFFFFFFFFFFFFF DUP1 DUP3 GT ISZERO PUSH2 0x21A3 JUMPI PUSH1 0x0 DUP1 REVERT JUMPDEST PUSH2 0x21AF DUP7 DUP4 DUP8 ADD PUSH2 0x20EB JUMP JUMPDEST SWAP4 POP PUSH1 0x20 DUP6 ADD CALLDATALOAD SWAP2 POP DUP1 DUP3 GT ISZERO PUSH2 0x21C5 JUMPI PUSH1 0x0 DUP1 REVERT JUMPDEST POP PUSH2 0x21D2 DUP6 DUP3 DUP7 ADD PUSH2 0x20EB JUMP JUMPDEST SWAP2 POP POP SWAP3 POP SWAP3 SWAP1 POP JUMP JUMPDEST DUP1 CALLDATALOAD PUSH1 0x1 PUSH1 0x1 PUSH1 0xA0 SHL SUB DUP2 AND DUP2 EQ PUSH2 0x21F3 JUMPI PUSH1 0x0 DUP1 REVERT JUMPDEST SWAP2 SWAP1 POP JUMP JUMPDEST PUSH1 0x0 DUP1 PUSH1 0x40 DUP4 DUP6 SUB SLT ISZERO PUSH2 0x220B JUMPI PUSH1 0x0 DUP1 REVERT JUMPDEST PUSH2 0x2214 DUP4 PUSH2 0x21DC JUMP JUMPDEST SWAP5 PUSH1 0x20 SWAP4 SWAP1 SWAP4 ADD CALLDATALOAD SWAP4 POP POP POP JUMP JUMPDEST PUSH1 0x0 PUSH1 0x20 DUP3 DUP5 SUB SLT ISZERO PUSH2 0x2234 JUMPI PUSH1 0x0 DUP1 REVERT JUMPDEST PUSH2 0x223D DUP3 PUSH2 0x21DC JUMP JUMPDEST SWAP4 SWAP3 POP POP POP JUMP JUMPDEST PUSH1 0x0 DUP1 PUSH1 0x0 DUP1 PUSH1 0x0 PUSH1 0xA0 DUP7 DUP9 SUB SLT ISZERO PUSH2 0x225C JUMPI PUSH1 0x0 DUP1 REVERT JUMPDEST PUSH2 0x2265 DUP7 PUSH2 0x21DC JUMP JUMPDEST SWAP5 POP PUSH1 0x20 DUP7 ADD CALLDATALOAD PUSH8 0xFFFFFFFFFFFFFFFF DUP1 DUP3 GT ISZERO PUSH2 0x2282 JUMPI PUSH1 0x0 DUP1 REVERT JUMPDEST PUSH2 0x228E DUP10 DUP4 DUP11 ADD PUSH2 0x20EB JUMP JUMPDEST SWAP6 POP PUSH1 0x40 DUP9 ADD CALLDATALOAD SWAP2 POP DUP1 DUP3 GT ISZERO PUSH2 0x22A4 JUMPI PUSH1 0x0 DUP1 REVERT JUMPDEST PUSH2 0x22B0 DUP10 DUP4 DUP11 ADD PUSH2 0x20EB JUMP JUMPDEST SWAP5 POP PUSH1 0x60 DUP9 ADD CALLDATALOAD SWAP4 POP PUSH1 0x80 DUP9 ADD CALLDATALOAD SWAP2 POP DUP1 DUP3 GT ISZERO PUSH2 0x22CD JUMPI PUSH1 0x0 DUP1 REVERT JUMPDEST POP PUSH2 0x22DA DUP9 DUP3 DUP10 ADD PUSH2 0x20EB JUMP JUMPDEST SWAP2 POP POP SWAP3 SWAP6 POP SWAP3 SWAP6 SWAP1 SWAP4 POP JUMP JUMPDEST DUP1 ISZERO ISZERO DUP2 EQ PUSH2 0x1B68 JUMPI PUSH1 0x0 DUP1 REVERT JUMPDEST PUSH1 0x0 DUP1 PUSH1 0x0 DUP1 PUSH1 0x0 DUP1 PUSH1 0xC0 DUP8 DUP10 SUB SLT ISZERO PUSH2 0x230E JUMPI PUSH1 0x0 DUP1 REVERT JUMPDEST PUSH2 0x2317 DUP8 PUSH2 0x21DC JUMP JUMPDEST SWAP6 POP PUSH1 0x20 DUP8 ADD CALLDATALOAD SWAP5 POP PUSH1 0x40 DUP8 ADD CALLDATALOAD SWAP4 POP PUSH2 0x2333 PUSH1 0x60 DUP9 ADD PUSH2 0x21DC JUMP JUMPDEST SWAP3 POP PUSH1 0x80 DUP8 ADD CALLDATALOAD PUSH2 0x2343 DUP2 PUSH2 0x22E7 JUMP JUMPDEST SWAP2 POP PUSH1 0xA0 DUP8 ADD CALLDATALOAD PUSH8 0xFFFFFFFFFFFFFFFF DUP2 GT ISZERO PUSH2 0x235F JUMPI PUSH1 0x0 DUP1 REVERT JUMPDEST PUSH2 0x236B DUP10 DUP3 DUP11 ADD PUSH2 0x20EB JUMP JUMPDEST SWAP2 POP POP SWAP3 SWAP6 POP SWAP3 SWAP6 POP SWAP3 SWAP6 JUMP JUMPDEST PUSH1 0x0 DUP1 PUSH1 0x40 DUP4 DUP6 SUB SLT ISZERO PUSH2 0x238B JUMPI PUSH1 0x0 DUP1 REVERT JUMPDEST DUP3 CALLDATALOAD SWAP2 POP PUSH2 0x239B PUSH1 0x20 DUP5 ADD PUSH2 0x21DC JUMP JUMPDEST SWAP1 POP SWAP3 POP SWAP3 SWAP1 POP JUMP JUMPDEST PUSH1 0x0 DUP1 PUSH1 0x0 PUSH1 0x60 DUP5 DUP7 SUB SLT ISZERO PUSH2 0x23B9 JUMPI PUSH1 0x0 DUP1 REVERT JUMPDEST PUSH2 0x23C2 DUP5 PUSH2 0x21DC JUMP JUMPDEST SWAP3 POP PUSH1 0x20 DUP5 ADD CALLDATALOAD SWAP2 POP PUSH2 0x23D7 PUSH1 0x40 DUP6 ADD PUSH2 0x21DC JUMP JUMPDEST SWAP1 POP SWAP3 POP SWAP3 POP SWAP3 JUMP JUMPDEST PUSH1 0x0 PUSH1 0x20 DUP3 DUP5 SUB SLT ISZERO PUSH2 0x23F2 JUMPI PUSH1 0x0 DUP1 REVERT JUMPDEST DUP2 CALLDATALOAD PUSH8 0xFFFFFFFFFFFFFFFF DUP2 GT ISZERO PUSH2 0x2409 JUMPI PUSH1 0x0 DUP1 REVERT JUMPDEST PUSH2 0x16CC DUP5 DUP3 DUP6 ADD PUSH2 0x20EB JUMP JUMPDEST PUSH1 0x0 PUSH1 0x20 DUP3 DUP5 SUB SLT ISZERO PUSH2 0x2427 JUMPI PUSH1 0x0 DUP1 REVERT JUMPDEST POP CALLDATALOAD SWAP2 SWAP1 POP JUMP JUMPDEST PUSH1 0x0 DUP1 PUSH1 0x0 DUP1 PUSH1 0x80 DUP6 DUP8 SUB SLT ISZERO PUSH2 0x2444 JUMPI PUSH1 0x0 DUP1 REVERT JUMPDEST DUP5 CALLDATALOAD SWAP4 POP PUSH1 0x20 DUP6 ADD CALLDATALOAD SWAP3 POP PUSH1 0x40 DUP6 ADD CALLDATALOAD SWAP2 POP PUSH1 0x60 DUP6 ADD CALLDATALOAD PUSH2 0x2464 DUP2 PUSH2 0x22E7 JUMP JUMPDEST SWAP4 SWAP7 SWAP3 SWAP6 POP SWAP1 SWAP4 POP POP JUMP JUMPDEST PUSH1 0x0 JUMPDEST DUP4 DUP2 LT ISZERO PUSH2 0x248A JUMPI DUP2 DUP2 ADD MLOAD DUP4 DUP3 ADD MSTORE PUSH1 0x20 ADD PUSH2 0x2472 JUMP JUMPDEST POP POP PUSH1 0x0 SWAP2 ADD MSTORE JUMP JUMPDEST PUSH1 0x0 DUP2 MLOAD DUP1 DUP5 MSTORE PUSH2 0x24AB DUP2 PUSH1 0x20 DUP7 ADD PUSH1 0x20 DUP7 ADD PUSH2 0x246F JUMP JUMPDEST PUSH1 0x1F ADD PUSH1 0x1F NOT AND SWAP3 SWAP1 SWAP3 ADD PUSH1 0x20 ADD SWAP3 SWAP2 POP POP JUMP JUMPDEST PUSH1 0x1 PUSH1 0x1 PUSH1 0xA0 SHL SUB DUP10 AND DUP2 MSTORE PUSH2 0x100 PUSH1 0x20 DUP3 ADD DUP2 SWAP1 MSTORE PUSH1 0x0 SWAP1 PUSH2 0x24E4 DUP4 DUP3 ADD DUP12 PUSH2 0x2493 JUMP JUMPDEST SWAP1 POP DUP3 DUP2 SUB PUSH1 0x40 DUP5 ADD MSTORE PUSH2 0x24F8 DUP2 DUP11 PUSH2 0x2493 JUMP JUMPDEST SWAP1 POP DUP8 PUSH1 0x60 DUP5 ADD MSTORE DUP7 PUSH1 0x80 DUP5 ADD MSTORE DUP3 DUP2 SUB PUSH1 0xA0 DUP5 ADD MSTORE PUSH2 0x2518 DUP2 DUP8 PUSH2 0x2493 JUMP JUMPDEST PUSH1 0xC0 DUP5 ADD SWAP6 SWAP1 SWAP6 MSTORE POP POP SWAP1 ISZERO ISZERO PUSH1 0xE0 SWAP1 SWAP2 ADD MSTORE SWAP7 SWAP6 POP POP POP POP POP POP JUMP JUMPDEST PUSH1 0x1 PUSH1 0x1 PUSH1 0xA0 SHL SUB DUP9 DUP2 AND DUP3 MSTORE DUP8 ISZERO ISZERO PUSH1 0x20 DUP4 ADD MSTORE PUSH1 0x40 DUP3 ADD DUP8 SWAP1 MSTORE PUSH1 0x60 DUP3 ADD DUP7 SWAP1 MSTORE DUP5 AND PUSH1 0x80 DUP3 ADD MSTORE DUP3 ISZERO ISZERO PUSH1 0xA0 DUP3 ADD MSTORE PUSH1 0xE0 PUSH1 0xC0 DUP3 ADD DUP2 SWAP1 MSTORE PUSH1 0x0 SWAP1 PUSH2 0x257F SWAP1 DUP4 ADD DUP5 PUSH2 0x2493 JUMP JUMPDEST SWAP10 SWAP9 POP POP POP POP POP POP POP POP POP JUMP JUMPDEST PUSH1 0x0 PUSH1 0x20 DUP3 DUP5 SUB SLT ISZERO PUSH2 0x259E JUMPI PUSH1 0x0 DUP1 REVERT JUMPDEST DUP2 CALLDATALOAD PUSH2 0x223D DUP2 PUSH2 0x22E7 JUMP JUMPDEST PUSH1 0x0 DUP1 PUSH1 0x40 DUP4 DUP6 SUB SLT ISZERO PUSH2 0x25BC JUMPI PUSH1 0x0 DUP1 REVERT JUMPDEST PUSH2 0x25C5 DUP4 PUSH2 0x21DC JUMP JUMPDEST SWAP2 POP PUSH1 0x20 DUP4 ADD CALLDATALOAD PUSH2 0x25D5 DUP2 PUSH2 0x22E7 JUMP JUMPDEST DUP1 SWAP2 POP POP SWAP3 POP SWAP3 SWAP1 POP JUMP JUMPDEST PUSH1 0x0 DUP3 MLOAD PUSH2 0x25F2 DUP2 DUP5 PUSH1 0x20 DUP8 ADD PUSH2 0x246F JUMP JUMPDEST SWAP2 SWAP1 SWAP2 ADD SWAP3 SWAP2 POP POP JUMP JUMPDEST PUSH4 0x4E487B71 PUSH1 0xE0 SHL PUSH1 0x0 MSTORE PUSH1 0x11 PUSH1 0x4 MSTORE PUSH1 0x24 PUSH1 0x0 REVERT JUMPDEST DUP1 DUP3 ADD DUP1 DUP3 GT ISZERO PUSH2 0x7B0 JUMPI PUSH2 0x7B0 PUSH2 0x25FC JUMP JUMPDEST DUP2 DUP2 SUB DUP2 DUP2 GT ISZERO PUSH2 0x7B0 JUMPI PUSH2 0x7B0 PUSH2 0x25FC JUMP JUMPDEST PUSH1 0x1 DUP2 DUP2 SHR SWAP1 DUP3 AND DUP1 PUSH2 0x264C JUMPI PUSH1 0x7F DUP3 AND SWAP2 POP JUMPDEST PUSH1 0x20 DUP3 LT DUP2 SUB PUSH2 0x266C JUMPI PUSH4 0x4E487B71 PUSH1 0xE0 SHL PUSH1 0x0 MSTORE PUSH1 0x22 PUSH1 0x4 MSTORE PUSH1 0x24 PUSH1 0x0 REVERT JUMPDEST POP SWAP2 SWAP1 POP JUMP JUMPDEST PUSH1 0x1F DUP3 GT ISZERO PUSH2 0x1E45 JUMPI PUSH1 0x0 DUP2 DUP2 MSTORE PUSH1 0x20 DUP2 KECCAK256 PUSH1 0x1F DUP6 ADD PUSH1 0x5 SHR DUP2 ADD PUSH1 0x20 DUP7 LT ISZERO PUSH2 0x2699 JUMPI POP DUP1 JUMPDEST PUSH1 0x1F DUP6 ADD PUSH1 0x5 SHR DUP3 ADD SWAP2 POP JUMPDEST DUP2 DUP2 LT ISZERO PUSH2 0x26B8 JUMPI DUP3 DUP2 SSTORE PUSH1 0x1 ADD PUSH2 0x26A5 JUMP JUMPDEST POP POP POP POP POP POP JUMP JUMPDEST DUP2 MLOAD PUSH8 0xFFFFFFFFFFFFFFFF DUP2 GT ISZERO PUSH2 0x26DA JUMPI PUSH2 0x26DA PUSH2 0x20D5 JUMP JUMPDEST PUSH2 0x26EE DUP2 PUSH2 0x26E8 DUP5 SLOAD PUSH2 0x2638 JUMP JUMPDEST DUP5 PUSH2 0x2672 JUMP JUMPDEST PUSH1 0x20 DUP1 PUSH1 0x1F DUP4 GT PUSH1 0x1 DUP2 EQ PUSH2 0x2723 JUMPI PUSH1 0x0 DUP5 ISZERO PUSH2 0x270B JUMPI POP DUP6 DUP4 ADD MLOAD JUMPDEST PUSH1 0x0 NOT PUSH1 0x3 DUP7 SWAP1 SHL SHR NOT AND PUSH1 0x1 DUP6 SWAP1 SHL OR DUP6 SSTORE PUSH2 0x26B8 JUMP JUMPDEST PUSH1 0x0 DUP6 DUP2 MSTORE PUSH1 0x20 DUP2 KECCAK256 PUSH1 0x1F NOT DUP7 AND SWAP2 JUMPDEST DUP3 DUP2 LT ISZERO PUSH2 0x2752 JUMPI DUP9 DUP7 ADD MLOAD DUP3 SSTORE SWAP5 DUP5 ADD SWAP5 PUSH1 0x1 SWAP1 SWAP2 ADD SWAP1 DUP5 ADD PUSH2 0x2733 JUMP JUMPDEST POP DUP6 DUP3 LT ISZERO PUSH2 0x2770 JUMPI DUP8 DUP6 ADD MLOAD PUSH1 0x0 NOT PUSH1 0x3 DUP9 SWAP1 SHL PUSH1 0xF8 AND SHR NOT AND DUP2 SSTORE JUMPDEST POP POP POP POP POP PUSH1 0x1 SWAP1 DUP2 SHL ADD SWAP1 SSTORE POP JUMP JUMPDEST PUSH1 0x1 DUP2 DUP2 JUMPDEST DUP1 DUP6 GT ISZERO PUSH2 0x27BB JUMPI DUP2 PUSH1 0x0 NOT DIV DUP3 GT ISZERO PUSH2 0x27A1 JUMPI PUSH2 0x27A1 PUSH2 0x25FC JUMP JUMPDEST DUP1 DUP6 AND ISZERO PUSH2 0x27AE JUMPI SWAP2 DUP2 MUL SWAP2 JUMPDEST SWAP4 DUP5 SHR SWAP4 SWAP1 DUP1 MUL SWAP1 PUSH2 0x2785 JUMP JUMPDEST POP SWAP3 POP SWAP3 SWAP1 POP JUMP JUMPDEST PUSH1 0x0 DUP3 PUSH2 0x27D2 JUMPI POP PUSH1 0x1 PUSH2 0x7B0 JUMP JUMPDEST DUP2 PUSH2 0x27DF JUMPI POP PUSH1 0x0 PUSH2 0x7B0 JUMP JUMPDEST DUP2 PUSH1 0x1 DUP2 EQ PUSH2 0x27F5 JUMPI PUSH1 0x2 DUP2 EQ PUSH2 0x27FF JUMPI PUSH2 0x281B JUMP JUMPDEST PUSH1 0x1 SWAP2 POP POP PUSH2 0x7B0 JUMP JUMPDEST PUSH1 0xFF DUP5 GT ISZERO PUSH2 0x2810 JUMPI PUSH2 0x2810 PUSH2 0x25FC JUMP JUMPDEST POP POP PUSH1 0x1 DUP3 SHL PUSH2 0x7B0 JUMP JUMPDEST POP PUSH1 0x20 DUP4 LT PUSH2 0x133 DUP4 LT AND PUSH1 0x4E DUP5 LT PUSH1 0xB DUP5 LT AND OR ISZERO PUSH2 0x283E JUMPI POP DUP2 DUP2 EXP PUSH2 0x7B0 JUMP JUMPDEST PUSH2 0x2848 DUP4 DUP4 PUSH2 0x2780 JUMP JUMPDEST DUP1 PUSH1 0x0 NOT DIV DUP3 GT ISZERO PUSH2 0x285C JUMPI PUSH2 0x285C PUSH2 0x25FC JUMP JUMPDEST MUL SWAP4 SWAP3 POP POP POP JUMP JUMPDEST PUSH1 0x0 PUSH2 0x223D DUP4 DUP4 PUSH2 0x27C3 JUMP JUMPDEST DUP1 DUP3 MUL DUP2 ISZERO DUP3 DUP3 DIV DUP5 EQ OR PUSH2 0x7B0 JUMPI PUSH2 0x7B0 PUSH2 0x25FC JUMP JUMPDEST PUSH1 0x0 DUP3 PUSH2 0x28A4 JUMPI PUSH4 0x4E487B71 PUSH1 0xE0 SHL PUSH1 0x0 MSTORE PUSH1 0x12 PUSH1 0x4 MSTORE PUSH1 0x24 PUSH1 0x0 REVERT JUMPDEST POP DIV SWAP1 JUMP JUMPDEST PUSH1 0x0 PUSH1 0x20 DUP3 DUP5 SUB SLT ISZERO PUSH2 0x28BB JUMPI PUSH1 0x0 DUP1 REVERT JUMPDEST DUP2 MLOAD PUSH2 0x223D DUP2 PUSH2 0x22E7 JUMP JUMPDEST PUSH1 0x20 DUP2 MSTORE PUSH1 0x0 PUSH2 0x223D PUSH1 0x20 DUP4 ADD DUP5 PUSH2 0x2493 JUMP INVALID LOG2 PUSH5 0x6970667358 0x22 SLT KECCAK256 0xA6 0xA5 DUP6 0x4A 0x21 SWAP1 KECCAK256 0xB9 0x2A 0x4E JUMPDEST 0x2D PUSH5 0x5AF3E91C75 0xB7 0xA7 0x29 0xA6 PUSH13 0xA38F9C3C33214E3DBC64736F6C PUSH4 0x43000814 STOP CALLER "},"methodIdentifiers":{"BASE_PRICE_USD()":"8482ee9d","TOTAL_BAK_FOR_SALE()":"4828e6a0","addPaymentToken(address,uint256,uint256,address,bool,string)":"4223a464","authorizedOracles(address)":"61c992a3","bondingCurve()":"eff1d50e","calculateBAKAmount(uint256)":"ccc70a0c","calculateUSDValue(address,uint256)":"ac4ffcdf","crossChainPurchases(uint256)":"bcb34ea5","currentPrice()":"9d1b464a","emergencyStop()":"63a599a4","emergencyWithdrawBAK(uint256,address)":"70a8f621","emergencyWithdrawToken(address,uint256,address)":"83509080","enabledTokens(uint256)":"9463e068","getContractStats()":"dfe6b5d6","getCrossChainPurchaseCount()":"80ab2efd","getEnabledTokensCount()":"0622a18e","getTreasuryWallet(string,string)":"19f996e7","isTransactionProcessed(string)":"87258982","maxPurchaseAmount()":"f952fcad","owner()":"8da5cb5b","pause()":"8456cb59","paused()":"5c975abb","paymentTokens(address)":"c3b88b42","processCrossChainPurchase(address,string,string,uint256,string)":"409e805e","processedTxHashes(string)":"c2e9c122","purchaseTokens(address,uint256)":"22ea2231","renounceOwnership()":"715018a6","setAuthorizedOracle(address,bool)":"c7a6de4d","setBondingCurve(uint256,uint256,uint256,bool)":"949d6c0e","setEmergencyStop(bool)":"c73d7c7b","setMaxPurchaseAmount(uint256)":"a5fa12f0","totalBakSold()":"789701e8","totalUSDRaised()":"85cbc881","transferOwnership(address)":"f2fde38b","treasuryWallets(string,string)":"6807bfd1","unpause()":"3f4ba83a","userPurchases(address)":"39f65c09"}}}}}