{"contracts/BrainArkAirdrop.sol":{"BrainArkAirdrop":{"abi":[{"inputs":[{"internalType":"address","name":"_fundingWallet","type":"address"}],"stateMutability":"nonpayable","type":"constructor"},{"anonymous":false,"inputs":[{"indexed":true,"internalType":"address","name":"user","type":"address"},{"indexed":false,"internalType":"uint256","name":"amount","type":"uint256"},{"indexed":true,"internalType":"address","name":"referrer","type":"address"},{"indexed":false,"internalType":"uint256","name":"referralBonus","type":"uint256"},{"indexed":false,"internalType":"uint256","name":"timestamp","type":"uint256"}],"name":"AirdropClaimed","type":"event"},{"anonymous":false,"inputs":[{"indexed":false,"internalType":"uint256","name":"totalParticipants","type":"uint256"},{"indexed":false,"internalType":"uint256","name":"totalDistributed","type":"uint256"},{"indexed":false,"internalType":"uint256","name":"timestamp","type":"uint256"}],"name":"DistributionTriggered","type":"event"},{"anonymous":false,"inputs":[{"indexed":true,"internalType":"address","name":"previousOwner","type":"address"},{"indexed":true,"internalType":"address","name":"newOwner","type":"address"}],"name":"OwnershipTransferred","type":"event"},{"anonymous":false,"inputs":[{"indexed":false,"internalType":"address","name":"account","type":"address"}],"name":"Paused","type":"event"},{"anonymous":false,"inputs":[{"indexed":true,"internalType":"address","name":"referrer","type":"address"},{"indexed":true,"internalType":"address","name":"referee","type":"address"},{"indexed":false,"internalType":"uint256","name":"bonus","type":"uint256"},{"indexed":false,"internalType":"uint256","name":"timestamp","type":"uint256"}],"name":"ReferralBonusPaid","type":"event"},{"anonymous":false,"inputs":[{"indexed":true,"internalType":"address","name":"user","type":"address"},{"indexed":false,"internalType":"string","name":"taskType","type":"string"},{"indexed":false,"internalType":"bool","name":"verified","type":"bool"},{"indexed":false,"internalType":"uint256","name":"timestamp","type":"uint256"}],"name":"SocialTaskCompleted","type":"event"},{"anonymous":false,"inputs":[{"indexed":false,"internalType":"address","name":"account","type":"address"}],"name":"Unpaused","type":"event"},{"inputs":[],"name":"COINS_PER_USER","outputs":[{"internalType":"uint256","name":"","type":"uint256"}],"stateMutability":"view","type":"function"},{"inputs":[],"name":"REFERRAL_BONUS","outputs":[{"internalType":"uint256","name":"","type":"uint256"}],"stateMutability":"view","type":"function"},{"inputs":[],"name":"REFERRAL_POOL","outputs":[{"internalType":"uint256","name":"","type":"uint256"}],"stateMutability":"view","type":"function"},{"inputs":[],"name":"TARGET_PARTICIPANTS","outputs":[{"internalType":"uint256","name":"","type":"uint256"}],"stateMutability":"view","type":"function"},{"inputs":[],"name":"TOTAL_AIRDROP_SUPPLY","outputs":[{"internalType":"uint256","name":"","type":"uint256"}],"stateMutability":"view","type":"function"},{"inputs":[{"internalType":"address","name":"verifier","type":"address"}],"name":"addSocialVerifier","outputs":[],"stateMutability":"nonpayable","type":"function"},{"inputs":[{"internalType":"address","name":"user","type":"address"}],"name":"canClaim","outputs":[{"internalType":"bool","name":"","type":"bool"}],"stateMutability":"view","type":"function"},{"inputs":[{"internalType":"address","name":"referrer","type":"address"}],"name":"claimAirdrop","outputs":[],"stateMutability":"nonpayable","type":"function"},{"inputs":[{"internalType":"uint256","name":"startIndex","type":"uint256"},{"internalType":"uint256","name":"endIndex","type":"uint256"}],"name":"distributeTokens","outputs":[],"stateMutability":"nonpayable","type":"function"},{"inputs":[],"name":"distributionActive","outputs":[{"internalType":"bool","name":"","type":"bool"}],"stateMutability":"view","type":"function"},{"inputs":[],"name":"distributionStartTime","outputs":[{"internalType":"uint256","name":"","type":"uint256"}],"stateMutability":"view","type":"function"},{"inputs":[],"name":"distributionTriggered","outputs":[{"internalType":"bool","name":"","type":"bool"}],"stateMutability":"view","type":"function"},{"inputs":[],"name":"emergencyStop","outputs":[],"stateMutability":"nonpayable","type":"function"},{"inputs":[],"name":"fundingWallet","outputs":[{"internalType":"address","name":"","type":"address"}],"stateMutability":"view","type":"function"},{"inputs":[],"name":"getAirdropStats","outputs":[{"components":[{"internalType":"uint256","name":"totalParticipants","type":"uint256"},{"internalType":"uint256","name":"totalClaimed","type":"uint256"},{"internalType":"uint256","name":"totalReferralBonuses","type":"uint256"},{"internalType":"uint256","name":"remainingSupply","type":"uint256"},{"internalType":"bool","name":"distributionActive","type":"bool"},{"internalType":"uint256","name":"distributionStartTime","type":"uint256"}],"internalType":"struct BrainArkAirdrop.AirdropStats","name":"","type":"tuple"}],"stateMutability":"view","type":"function"},{"inputs":[{"internalType":"uint256","name":"offset","type":"uint256"},{"internalType":"uint256","name":"limit","type":"uint256"}],"name":"getParticipants","outputs":[{"internalType":"address[]","name":"","type":"address[]"}],"stateMutability":"view","type":"function"},{"inputs":[{"internalType":"address","name":"user","type":"address"}],"name":"getUserInfo","outputs":[{"components":[{"internalType":"bool","name":"hasClaimed","type":"bool"},{"internalType":"bool","name":"twitterFollowed","type":"bool"},{"internalType":"bool","name":"twitterRetweeted","type":"bool"},{"internalType":"bool","name":"telegramJoined","type":"bool"},{"internalType":"address","name":"referrer","type":"address"},{"internalType":"uint256","name":"referralCount","type":"uint256"},{"internalType":"uint256","name":"totalEarned","type":"uint256"},{"internalType":"uint256","name":"claimTimestamp","type":"uint256"}],"internalType":"struct BrainArkAirdrop.User","name":"","type":"tuple"}],"stateMutability":"view","type":"function"},{"inputs":[],"name":"owner","outputs":[{"internalType":"address","name":"","type":"address"}],"stateMutability":"view","type":"function"},{"inputs":[{"internalType":"uint256","name":"","type":"uint256"}],"name":"participants","outputs":[{"internalType":"address","name":"","type":"address"}],"stateMutability":"view","type":"function"},{"inputs":[],"name":"pause","outputs":[],"stateMutability":"nonpayable","type":"function"},{"inputs":[],"name":"paused","outputs":[{"internalType":"bool","name":"","type":"bool"}],"stateMutability":"view","type":"function"},{"inputs":[{"internalType":"address","name":"verifier","type":"address"}],"name":"removeSocialVerifier","outputs":[],"stateMutability":"nonpayable","type":"function"},{"inputs":[],"name":"renounceOwnership","outputs":[],"stateMutability":"nonpayable","type":"function"},{"inputs":[{"internalType":"address","name":"","type":"address"}],"name":"socialVerifiers","outputs":[{"internalType":"bool","name":"","type":"bool"}],"stateMutability":"view","type":"function"},{"inputs":[],"name":"totalClaimed","outputs":[{"internalType":"uint256","name":"","type":"uint256"}],"stateMutability":"view","type":"function"},{"inputs":[],"name":"totalReferralBonuses","outputs":[{"internalType":"uint256","name":"","type":"uint256"}],"stateMutability":"view","type":"function"},{"inputs":[{"internalType":"address","name":"newOwner","type":"address"}],"name":"transferOwnership","outputs":[],"stateMutability":"nonpayable","type":"function"},{"inputs":[],"name":"triggerDistribution","outputs":[],"stateMutability":"nonpayable","type":"function"},{"inputs":[],"name":"unpause","outputs":[],"stateMutability":"nonpayable","type":"function"},{"inputs":[{"internalType":"address","name":"","type":"address"}],"name":"users","outputs":[{"internalType":"bool","name":"hasClaimed","type":"bool"},{"internalType":"bool","name":"twitterFollowed","type":"bool"},{"internalType":"bool","name":"twitterRetweeted","type":"bool"},{"internalType":"bool","name":"telegramJoined","type":"bool"},{"internalType":"address","name":"referrer","type":"address"},{"internalType":"uint256","name":"referralCount","type":"uint256"},{"internalType":"uint256","name":"totalEarned","type":"uint256"},{"internalType":"uint256","name":"claimTimestamp","type":"uint256"}],"stateMutability":"view","type":"function"},{"inputs":[{"internalType":"address","name":"user","type":"address"},{"internalType":"string","name":"taskType","type":"string"},{"internalType":"bool","name":"verified","type":"bool"}],"name":"verifySocialTask","outputs":[],"stateMutability":"nonpayable","type":"function"},{"stateMutability":"payable","type":"receive"}],"evm":{"bytecode":{"linkReferences":{},"object":"60a06040523480156200001157600080fd5b5060405162001d0c38038062001d0c833981016040819052620000349162000121565b60016000556200004433620000cf565b6001805460ff60a01b191690556001600160a01b038116620000ac5760405162461bcd60e51b815260206004820152601660248201527f496e76616c69642066756e64696e672077616c6c657400000000000000000000604482015260640160405180910390fd5b6001600160a01b03166080526008805460ff191660011790554260075562000153565b600180546001600160a01b038381166001600160a01b0319831681179093556040519116919082907f8be0079c531659141344cd1fd0a4f28419497f9722a3daafe3b4186f6b6457e090600090a35050565b6000602082840312156200013457600080fd5b81516001600160a01b03811681146200014c57600080fd5b9392505050565b608051611b9d6200016f60003960006103130152611b9d6000f3fe6080604052600436106101db5760003560e01c80636628924011610102578063bf3506c111610095578063ded0ed1611610064578063ded0ed16146106fc578063e1913c8114610729578063f2fde38b14610745578063fedd970b1461076557600080fd5b8063bf3506c114610643578063c4d92a7514610663578063c6e5546c146106c6578063d54ad2a1146106e657600080fd5b80638da859b0116100d15780638da859b01461053357806399fb15d2146105495780639be70a3914610563578063a87430ba1461058257600080fd5b806366289240146104bb578063715018a6146104eb5780638456cb59146105005780638da5cb5b1461051557600080fd5b806335cd4b461161017a5780635c975abb116101495780635c975abb1461036a5780636386c1c71461038957806363a599a41461048657806365f8c6c51461049b57600080fd5b806335cd4b46146102ec5780633c4b40b8146103015780633f4ba83a14610335578063415175e51461034a57600080fd5b806314c9fd15116101b657806314c9fd15146102535780631ed43cde1461026f57806327c9af401461028557806335c1d349146102b457600080fd5b806268ae1d146101e757806310526f641461020957806310bd37991461023357600080fd5b366101e257005b600080fd5b3480156101f357600080fd5b5061020761020236600461188a565b610784565b005b34801561021557600080fd5b50610220620f424081565b6040519081526020015b60405180910390f35b34801561023f57600080fd5b5061020761024e36600461188a565b6107b0565b34801561025f57600080fd5b50610220678ac7230489e8000081565b34801561027b57600080fd5b5061022060065481565b34801561029157600080fd5b506008546102a490610100900460ff1681565b604051901515815260200161022a565b3480156102c057600080fd5b506102d46102cf3660046118ac565b6107d9565b6040516001600160a01b03909116815260200161022a565b3480156102f857600080fd5b50610207610803565b34801561030d57600080fd5b506102d47f000000000000000000000000000000000000000000000000000000000000000081565b34801561034157600080fd5b50610207610866565b34801561035657600080fd5b506102076103653660046118eb565b610876565b34801561037657600080fd5b50600154600160a01b900460ff166102a4565b34801561039557600080fd5b506104796103a436600461188a565b6040805161010081018252600080825260208201819052918101829052606081018290526080810182905260a0810182905260c0810182905260e0810191909152506001600160a01b0390811660009081526002602081815260409283902083516101008082018652825460ff808216151584529181048216151594830194909452620100008404811615159582019590955263010000008304909416151560608501526401000000009091049093166080830152600183015460a083015282015460c082015260039091015460e082015290565b60405161022a91906119bd565b34801561049257600080fd5b50610207610aa1565b3480156104a757600080fd5b506102076104b636600461188a565b610ab5565b3480156104c757600080fd5b506102a46104d636600461188a565b60036020526000908152604090205460ff1681565b3480156104f757600080fd5b50610207610f76565b34801561050c57600080fd5b50610207610f88565b34801561052157600080fd5b506001546001600160a01b03166102d4565b34801561053f57600080fd5b5061022060075481565b34801561055557600080fd5b506008546102a49060ff1681565b34801561056f57600080fd5b506102206a0422ca8b0a00a42500000081565b34801561058e57600080fd5b506105f761059d36600461188a565b6002602081905260009182526040909120805460018201549282015460039092015460ff80831694610100840482169462010000850483169463010000008104909316936401000000009093046001600160a01b03169288565b60408051981515895296151560208901529415159587019590955291151560608601526001600160a01b0316608085015260a084015260c083019190915260e08201526101000161022a565b34801561064f57600080fd5b506102a461065e36600461188a565b610f98565b34801561066f57600080fd5b5061067861105a565b60405161022a9190600060c0820190508251825260208301516020830152604083015160408301526060830151606083015260808301511515608083015260a083015160a083015292915050565b3480156106d257600080fd5b506102076106e1366004611a2f565b61110f565b3480156106f257600080fd5b5061022060055481565b34801561070857600080fd5b5061071c610717366004611a2f565b611266565b60405161022a9190611a51565b34801561073557600080fd5b50610220672c68af0bb140000081565b34801561075157600080fd5b5061020761076036600461188a565b61139f565b34801561077157600080fd5b506102206a084595161401484a00000081565b61078c611415565b6001600160a01b03166000908152600360205260409020805460ff19166001179055565b6107b8611415565b6001600160a01b03166000908152600360205260409020805460ff19169055565b600481815481106107e957600080fd5b6000918252602090912001546001600160a01b0316905081565b61080b611415565b600854610100900460ff161561085c5760405162461bcd60e51b8152602060048201526011602482015270105b1c9958591e481d1c9a59d9d95c9959607a1b60448201526064015b60405180910390fd5b61086461146f565b565b61086e611415565b61086461151f565b3360009081526003602052604090205460ff166108d55760405162461bcd60e51b815260206004820152601760248201527f4e6f7420617574686f72697a65642076657269666965720000000000000000006044820152606401610853565b60408051808201909152600e81526d747769747465725f666f6c6c6f7760901b6020918201528251908301207f234dc79d425056e723b4f084af383804ee8ad4db577c82b602d965b6df2289e301610955576001600160a01b0383166000908152600260205260409020805461ff00191661010083151502179055610a57565b60408051808201909152600f81526e1d1dda5d1d195c97dc995d1dd9595d608a1b6020918201528251908301207fcdb636be9de7c5dd787bd16e44d3e2a8a0fa4587de8e651b19ad1c17e307580b016109d8576001600160a01b0383166000908152600260205260409020805462ff000019166201000083151502179055610a57565b60408051808201909152600d81526c3a32b632b3b930b6afb537b4b760991b6020918201528251908301207f658c318f3a808e1d66e30612a487e2b4dbb6a5d6ba8d32600844fdf02a344bd201610a57576001600160a01b0383166000908152600260205260409020805463ff00000019166301000000831515021790555b826001600160a01b03167faa90bd489466a1ac754940853d9f5978eec465ff74a2f8902a1bb4efbbcaf26f838342604051610a9493929190611a9e565b60405180910390a2505050565b610aa9611415565b6008805460ff19169055565b610abd61156f565b610ac56115c8565b60085460ff16610b175760405162461bcd60e51b815260206004820152601760248201527f446973747269627574696f6e206e6f74206163746976650000000000000000006044820152606401610853565b3360009081526002602052604090205460ff1615610b695760405162461bcd60e51b815260206004820152600f60248201526e105b1c9958591e4818db185a5b5959608a1b6044820152606401610853565b600454620f424011610bbd5760405162461bcd60e51b815260206004820152601b60248201527f546172676574207061727469636970616e7473207265616368656400000000006044820152606401610853565b33600090815260026020526040902054610100900460ff168015610bf657503360009081526002602052604090205462010000900460ff165b8015610c185750336000908152600260205260409020546301000000900460ff165b610c645760405162461bcd60e51b815260206004820152601a60248201527f536f6369616c207461736b73206e6f7420636f6d706c657465640000000000006044820152606401610853565b6001600160a01b03811615610d2b57336001600160a01b03821603610cc35760405162461bcd60e51b815260206004820152601560248201527421b0b73737ba103932b332b9103cb7bab939b2b63360591b6044820152606401610853565b6001600160a01b03811660009081526002602052604090205460ff16610d2b5760405162461bcd60e51b815260206004820152601e60248201527f5265666572726572206d7573742062652061207061727469636970616e7400006044820152606401610853565b33600081815260026020819052604082208054600163ffffff01600160c01b03199091166401000000006001600160a01b038816021781178255678ac7230489e800009282018390554260039092019190915560048054918201815583527f8a35acfbc15ff81a39ae7d344fd709f28e8600b4aa8c65c6b64bfe7fe36bd19b0180546001600160a01b03191690931790925560058054909190610dcf908490611b12565b90915550600090506001600160a01b03821615801590610e0f57506a0422ca8b0a00a425000000672c68af0bb1400000600654610e0c9190611b12565b11155b15610eea576001600160a01b0382166000908152600260205260408120600101805491610e3b83611b25565b90915550506001600160a01b03821660009081526002602081905260408220018054672c68af0bb14000009290610e73908490611b12565b92505081905550672c68af0bb140000060066000828254610e949190611b12565b909155505060408051672c68af0bb1400000808252426020830152925033916001600160a01b038516917fb1da5bd041c3a852a00414e52da5f60612375abee4e87c90003be773e8dc5c8d910160405180910390a35b60408051678ac7230489e80000815260208101839052428183015290516001600160a01b0384169133917f3cb8c6a38aba406aca184814facaa86f1566aeedcea8c492b98b38fdc335125c9181900360600190a3600454620f424011801590610f5b5750600854610100900460ff16155b15610f6857610f6861146f565b50610f736001600055565b50565b610f7e611415565b6108646000611615565b610f90611415565b610864611667565b60085460009060ff168015610fc657506001600160a01b03821660009081526002602052604090205460ff16155b8015610fef57506001600160a01b038216600090815260026020526040902054610100900460ff165b801561101957506001600160a01b03821660009081526002602052604090205462010000900460ff165b801561104457506001600160a01b0382166000908152600260205260409020546301000000900460ff165b80156110545750600454620f4240115b92915050565b6110956040518060c0016040528060008152602001600081526020016000815260200160008152602001600015158152602001600081525090565b6040805160c081018252600454815260055460208201819052600654928201839052909160608301916110de6a0422ca8b0a00a4250000006a084595161401484a000000611b12565b6110e89190611b3e565b6110f29190611b3e565b815260085460ff1615156020820152600754604090910152919050565b611117611415565b600854610100900460ff1661116e5760405162461bcd60e51b815260206004820152601a60248201527f446973747269627574696f6e206e6f74207472696767657265640000000000006044820152606401610853565b6004548111156111b45760405162461bcd60e51b8152602060048201526011602482015270092dcecc2d8d2c840cadcc840d2dcc8caf607b1b6044820152606401610853565b8082106111f35760405162461bcd60e51b815260206004820152600d60248201526c496e76616c69642072616e676560981b6044820152606401610853565b815b818110156112615760006004828154811061121257611212611b51565b60009182526020808320909101546001600160a01b031680835260029182905260409092200154909150801561124c5761124c82826116aa565b5050808061125990611b25565b9150506111f5565b505050565b60045460609083106112b15760405162461bcd60e51b81526020600482015260146024820152734f6666736574206f7574206f6620626f756e647360601b6044820152606401610853565b60006112bd8385611b12565b6004549091508111156112cf57506004545b60006112db8583611b3e565b67ffffffffffffffff8111156112f3576112f36118c5565b60405190808252806020026020018201604052801561131c578160200160208202803683370190505b509050845b82811015611396576004818154811061133c5761133c611b51565b6000918252602090912001546001600160a01b03168261135c8884611b3e565b8151811061136c5761136c611b51565b6001600160a01b03909216602092830291909101909101528061138e81611b25565b915050611321565b50949350505050565b6113a7611415565b6001600160a01b03811661140c5760405162461bcd60e51b815260206004820152602660248201527f4f776e61626c653a206e6577206f776e657220697320746865207a65726f206160448201526564647265737360d01b6064820152608401610853565b610f7381611615565b6001546001600160a01b031633146108645760405162461bcd60e51b815260206004820181905260248201527f4f776e61626c653a2063616c6c6572206973206e6f7420746865206f776e65726044820152606401610853565b600454620f424011156114b95760405162461bcd60e51b815260206004820152601260248201527115185c99d95d081b9bdd081c995858da195960721b6044820152606401610853565b6008805461ffff19166101001790556004546006546005547faf593603e764f8d0aea850523b7ccdef382a737faf774a893739162c34e10b9592916114fd91611b12565b60408051928352602083019190915242908201526060015b60405180910390a1565b61152761181e565b6001805460ff60a01b191690557f5db9ee0a495bf2e6ff9c91a7834c1ba4fdd244a5e8aa4e537bd38aeae4b073aa335b6040516001600160a01b039091168152602001611515565b6002600054036115c15760405162461bcd60e51b815260206004820152601f60248201527f5265656e7472616e637947756172643a207265656e7472616e742063616c6c006044820152606401610853565b6002600055565b600154600160a01b900460ff16156108645760405162461bcd60e51b815260206004820152601060248201526f14185d5cd8589b194e881c185d5cd95960821b6044820152606401610853565b600180546001600160a01b038381166001600160a01b0319831681179093556040519116919082907f8be0079c531659141344cd1fd0a4f28419497f9722a3daafe3b4186f6b6457e090600090a35050565b61166f6115c8565b6001805460ff60a01b1916600160a01b1790557f62e78cea01bee320cd4e420270b5ea74000d11b0c9f74754ebdbfc544b05a2586115573390565b6001600160a01b0382166116f45760405162461bcd60e51b8152602060048201526011602482015270125b9d985b1a59081c9958da5c1a595b9d607a1b6044820152606401610853565b600081116117355760405162461bcd60e51b815260206004820152600e60248201526d125b9d985b1a5908185b5bdd5b9d60921b6044820152606401610853565b804710156117855760405162461bcd60e51b815260206004820152601d60248201527f496e73756666696369656e7420636f6e74726163742062616c616e63650000006044820152606401610853565b6000826001600160a01b03168260405160006040518083038185875af1925050503d80600081146117d2576040519150601f19603f3d011682016040523d82523d6000602084013e6117d7565b606091505b50509050806112615760405162461bcd60e51b8152602060048201526013602482015272109052c81d1c985b9cd9995c8819985a5b1959606a1b6044820152606401610853565b600154600160a01b900460ff166108645760405162461bcd60e51b815260206004820152601460248201527314185d5cd8589b194e881b9bdd081c185d5cd95960621b6044820152606401610853565b80356001600160a01b038116811461188557600080fd5b919050565b60006020828403121561189c57600080fd5b6118a58261186e565b9392505050565b6000602082840312156118be57600080fd5b5035919050565b634e487b7160e01b600052604160045260246000fd5b8035801515811461188557600080fd5b60008060006060848603121561190057600080fd5b6119098461186e565b9250602084013567ffffffffffffffff8082111561192657600080fd5b818601915086601f83011261193a57600080fd5b81358181111561194c5761194c6118c5565b604051601f8201601f19908116603f01168101908382118183101715611974576119746118c5565b8160405282815289602084870101111561198d57600080fd5b8260208601602083013760006020848301015280965050505050506119b4604085016118db565b90509250925092565b6000610100820190508251151582526020830151151560208301526040830151151560408301526060830151151560608301526080830151611a0a60808401826001600160a01b03169052565b5060a083015160a083015260c083015160c083015260e083015160e083015292915050565b60008060408385031215611a4257600080fd5b50508035926020909101359150565b6020808252825182820181905260009190848201906040850190845b81811015611a925783516001600160a01b031683529284019291840191600101611a6d565b50909695505050505050565b606081526000845180606084015260005b81811015611acc5760208188018101516080868401015201611aaf565b506000608082850101526080601f19601f8301168401019150508315156020830152826040830152949350505050565b634e487b7160e01b600052601160045260246000fd5b8082018082111561105457611054611afc565b600060018201611b3757611b37611afc565b5060010190565b8181038181111561105457611054611afc565b634e487b7160e01b600052603260045260246000fdfea2646970667358221220bba875c2459f6c8cda1871133f484ed8070e3fda3ea01347bd293b19f719fbcc64736f6c63430008140033","opcodes":"PUSH1 0xA0 PUSH1 0x40 MSTORE CALLVALUE DUP1 ISZERO PUSH3 0x11 JUMPI PUSH1 0x0 DUP1 REVERT JUMPDEST POP PUSH1 0x40 MLOAD PUSH3 0x1D0C CODESIZE SUB DUP1 PUSH3 0x1D0C DUP4 CODECOPY DUP2 ADD PUSH1 0x40 DUP2 SWAP1 MSTORE PUSH3 0x34 SWAP2 PUSH3 0x121 JUMP JUMPDEST PUSH1 0x1 PUSH1 0x0 SSTORE PUSH3 0x44 CALLER PUSH3 0xCF JUMP JUMPDEST PUSH1 0x1 DUP1 SLOAD PUSH1 0xFF PUSH1 0xA0 SHL NOT AND SWAP1 SSTORE PUSH1 0x1 PUSH1 0x1 PUSH1 0xA0 SHL SUB DUP2 AND PUSH3 0xAC JUMPI PUSH1 0x40 MLOAD PUSH3 0x461BCD PUSH1 0xE5 SHL DUP2 MSTORE PUSH1 0x20 PUSH1 0x4 DUP3 ADD MSTORE PUSH1 0x16 PUSH1 0x24 DUP3 ADD MSTORE PUSH32 0x496E76616C69642066756E64696E672077616C6C657400000000000000000000 PUSH1 0x44 DUP3 ADD MSTORE PUSH1 0x64 ADD PUSH1 0x40 MLOAD DUP1 SWAP2 SUB SWAP1 REVERT JUMPDEST PUSH1 0x1 PUSH1 0x1 PUSH1 0xA0 SHL SUB AND PUSH1 0x80 MSTORE PUSH1 0x8 DUP1 SLOAD PUSH1 0xFF NOT AND PUSH1 0x1 OR SWAP1 SSTORE TIMESTAMP PUSH1 0x7 SSTORE PUSH3 0x153 JUMP JUMPDEST PUSH1 0x1 DUP1 SLOAD PUSH1 0x1 PUSH1 0x1 PUSH1 0xA0 SHL SUB DUP4 DUP2 AND PUSH1 0x1 PUSH1 0x1 PUSH1 0xA0 SHL SUB NOT DUP4 AND DUP2 OR SWAP1 SWAP4 SSTORE PUSH1 0x40 MLOAD SWAP2 AND SWAP2 SWAP1 DUP3 SWAP1 PUSH32 0x8BE0079C531659141344CD1FD0A4F28419497F9722A3DAAFE3B4186F6B6457E0 SWAP1 PUSH1 0x0 SWAP1 LOG3 POP POP JUMP JUMPDEST PUSH1 0x0 PUSH1 0x20 DUP3 DUP5 SUB SLT ISZERO PUSH3 0x134 JUMPI PUSH1 0x0 DUP1 REVERT JUMPDEST DUP2 MLOAD PUSH1 0x1 PUSH1 0x1 PUSH1 0xA0 SHL SUB DUP2 AND DUP2 EQ PUSH3 0x14C JUMPI PUSH1 0x0 DUP1 REVERT JUMPDEST SWAP4 SWAP3 POP POP POP JUMP JUMPDEST PUSH1 0x80 MLOAD PUSH2 0x1B9D PUSH3 0x16F PUSH1 0x0 CODECOPY PUSH1 0x0 PUSH2 0x313 ADD MSTORE PUSH2 0x1B9D PUSH1 0x0 RETURN INVALID PUSH1 0x80 PUSH1 0x40 MSTORE PUSH1 0x4 CALLDATASIZE LT PUSH2 0x1DB JUMPI PUSH1 0x0 CALLDATALOAD PUSH1 0xE0 SHR DUP1 PUSH4 0x66289240 GT PUSH2 0x102 JUMPI DUP1 PUSH4 0xBF3506C1 GT PUSH2 0x95 JUMPI DUP1 PUSH4 0xDED0ED16 GT PUSH2 0x64 JUMPI DUP1 PUSH4 0xDED0ED16 EQ PUSH2 0x6FC JUMPI DUP1 PUSH4 0xE1913C81 EQ PUSH2 0x729 JUMPI DUP1 PUSH4 0xF2FDE38B EQ PUSH2 0x745 JUMPI DUP1 PUSH4 0xFEDD970B EQ PUSH2 0x765 JUMPI PUSH1 0x0 DUP1 REVERT JUMPDEST DUP1 PUSH4 0xBF3506C1 EQ PUSH2 0x643 JUMPI DUP1 PUSH4 0xC4D92A75 EQ PUSH2 0x663 JUMPI DUP1 PUSH4 0xC6E5546C EQ PUSH2 0x6C6 JUMPI DUP1 PUSH4 0xD54AD2A1 EQ PUSH2 0x6E6 JUMPI PUSH1 0x0 DUP1 REVERT JUMPDEST DUP1 PUSH4 0x8DA859B0 GT PUSH2 0xD1 JUMPI DUP1 PUSH4 0x8DA859B0 EQ PUSH2 0x533 JUMPI DUP1 PUSH4 0x99FB15D2 EQ PUSH2 0x549 JUMPI DUP1 PUSH4 0x9BE70A39 EQ PUSH2 0x563 JUMPI DUP1 PUSH4 0xA87430BA EQ PUSH2 0x582 JUMPI PUSH1 0x0 DUP1 REVERT JUMPDEST DUP1 PUSH4 0x66289240 EQ PUSH2 0x4BB JUMPI DUP1 PUSH4 0x715018A6 EQ PUSH2 0x4EB JUMPI DUP1 PUSH4 0x8456CB59 EQ PUSH2 0x500 JUMPI DUP1 PUSH4 0x8DA5CB5B EQ PUSH2 0x515 JUMPI PUSH1 0x0 DUP1 REVERT JUMPDEST DUP1 PUSH4 0x35CD4B46 GT PUSH2 0x17A JUMPI DUP1 PUSH4 0x5C975ABB GT PUSH2 0x149 JUMPI DUP1 PUSH4 0x5C975ABB EQ PUSH2 0x36A JUMPI DUP1 PUSH4 0x6386C1C7 EQ PUSH2 0x389 JUMPI DUP1 PUSH4 0x63A599A4 EQ PUSH2 0x486 JUMPI DUP1 PUSH4 0x65F8C6C5 EQ PUSH2 0x49B JUMPI PUSH1 0x0 DUP1 REVERT JUMPDEST DUP1 PUSH4 0x35CD4B46 EQ PUSH2 0x2EC JUMPI DUP1 PUSH4 0x3C4B40B8 EQ PUSH2 0x301 JUMPI DUP1 PUSH4 0x3F4BA83A EQ PUSH2 0x335 JUMPI DUP1 PUSH4 0x415175E5 EQ PUSH2 0x34A JUMPI PUSH1 0x0 DUP1 REVERT JUMPDEST DUP1 PUSH4 0x14C9FD15 GT PUSH2 0x1B6 JUMPI DUP1 PUSH4 0x14C9FD15 EQ PUSH2 0x253 JUMPI DUP1 PUSH4 0x1ED43CDE EQ PUSH2 0x26F JUMPI DUP1 PUSH4 0x27C9AF40 EQ PUSH2 0x285 JUMPI DUP1 PUSH4 0x35C1D349 EQ PUSH2 0x2B4 JUMPI PUSH1 0x0 DUP1 REVERT JUMPDEST DUP1 PUSH3 0x68AE1D EQ PUSH2 0x1E7 JUMPI DUP1 PUSH4 0x10526F64 EQ PUSH2 0x209 JUMPI DUP1 PUSH4 0x10BD3799 EQ PUSH2 0x233 JUMPI PUSH1 0x0 DUP1 REVERT JUMPDEST CALLDATASIZE PUSH2 0x1E2 JUMPI STOP JUMPDEST PUSH1 0x0 DUP1 REVERT JUMPDEST CALLVALUE DUP1 ISZERO PUSH2 0x1F3 JUMPI PUSH1 0x0 DUP1 REVERT JUMPDEST POP PUSH2 0x207 PUSH2 0x202 CALLDATASIZE PUSH1 0x4 PUSH2 0x188A JUMP JUMPDEST PUSH2 0x784 JUMP JUMPDEST STOP JUMPDEST CALLVALUE DUP1 ISZERO PUSH2 0x215 JUMPI PUSH1 0x0 DUP1 REVERT JUMPDEST POP PUSH2 0x220 PUSH3 0xF4240 DUP2 JUMP JUMPDEST PUSH1 0x40 MLOAD SWAP1 DUP2 MSTORE PUSH1 0x20 ADD JUMPDEST PUSH1 0x40 MLOAD DUP1 SWAP2 SUB SWAP1 RETURN JUMPDEST CALLVALUE DUP1 ISZERO PUSH2 0x23F JUMPI PUSH1 0x0 DUP1 REVERT JUMPDEST POP PUSH2 0x207 PUSH2 0x24E CALLDATASIZE PUSH1 0x4 PUSH2 0x188A JUMP JUMPDEST PUSH2 0x7B0 JUMP JUMPDEST CALLVALUE DUP1 ISZERO PUSH2 0x25F JUMPI PUSH1 0x0 DUP1 REVERT JUMPDEST POP PUSH2 0x220 PUSH8 0x8AC7230489E80000 DUP2 JUMP JUMPDEST CALLVALUE DUP1 ISZERO PUSH2 0x27B JUMPI PUSH1 0x0 DUP1 REVERT JUMPDEST POP PUSH2 0x220 PUSH1 0x6 SLOAD DUP2 JUMP JUMPDEST CALLVALUE DUP1 ISZERO PUSH2 0x291 JUMPI PUSH1 0x0 DUP1 REVERT JUMPDEST POP PUSH1 0x8 SLOAD PUSH2 0x2A4 SWAP1 PUSH2 0x100 SWAP1 DIV PUSH1 0xFF AND DUP2 JUMP JUMPDEST PUSH1 0x40 MLOAD SWAP1 ISZERO ISZERO DUP2 MSTORE PUSH1 0x20 ADD PUSH2 0x22A JUMP JUMPDEST CALLVALUE DUP1 ISZERO PUSH2 0x2C0 JUMPI PUSH1 0x0 DUP1 REVERT JUMPDEST POP PUSH2 0x2D4 PUSH2 0x2CF CALLDATASIZE PUSH1 0x4 PUSH2 0x18AC JUMP JUMPDEST PUSH2 0x7D9 JUMP JUMPDEST PUSH1 0x40 MLOAD PUSH1 0x1 PUSH1 0x1 PUSH1 0xA0 SHL SUB SWAP1 SWAP2 AND DUP2 MSTORE PUSH1 0x20 ADD PUSH2 0x22A JUMP JUMPDEST CALLVALUE DUP1 ISZERO PUSH2 0x2F8 JUMPI PUSH1 0x0 DUP1 REVERT JUMPDEST POP PUSH2 0x207 PUSH2 0x803 JUMP JUMPDEST CALLVALUE DUP1 ISZERO PUSH2 0x30D JUMPI PUSH1 0x0 DUP1 REVERT JUMPDEST POP PUSH2 0x2D4 PUSH32 0x0 DUP2 JUMP JUMPDEST CALLVALUE DUP1 ISZERO PUSH2 0x341 JUMPI PUSH1 0x0 DUP1 REVERT JUMPDEST POP PUSH2 0x207 PUSH2 0x866 JUMP JUMPDEST CALLVALUE DUP1 ISZERO PUSH2 0x356 JUMPI PUSH1 0x0 DUP1 REVERT JUMPDEST POP PUSH2 0x207 PUSH2 0x365 CALLDATASIZE PUSH1 0x4 PUSH2 0x18EB JUMP JUMPDEST PUSH2 0x876 JUMP JUMPDEST CALLVALUE DUP1 ISZERO PUSH2 0x376 JUMPI PUSH1 0x0 DUP1 REVERT JUMPDEST POP PUSH1 0x1 SLOAD PUSH1 0x1 PUSH1 0xA0 SHL SWAP1 DIV PUSH1 0xFF AND PUSH2 0x2A4 JUMP JUMPDEST CALLVALUE DUP1 ISZERO PUSH2 0x395 JUMPI PUSH1 0x0 DUP1 REVERT JUMPDEST POP PUSH2 0x479 PUSH2 0x3A4 CALLDATASIZE PUSH1 0x4 PUSH2 0x188A JUMP JUMPDEST PUSH1 0x40 DUP1 MLOAD PUSH2 0x100 DUP2 ADD DUP3 MSTORE PUSH1 0x0 DUP1 DUP3 MSTORE PUSH1 0x20 DUP3 ADD DUP2 SWAP1 MSTORE SWAP2 DUP2 ADD DUP3 SWAP1 MSTORE PUSH1 0x60 DUP2 ADD DUP3 SWAP1 MSTORE PUSH1 0x80 DUP2 ADD DUP3 SWAP1 MSTORE PUSH1 0xA0 DUP2 ADD DUP3 SWAP1 MSTORE PUSH1 0xC0 DUP2 ADD DUP3 SWAP1 MSTORE PUSH1 0xE0 DUP2 ADD SWAP2 SWAP1 SWAP2 MSTORE POP PUSH1 0x1 PUSH1 0x1 PUSH1 0xA0 SHL SUB SWAP1 DUP2 AND PUSH1 0x0 SWAP1 DUP2 MSTORE PUSH1 0x2 PUSH1 0x20 DUP2 DUP2 MSTORE PUSH1 0x40 SWAP3 DUP4 SWAP1 KECCAK256 DUP4 MLOAD PUSH2 0x100 DUP1 DUP3 ADD DUP7 MSTORE DUP3 SLOAD PUSH1 0xFF DUP1 DUP3 AND ISZERO ISZERO DUP5 MSTORE SWAP2 DUP2 DIV DUP3 AND ISZERO ISZERO SWAP5 DUP4 ADD SWAP5 SWAP1 SWAP5 MSTORE PUSH3 0x10000 DUP5 DIV DUP2 AND ISZERO ISZERO SWAP6 DUP3 ADD SWAP6 SWAP1 SWAP6 MSTORE PUSH4 0x1000000 DUP4 DIV SWAP1 SWAP5 AND ISZERO ISZERO PUSH1 0x60 DUP6 ADD MSTORE PUSH5 0x100000000 SWAP1 SWAP2 DIV SWAP1 SWAP4 AND PUSH1 0x80 DUP4 ADD MSTORE PUSH1 0x1 DUP4 ADD SLOAD PUSH1 0xA0 DUP4 ADD MSTORE DUP3 ADD SLOAD PUSH1 0xC0 DUP3 ADD MSTORE PUSH1 0x3 SWAP1 SWAP2 ADD SLOAD PUSH1 0xE0 DUP3 ADD MSTORE SWAP1 JUMP JUMPDEST PUSH1 0x40 MLOAD PUSH2 0x22A SWAP2 SWAP1 PUSH2 0x19BD JUMP JUMPDEST CALLVALUE DUP1 ISZERO PUSH2 0x492 JUMPI PUSH1 0x0 DUP1 REVERT JUMPDEST POP PUSH2 0x207 PUSH2 0xAA1 JUMP JUMPDEST CALLVALUE DUP1 ISZERO PUSH2 0x4A7 JUMPI PUSH1 0x0 DUP1 REVERT JUMPDEST POP PUSH2 0x207 PUSH2 0x4B6 CALLDATASIZE PUSH1 0x4 PUSH2 0x188A JUMP JUMPDEST PUSH2 0xAB5 JUMP JUMPDEST CALLVALUE DUP1 ISZERO PUSH2 0x4C7 JUMPI PUSH1 0x0 DUP1 REVERT JUMPDEST POP PUSH2 0x2A4 PUSH2 0x4D6 CALLDATASIZE PUSH1 0x4 PUSH2 0x188A JUMP JUMPDEST PUSH1 0x3 PUSH1 0x20 MSTORE PUSH1 0x0 SWAP1 DUP2 MSTORE PUSH1 0x40 SWAP1 KECCAK256 SLOAD PUSH1 0xFF AND DUP2 JUMP JUMPDEST CALLVALUE DUP1 ISZERO PUSH2 0x4F7 JUMPI PUSH1 0x0 DUP1 REVERT JUMPDEST POP PUSH2 0x207 PUSH2 0xF76 JUMP JUMPDEST CALLVALUE DUP1 ISZERO PUSH2 0x50C JUMPI PUSH1 0x0 DUP1 REVERT JUMPDEST POP PUSH2 0x207 PUSH2 0xF88 JUMP JUMPDEST CALLVALUE DUP1 ISZERO PUSH2 0x521 JUMPI PUSH1 0x0 DUP1 REVERT JUMPDEST POP PUSH1 0x1 SLOAD PUSH1 0x1 PUSH1 0x1 PUSH1 0xA0 SHL SUB AND PUSH2 0x2D4 JUMP JUMPDEST CALLVALUE DUP1 ISZERO PUSH2 0x53F JUMPI PUSH1 0x0 DUP1 REVERT JUMPDEST POP PUSH2 0x220 PUSH1 0x7 SLOAD DUP2 JUMP JUMPDEST CALLVALUE DUP1 ISZERO PUSH2 0x555 JUMPI PUSH1 0x0 DUP1 REVERT JUMPDEST POP PUSH1 0x8 SLOAD PUSH2 0x2A4 SWAP1 PUSH1 0xFF AND DUP2 JUMP JUMPDEST CALLVALUE DUP1 ISZERO PUSH2 0x56F JUMPI PUSH1 0x0 DUP1 REVERT JUMPDEST POP PUSH2 0x220 PUSH11 0x422CA8B0A00A425000000 DUP2 JUMP JUMPDEST CALLVALUE DUP1 ISZERO PUSH2 0x58E JUMPI PUSH1 0x0 DUP1 REVERT JUMPDEST POP PUSH2 0x5F7 PUSH2 0x59D CALLDATASIZE PUSH1 0x4 PUSH2 0x188A JUMP JUMPDEST PUSH1 0x2 PUSH1 0x20 DUP2 SWAP1 MSTORE PUSH1 0x0 SWAP2 DUP3 MSTORE PUSH1 0x40 SWAP1 SWAP2 KECCAK256 DUP1 SLOAD PUSH1 0x1 DUP3 ADD SLOAD SWAP3 DUP3 ADD SLOAD PUSH1 0x3 SWAP1 SWAP3 ADD SLOAD PUSH1 0xFF DUP1 DUP4 AND SWAP5 PUSH2 0x100 DUP5 DIV DUP3 AND SWAP5 PUSH3 0x10000 DUP6 DIV DUP4 AND SWAP5 PUSH4 0x1000000 DUP2 DIV SWAP1 SWAP4 AND SWAP4 PUSH5 0x100000000 SWAP1 SWAP4 DIV PUSH1 0x1 PUSH1 0x1 PUSH1 0xA0 SHL SUB AND SWAP3 DUP9 JUMP JUMPDEST PUSH1 0x40 DUP1 MLOAD SWAP9 ISZERO ISZERO DUP10 MSTORE SWAP7 ISZERO ISZERO PUSH1 0x20 DUP10 ADD MSTORE SWAP5 ISZERO ISZERO SWAP6 DUP8 ADD SWAP6 SWAP1 SWAP6 MSTORE SWAP2 ISZERO ISZERO PUSH1 0x60 DUP7 ADD MSTORE PUSH1 0x1 PUSH1 0x1 PUSH1 0xA0 SHL SUB AND PUSH1 0x80 DUP6 ADD MSTORE PUSH1 0xA0 DUP5 ADD MSTORE PUSH1 0xC0 DUP4 ADD SWAP2 SWAP1 SWAP2 MSTORE PUSH1 0xE0 DUP3 ADD MSTORE PUSH2 0x100 ADD PUSH2 0x22A JUMP JUMPDEST CALLVALUE DUP1 ISZERO PUSH2 0x64F JUMPI PUSH1 0x0 DUP1 REVERT JUMPDEST POP PUSH2 0x2A4 PUSH2 0x65E CALLDATASIZE PUSH1 0x4 PUSH2 0x188A JUMP JUMPDEST PUSH2 0xF98 JUMP JUMPDEST CALLVALUE DUP1 ISZERO PUSH2 0x66F JUMPI PUSH1 0x0 DUP1 REVERT JUMPDEST POP PUSH2 0x678 PUSH2 0x105A JUMP JUMPDEST PUSH1 0x40 MLOAD PUSH2 0x22A SWAP2 SWAP1 PUSH1 0x0 PUSH1 0xC0 DUP3 ADD SWAP1 POP DUP3 MLOAD DUP3 MSTORE PUSH1 0x20 DUP4 ADD MLOAD PUSH1 0x20 DUP4 ADD MSTORE PUSH1 0x40 DUP4 ADD MLOAD PUSH1 0x40 DUP4 ADD MSTORE PUSH1 0x60 DUP4 ADD MLOAD PUSH1 0x60 DUP4 ADD MSTORE PUSH1 0x80 DUP4 ADD MLOAD ISZERO ISZERO PUSH1 0x80 DUP4 ADD MSTORE PUSH1 0xA0 DUP4 ADD MLOAD PUSH1 0xA0 DUP4 ADD MSTORE SWAP3 SWAP2 POP POP JUMP JUMPDEST CALLVALUE DUP1 ISZERO PUSH2 0x6D2 JUMPI PUSH1 0x0 DUP1 REVERT JUMPDEST POP PUSH2 0x207 PUSH2 0x6E1 CALLDATASIZE PUSH1 0x4 PUSH2 0x1A2F JUMP JUMPDEST PUSH2 0x110F JUMP JUMPDEST CALLVALUE DUP1 ISZERO PUSH2 0x6F2 JUMPI PUSH1 0x0 DUP1 REVERT JUMPDEST POP PUSH2 0x220 PUSH1 0x5 SLOAD DUP2 JUMP JUMPDEST CALLVALUE DUP1 ISZERO PUSH2 0x708 JUMPI PUSH1 0x0 DUP1 REVERT JUMPDEST POP PUSH2 0x71C PUSH2 0x717 CALLDATASIZE PUSH1 0x4 PUSH2 0x1A2F JUMP JUMPDEST PUSH2 0x1266 JUMP JUMPDEST PUSH1 0x40 MLOAD PUSH2 0x22A SWAP2 SWAP1 PUSH2 0x1A51 JUMP JUMPDEST CALLVALUE DUP1 ISZERO PUSH2 0x735 JUMPI PUSH1 0x0 DUP1 REVERT JUMPDEST POP PUSH2 0x220 PUSH8 0x2C68AF0BB1400000 DUP2 JUMP JUMPDEST CALLVALUE DUP1 ISZERO PUSH2 0x751 JUMPI PUSH1 0x0 DUP1 REVERT JUMPDEST POP PUSH2 0x207 PUSH2 0x760 CALLDATASIZE PUSH1 0x4 PUSH2 0x188A JUMP JUMPDEST PUSH2 0x139F JUMP JUMPDEST CALLVALUE DUP1 ISZERO PUSH2 0x771 JUMPI PUSH1 0x0 DUP1 REVERT JUMPDEST POP PUSH2 0x220 PUSH11 0x84595161401484A000000 DUP2 JUMP JUMPDEST PUSH2 0x78C PUSH2 0x1415 JUMP JUMPDEST PUSH1 0x1 PUSH1 0x1 PUSH1 0xA0 SHL SUB AND PUSH1 0x0 SWAP1 DUP2 MSTORE PUSH1 0x3 PUSH1 0x20 MSTORE PUSH1 0x40 SWAP1 KECCAK256 DUP1 SLOAD PUSH1 0xFF NOT AND PUSH1 0x1 OR SWAP1 SSTORE JUMP JUMPDEST PUSH2 0x7B8 PUSH2 0x1415 JUMP JUMPDEST PUSH1 0x1 PUSH1 0x1 PUSH1 0xA0 SHL SUB AND PUSH1 0x0 SWAP1 DUP2 MSTORE PUSH1 0x3 PUSH1 0x20 MSTORE PUSH1 0x40 SWAP1 KECCAK256 DUP1 SLOAD PUSH1 0xFF NOT AND SWAP1 SSTORE JUMP JUMPDEST PUSH1 0x4 DUP2 DUP2 SLOAD DUP2 LT PUSH2 0x7E9 JUMPI PUSH1 0x0 DUP1 REVERT JUMPDEST PUSH1 0x0 SWAP2 DUP3 MSTORE PUSH1 0x20 SWAP1 SWAP2 KECCAK256 ADD SLOAD PUSH1 0x1 PUSH1 0x1 PUSH1 0xA0 SHL SUB AND SWAP1 POP DUP2 JUMP JUMPDEST PUSH2 0x80B PUSH2 0x1415 JUMP JUMPDEST PUSH1 0x8 SLOAD PUSH2 0x100 SWAP1 DIV PUSH1 0xFF AND ISZERO PUSH2 0x85C JUMPI PUSH1 0x40 MLOAD PUSH3 0x461BCD PUSH1 0xE5 SHL DUP2 MSTORE PUSH1 0x20 PUSH1 0x4 DUP3 ADD MSTORE PUSH1 0x11 PUSH1 0x24 DUP3 ADD MSTORE PUSH17 0x105B1C9958591E481D1C9A59D9D95C9959 PUSH1 0x7A SHL PUSH1 0x44 DUP3 ADD MSTORE PUSH1 0x64 ADD JUMPDEST PUSH1 0x40 MLOAD DUP1 SWAP2 SUB SWAP1 REVERT JUMPDEST PUSH2 0x864 PUSH2 0x146F JUMP JUMPDEST JUMP JUMPDEST PUSH2 0x86E PUSH2 0x1415 JUMP JUMPDEST PUSH2 0x864 PUSH2 0x151F JUMP JUMPDEST CALLER PUSH1 0x0 SWAP1 DUP2 MSTORE PUSH1 0x3 PUSH1 0x20 MSTORE PUSH1 0x40 SWAP1 KECCAK256 SLOAD PUSH1 0xFF AND PUSH2 0x8D5 JUMPI PUSH1 0x40 MLOAD PUSH3 0x461BCD PUSH1 0xE5 SHL DUP2 MSTORE PUSH1 0x20 PUSH1 0x4 DUP3 ADD MSTORE PUSH1 0x17 PUSH1 0x24 DUP3 ADD MSTORE PUSH32 0x4E6F7420617574686F72697A6564207665726966696572000000000000000000 PUSH1 0x44 DUP3 ADD MSTORE PUSH1 0x64 ADD PUSH2 0x853 JUMP JUMPDEST PUSH1 0x40 DUP1 MLOAD DUP1 DUP3 ADD SWAP1 SWAP2 MSTORE PUSH1 0xE DUP2 MSTORE PUSH14 0x747769747465725F666F6C6C6F77 PUSH1 0x90 SHL PUSH1 0x20 SWAP2 DUP3 ADD MSTORE DUP3 MLOAD SWAP1 DUP4 ADD KECCAK256 PUSH32 0x234DC79D425056E723B4F084AF383804EE8AD4DB577C82B602D965B6DF2289E3 ADD PUSH2 0x955 JUMPI PUSH1 0x1 PUSH1 0x1 PUSH1 0xA0 SHL SUB DUP4 AND PUSH1 0x0 SWAP1 DUP2 MSTORE PUSH1 0x2 PUSH1 0x20 MSTORE PUSH1 0x40 SWAP1 KECCAK256 DUP1 SLOAD PUSH2 0xFF00 NOT AND PUSH2 0x100 DUP4 ISZERO ISZERO MUL OR SWAP1 SSTORE PUSH2 0xA57 JUMP JUMPDEST PUSH1 0x40 DUP1 MLOAD DUP1 DUP3 ADD SWAP1 SWAP2 MSTORE PUSH1 0xF DUP2 MSTORE PUSH15 0x1D1DDA5D1D195C97DC995D1DD9595D PUSH1 0x8A SHL PUSH1 0x20 SWAP2 DUP3 ADD MSTORE DUP3 MLOAD SWAP1 DUP4 ADD KECCAK256 PUSH32 0xCDB636BE9DE7C5DD787BD16E44D3E2A8A0FA4587DE8E651B19AD1C17E307580B ADD PUSH2 0x9D8 JUMPI PUSH1 0x1 PUSH1 0x1 PUSH1 0xA0 SHL SUB DUP4 AND PUSH1 0x0 SWAP1 DUP2 MSTORE PUSH1 0x2 PUSH1 0x20 MSTORE PUSH1 0x40 SWAP1 KECCAK256 DUP1 SLOAD PUSH3 0xFF0000 NOT AND PUSH3 0x10000 DUP4 ISZERO ISZERO MUL OR SWAP1 SSTORE PUSH2 0xA57 JUMP JUMPDEST PUSH1 0x40 DUP1 MLOAD DUP1 DUP3 ADD SWAP1 SWAP2 MSTORE PUSH1 0xD DUP2 MSTORE PUSH13 0x3A32B632B3B930B6AFB537B4B7 PUSH1 0x99 SHL PUSH1 0x20 SWAP2 DUP3 ADD MSTORE DUP3 MLOAD SWAP1 DUP4 ADD KECCAK256 PUSH32 0x658C318F3A808E1D66E30612A487E2B4DBB6A5D6BA8D32600844FDF02A344BD2 ADD PUSH2 0xA57 JUMPI PUSH1 0x1 PUSH1 0x1 PUSH1 0xA0 SHL SUB DUP4 AND PUSH1 0x0 SWAP1 DUP2 MSTORE PUSH1 0x2 PUSH1 0x20 MSTORE PUSH1 0x40 SWAP1 KECCAK256 DUP1 SLOAD PUSH4 0xFF000000 NOT AND PUSH4 0x1000000 DUP4 ISZERO ISZERO MUL OR SWAP1 SSTORE JUMPDEST DUP3 PUSH1 0x1 PUSH1 0x1 PUSH1 0xA0 SHL SUB AND PUSH32 0xAA90BD489466A1AC754940853D9F5978EEC465FF74A2F8902A1BB4EFBBCAF26F DUP4 DUP4 TIMESTAMP PUSH1 0x40 MLOAD PUSH2 0xA94 SWAP4 SWAP3 SWAP2 SWAP1 PUSH2 0x1A9E JUMP JUMPDEST PUSH1 0x40 MLOAD DUP1 SWAP2 SUB SWAP1 LOG2 POP POP POP JUMP JUMPDEST PUSH2 0xAA9 PUSH2 0x1415 JUMP JUMPDEST PUSH1 0x8 DUP1 SLOAD PUSH1 0xFF NOT AND SWAP1 SSTORE JUMP JUMPDEST PUSH2 0xABD PUSH2 0x156F JUMP JUMPDEST PUSH2 0xAC5 PUSH2 0x15C8 JUMP JUMPDEST PUSH1 0x8 SLOAD PUSH1 0xFF AND PUSH2 0xB17 JUMPI PUSH1 0x40 MLOAD PUSH3 0x461BCD PUSH1 0xE5 SHL DUP2 MSTORE PUSH1 0x20 PUSH1 0x4 DUP3 ADD MSTORE PUSH1 0x17 PUSH1 0x24 DUP3 ADD MSTORE PUSH32 0x446973747269627574696F6E206E6F7420616374697665000000000000000000 PUSH1 0x44 DUP3 ADD MSTORE PUSH1 0x64 ADD PUSH2 0x853 JUMP JUMPDEST CALLER PUSH1 0x0 SWAP1 DUP2 MSTORE PUSH1 0x2 PUSH1 0x20 MSTORE PUSH1 0x40 SWAP1 KECCAK256 SLOAD PUSH1 0xFF AND ISZERO PUSH2 0xB69 JUMPI PUSH1 0x40 MLOAD PUSH3 0x461BCD PUSH1 0xE5 SHL DUP2 MSTORE PUSH1 0x20 PUSH1 0x4 DUP3 ADD MSTORE PUSH1 0xF PUSH1 0x24 DUP3 ADD MSTORE PUSH15 0x105B1C9958591E4818DB185A5B5959 PUSH1 0x8A SHL PUSH1 0x44 DUP3 ADD MSTORE PUSH1 0x64 ADD PUSH2 0x853 JUMP JUMPDEST PUSH1 0x4 SLOAD PUSH3 0xF4240 GT PUSH2 0xBBD JUMPI PUSH1 0x40 MLOAD PUSH3 0x461BCD PUSH1 0xE5 SHL DUP2 MSTORE PUSH1 0x20 PUSH1 0x4 DUP3 ADD MSTORE PUSH1 0x1B PUSH1 0x24 DUP3 ADD MSTORE PUSH32 0x546172676574207061727469636970616E747320726561636865640000000000 PUSH1 0x44 DUP3 ADD MSTORE PUSH1 0x64 ADD PUSH2 0x853 JUMP JUMPDEST CALLER PUSH1 0x0 SWAP1 DUP2 MSTORE PUSH1 0x2 PUSH1 0x20 MSTORE PUSH1 0x40 SWAP1 KECCAK256 SLOAD PUSH2 0x100 SWAP1 DIV PUSH1 0xFF AND DUP1 ISZERO PUSH2 0xBF6 JUMPI POP CALLER PUSH1 0x0 SWAP1 DUP2 MSTORE PUSH1 0x2 PUSH1 0x20 MSTORE PUSH1 0x40 SWAP1 KECCAK256 SLOAD PUSH3 0x10000 SWAP1 DIV PUSH1 0xFF AND JUMPDEST DUP1 ISZERO PUSH2 0xC18 JUMPI POP CALLER PUSH1 0x0 SWAP1 DUP2 MSTORE PUSH1 0x2 PUSH1 0x20 MSTORE PUSH1 0x40 SWAP1 KECCAK256 SLOAD PUSH4 0x1000000 SWAP1 DIV PUSH1 0xFF AND JUMPDEST PUSH2 0xC64 JUMPI PUSH1 0x40 MLOAD PUSH3 0x461BCD PUSH1 0xE5 SHL DUP2 MSTORE PUSH1 0x20 PUSH1 0x4 DUP3 ADD MSTORE PUSH1 0x1A PUSH1 0x24 DUP3 ADD MSTORE PUSH32 0x536F6369616C207461736B73206E6F7420636F6D706C65746564000000000000 PUSH1 0x44 DUP3 ADD MSTORE PUSH1 0x64 ADD PUSH2 0x853 JUMP JUMPDEST PUSH1 0x1 PUSH1 0x1 PUSH1 0xA0 SHL SUB DUP2 AND ISZERO PUSH2 0xD2B JUMPI CALLER PUSH1 0x1 PUSH1 0x1 PUSH1 0xA0 SHL SUB DUP3 AND SUB PUSH2 0xCC3 JUMPI PUSH1 0x40 MLOAD PUSH3 0x461BCD PUSH1 0xE5 SHL DUP2 MSTORE PUSH1 0x20 PUSH1 0x4 DUP3 ADD MSTORE PUSH1 0x15 PUSH1 0x24 DUP3 ADD MSTORE PUSH21 0x21B0B73737BA103932B332B9103CB7BAB939B2B633 PUSH1 0x59 SHL PUSH1 0x44 DUP3 ADD MSTORE PUSH1 0x64 ADD PUSH2 0x853 JUMP JUMPDEST PUSH1 0x1 PUSH1 0x1 PUSH1 0xA0 SHL SUB DUP2 AND PUSH1 0x0 SWAP1 DUP2 MSTORE PUSH1 0x2 PUSH1 0x20 MSTORE PUSH1 0x40 SWAP1 KECCAK256 SLOAD PUSH1 0xFF AND PUSH2 0xD2B JUMPI PUSH1 0x40 MLOAD PUSH3 0x461BCD PUSH1 0xE5 SHL DUP2 MSTORE PUSH1 0x20 PUSH1 0x4 DUP3 ADD MSTORE PUSH1 0x1E PUSH1 0x24 DUP3 ADD MSTORE PUSH32 0x5265666572726572206D7573742062652061207061727469636970616E740000 PUSH1 0x44 DUP3 ADD MSTORE PUSH1 0x64 ADD PUSH2 0x853 JUMP JUMPDEST CALLER PUSH1 0x0 DUP2 DUP2 MSTORE PUSH1 0x2 PUSH1 0x20 DUP2 SWAP1 MSTORE PUSH1 0x40 DUP3 KECCAK256 DUP1 SLOAD PUSH1 0x1 PUSH4 0xFFFFFF01 PUSH1 0x1 PUSH1 0xC0 SHL SUB NOT SWAP1 SWAP2 AND PUSH5 0x100000000 PUSH1 0x1 PUSH1 0x1 PUSH1 0xA0 SHL SUB DUP9 AND MUL OR DUP2 OR DUP3 SSTORE PUSH8 0x8AC7230489E80000 SWAP3 DUP3 ADD DUP4 SWAP1 SSTORE TIMESTAMP PUSH1 0x3 SWAP1 SWAP3 ADD SWAP2 SWAP1 SWAP2 SSTORE PUSH1 0x4 DUP1 SLOAD SWAP2 DUP3 ADD DUP2 SSTORE DUP4 MSTORE PUSH32 0x8A35ACFBC15FF81A39AE7D344FD709F28E8600B4AA8C65C6B64BFE7FE36BD19B ADD DUP1 SLOAD PUSH1 0x1 PUSH1 0x1 PUSH1 0xA0 SHL SUB NOT AND SWAP1 SWAP4 OR SWAP1 SWAP3 SSTORE PUSH1 0x5 DUP1 SLOAD SWAP1 SWAP2 SWAP1 PUSH2 0xDCF SWAP1 DUP5 SWAP1 PUSH2 0x1B12 JUMP JUMPDEST SWAP1 SWAP2 SSTORE POP PUSH1 0x0 SWAP1 POP PUSH1 0x1 PUSH1 0x1 PUSH1 0xA0 SHL SUB DUP3 AND ISZERO DUP1 ISZERO SWAP1 PUSH2 0xE0F JUMPI POP PUSH11 0x422CA8B0A00A425000000 PUSH8 0x2C68AF0BB1400000 PUSH1 0x6 SLOAD PUSH2 0xE0C SWAP2 SWAP1 PUSH2 0x1B12 JUMP JUMPDEST GT ISZERO JUMPDEST ISZERO PUSH2 0xEEA JUMPI PUSH1 0x1 PUSH1 0x1 PUSH1 0xA0 SHL SUB DUP3 AND PUSH1 0x0 SWAP1 DUP2 MSTORE PUSH1 0x2 PUSH1 0x20 MSTORE PUSH1 0x40 DUP2 KECCAK256 PUSH1 0x1 ADD DUP1 SLOAD SWAP2 PUSH2 0xE3B DUP4 PUSH2 0x1B25 JUMP JUMPDEST SWAP1 SWAP2 SSTORE POP POP PUSH1 0x1 PUSH1 0x1 PUSH1 0xA0 SHL SUB DUP3 AND PUSH1 0x0 SWAP1 DUP2 MSTORE PUSH1 0x2 PUSH1 0x20 DUP2 SWAP1 MSTORE PUSH1 0x40 DUP3 KECCAK256 ADD DUP1 SLOAD PUSH8 0x2C68AF0BB1400000 SWAP3 SWAP1 PUSH2 0xE73 SWAP1 DUP5 SWAP1 PUSH2 0x1B12 JUMP JUMPDEST SWAP3 POP POP DUP2 SWAP1 SSTORE POP PUSH8 0x2C68AF0BB1400000 PUSH1 0x6 PUSH1 0x0 DUP3 DUP3 SLOAD PUSH2 0xE94 SWAP2 SWAP1 PUSH2 0x1B12 JUMP JUMPDEST SWAP1 SWAP2 SSTORE POP POP PUSH1 0x40 DUP1 MLOAD PUSH8 0x2C68AF0BB1400000 DUP1 DUP3 MSTORE TIMESTAMP PUSH1 0x20 DUP4 ADD MSTORE SWAP3 POP CALLER SWAP2 PUSH1 0x1 PUSH1 0x1 PUSH1 0xA0 SHL SUB DUP6 AND SWAP2 PUSH32 0xB1DA5BD041C3A852A00414E52DA5F60612375ABEE4E87C90003BE773E8DC5C8D SWAP2 ADD PUSH1 0x40 MLOAD DUP1 SWAP2 SUB SWAP1 LOG3 JUMPDEST PUSH1 0x40 DUP1 MLOAD PUSH8 0x8AC7230489E80000 DUP2 MSTORE PUSH1 0x20 DUP2 ADD DUP4 SWAP1 MSTORE TIMESTAMP DUP2 DUP4 ADD MSTORE SWAP1 MLOAD PUSH1 0x1 PUSH1 0x1 PUSH1 0xA0 SHL SUB DUP5 AND SWAP2 CALLER SWAP2 PUSH32 0x3CB8C6A38ABA406ACA184814FACAA86F1566AEEDCEA8C492B98B38FDC335125C SWAP2 DUP2 SWAP1 SUB PUSH1 0x60 ADD SWAP1 LOG3 PUSH1 0x4 SLOAD PUSH3 0xF4240 GT DUP1 ISZERO SWAP1 PUSH2 0xF5B JUMPI POP PUSH1 0x8 SLOAD PUSH2 0x100 SWAP1 DIV PUSH1 0xFF AND ISZERO JUMPDEST ISZERO PUSH2 0xF68 JUMPI PUSH2 0xF68 PUSH2 0x146F JUMP JUMPDEST POP PUSH2 0xF73 PUSH1 0x1 PUSH1 0x0 SSTORE JUMP JUMPDEST POP JUMP JUMPDEST PUSH2 0xF7E PUSH2 0x1415 JUMP JUMPDEST PUSH2 0x864 PUSH1 0x0 PUSH2 0x1615 JUMP JUMPDEST PUSH2 0xF90 PUSH2 0x1415 JUMP JUMPDEST PUSH2 0x864 PUSH2 0x1667 JUMP JUMPDEST PUSH1 0x8 SLOAD PUSH1 0x0 SWAP1 PUSH1 0xFF AND DUP1 ISZERO PUSH2 0xFC6 JUMPI POP PUSH1 0x1 PUSH1 0x1 PUSH1 0xA0 SHL SUB DUP3 AND PUSH1 0x0 SWAP1 DUP2 MSTORE PUSH1 0x2 PUSH1 0x20 MSTORE PUSH1 0x40 SWAP1 KECCAK256 SLOAD PUSH1 0xFF AND ISZERO JUMPDEST DUP1 ISZERO PUSH2 0xFEF JUMPI POP PUSH1 0x1 PUSH1 0x1 PUSH1 0xA0 SHL SUB DUP3 AND PUSH1 0x0 SWAP1 DUP2 MSTORE PUSH1 0x2 PUSH1 0x20 MSTORE PUSH1 0x40 SWAP1 KECCAK256 SLOAD PUSH2 0x100 SWAP1 DIV PUSH1 0xFF AND JUMPDEST DUP1 ISZERO PUSH2 0x1019 JUMPI POP PUSH1 0x1 PUSH1 0x1 PUSH1 0xA0 SHL SUB DUP3 AND PUSH1 0x0 SWAP1 DUP2 MSTORE PUSH1 0x2 PUSH1 0x20 MSTORE PUSH1 0x40 SWAP1 KECCAK256 SLOAD PUSH3 0x10000 SWAP1 DIV PUSH1 0xFF AND JUMPDEST DUP1 ISZERO PUSH2 0x1044 JUMPI POP PUSH1 0x1 PUSH1 0x1 PUSH1 0xA0 SHL SUB DUP3 AND PUSH1 0x0 SWAP1 DUP2 MSTORE PUSH1 0x2 PUSH1 0x20 MSTORE PUSH1 0x40 SWAP1 KECCAK256 SLOAD PUSH4 0x1000000 SWAP1 DIV PUSH1 0xFF AND JUMPDEST DUP1 ISZERO PUSH2 0x1054 JUMPI POP PUSH1 0x4 SLOAD PUSH3 0xF4240 GT JUMPDEST SWAP3 SWAP2 POP POP JUMP JUMPDEST PUSH2 0x1095 PUSH1 0x40 MLOAD DUP1 PUSH1 0xC0 ADD PUSH1 0x40 MSTORE DUP1 PUSH1 0x0 DUP2 MSTORE PUSH1 0x20 ADD PUSH1 0x0 DUP2 MSTORE PUSH1 0x20 ADD PUSH1 0x0 DUP2 MSTORE PUSH1 0x20 ADD PUSH1 0x0 DUP2 MSTORE PUSH1 0x20 ADD PUSH1 0x0 ISZERO ISZERO DUP2 MSTORE PUSH1 0x20 ADD PUSH1 0x0 DUP2 MSTORE POP SWAP1 JUMP JUMPDEST PUSH1 0x40 DUP1 MLOAD PUSH1 0xC0 DUP2 ADD DUP3 MSTORE PUSH1 0x4 SLOAD DUP2 MSTORE PUSH1 0x5 SLOAD PUSH1 0x20 DUP3 ADD DUP2 SWAP1 MSTORE PUSH1 0x6 SLOAD SWAP3 DUP3 ADD DUP4 SWAP1 MSTORE SWAP1 SWAP2 PUSH1 0x60 DUP4 ADD SWAP2 PUSH2 0x10DE PUSH11 0x422CA8B0A00A425000000 PUSH11 0x84595161401484A000000 PUSH2 0x1B12 JUMP JUMPDEST PUSH2 0x10E8 SWAP2 SWAP1 PUSH2 0x1B3E JUMP JUMPDEST PUSH2 0x10F2 SWAP2 SWAP1 PUSH2 0x1B3E JUMP JUMPDEST DUP2 MSTORE PUSH1 0x8 SLOAD PUSH1 0xFF AND ISZERO ISZERO PUSH1 0x20 DUP3 ADD MSTORE PUSH1 0x7 SLOAD PUSH1 0x40 SWAP1 SWAP2 ADD MSTORE SWAP2 SWAP1 POP JUMP JUMPDEST PUSH2 0x1117 PUSH2 0x1415 JUMP JUMPDEST PUSH1 0x8 SLOAD PUSH2 0x100 SWAP1 DIV PUSH1 0xFF AND PUSH2 0x116E JUMPI PUSH1 0x40 MLOAD PUSH3 0x461BCD PUSH1 0xE5 SHL DUP2 MSTORE PUSH1 0x20 PUSH1 0x4 DUP3 ADD MSTORE PUSH1 0x1A PUSH1 0x24 DUP3 ADD MSTORE PUSH32 0x446973747269627574696F6E206E6F7420747269676765726564000000000000 PUSH1 0x44 DUP3 ADD MSTORE PUSH1 0x64 ADD PUSH2 0x853 JUMP JUMPDEST PUSH1 0x4 SLOAD DUP2 GT ISZERO PUSH2 0x11B4 JUMPI PUSH1 0x40 MLOAD PUSH3 0x461BCD PUSH1 0xE5 SHL DUP2 MSTORE PUSH1 0x20 PUSH1 0x4 DUP3 ADD MSTORE PUSH1 0x11 PUSH1 0x24 DUP3 ADD MSTORE PUSH17 0x92DCECC2D8D2C840CADCC840D2DCC8CAF PUSH1 0x7B SHL PUSH1 0x44 DUP3 ADD MSTORE PUSH1 0x64 ADD PUSH2 0x853 JUMP JUMPDEST DUP1 DUP3 LT PUSH2 0x11F3 JUMPI PUSH1 0x40 MLOAD PUSH3 0x461BCD PUSH1 0xE5 SHL DUP2 MSTORE PUSH1 0x20 PUSH1 0x4 DUP3 ADD MSTORE PUSH1 0xD PUSH1 0x24 DUP3 ADD MSTORE PUSH13 0x496E76616C69642072616E6765 PUSH1 0x98 SHL PUSH1 0x44 DUP3 ADD MSTORE PUSH1 0x64 ADD PUSH2 0x853 JUMP JUMPDEST DUP2 JUMPDEST DUP2 DUP2 LT ISZERO PUSH2 0x1261 JUMPI PUSH1 0x0 PUSH1 0x4 DUP3 DUP2 SLOAD DUP2 LT PUSH2 0x1212 JUMPI PUSH2 0x1212 PUSH2 0x1B51 JUMP JUMPDEST PUSH1 0x0 SWAP2 DUP3 MSTORE PUSH1 0x20 DUP1 DUP4 KECCAK256 SWAP1 SWAP2 ADD SLOAD PUSH1 0x1 PUSH1 0x1 PUSH1 0xA0 SHL SUB AND DUP1 DUP4 MSTORE PUSH1 0x2 SWAP2 DUP3 SWAP1 MSTORE PUSH1 0x40 SWAP1 SWAP3 KECCAK256 ADD SLOAD SWAP1 SWAP2 POP DUP1 ISZERO PUSH2 0x124C JUMPI PUSH2 0x124C DUP3 DUP3 PUSH2 0x16AA JUMP JUMPDEST POP POP DUP1 DUP1 PUSH2 0x1259 SWAP1 PUSH2 0x1B25 JUMP JUMPDEST SWAP2 POP POP PUSH2 0x11F5 JUMP JUMPDEST POP POP POP JUMP JUMPDEST PUSH1 0x4 SLOAD PUSH1 0x60 SWAP1 DUP4 LT PUSH2 0x12B1 JUMPI PUSH1 0x40 MLOAD PUSH3 0x461BCD PUSH1 0xE5 SHL DUP2 MSTORE PUSH1 0x20 PUSH1 0x4 DUP3 ADD MSTORE PUSH1 0x14 PUSH1 0x24 DUP3 ADD MSTORE PUSH20 0x4F6666736574206F7574206F6620626F756E6473 PUSH1 0x60 SHL PUSH1 0x44 DUP3 ADD MSTORE PUSH1 0x64 ADD PUSH2 0x853 JUMP JUMPDEST PUSH1 0x0 PUSH2 0x12BD DUP4 DUP6 PUSH2 0x1B12 JUMP JUMPDEST PUSH1 0x4 SLOAD SWAP1 SWAP2 POP DUP2 GT ISZERO PUSH2 0x12CF JUMPI POP PUSH1 0x4 SLOAD JUMPDEST PUSH1 0x0 PUSH2 0x12DB DUP6 DUP4 PUSH2 0x1B3E JUMP JUMPDEST PUSH8 0xFFFFFFFFFFFFFFFF DUP2 GT ISZERO PUSH2 0x12F3 JUMPI PUSH2 0x12F3 PUSH2 0x18C5 JUMP JUMPDEST PUSH1 0x40 MLOAD SWAP1 DUP1 DUP3 MSTORE DUP1 PUSH1 0x20 MUL PUSH1 0x20 ADD DUP3 ADD PUSH1 0x40 MSTORE DUP1 ISZERO PUSH2 0x131C JUMPI DUP2 PUSH1 0x20 ADD PUSH1 0x20 DUP3 MUL DUP1 CALLDATASIZE DUP4 CALLDATACOPY ADD SWAP1 POP JUMPDEST POP SWAP1 POP DUP5 JUMPDEST DUP3 DUP2 LT ISZERO PUSH2 0x1396 JUMPI PUSH1 0x4 DUP2 DUP2 SLOAD DUP2 LT PUSH2 0x133C JUMPI PUSH2 0x133C PUSH2 0x1B51 JUMP JUMPDEST PUSH1 0x0 SWAP2 DUP3 MSTORE PUSH1 0x20 SWAP1 SWAP2 KECCAK256 ADD SLOAD PUSH1 0x1 PUSH1 0x1 PUSH1 0xA0 SHL SUB AND DUP3 PUSH2 0x135C DUP9 DUP5 PUSH2 0x1B3E JUMP JUMPDEST DUP2 MLOAD DUP2 LT PUSH2 0x136C JUMPI PUSH2 0x136C PUSH2 0x1B51 JUMP JUMPDEST PUSH1 0x1 PUSH1 0x1 PUSH1 0xA0 SHL SUB SWAP1 SWAP3 AND PUSH1 0x20 SWAP3 DUP4 MUL SWAP2 SWAP1 SWAP2 ADD SWAP1 SWAP2 ADD MSTORE DUP1 PUSH2 0x138E DUP2 PUSH2 0x1B25 JUMP JUMPDEST SWAP2 POP POP PUSH2 0x1321 JUMP JUMPDEST POP SWAP5 SWAP4 POP POP POP POP JUMP JUMPDEST PUSH2 0x13A7 PUSH2 0x1415 JUMP JUMPDEST PUSH1 0x1 PUSH1 0x1 PUSH1 0xA0 SHL SUB DUP2 AND PUSH2 0x140C JUMPI PUSH1 0x40 MLOAD PUSH3 0x461BCD PUSH1 0xE5 SHL DUP2 MSTORE PUSH1 0x20 PUSH1 0x4 DUP3 ADD MSTORE PUSH1 0x26 PUSH1 0x24 DUP3 ADD MSTORE PUSH32 0x4F776E61626C653A206E6577206F776E657220697320746865207A65726F2061 PUSH1 0x44 DUP3 ADD MSTORE PUSH6 0x646472657373 PUSH1 0xD0 SHL PUSH1 0x64 DUP3 ADD MSTORE PUSH1 0x84 ADD PUSH2 0x853 JUMP JUMPDEST PUSH2 0xF73 DUP2 PUSH2 0x1615 JUMP JUMPDEST PUSH1 0x1 SLOAD PUSH1 0x1 PUSH1 0x1 PUSH1 0xA0 SHL SUB AND CALLER EQ PUSH2 0x864 JUMPI PUSH1 0x40 MLOAD PUSH3 0x461BCD PUSH1 0xE5 SHL DUP2 MSTORE PUSH1 0x20 PUSH1 0x4 DUP3 ADD DUP2 SWAP1 MSTORE PUSH1 0x24 DUP3 ADD MSTORE PUSH32 0x4F776E61626C653A2063616C6C6572206973206E6F7420746865206F776E6572 PUSH1 0x44 DUP3 ADD MSTORE PUSH1 0x64 ADD PUSH2 0x853 JUMP JUMPDEST PUSH1 0x4 SLOAD PUSH3 0xF4240 GT ISZERO PUSH2 0x14B9 JUMPI PUSH1 0x40 MLOAD PUSH3 0x461BCD PUSH1 0xE5 SHL DUP2 MSTORE PUSH1 0x20 PUSH1 0x4 DUP3 ADD MSTORE PUSH1 0x12 PUSH1 0x24 DUP3 ADD MSTORE PUSH18 0x15185C99D95D081B9BDD081C995858DA1959 PUSH1 0x72 SHL PUSH1 0x44 DUP3 ADD MSTORE PUSH1 0x64 ADD PUSH2 0x853 JUMP JUMPDEST PUSH1 0x8 DUP1 SLOAD PUSH2 0xFFFF NOT AND PUSH2 0x100 OR SWAP1 SSTORE PUSH1 0x4 SLOAD PUSH1 0x6 SLOAD PUSH1 0x5 SLOAD PUSH32 0xAF593603E764F8D0AEA850523B7CCDEF382A737FAF774A893739162C34E10B95 SWAP3 SWAP2 PUSH2 0x14FD SWAP2 PUSH2 0x1B12 JUMP JUMPDEST PUSH1 0x40 DUP1 MLOAD SWAP3 DUP4 MSTORE PUSH1 0x20 DUP4 ADD SWAP2 SWAP1 SWAP2 MSTORE TIMESTAMP SWAP1 DUP3 ADD MSTORE PUSH1 0x60 ADD JUMPDEST PUSH1 0x40 MLOAD DUP1 SWAP2 SUB SWAP1 LOG1 JUMP JUMPDEST PUSH2 0x1527 PUSH2 0x181E JUMP JUMPDEST PUSH1 0x1 DUP1 SLOAD PUSH1 0xFF PUSH1 0xA0 SHL NOT AND SWAP1 SSTORE PUSH32 0x5DB9EE0A495BF2E6FF9C91A7834C1BA4FDD244A5E8AA4E537BD38AEAE4B073AA CALLER JUMPDEST PUSH1 0x40 MLOAD PUSH1 0x1 PUSH1 0x1 PUSH1 0xA0 SHL SUB SWAP1 SWAP2 AND DUP2 MSTORE PUSH1 0x20 ADD PUSH2 0x1515 JUMP JUMPDEST PUSH1 0x2 PUSH1 0x0 SLOAD SUB PUSH2 0x15C1 JUMPI PUSH1 0x40 MLOAD PUSH3 0x461BCD PUSH1 0xE5 SHL DUP2 MSTORE PUSH1 0x20 PUSH1 0x4 DUP3 ADD MSTORE PUSH1 0x1F PUSH1 0x24 DUP3 ADD MSTORE PUSH32 0x5265656E7472616E637947756172643A207265656E7472616E742063616C6C00 PUSH1 0x44 DUP3 ADD MSTORE PUSH1 0x64 ADD PUSH2 0x853 JUMP JUMPDEST PUSH1 0x2 PUSH1 0x0 SSTORE JUMP JUMPDEST PUSH1 0x1 SLOAD PUSH1 0x1 PUSH1 0xA0 SHL SWAP1 DIV PUSH1 0xFF AND ISZERO PUSH2 0x864 JUMPI PUSH1 0x40 MLOAD PUSH3 0x461BCD PUSH1 0xE5 SHL DUP2 MSTORE PUSH1 0x20 PUSH1 0x4 DUP3 ADD MSTORE PUSH1 0x10 PUSH1 0x24 DUP3 ADD MSTORE PUSH16 0x14185D5CD8589B194E881C185D5CD959 PUSH1 0x82 SHL PUSH1 0x44 DUP3 ADD MSTORE PUSH1 0x64 ADD PUSH2 0x853 JUMP JUMPDEST PUSH1 0x1 DUP1 SLOAD PUSH1 0x1 PUSH1 0x1 PUSH1 0xA0 SHL SUB DUP4 DUP2 AND PUSH1 0x1 PUSH1 0x1 PUSH1 0xA0 SHL SUB NOT DUP4 AND DUP2 OR SWAP1 SWAP4 SSTORE PUSH1 0x40 MLOAD SWAP2 AND SWAP2 SWAP1 DUP3 SWAP1 PUSH32 0x8BE0079C531659141344CD1FD0A4F28419497F9722A3DAAFE3B4186F6B6457E0 SWAP1 PUSH1 0x0 SWAP1 LOG3 POP POP JUMP JUMPDEST PUSH2 0x166F PUSH2 0x15C8 JUMP JUMPDEST PUSH1 0x1 DUP1 SLOAD PUSH1 0xFF PUSH1 0xA0 SHL NOT AND PUSH1 0x1 PUSH1 0xA0 SHL OR SWAP1 SSTORE PUSH32 0x62E78CEA01BEE320CD4E420270B5EA74000D11B0C9F74754EBDBFC544B05A258 PUSH2 0x1557 CALLER SWAP1 JUMP JUMPDEST PUSH1 0x1 PUSH1 0x1 PUSH1 0xA0 SHL SUB DUP3 AND PUSH2 0x16F4 JUMPI PUSH1 0x40 MLOAD PUSH3 0x461BCD PUSH1 0xE5 SHL DUP2 MSTORE PUSH1 0x20 PUSH1 0x4 DUP3 ADD MSTORE PUSH1 0x11 PUSH1 0x24 DUP3 ADD MSTORE PUSH17 0x125B9D985B1A59081C9958DA5C1A595B9D PUSH1 0x7A SHL PUSH1 0x44 DUP3 ADD MSTORE PUSH1 0x64 ADD PUSH2 0x853 JUMP JUMPDEST PUSH1 0x0 DUP2 GT PUSH2 0x1735 JUMPI PUSH1 0x40 MLOAD PUSH3 0x461BCD PUSH1 0xE5 SHL DUP2 MSTORE PUSH1 0x20 PUSH1 0x4 DUP3 ADD MSTORE PUSH1 0xE PUSH1 0x24 DUP3 ADD MSTORE PUSH14 0x125B9D985B1A5908185B5BDD5B9D PUSH1 0x92 SHL PUSH1 0x44 DUP3 ADD MSTORE PUSH1 0x64 ADD PUSH2 0x853 JUMP JUMPDEST DUP1 SELFBALANCE LT ISZERO PUSH2 0x1785 JUMPI PUSH1 0x40 MLOAD PUSH3 0x461BCD PUSH1 0xE5 SHL DUP2 MSTORE PUSH1 0x20 PUSH1 0x4 DUP3 ADD MSTORE PUSH1 0x1D PUSH1 0x24 DUP3 ADD MSTORE PUSH32 0x496E73756666696369656E7420636F6E74726163742062616C616E6365000000 PUSH1 0x44 DUP3 ADD MSTORE PUSH1 0x64 ADD PUSH2 0x853 JUMP JUMPDEST PUSH1 0x0 DUP3 PUSH1 0x1 PUSH1 0x1 PUSH1 0xA0 SHL SUB AND DUP3 PUSH1 0x40 MLOAD PUSH1 0x0 PUSH1 0x40 MLOAD DUP1 DUP4 SUB DUP2 DUP6 DUP8 GAS CALL SWAP3 POP POP POP RETURNDATASIZE DUP1 PUSH1 0x0 DUP2 EQ PUSH2 0x17D2 JUMPI PUSH1 0x40 MLOAD SWAP2 POP PUSH1 0x1F NOT PUSH1 0x3F RETURNDATASIZE ADD AND DUP3 ADD PUSH1 0x40 MSTORE RETURNDATASIZE DUP3 MSTORE RETURNDATASIZE PUSH1 0x0 PUSH1 0x20 DUP5 ADD RETURNDATACOPY PUSH2 0x17D7 JUMP JUMPDEST PUSH1 0x60 SWAP2 POP JUMPDEST POP POP SWAP1 POP DUP1 PUSH2 0x1261 JUMPI PUSH1 0x40 MLOAD PUSH3 0x461BCD PUSH1 0xE5 SHL DUP2 MSTORE PUSH1 0x20 PUSH1 0x4 DUP3 ADD MSTORE PUSH1 0x13 PUSH1 0x24 DUP3 ADD MSTORE PUSH19 0x109052C81D1C985B9CD9995C8819985A5B1959 PUSH1 0x6A SHL PUSH1 0x44 DUP3 ADD MSTORE PUSH1 0x64 ADD PUSH2 0x853 JUMP JUMPDEST PUSH1 0x1 SLOAD PUSH1 0x1 PUSH1 0xA0 SHL SWAP1 DIV PUSH1 0xFF AND PUSH2 0x864 JUMPI PUSH1 0x40 MLOAD PUSH3 0x461BCD PUSH1 0xE5 SHL DUP2 MSTORE PUSH1 0x20 PUSH1 0x4 DUP3 ADD MSTORE PUSH1 0x14 PUSH1 0x24 DUP3 ADD MSTORE PUSH20 0x14185D5CD8589B194E881B9BDD081C185D5CD959 PUSH1 0x62 SHL PUSH1 0x44 DUP3 ADD MSTORE PUSH1 0x64 ADD PUSH2 0x853 JUMP JUMPDEST DUP1 CALLDATALOAD PUSH1 0x1 PUSH1 0x1 PUSH1 0xA0 SHL SUB DUP2 AND DUP2 EQ PUSH2 0x1885 JUMPI PUSH1 0x0 DUP1 REVERT JUMPDEST SWAP2 SWAP1 POP JUMP JUMPDEST PUSH1 0x0 PUSH1 0x20 DUP3 DUP5 SUB SLT ISZERO PUSH2 0x189C JUMPI PUSH1 0x0 DUP1 REVERT JUMPDEST PUSH2 0x18A5 DUP3 PUSH2 0x186E JUMP JUMPDEST SWAP4 SWAP3 POP POP POP JUMP JUMPDEST PUSH1 0x0 PUSH1 0x20 DUP3 DUP5 SUB SLT ISZERO PUSH2 0x18BE JUMPI PUSH1 0x0 DUP1 REVERT JUMPDEST POP CALLDATALOAD SWAP2 SWAP1 POP JUMP JUMPDEST PUSH4 0x4E487B71 PUSH1 0xE0 SHL PUSH1 0x0 MSTORE PUSH1 0x41 PUSH1 0x4 MSTORE PUSH1 0x24 PUSH1 0x0 REVERT JUMPDEST DUP1 CALLDATALOAD DUP1 ISZERO ISZERO DUP2 EQ PUSH2 0x1885 JUMPI PUSH1 0x0 DUP1 REVERT JUMPDEST PUSH1 0x0 DUP1 PUSH1 0x0 PUSH1 0x60 DUP5 DUP7 SUB SLT ISZERO PUSH2 0x1900 JUMPI PUSH1 0x0 DUP1 REVERT JUMPDEST PUSH2 0x1909 DUP5 PUSH2 0x186E JUMP JUMPDEST SWAP3 POP PUSH1 0x20 DUP5 ADD CALLDATALOAD PUSH8 0xFFFFFFFFFFFFFFFF DUP1 DUP3 GT ISZERO PUSH2 0x1926 JUMPI PUSH1 0x0 DUP1 REVERT JUMPDEST DUP2 DUP7 ADD SWAP2 POP DUP7 PUSH1 0x1F DUP4 ADD SLT PUSH2 0x193A JUMPI PUSH1 0x0 DUP1 REVERT JUMPDEST DUP2 CALLDATALOAD DUP2 DUP2 GT ISZERO PUSH2 0x194C JUMPI PUSH2 0x194C PUSH2 0x18C5 JUMP JUMPDEST PUSH1 0x40 MLOAD PUSH1 0x1F DUP3 ADD PUSH1 0x1F NOT SWAP1 DUP2 AND PUSH1 0x3F ADD AND DUP2 ADD SWAP1 DUP4 DUP3 GT DUP2 DUP4 LT OR ISZERO PUSH2 0x1974 JUMPI PUSH2 0x1974 PUSH2 0x18C5 JUMP JUMPDEST DUP2 PUSH1 0x40 MSTORE DUP3 DUP2 MSTORE DUP10 PUSH1 0x20 DUP5 DUP8 ADD ADD GT ISZERO PUSH2 0x198D JUMPI PUSH1 0x0 DUP1 REVERT JUMPDEST DUP3 PUSH1 0x20 DUP7 ADD PUSH1 0x20 DUP4 ADD CALLDATACOPY PUSH1 0x0 PUSH1 0x20 DUP5 DUP4 ADD ADD MSTORE DUP1 SWAP7 POP POP POP POP POP POP PUSH2 0x19B4 PUSH1 0x40 DUP6 ADD PUSH2 0x18DB JUMP JUMPDEST SWAP1 POP SWAP3 POP SWAP3 POP SWAP3 JUMP JUMPDEST PUSH1 0x0 PUSH2 0x100 DUP3 ADD SWAP1 POP DUP3 MLOAD ISZERO ISZERO DUP3 MSTORE PUSH1 0x20 DUP4 ADD MLOAD ISZERO ISZERO PUSH1 0x20 DUP4 ADD MSTORE PUSH1 0x40 DUP4 ADD MLOAD ISZERO ISZERO PUSH1 0x40 DUP4 ADD MSTORE PUSH1 0x60 DUP4 ADD MLOAD ISZERO ISZERO PUSH1 0x60 DUP4 ADD MSTORE PUSH1 0x80 DUP4 ADD MLOAD PUSH2 0x1A0A PUSH1 0x80 DUP5 ADD DUP3 PUSH1 0x1 PUSH1 0x1 PUSH1 0xA0 SHL SUB AND SWAP1 MSTORE JUMP JUMPDEST POP PUSH1 0xA0 DUP4 ADD MLOAD PUSH1 0xA0 DUP4 ADD MSTORE PUSH1 0xC0 DUP4 ADD MLOAD PUSH1 0xC0 DUP4 ADD MSTORE PUSH1 0xE0 DUP4 ADD MLOAD PUSH1 0xE0 DUP4 ADD MSTORE SWAP3 SWAP2 POP POP JUMP JUMPDEST PUSH1 0x0 DUP1 PUSH1 0x40 DUP4 DUP6 SUB SLT ISZERO PUSH2 0x1A42 JUMPI PUSH1 0x0 DUP1 REVERT JUMPDEST POP POP DUP1 CALLDATALOAD SWAP3 PUSH1 0x20 SWAP1 SWAP2 ADD CALLDATALOAD SWAP2 POP JUMP JUMPDEST PUSH1 0x20 DUP1 DUP3 MSTORE DUP3 MLOAD DUP3 DUP3 ADD DUP2 SWAP1 MSTORE PUSH1 0x0 SWAP2 SWAP1 DUP5 DUP3 ADD SWAP1 PUSH1 0x40 DUP6 ADD SWAP1 DUP5 JUMPDEST DUP2 DUP2 LT ISZERO PUSH2 0x1A92 JUMPI DUP4 MLOAD PUSH1 0x1 PUSH1 0x1 PUSH1 0xA0 SHL SUB AND DUP4 MSTORE SWAP3 DUP5 ADD SWAP3 SWAP2 DUP5 ADD SWAP2 PUSH1 0x1 ADD PUSH2 0x1A6D JUMP JUMPDEST POP SWAP1 SWAP7 SWAP6 POP POP POP POP POP POP JUMP JUMPDEST PUSH1 0x60 DUP2 MSTORE PUSH1 0x0 DUP5 MLOAD DUP1 PUSH1 0x60 DUP5 ADD MSTORE PUSH1 0x0 JUMPDEST DUP2 DUP2 LT ISZERO PUSH2 0x1ACC JUMPI PUSH1 0x20 DUP2 DUP9 ADD DUP2 ADD MLOAD PUSH1 0x80 DUP7 DUP5 ADD ADD MSTORE ADD PUSH2 0x1AAF JUMP JUMPDEST POP PUSH1 0x0 PUSH1 0x80 DUP3 DUP6 ADD ADD MSTORE PUSH1 0x80 PUSH1 0x1F NOT PUSH1 0x1F DUP4 ADD AND DUP5 ADD ADD SWAP2 POP POP DUP4 ISZERO ISZERO PUSH1 0x20 DUP4 ADD MSTORE DUP3 PUSH1 0x40 DUP4 ADD MSTORE SWAP5 SWAP4 POP POP POP POP JUMP JUMPDEST PUSH4 0x4E487B71 PUSH1 0xE0 SHL PUSH1 0x0 MSTORE PUSH1 0x11 PUSH1 0x4 MSTORE PUSH1 0x24 PUSH1 0x0 REVERT JUMPDEST DUP1 DUP3 ADD DUP1 DUP3 GT ISZERO PUSH2 0x1054 JUMPI PUSH2 0x1054 PUSH2 0x1AFC JUMP JUMPDEST PUSH1 0x0 PUSH1 0x1 DUP3 ADD PUSH2 0x1B37 JUMPI PUSH2 0x1B37 PUSH2 0x1AFC JUMP JUMPDEST POP PUSH1 0x1 ADD SWAP1 JUMP JUMPDEST DUP2 DUP2 SUB DUP2 DUP2 GT ISZERO PUSH2 0x1054 JUMPI PUSH2 0x1054 PUSH2 0x1AFC JUMP JUMPDEST PUSH4 0x4E487B71 PUSH1 0xE0 SHL PUSH1 0x0 MSTORE PUSH1 0x32 PUSH1 0x4 MSTORE PUSH1 0x24 PUSH1 0x0 REVERT INVALID LOG2 PUSH5 0x6970667358 0x22 SLT KECCAK256 0xBB 0xA8 PUSH22 0xC2459F6C8CDA1871133F484ED8070E3FDA3EA01347BD 0x29 EXTCODESIZE NOT 0xF7 NOT 0xFB 0xCC PUSH5 0x736F6C6343 STOP ADDMOD EQ STOP CALLER "},"methodIdentifiers":{"COINS_PER_USER()":"14c9fd15","REFERRAL_BONUS()":"e1913c81","REFERRAL_POOL()":"9be70a39","TARGET_PARTICIPANTS()":"10526f64","TOTAL_AIRDROP_SUPPLY()":"fedd970b","addSocialVerifier(address)":"0068ae1d","canClaim(address)":"bf3506c1","claimAirdrop(address)":"65f8c6c5","distributeTokens(uint256,uint256)":"c6e5546c","distributionActive()":"99fb15d2","distributionStartTime()":"8da859b0","distributionTriggered()":"27c9af40","emergencyStop()":"63a599a4","fundingWallet()":"3c4b40b8","getAirdropStats()":"c4d92a75","getParticipants(uint256,uint256)":"ded0ed16","getUserInfo(address)":"6386c1c7","owner()":"8da5cb5b","participants(uint256)":"35c1d349","pause()":"8456cb59","paused()":"5c975abb","removeSocialVerifier(address)":"10bd3799","renounceOwnership()":"715018a6","socialVerifiers(address)":"66289240","totalClaimed()":"d54ad2a1","totalReferralBonuses()":"1ed43cde","transferOwnership(address)":"f2fde38b","triggerDistribution()":"35cd4b46","unpause()":"3f4ba83a","users(address)":"a87430ba","verifySocialTask(address,string,bool)":"415175e5"}}}}}