{"contracts/BrainArkEPOEnhanced.sol":{"BrainArkEPOEnhanced":{"abi":[{"inputs":[{"internalType":"address","name":"_fundingWallet","type":"address"},{"internalType":"address","name":"_ethWallet","type":"address"},{"internalType":"address","name":"_usdtWallet","type":"address"},{"internalType":"address","name":"_usdcWallet","type":"address"},{"internalType":"address","name":"_bnbWallet","type":"address"},{"internalType":"address","name":"_defaultWallet","type":"address"}],"stateMutability":"nonpayable","type":"constructor"},{"anonymous":false,"inputs":[{"indexed":false,"internalType":"uint256","name":"totalSold","type":"uint256"},{"indexed":false,"internalType":"uint256","name":"newPrice","type":"uint256"},{"indexed":false,"internalType":"uint256","name":"timestamp","type":"uint256"}],"name":"BondingCurveUpdate","type":"event"},{"anonymous":false,"inputs":[{"indexed":true,"internalType":"address","name":"buyer","type":"address"},{"indexed":true,"internalType":"string","name":"sourceNetwork","type":"string"},{"indexed":true,"internalType":"string","name":"paymentToken","type":"string"},{"indexed":false,"internalType":"bytes32","name":"txHash","type":"bytes32"},{"indexed":false,"internalType":"uint256","name":"paymentAmountUSD","type":"uint256"},{"indexed":false,"internalType":"uint256","name":"bakAmount","type":"uint256"},{"indexed":false,"internalType":"uint256","name":"effectivePrice","type":"uint256"},{"indexed":false,"internalType":"uint256","name":"timestamp","type":"uint256"}],"name":"CrossChainPurchase","type":"event"},{"anonymous":false,"inputs":[{"indexed":true,"internalType":"address","name":"previousOwner","type":"address"},{"indexed":true,"internalType":"address","name":"newOwner","type":"address"}],"name":"OwnershipTransferred","type":"event"},{"anonymous":false,"inputs":[{"indexed":false,"internalType":"address","name":"account","type":"address"}],"name":"Paused","type":"event"},{"anonymous":false,"inputs":[{"indexed":true,"internalType":"address","name":"token","type":"address"},{"indexed":false,"internalType":"bool","name":"enabled","type":"bool"},{"indexed":false,"internalType":"uint256","name":"priceUSD","type":"uint256"},{"indexed":false,"internalType":"uint256","name":"timestamp","type":"uint256"}],"name":"PaymentTokenUpdated","type":"event"},{"anonymous":false,"inputs":[{"indexed":true,"internalType":"address","name":"buyer","type":"address"},{"indexed":true,"internalType":"address","name":"paymentToken","type":"address"},{"indexed":false,"internalType":"uint256","name":"paymentAmount","type":"uint256"},{"indexed":false,"internalType":"uint256","name":"bakAmount","type":"uint256"},{"indexed":false,"internalType":"uint256","name":"usdValue","type":"uint256"},{"indexed":false,"internalType":"address","name":"treasuryWallet","type":"address"},{"indexed":false,"internalType":"uint256","name":"timestamp","type":"uint256"}],"name":"TokenPurchase","type":"event"},{"anonymous":false,"inputs":[{"indexed":false,"internalType":"address","name":"account","type":"address"}],"name":"Unpaused","type":"event"},{"inputs":[],"name":"BAK_PRICE_USD","outputs":[{"internalType":"uint256","name":"","type":"uint256"}],"stateMutability":"view","type":"function"},{"inputs":[],"name":"CURVE_STEEPNESS","outputs":[{"internalType":"uint256","name":"","type":"uint256"}],"stateMutability":"view","type":"function"},{"inputs":[],"name":"MAX_HOURLY_DISTRIBUTION","outputs":[{"internalType":"uint256","name":"","type":"uint256"}],"stateMutability":"view","type":"function"},{"inputs":[],"name":"PRICE_INCREASE_FACTOR","outputs":[{"internalType":"uint256","name":"","type":"uint256"}],"stateMutability":"view","type":"function"},{"inputs":[],"name":"SIGNATURE_EXPIRY","outputs":[{"internalType":"uint256","name":"","type":"uint256"}],"stateMutability":"view","type":"function"},{"inputs":[],"name":"TOTAL_BAK_SUPPLY","outputs":[{"internalType":"uint256","name":"","type":"uint256"}],"stateMutability":"view","type":"function"},{"inputs":[],"name":"USD_DECIMALS","outputs":[{"internalType":"uint256","name":"","type":"uint256"}],"stateMutability":"view","type":"function"},{"inputs":[{"internalType":"address","name":"oracle","type":"address"}],"name":"addTrustedOracle","outputs":[],"stateMutability":"nonpayable","type":"function"},{"inputs":[{"internalType":"uint256","name":"","type":"uint256"}],"name":"allPurchases","outputs":[{"internalType":"address","name":"buyer","type":"address"},{"internalType":"address","name":"paymentToken","type":"address"},{"internalType":"uint256","name":"paymentAmount","type":"uint256"},{"internalType":"uint256","name":"bakAmount","type":"uint256"},{"internalType":"uint256","name":"usdValue","type":"uint256"},{"internalType":"uint256","name":"timestamp","type":"uint256"}],"stateMutability":"view","type":"function"},{"inputs":[],"name":"bondingCurveEnabled","outputs":[{"internalType":"bool","name":"","type":"bool"}],"stateMutability":"view","type":"function"},{"inputs":[{"internalType":"uint256","name":"usdAmount","type":"uint256"}],"name":"calculateBondingCurve","outputs":[{"internalType":"uint256","name":"bakAmount","type":"uint256"},{"internalType":"uint256","name":"averagePrice","type":"uint256"},{"internalType":"uint256","name":"newPrice","type":"uint256"}],"stateMutability":"view","type":"function"},{"inputs":[{"internalType":"address","name":"paymentToken","type":"address"},{"internalType":"uint256","name":"paymentAmount","type":"uint256"}],"name":"calculatePurchase","outputs":[{"internalType":"uint256","name":"usdValue","type":"uint256"},{"internalType":"uint256","name":"bakAmount","type":"uint256"}],"stateMutability":"view","type":"function"},{"inputs":[{"internalType":"string","name":"","type":"string"},{"internalType":"string","name":"","type":"string"}],"name":"crossChainTreasuries","outputs":[{"internalType":"address","name":"","type":"address"}],"stateMutability":"view","type":"function"},{"inputs":[],"name":"currentBakPrice","outputs":[{"internalType":"uint256","name":"","type":"uint256"}],"stateMutability":"view","type":"function"},{"inputs":[{"internalType":"address","name":"token","type":"address"},{"internalType":"uint256","name":"amount","type":"uint256"},{"internalType":"address","name":"to","type":"address"}],"name":"emergencyWithdraw","outputs":[],"stateMutability":"nonpayable","type":"function"},{"inputs":[{"internalType":"bool","name":"enabled","type":"bool"}],"name":"enableBondingCurve","outputs":[],"stateMutability":"nonpayable","type":"function"},{"inputs":[],"name":"fundingWallet","outputs":[{"internalType":"address","name":"","type":"address"}],"stateMutability":"view","type":"function"},{"inputs":[{"internalType":"string","name":"network","type":"string"},{"internalType":"string","name":"token","type":"string"}],"name":"getCrossChainTreasury","outputs":[{"internalType":"address","name":"","type":"address"}],"stateMutability":"view","type":"function"},{"inputs":[],"name":"getCurrentBakPrice","outputs":[{"internalType":"uint256","name":"","type":"uint256"}],"stateMutability":"view","type":"function"},{"inputs":[],"name":"getEPOStats","outputs":[{"internalType":"uint256","name":"_totalBakSold","type":"uint256"},{"internalType":"uint256","name":"_totalUSDRaised","type":"uint256"},{"internalType":"uint256","name":"_currentPrice","type":"uint256"},{"internalType":"uint256","name":"_remainingSupply","type":"uint256"},{"internalType":"uint256","name":"_totalPurchases","type":"uint256"},{"internalType":"bool","name":"_bondingCurveEnabled","type":"bool"}],"stateMutability":"view","type":"function"},{"inputs":[],"name":"getSupportedTokens","outputs":[{"internalType":"address[]","name":"","type":"address[]"}],"stateMutability":"view","type":"function"},{"inputs":[{"internalType":"address","name":"paymentToken","type":"address"}],"name":"getTreasuryWallet","outputs":[{"internalType":"address","name":"","type":"address"}],"stateMutability":"view","type":"function"},{"inputs":[{"internalType":"address","name":"user","type":"address"}],"name":"getUserPurchaseHistory","outputs":[{"components":[{"internalType":"address","name":"buyer","type":"address"},{"internalType":"address","name":"paymentToken","type":"address"},{"internalType":"uint256","name":"paymentAmount","type":"uint256"},{"internalType":"uint256","name":"bakAmount","type":"uint256"},{"internalType":"uint256","name":"usdValue","type":"uint256"},{"internalType":"uint256","name":"timestamp","type":"uint256"}],"internalType":"struct BrainArkEPOEnhanced.PurchaseInfo[]","name":"","type":"tuple[]"}],"stateMutability":"view","type":"function"},{"inputs":[{"internalType":"uint256","name":"","type":"uint256"}],"name":"hourlyDistributions","outputs":[{"internalType":"uint256","name":"","type":"uint256"}],"stateMutability":"view","type":"function"},{"inputs":[],"name":"owner","outputs":[{"internalType":"address","name":"","type":"address"}],"stateMutability":"view","type":"function"},{"inputs":[],"name":"pause","outputs":[],"stateMutability":"nonpayable","type":"function"},{"inputs":[],"name":"paused","outputs":[{"internalType":"bool","name":"","type":"bool"}],"stateMutability":"view","type":"function"},{"inputs":[{"internalType":"uint256","name":"","type":"uint256"}],"name":"paymentTokenList","outputs":[{"internalType":"address","name":"","type":"address"}],"stateMutability":"view","type":"function"},{"inputs":[{"internalType":"address","name":"","type":"address"}],"name":"paymentTokens","outputs":[{"internalType":"bool","name":"enabled","type":"bool"},{"internalType":"uint8","name":"decimals","type":"uint8"},{"internalType":"uint256","name":"priceUSD","type":"uint256"},{"internalType":"uint256","name":"minPurchaseUSD","type":"uint256"},{"internalType":"uint256","name":"maxPurchaseUSD","type":"uint256"},{"internalType":"string","name":"symbol","type":"string"},{"internalType":"address","name":"treasuryWallet","type":"address"}],"stateMutability":"view","type":"function"},{"inputs":[{"internalType":"address","name":"buyer","type":"address"},{"components":[{"internalType":"bytes32","name":"txHash","type":"bytes32"},{"internalType":"string","name":"sourceNetwork","type":"string"},{"internalType":"string","name":"paymentToken","type":"string"},{"internalType":"uint256","name":"paymentAmountUSD","type":"uint256"},{"internalType":"uint256","name":"blockNumber","type":"uint256"},{"internalType":"uint256","name":"timestamp","type":"uint256"},{"internalType":"bytes","name":"signature","type":"bytes"}],"internalType":"struct BrainArkEPOEnhanced.CrossChainProof","name":"proof","type":"tuple"}],"name":"processCrossChainPurchase","outputs":[],"stateMutability":"nonpayable","type":"function"},{"inputs":[{"internalType":"bytes32","name":"","type":"bytes32"}],"name":"processedPayments","outputs":[{"internalType":"bool","name":"","type":"bool"}],"stateMutability":"view","type":"function"},{"inputs":[{"internalType":"address","name":"paymentToken","type":"address"},{"internalType":"uint256","name":"paymentAmount","type":"uint256"},{"internalType":"uint256","name":"minBakAmount","type":"uint256"}],"name":"purchaseBAK","outputs":[],"stateMutability":"payable","type":"function"},{"inputs":[],"name":"renounceOwnership","outputs":[],"stateMutability":"nonpayable","type":"function"},{"inputs":[],"name":"totalBakSold","outputs":[{"internalType":"uint256","name":"","type":"uint256"}],"stateMutability":"view","type":"function"},{"inputs":[],"name":"totalUSDRaised","outputs":[{"internalType":"uint256","name":"","type":"uint256"}],"stateMutability":"view","type":"function"},{"inputs":[{"internalType":"address","name":"newOwner","type":"address"}],"name":"transferOwnership","outputs":[],"stateMutability":"nonpayable","type":"function"},{"inputs":[{"internalType":"address","name":"","type":"address"}],"name":"trustedOracles","outputs":[{"internalType":"bool","name":"","type":"bool"}],"stateMutability":"view","type":"function"},{"inputs":[],"name":"unpause","outputs":[],"stateMutability":"nonpayable","type":"function"},{"inputs":[{"internalType":"string","name":"network","type":"string"},{"internalType":"string","name":"token","type":"string"},{"internalType":"address","name":"treasury","type":"address"}],"name":"updateCrossChainTreasury","outputs":[],"stateMutability":"nonpayable","type":"function"},{"inputs":[{"internalType":"address","name":"token","type":"address"},{"internalType":"bool","name":"enabled","type":"bool"},{"internalType":"uint8","name":"decimals","type":"uint8"},{"internalType":"uint256","name":"priceUSD","type":"uint256"},{"internalType":"uint256","name":"minPurchaseUSD","type":"uint256"},{"internalType":"uint256","name":"maxPurchaseUSD","type":"uint256"},{"internalType":"string","name":"symbol","type":"string"},{"internalType":"address","name":"treasuryWallet","type":"address"}],"name":"updatePaymentToken","outputs":[],"stateMutability":"nonpayable","type":"function"},{"inputs":[{"internalType":"address","name":"","type":"address"},{"internalType":"uint256","name":"","type":"uint256"}],"name":"userPurchaseHistory","outputs":[{"internalType":"address","name":"buyer","type":"address"},{"internalType":"address","name":"paymentToken","type":"address"},{"internalType":"uint256","name":"paymentAmount","type":"uint256"},{"internalType":"uint256","name":"bakAmount","type":"uint256"},{"internalType":"uint256","name":"usdValue","type":"uint256"},{"internalType":"uint256","name":"timestamp","type":"uint256"}],"stateMutability":"view","type":"function"},{"inputs":[{"internalType":"address","name":"","type":"address"}],"name":"userPurchases","outputs":[{"internalType":"uint256","name":"","type":"uint256"}],"stateMutability":"view","type":"function"},{"inputs":[],"name":"walletConfig","outputs":[{"internalType":"address","name":"ethWallet","type":"address"},{"internalType":"address","name":"usdtWallet","type":"address"},{"internalType":"address","name":"usdcWallet","type":"address"},{"internalType":"address","name":"bnbWallet","type":"address"},{"internalType":"address","name":"defaultWallet","type":"address"}],"stateMutability":"view","type":"function"},{"stateMutability":"payable","type":"receive"}],"evm":{"bytecode":{"linkReferences":{},"object":"60a06040526001805460ff60a81b191690553480156200001e57600080fd5b5060405162003dee38038062003dee8339810160408190526200004191620004ff565b600160005562000051336200028f565b6001805460ff60a01b191690556001600160a01b038616620000ba5760405162461bcd60e51b815260206004820152601660248201527f496e76616c69642066756e64696e672077616c6c65740000000000000000000060448201526064015b60405180910390fd5b6001600160a01b038116620001125760405162461bcd60e51b815260206004820152601660248201527f496e76616c69642064656661756c742077616c6c6574000000000000000000006044820152606401620000b1565b6001600160a01b0380871660805266470de4df8200006012556040805160a08101909152908190871662000147578262000149565b865b6001600160a01b0316815260200160006001600160a01b0316866001600160a01b0316036200017957826200017b565b855b6001600160a01b0316815260200160006001600160a01b0316856001600160a01b031603620001ab5782620001ad565b845b6001600160a01b0316815260200160006001600160a01b0316846001600160a01b031603620001dd5782620001df565b835b6001600160a01b0390811682528381166020928301528251600980549183166001600160a01b031992831617905591830151600a80549183169184169190911790556040830151600b80549183169184169190911790556060830151600c8054918316918416919091179055608090920151600d805491909316911617905562000268620002e1565b5050336000908152600f60205260409020805460ff19166001179055506200058092505050565b600180546001600160a01b038381166001600160a01b0319831681179093556040519116919082907f8be0079c531659141344cd1fd0a4f28419497f9722a3daafe3b4186f6b6457e090600090a35050565b73c9de877a53f85bf51d76faed0c8c8842efb357826011604051620003149067657468657265756d60c01b815260080190565b90815260408051918290036020018220631554d11560e21b8084526004808501929092528251938490036024908101852080546001600160a01b03979097166001600160a01b031997881617905567657468657265756d60c01b85526011600886018190528451958690036028018620635553444360e01b80885287860191909152855196879003830187208054733a9ca3d316f2032d3a21741cbea2e047fd3c1145908a161790556262736360e81b808852600380890184905287519889900360239081018a20878b528a8901528851998a900386018a20805473c13527f3bbaaf4cd726d07a78da9c5b74876527f908d161790559189528801839052865197889003018720818852878601528551968790038301872080547321fccbb9b9b7c620bcba61b6668c30f64c22859c908a16179055663837b63cb3b7b760c91b808852600780890184905287519889900360279081018a20968a528988019690965287519889900385018920805473d413afab39d24462ace36cfe5d710ce9b813c84b908c16179055908852870191909152845195869003909201852091855291840152905191829003019020805473e97bf18735a1ab4a1ba9ddf284d7798a5b0f8a849216919091179055565b80516001600160a01b0381168114620004fa57600080fd5b919050565b60008060008060008060c087890312156200051957600080fd5b6200052487620004e2565b95506200053460208801620004e2565b94506200054460408801620004e2565b93506200055460608801620004e2565b92506200056460808801620004e2565b91506200057460a08801620004e2565b90509295509295509295565b6080516138526200059c600039600061044301526138526000f3fe6080604052600436106102605760003560e01c80637a07e8b611610144578063cbb110dc116100b6578063e0e060781161007a578063e0e060781461083f578063ebb6bfc41461085f578063eed3e0971461088c578063f2fde38b146108ac578063f3f247eb146108cc578063fc4c2d54146108fc57600080fd5b8063cbb110dc14610744578063d34ddc0514610764578063d3c7c2c7146107d7578063d6787124146107f9578063db2966021461080f57600080fd5b8063ac6c93d711610108578063ac6c93d71461062e578063aca06ab214610686578063b5a27544146106a6578063c0416606146106db578063c3b88b42146106f1578063c927e8dc1461072457600080fd5b80637a07e8b6146105bd5780638456cb59146105d057806385cbc881146105e55780638da5cb5b146105fb5780639adad8541461061957600080fd5b80633c4b40b8116101dd578063551512de116101a1578063551512de146104f957806359c97cab146105195780635c975abb14610554578063715018a61461057357806377f14c3014610588578063789701e8146105a757600080fd5b80633c4b40b8146104315780633f4ba83a146104655780634cbe933b1461047a5780634d4ef3c21461049a5780634fb4eff1146104b557600080fd5b8063231941591161022457806323194159146103445780632d0faca1146103645780632f6ee695146103c257806335c38d1e146103d757806339f65c091461040457600080fd5b8063096402cb1461026c5780630b4535e61461029e57806317f85f85146102cf5780631f255276146102f15780631f597b6e1461032957600080fd5b3661026757005b600080fd5b34801561027857600080fd5b5061028b6a52b7d2dcc80cd2e400000081565b6040519081526020015b60405180910390f35b3480156102aa57600080fd5b506001546102bf90600160a81b900460ff1681565b6040519015158152602001610295565b3480156102db57600080fd5b506102ef6102ea366004612ec3565b610912565b005b3480156102fd57600080fd5b5061031161030c366004612fb1565b61098a565b6040516001600160a01b039091168152602001610295565b34801561033557600080fd5b5061028b66470de4df82000081565b34801561035057600080fd5b506102ef61035f36600461300b565b6109da565b34801561037057600080fd5b5061031161037f366004612fb1565b815160208184018101805160118252928201948201949094209190935281518083018401805192815290840192909301919091209152546001600160a01b031681565b3480156103ce57600080fd5b5061028b601281565b3480156103e357600080fd5b506103f76103f2366004612ec3565b610fda565b60405161029591906130fb565b34801561041057600080fd5b5061028b61041f366004612ec3565b60046020526000908152604090205481565b34801561043d57600080fd5b506103117f000000000000000000000000000000000000000000000000000000000000000081565b34801561047157600080fd5b506102ef611093565b34801561048657600080fd5b506102ef61049536600461318d565b6110a5565b3480156104a657600080fd5b5061028b66038d7ea4c6800081565b3480156104c157600080fd5b506104ca6112c2565b6040805196875260208701959095529385019290925260608401526080830152151560a082015260c001610295565b34801561050557600080fd5b506102ef610514366004613234565b611314565b34801561052557600080fd5b50610539610534366004613270565b611419565b60408051938452602084019290925290820152606001610295565b34801561056057600080fd5b50600154600160a01b900460ff166102bf565b34801561057f57600080fd5b506102ef6115f7565b34801561059457600080fd5b5061028b6a0422ca8b0a00a42500000081565b3480156105b357600080fd5b5061028b60075481565b6102ef6105cb366004613289565b611609565b3480156105dc57600080fd5b506102ef611d28565b3480156105f157600080fd5b5061028b60085481565b34801561060757600080fd5b506001546001600160a01b0316610311565b34801561062557600080fd5b5061028b611d38565b34801561063a57600080fd5b5061064e610649366004613270565b611d91565b604080516001600160a01b039788168152969095166020870152938501929092526060840152608083015260a082015260c001610295565b34801561069257600080fd5b506103116106a1366004613270565b611de4565b3480156106b257600080fd5b506106c66106c13660046132bc565b611e0e565b60408051928352602083019190915201610295565b3480156106e757600080fd5b5061028b610e1081565b3480156106fd57600080fd5b5061071161070c366004612ec3565b611ffb565b6040516102959796959493929190613336565b34801561073057600080fd5b506102ef61073f366004613388565b6120cd565b34801561075057600080fd5b5061031161075f366004612ec3565b612114565b34801561077057600080fd5b50600954600a54600b54600c54600d5461079d946001600160a01b03908116948116938116928116911685565b604080516001600160a01b03968716815294861660208601529285169284019290925283166060830152909116608082015260a001610295565b3480156107e357600080fd5b506107ec61226f565b60405161029591906133a5565b34801561080557600080fd5b5061028b60125481565b34801561081b57600080fd5b506102bf61082a366004612ec3565b600f6020526000908152604090205460ff1681565b34801561084b57600080fd5b506102ef61085a3660046133f2565b6122d1565b34801561086b57600080fd5b5061028b61087a366004613270565b60106020526000908152604090205481565b34801561089857600080fd5b5061064e6108a73660046132bc565b6123ca565b3480156108b857600080fd5b506102ef6108c7366004612ec3565b61242a565b3480156108d857600080fd5b506102bf6108e7366004613270565b600e6020526000908152604090205460ff1681565b34801561090857600080fd5b5061028b6103e881565b61091a6124a0565b6001600160a01b0381166109665760405162461bcd60e51b815260206004820152600e60248201526d496e76616c6964206f7261636c6560901b60448201526064015b60405180910390fd5b6001600160a01b03166000908152600f60205260409020805460ff19166001179055565b600060118360405161099c919061345d565b9081526020016040518091039020826040516109b8919061345d565b908152604051908190036020019020546001600160a01b031690505b92915050565b336000908152600f602052604090205460ff16610a305760405162461bcd60e51b81526020600482015260146024820152734e6f7420612074727573746564206f7261636c6560601b604482015260640161095d565b610a386124fa565b610a40612553565b6001600160a01b038216610a865760405162461bcd60e51b815260206004820152600d60248201526c24b73b30b634b210313abcb2b960991b604482015260640161095d565b8051610ac65760405162461bcd60e51b815260206004820152600f60248201526e092dcecc2d8d2c840e8f040d0c2e6d608b1b604482015260640161095d565b80516000908152600e602052604090205460ff1615610b1b5760405162461bcd60e51b8152602060048201526011602482015270105b1c9958591e481c1c9bd8d95cdcd959607a1b604482015260640161095d565b42610e108260a00151610b2e919061348f565b11610b6b5760405162461bcd60e51b815260206004820152600d60248201526c141c9bdbd988195e1c1a5c9959609a1b604482015260640161095d565b610b7881602001516125a0565b610bb65760405162461bcd60e51b815260206004820152600f60248201526e496e76616c6964206e6574776f726b60881b604482015260640161095d565b80516020808301516040808501516060860151608087015160a08801519351600097610be897909695918b91016134a2565b6040516020818303038152906040528051906020012090506000610c478360c00151610c41847f19457468657265756d205369676e6564204d6573736167653a0a3332000000006000908152601c91909152603c902090565b90612685565b6001600160a01b0381166000908152600f602052604090205490915060ff16610ca65760405162461bcd60e51b8152602060048201526011602482015270496e76616c6964207369676e617475726560781b604482015260640161095d565b600154600090600160a81b900460ff1615610cd357610cc88460600151611419565b50909150610d009050565b66470de4df8200008460600151670de0b6b3a7640000610cf3919061350f565b610cfd9190613526565b90505b60008111610d455760405162461bcd60e51b8152602060048201526012602482015271125b9d985b1a5908109052c8185b5bdd5b9d60721b604482015260640161095d565b6a52b7d2dcc80cd2e400000081600754610d5f919061348f565b1115610da45760405162461bcd60e51b81526020600482015260146024820152734578636565647320746f74616c20737570706c7960601b604482015260640161095d565b6000610db2610e1042613526565b6000818152601060205260409020549091506a0422ca8b0a00a42500000090610ddc90849061348f565b1115610e225760405162461bcd60e51b8152602060048201526015602482015274121bdd5c9b1e481b1a5b5a5d08195e18d959591959605a1b604482015260640161095d565b84516000908152600e60205260409020805460ff19166001179055610e4786836126a9565b8160076000828254610e59919061348f565b9091555050606085015160088054600090610e7590849061348f565b90915550506001600160a01b03861660009081526004602052604081208054849290610ea290849061348f565b909155505060008181526010602052604081208054849290610ec590849061348f565b9091555050600154600160a81b900460ff1615610f3757610ee4611d38565b60128190556007546040517fc519af3206e5c325883986d7e86f3cd5415959f018339d023529ed7d6f4ed14192610f2e929142909283526020830191909152604082015260600190565b60405180910390a15b8460400151604051610f49919061345d565b60405180910390208560200151604051610f63919061345d565b6040805191829003822088516060808b01516012549286526020860152848401889052840152426080840152905190916001600160a01b038a16917ff53767326419e47456340542e4d5fe0b426c6de7ecc392267681c29f0171cddf9181900360a00190a450505050610fd66001600055565b5050565b6001600160a01b0381166000908152600560209081526040808320805482518185028101850190935280835260609492939192909184015b828210156110885760008481526020908190206040805160c0810182526006860290920180546001600160a01b0390811684526001808301549091168486015260028201549284019290925260038101546060840152600481015460808401526005015460a08301529083529092019101611012565b505050509050919050565b61109b6124a0565b6110a361281d565b565b6110ad6124a0565b6040518060e0016040528088151581526020018760ff168152602001868152602001858152602001848152602001838152602001826001600160a01b0316815250600260008a6001600160a01b03166001600160a01b0316815260200190815260200160002060008201518160000160006101000a81548160ff02191690831515021790555060208201518160000160016101000a81548160ff021916908360ff16021790555060408201518160010155606082015181600201556080820151816003015560a082015181600401908161118791906135d0565b5060c09190910151600590910180546001600160a01b0319166001600160a01b03909216919091179055861561126b576000805b60035481101561121757896001600160a01b0316600382815481106111e2576111e2613690565b6000918252602090912001546001600160a01b0316036112055760019150611217565b8061120f816136a6565b9150506111bb565b508061126957600380546001810182556000919091527fc2575a0e9e593c00f959f8c92f12db2869c3395a3b0502d05e2516446f71f85b0180546001600160a01b0319166001600160a01b038b161790555b505b60408051881515815260208101879052428183015290516001600160a01b038a16917fdb8ce90d26eb0f2c05e210f29bd0a57d60f404f3f8022cee68265ea6e8ca3835919081900360600190a25050505050505050565b6000806000806000806007546008546112d9611d38565b6007546112f1906a52b7d2dcc80cd2e40000006136bf565b600654600154949b939a5091985096509450600160a81b90910460ff1692509050565b61131c6124a0565b6001600160a01b0381166113665760405162461bcd60e51b8152602060048201526011602482015270125b9d985b1a59081c9958da5c1a595b9d607a1b604482015260640161095d565b6001600160a01b03831661140057478211156113c45760405162461bcd60e51b815260206004820152601860248201527f496e73756666696369656e74204554482062616c616e63650000000000000000604482015260640161095d565b6040516001600160a01b0382169083156108fc029084906000818181858888f193505050501580156113fa573d6000803e3d6000fd5b50505050565b6114146001600160a01b0384168284612872565b505050565b6000806000600160159054906101000a900460ff166114715766470de4df82000061144c85670de0b6b3a764000061350f565b6114569190613526565b925066470de4df820000915066470de4df82000090506115f0565b600061147b611d38565b6007549091508590600090683635c9adc5dea000005b6000841180156114ab57506a52b7d2dcc80cd2e400000082105b156115705760006103e86114c666038d7ea4c680008561350f565b6114d09190613526565b6114e19066470de4df82000061348f565b9050816000670de0b6b3a76400006114f9848461350f565b6115039190613526565b905086811161153557611516828761348f565b955061152281886136bf565b965061152e828661348f565b9450611568565b60008361154a89670de0b6b3a764000061350f565b6115549190613526565b9050611560818861348f565b965060009750505b505050611491565b8297506000831161158157846115a8565b8261158c858b6136bf565b61159e90670de0b6b3a764000061350f565b6115a89190613526565b96506103e866038d7ea4c68000896007546115c3919061348f565b6115cd919061350f565b6115d79190613526565b6115e89066470de4df82000061348f565b955050505050505b9193909250565b6115ff6124a0565b6110a360006128d5565b6116116124fa565b611619612553565b6001600160a01b03831660009081526002602052604090205460ff166116815760405162461bcd60e51b815260206004820152601b60248201527f5061796d656e7420746f6b656e206e6f7420737570706f727465640000000000604482015260640161095d565b600082116116df5760405162461bcd60e51b815260206004820152602560248201527f5061796d656e7420616d6f756e74206d75737420626520677265617465722074604482015264068616e20360dc1b606482015260840161095d565b6001600160a01b0383166000908152600260208181526040808420815160e081018352815460ff8082161515835261010090910416938101939093526001810154918301919091529182015460608201526003820154608082015260048201805491929160a08401919061175290613548565b80601f016020809104026020016040519081016040528092919081815260200182805461177e90613548565b80156117cb5780601f106117a0576101008083540402835291602001916117cb565b820191906000526020600020905b8154815290600101906020018083116117ae57829003601f168201915b5050509183525050600591909101546001600160a01b031660209091015290506000806117f88686611e0e565b9150915082606001518210156118505760405162461bcd60e51b815260206004820152601d60248201527f42656c6f77206d696e696d756d20707572636861736520616d6f756e74000000604482015260640161095d565b82608001518211156118a45760405162461bcd60e51b815260206004820152601d60248201527f41626f7665206d6178696d756d20707572636861736520616d6f756e74000000604482015260640161095d565b838110156118f45760405162461bcd60e51b815260206004820152601b60248201527f536c69707061676520746f6c6572616e63652065786365656465640000000000604482015260640161095d565b6a52b7d2dcc80cd2e40000008160075461190e919061348f565b111561195c5760405162461bcd60e51b815260206004820152601860248201527f4578636565647320617661696c61626c6520737570706c790000000000000000604482015260640161095d565b600061196787612114565b90506001600160a01b0387166119f9578534146119bd5760405162461bcd60e51b8152602060048201526014602482015273125b98dbdc9c9958dd0811551208185b5bdd5b9d60621b604482015260640161095d565b6040516001600160a01b0382169087156108fc029088906000818181858888f193505050501580156119f3573d6000803e3d6000fd5b50611a0e565b611a0e6001600160a01b038816338389612927565b611a1833836126a9565b8160076000828254611a2a919061348f565b925050819055508260086000828254611a43919061348f565b90915550503360009081526004602052604081208054849290611a6790849061348f565b9091555050600154600160a81b900460ff1615611ad957611a86611d38565b60128190556007546040517fc519af3206e5c325883986d7e86f3cd5415959f018339d023529ed7d6f4ed14192611ad0929142909283526020830191909152604082015260600190565b60405180910390a15b60006040518060c00160405280336001600160a01b03168152602001896001600160a01b0316815260200188815260200184815260200185815260200142815250905060056000336001600160a01b03166001600160a01b0316815260200190815260200160002081908060018154018082558091505060019003906000526020600020906006020160009091909190915060008201518160000160006101000a8154816001600160a01b0302191690836001600160a01b0316021790555060208201518160010160006101000a8154816001600160a01b0302191690836001600160a01b0316021790555060408201518160020155606082015181600301556080820151816004015560a082015181600501555050600681908060018154018082558091505060019003906000526020600020906006020160009091909190915060008201518160000160006101000a8154816001600160a01b0302191690836001600160a01b0316021790555060208201518160010160006101000a8154816001600160a01b0302191690836001600160a01b0316021790555060408201518160020155606082015181600301556080820151816004015560a082015181600501555050876001600160a01b0316336001600160a01b03167f355b943140b1c8c99b2758a4d21c8858e602443ed75603e2465689d647abf1548986888742604051611d11959493929190948552602085019390935260408401919091526001600160a01b03166060830152608082015260a00190565b60405180910390a350505050506114146001600055565b611d306124a0565b6110a361295f565b600154600090600160a81b900460ff1615611d85576103e866038d7ea4c68000600754611d65919061350f565b611d6f9190613526565b611d809066470de4df82000061348f565b905090565b5066470de4df82000090565b60068181548110611da157600080fd5b60009182526020909120600690910201805460018201546002830154600384015460048501546005909501546001600160a01b0394851696509390921693909286565b60038181548110611df457600080fd5b6000918252602090912001546001600160a01b0316905081565b6001600160a01b0382166000908152600260208181526040808420815160e081018352815460ff808216151583526101009091041693810193909352600181015491830191909152918201546060820152600382015460808201526004820180548493849392909160a084019190611e8590613548565b80601f0160208091040260200160405190810160405280929190818152602001828054611eb190613548565b8015611efe5780601f10611ed357610100808354040283529160200191611efe565b820191906000526020600020905b815481529060010190602001808311611ee157829003601f168201915b5050509183525050600591909101546001600160a01b039081166020909201919091529091508516611f5457670de0b6b3a7640000816040015185611f43919061350f565b611f4d9190613526565b9250611fa5565b600081602001516012611f6791906136d2565b611f7290600a6137c7565b611f7c908661350f565b9050670de0b6b3a7640000826040015182611f97919061350f565b611fa19190613526565b9350505b600154600160a81b900460ff1615611fcb57611fc083611419565b50909250611ff29050565b66470de4df820000611fe584670de0b6b3a764000061350f565b611fef9190613526565b91505b505b9250929050565b60026020819052600091825260409091208054600182015492820154600383015460048401805460ff808616976101009096041695919061203b90613548565b80601f016020809104026020016040519081016040528092919081815260200182805461206790613548565b80156120b45780601f10612089576101008083540402835291602001916120b4565b820191906000526020600020905b81548152906001019060200180831161209757829003601f168201915b505050600590930154919250506001600160a01b031687565b6120d56124a0565b6001805482158015600160a81b0260ff60a81b1990921691909117909155612105576120ff611d38565b60125550565b66470de4df8200006012555b50565b60006001600160a01b0382166121355750506009546001600160a01b031690565b6001600160a01b0382166000908152600260208181526040808420815160e081018352815460ff8082161515835261010090910416938101939093526001810154918301919091529182015460608201526003820154608082015260048201805491929160a0840191906121a890613548565b80601f01602080910402602001604051908101604052809291908181526020018280546121d490613548565b80156122215780601f106121f657610100808354040283529160200191612221565b820191906000526020600020905b81548152906001019060200180831161220457829003601f168201915b5050509183525050600591909101546001600160a01b0390811660209092019190915260c0820151919250161561225c5760c0015192915050565b5050600d546001600160a01b0316919050565b606060038054806020026020016040519081016040528092919081815260200182805480156122c757602002820191906000526020600020905b81546001600160a01b031681526001909101906020018083116122a9575b5050505050905090565b6122d96124a0565b6122e2836125a0565b6123205760405162461bcd60e51b815260206004820152600f60248201526e496e76616c6964206e6574776f726b60881b604482015260640161095d565b6001600160a01b0381166123695760405162461bcd60e51b815260206004820152601060248201526f496e76616c696420747265617375727960801b604482015260640161095d565b8060118460405161237a919061345d565b908152602001604051809103902083604051612396919061345d565b90815260405190819003602001902080546001600160a01b03929092166001600160a01b0319909216919091179055505050565b600560205281600052604060002081815481106123e657600080fd5b60009182526020909120600690910201805460018201546002830154600384015460048501546005909501546001600160a01b039485169750929093169450929086565b6124326124a0565b6001600160a01b0381166124975760405162461bcd60e51b815260206004820152602660248201527f4f776e61626c653a206e6577206f776e657220697320746865207a65726f206160448201526564647265737360d01b606482015260840161095d565b612111816128d5565b6001546001600160a01b031633146110a35760405162461bcd60e51b815260206004820181905260248201527f4f776e61626c653a2063616c6c6572206973206e6f7420746865206f776e6572604482015260640161095d565b60026000540361254c5760405162461bcd60e51b815260206004820152601f60248201527f5265656e7472616e637947756172643a207265656e7472616e742063616c6c00604482015260640161095d565b6002600055565b600154600160a01b900460ff16156110a35760405162461bcd60e51b815260206004820152601060248201526f14185d5cd8589b194e881c185d5cd95960821b604482015260640161095d565b604080518082019091526008815267657468657265756d60c01b6020918201528151908201206000907f541111248b45b7a8dc3f5579f630e74cb01456ea6ac067d3f4d793245a2551551480612635575060408051808201909152600381526262736360e81b6020918201528251908301207f83d57b2915dae13afb3bdeac7357363ed5e6545fb90a89f09722f0f95f9efa91145b806109d45750506040805180820190915260078152663837b63cb3b7b760c91b60209182015281519101207fac63fa1fe369e75c38d62f0f4d465b48b3cd5159f0fb416332899402031d14081490565b600080600061269485856129a2565b915091506126a1816129e4565b509392505050565b6001600160a01b0382166126f35760405162461bcd60e51b8152602060048201526011602482015270125b9d985b1a59081c9958da5c1a595b9d607a1b604482015260640161095d565b600081116127345760405162461bcd60e51b815260206004820152600e60248201526d125b9d985b1a5908185b5bdd5b9d60921b604482015260640161095d565b804710156127845760405162461bcd60e51b815260206004820152601860248201527f496e73756666696369656e742042414b2062616c616e63650000000000000000604482015260640161095d565b6000826001600160a01b03168260405160006040518083038185875af1925050503d80600081146127d1576040519150601f19603f3d011682016040523d82523d6000602084013e6127d6565b606091505b50509050806114145760405162461bcd60e51b8152602060048201526013602482015272109052c81d1c985b9cd9995c8819985a5b1959606a1b604482015260640161095d565b612825612b2e565b6001805460ff60a01b191690557f5db9ee0a495bf2e6ff9c91a7834c1ba4fdd244a5e8aa4e537bd38aeae4b073aa335b6040516001600160a01b03909116815260200160405180910390a1565b6040516001600160a01b03831660248201526044810182905261141490849063a9059cbb60e01b906064015b60408051601f198184030181529190526020810180516001600160e01b03166001600160e01b031990931692909217909152612b7e565b600180546001600160a01b038381166001600160a01b0319831681179093556040519116919082907f8be0079c531659141344cd1fd0a4f28419497f9722a3daafe3b4186f6b6457e090600090a35050565b6040516001600160a01b03808516602483015283166044820152606481018290526113fa9085906323b872dd60e01b9060840161289e565b612967612553565b6001805460ff60a01b1916600160a01b1790557f62e78cea01bee320cd4e420270b5ea74000d11b0c9f74754ebdbfc544b05a2586128553390565b60008082516041036129d85760208301516040840151606085015160001a6129cc87828585612c53565b94509450505050611ff4565b50600090506002611ff4565b60008160048111156129f8576129f86137d6565b03612a005750565b6001816004811115612a1457612a146137d6565b03612a615760405162461bcd60e51b815260206004820152601860248201527f45434453413a20696e76616c6964207369676e61747572650000000000000000604482015260640161095d565b6002816004811115612a7557612a756137d6565b03612ac25760405162461bcd60e51b815260206004820152601f60248201527f45434453413a20696e76616c6964207369676e6174757265206c656e67746800604482015260640161095d565b6003816004811115612ad657612ad66137d6565b036121115760405162461bcd60e51b815260206004820152602260248201527f45434453413a20696e76616c6964207369676e6174757265202773272076616c604482015261756560f01b606482015260840161095d565b600154600160a01b900460ff166110a35760405162461bcd60e51b815260206004820152601460248201527314185d5cd8589b194e881b9bdd081c185d5cd95960621b604482015260640161095d565b6000612bd3826040518060400160405280602081526020017f5361666545524332303a206c6f772d6c6576656c2063616c6c206661696c6564815250856001600160a01b0316612d179092919063ffffffff16565b9050805160001480612bf4575080806020019051810190612bf491906137ec565b6114145760405162461bcd60e51b815260206004820152602a60248201527f5361666545524332303a204552433230206f7065726174696f6e20646964206e6044820152691bdd081cdd58d8d9595960b21b606482015260840161095d565b6000807f7fffffffffffffffffffffffffffffff5d576e7357a4501ddfe92f46681b20a0831115612c8a5750600090506003612d0e565b6040805160008082526020820180845289905260ff881692820192909252606081018690526080810185905260019060a0016020604051602081039080840390855afa158015612cde573d6000803e3d6000fd5b5050604051601f1901519150506001600160a01b038116612d0757600060019250925050612d0e565b9150600090505b94509492505050565b6060612d268484600085612d2e565b949350505050565b606082471015612d8f5760405162461bcd60e51b815260206004820152602660248201527f416464726573733a20696e73756666696369656e742062616c616e636520666f6044820152651c8818d85b1b60d21b606482015260840161095d565b600080866001600160a01b03168587604051612dab919061345d565b60006040518083038185875af1925050503d8060008114612de8576040519150601f19603f3d011682016040523d82523d6000602084013e612ded565b606091505b5091509150612dfe87838387612e09565b979650505050505050565b60608315612e78578251600003612e71576001600160a01b0385163b612e715760405162461bcd60e51b815260206004820152601d60248201527f416464726573733a2063616c6c20746f206e6f6e2d636f6e7472616374000000604482015260640161095d565b5081612d26565b612d268383815115612e8d5781518083602001fd5b8060405162461bcd60e51b815260040161095d9190613809565b80356001600160a01b0381168114612ebe57600080fd5b919050565b600060208284031215612ed557600080fd5b612ede82612ea7565b9392505050565b634e487b7160e01b600052604160045260246000fd5b60405160e0810167ffffffffffffffff81118282101715612f1e57612f1e612ee5565b60405290565b600082601f830112612f3557600080fd5b813567ffffffffffffffff80821115612f5057612f50612ee5565b604051601f8301601f19908116603f01168101908282118183101715612f7857612f78612ee5565b81604052838152866020858801011115612f9157600080fd5b836020870160208301376000602085830101528094505050505092915050565b60008060408385031215612fc457600080fd5b823567ffffffffffffffff80821115612fdc57600080fd5b612fe886838701612f24565b93506020850135915080821115612ffe57600080fd5b50611fef85828601612f24565b6000806040838503121561301e57600080fd5b61302783612ea7565b9150602083013567ffffffffffffffff8082111561304457600080fd5b9084019060e0828703121561305857600080fd5b613060612efb565b8235815260208301358281111561307657600080fd5b61308288828601612f24565b60208301525060408301358281111561309a57600080fd5b6130a688828601612f24565b604083015250606083013560608201526080830135608082015260a083013560a082015260c0830135828111156130dc57600080fd5b6130e888828601612f24565b60c0830152508093505050509250929050565b602080825282518282018190526000919060409081850190868401855b8281101561317257815180516001600160a01b0390811686528782015116878601528581015186860152606080820151908601526080808201519086015260a0908101519085015260c09093019290850190600101613118565b5091979650505050505050565b801515811461211157600080fd5b600080600080600080600080610100898b0312156131aa57600080fd5b6131b389612ea7565b975060208901356131c38161317f565b9650604089013560ff811681146131d957600080fd5b9550606089013594506080890135935060a0890135925060c089013567ffffffffffffffff81111561320a57600080fd5b6132168b828c01612f24565b92505061322560e08a01612ea7565b90509295985092959890939650565b60008060006060848603121561324957600080fd5b61325284612ea7565b92506020840135915061326760408501612ea7565b90509250925092565b60006020828403121561328257600080fd5b5035919050565b60008060006060848603121561329e57600080fd5b6132a784612ea7565b95602085013595506040909401359392505050565b600080604083850312156132cf57600080fd5b6132d883612ea7565b946020939093013593505050565b60005b838110156133015781810151838201526020016132e9565b50506000910152565b600081518084526133228160208601602086016132e6565b601f01601f19169290920160200192915050565b871515815260ff8716602082015285604082015284606082015283608082015260e060a0820152600061336c60e083018561330a565b905060018060a01b03831660c083015298975050505050505050565b60006020828403121561339a57600080fd5b8135612ede8161317f565b6020808252825182820181905260009190848201906040850190845b818110156133e65783516001600160a01b0316835292840192918401916001016133c1565b50909695505050505050565b60008060006060848603121561340757600080fd5b833567ffffffffffffffff8082111561341f57600080fd5b61342b87838801612f24565b9450602086013591508082111561344157600080fd5b5061344e86828701612f24565b92505061326760408501612ea7565b6000825161346f8184602087016132e6565b9190910192915050565b634e487b7160e01b600052601160045260246000fd5b808201808211156109d4576109d4613479565b878152600087516134ba816020850160208c016132e6565b808301905087516134d2816020840160208c016132e6565b6020910190810196909652505060408401929092526060808401919091521b6bffffffffffffffffffffffff191660808201526094019392505050565b80820281158282048414176109d4576109d4613479565b60008261354357634e487b7160e01b600052601260045260246000fd5b500490565b600181811c9082168061355c57607f821691505b60208210810361357c57634e487b7160e01b600052602260045260246000fd5b50919050565b601f82111561141457600081815260208120601f850160051c810160208610156135a95750805b601f850160051c820191505b818110156135c8578281556001016135b5565b505050505050565b815167ffffffffffffffff8111156135ea576135ea612ee5565b6135fe816135f88454613548565b84613582565b602080601f831160018114613633576000841561361b5750858301515b600019600386901b1c1916600185901b1785556135c8565b600085815260208120601f198616915b8281101561366257888601518255948401946001909101908401613643565b50858210156136805787850151600019600388901b60f8161c191681555b5050505050600190811b01905550565b634e487b7160e01b600052603260045260246000fd5b6000600182016136b8576136b8613479565b5060010190565b818103818111156109d4576109d4613479565b60ff82811682821603908111156109d4576109d4613479565b600181815b80851115611ff257816000190482111561370c5761370c613479565b8085161561371957918102915b93841c93908002906136f0565b600082613735575060016109d4565b81613742575060006109d4565b816001811461375857600281146137625761377e565b60019150506109d4565b60ff84111561377357613773613479565b50506001821b6109d4565b5060208310610133831016604e8410600b84101617156137a1575081810a6109d4565b6137ab83836136eb565b80600019048211156137bf576137bf613479565b029392505050565b6000612ede60ff841683613726565b634e487b7160e01b600052602160045260246000fd5b6000602082840312156137fe57600080fd5b8151612ede8161317f565b602081526000612ede602083018461330a56fea264697066735822122082d22a8bfe497801d0c8f75dc4bce4365f4d7ef66dcc5cbfa4d818bb77b23c4064736f6c63430008140033","opcodes":"PUSH1 0xA0 PUSH1 0x40 MSTORE PUSH1 0x1 DUP1 SLOAD PUSH1 0xFF PUSH1 0xA8 SHL NOT AND SWAP1 SSTORE CALLVALUE DUP1 ISZERO PUSH3 0x1E JUMPI PUSH1 0x0 DUP1 REVERT JUMPDEST POP PUSH1 0x40 MLOAD PUSH3 0x3DEE CODESIZE SUB DUP1 PUSH3 0x3DEE DUP4 CODECOPY DUP2 ADD PUSH1 0x40 DUP2 SWAP1 MSTORE PUSH3 0x41 SWAP2 PUSH3 0x4FF JUMP JUMPDEST PUSH1 0x1 PUSH1 0x0 SSTORE PUSH3 0x51 CALLER PUSH3 0x28F JUMP JUMPDEST PUSH1 0x1 DUP1 SLOAD PUSH1 0xFF PUSH1 0xA0 SHL NOT AND SWAP1 SSTORE PUSH1 0x1 PUSH1 0x1 PUSH1 0xA0 SHL SUB DUP7 AND PUSH3 0xBA JUMPI PUSH1 0x40 MLOAD PUSH3 0x461BCD PUSH1 0xE5 SHL DUP2 MSTORE PUSH1 0x20 PUSH1 0x4 DUP3 ADD MSTORE PUSH1 0x16 PUSH1 0x24 DUP3 ADD MSTORE PUSH32 0x496E76616C69642066756E64696E672077616C6C657400000000000000000000 PUSH1 0x44 DUP3 ADD MSTORE PUSH1 0x64 ADD JUMPDEST PUSH1 0x40 MLOAD DUP1 SWAP2 SUB SWAP1 REVERT JUMPDEST PUSH1 0x1 PUSH1 0x1 PUSH1 0xA0 SHL SUB DUP2 AND PUSH3 0x112 JUMPI PUSH1 0x40 MLOAD PUSH3 0x461BCD PUSH1 0xE5 SHL DUP2 MSTORE PUSH1 0x20 PUSH1 0x4 DUP3 ADD MSTORE PUSH1 0x16 PUSH1 0x24 DUP3 ADD MSTORE PUSH32 0x496E76616C69642064656661756C742077616C6C657400000000000000000000 PUSH1 0x44 DUP3 ADD MSTORE PUSH1 0x64 ADD PUSH3 0xB1 JUMP JUMPDEST PUSH1 0x1 PUSH1 0x1 PUSH1 0xA0 SHL SUB DUP1 DUP8 AND PUSH1 0x80 MSTORE PUSH7 0x470DE4DF820000 PUSH1 0x12 SSTORE PUSH1 0x40 DUP1 MLOAD PUSH1 0xA0 DUP2 ADD SWAP1 SWAP2 MSTORE SWAP1 DUP2 SWAP1 DUP8 AND PUSH3 0x147 JUMPI DUP3 PUSH3 0x149 JUMP JUMPDEST DUP7 JUMPDEST PUSH1 0x1 PUSH1 0x1 PUSH1 0xA0 SHL SUB AND DUP2 MSTORE PUSH1 0x20 ADD PUSH1 0x0 PUSH1 0x1 PUSH1 0x1 PUSH1 0xA0 SHL SUB AND DUP7 PUSH1 0x1 PUSH1 0x1 PUSH1 0xA0 SHL SUB AND SUB PUSH3 0x179 JUMPI DUP3 PUSH3 0x17B JUMP JUMPDEST DUP6 JUMPDEST PUSH1 0x1 PUSH1 0x1 PUSH1 0xA0 SHL SUB AND DUP2 MSTORE PUSH1 0x20 ADD PUSH1 0x0 PUSH1 0x1 PUSH1 0x1 PUSH1 0xA0 SHL SUB AND DUP6 PUSH1 0x1 PUSH1 0x1 PUSH1 0xA0 SHL SUB AND SUB PUSH3 0x1AB JUMPI DUP3 PUSH3 0x1AD JUMP JUMPDEST DUP5 JUMPDEST PUSH1 0x1 PUSH1 0x1 PUSH1 0xA0 SHL SUB AND DUP2 MSTORE PUSH1 0x20 ADD PUSH1 0x0 PUSH1 0x1 PUSH1 0x1 PUSH1 0xA0 SHL SUB AND DUP5 PUSH1 0x1 PUSH1 0x1 PUSH1 0xA0 SHL SUB AND SUB PUSH3 0x1DD JUMPI DUP3 PUSH3 0x1DF JUMP JUMPDEST DUP4 JUMPDEST PUSH1 0x1 PUSH1 0x1 PUSH1 0xA0 SHL SUB SWAP1 DUP2 AND DUP3 MSTORE DUP4 DUP2 AND PUSH1 0x20 SWAP3 DUP4 ADD MSTORE DUP3 MLOAD PUSH1 0x9 DUP1 SLOAD SWAP2 DUP4 AND PUSH1 0x1 PUSH1 0x1 PUSH1 0xA0 SHL SUB NOT SWAP3 DUP4 AND OR SWAP1 SSTORE SWAP2 DUP4 ADD MLOAD PUSH1 0xA DUP1 SLOAD SWAP2 DUP4 AND SWAP2 DUP5 AND SWAP2 SWAP1 SWAP2 OR SWAP1 SSTORE PUSH1 0x40 DUP4 ADD MLOAD PUSH1 0xB DUP1 SLOAD SWAP2 DUP4 AND SWAP2 DUP5 AND SWAP2 SWAP1 SWAP2 OR SWAP1 SSTORE PUSH1 0x60 DUP4 ADD MLOAD PUSH1 0xC DUP1 SLOAD SWAP2 DUP4 AND SWAP2 DUP5 AND SWAP2 SWAP1 SWAP2 OR SWAP1 SSTORE PUSH1 0x80 SWAP1 SWAP3 ADD MLOAD PUSH1 0xD DUP1 SLOAD SWAP2 SWAP1 SWAP4 AND SWAP2 AND OR SWAP1 SSTORE PUSH3 0x268 PUSH3 0x2E1 JUMP JUMPDEST POP POP CALLER PUSH1 0x0 SWAP1 DUP2 MSTORE PUSH1 0xF PUSH1 0x20 MSTORE PUSH1 0x40 SWAP1 KECCAK256 DUP1 SLOAD PUSH1 0xFF NOT AND PUSH1 0x1 OR SWAP1 SSTORE POP PUSH3 0x580 SWAP3 POP POP POP JUMP JUMPDEST PUSH1 0x1 DUP1 SLOAD PUSH1 0x1 PUSH1 0x1 PUSH1 0xA0 SHL SUB DUP4 DUP2 AND PUSH1 0x1 PUSH1 0x1 PUSH1 0xA0 SHL SUB NOT DUP4 AND DUP2 OR SWAP1 SWAP4 SSTORE PUSH1 0x40 MLOAD SWAP2 AND SWAP2 SWAP1 DUP3 SWAP1 PUSH32 0x8BE0079C531659141344CD1FD0A4F28419497F9722A3DAAFE3B4186F6B6457E0 SWAP1 PUSH1 0x0 SWAP1 LOG3 POP POP JUMP JUMPDEST PUSH20 0xC9DE877A53F85BF51D76FAED0C8C8842EFB35782 PUSH1 0x11 PUSH1 0x40 MLOAD PUSH3 0x314 SWAP1 PUSH8 0x657468657265756D PUSH1 0xC0 SHL DUP2 MSTORE PUSH1 0x8 ADD SWAP1 JUMP JUMPDEST SWAP1 DUP2 MSTORE PUSH1 0x40 DUP1 MLOAD SWAP2 DUP3 SWAP1 SUB PUSH1 0x20 ADD DUP3 KECCAK256 PUSH4 0x1554D115 PUSH1 0xE2 SHL DUP1 DUP5 MSTORE PUSH1 0x4 DUP1 DUP6 ADD SWAP3 SWAP1 SWAP3 MSTORE DUP3 MLOAD SWAP4 DUP5 SWAP1 SUB PUSH1 0x24 SWAP1 DUP2 ADD DUP6 KECCAK256 DUP1 SLOAD PUSH1 0x1 PUSH1 0x1 PUSH1 0xA0 SHL SUB SWAP8 SWAP1 SWAP8 AND PUSH1 0x1 PUSH1 0x1 PUSH1 0xA0 SHL SUB NOT SWAP8 DUP9 AND OR SWAP1 SSTORE PUSH8 0x657468657265756D PUSH1 0xC0 SHL DUP6 MSTORE PUSH1 0x11 PUSH1 0x8 DUP7 ADD DUP2 SWAP1 MSTORE DUP5 MLOAD SWAP6 DUP7 SWAP1 SUB PUSH1 0x28 ADD DUP7 KECCAK256 PUSH4 0x55534443 PUSH1 0xE0 SHL DUP1 DUP9 MSTORE DUP8 DUP7 ADD SWAP2 SWAP1 SWAP2 MSTORE DUP6 MLOAD SWAP7 DUP8 SWAP1 SUB DUP4 ADD DUP8 KECCAK256 DUP1 SLOAD PUSH20 0x3A9CA3D316F2032D3A21741CBEA2E047FD3C1145 SWAP1 DUP11 AND OR SWAP1 SSTORE PUSH3 0x627363 PUSH1 0xE8 SHL DUP1 DUP9 MSTORE PUSH1 0x3 DUP1 DUP10 ADD DUP5 SWAP1 MSTORE DUP8 MLOAD SWAP9 DUP10 SWAP1 SUB PUSH1 0x23 SWAP1 DUP2 ADD DUP11 KECCAK256 DUP8 DUP12 MSTORE DUP11 DUP10 ADD MSTORE DUP9 MLOAD SWAP10 DUP11 SWAP1 SUB DUP7 ADD DUP11 KECCAK256 DUP1 SLOAD PUSH20 0xC13527F3BBAAF4CD726D07A78DA9C5B74876527F SWAP1 DUP14 AND OR SWAP1 SSTORE SWAP2 DUP10 MSTORE DUP9 ADD DUP4 SWAP1 MSTORE DUP7 MLOAD SWAP8 DUP9 SWAP1 SUB ADD DUP8 KECCAK256 DUP2 DUP9 MSTORE DUP8 DUP7 ADD MSTORE DUP6 MLOAD SWAP7 DUP8 SWAP1 SUB DUP4 ADD DUP8 KECCAK256 DUP1 SLOAD PUSH20 0x21FCCBB9B9B7C620BCBA61B6668C30F64C22859C SWAP1 DUP11 AND OR SWAP1 SSTORE PUSH7 0x3837B63CB3B7B7 PUSH1 0xC9 SHL DUP1 DUP9 MSTORE PUSH1 0x7 DUP1 DUP10 ADD DUP5 SWAP1 MSTORE DUP8 MLOAD SWAP9 DUP10 SWAP1 SUB PUSH1 0x27 SWAP1 DUP2 ADD DUP11 KECCAK256 SWAP7 DUP11 MSTORE DUP10 DUP9 ADD SWAP7 SWAP1 SWAP7 MSTORE DUP8 MLOAD SWAP9 DUP10 SWAP1 SUB DUP6 ADD DUP10 KECCAK256 DUP1 SLOAD PUSH20 0xD413AFAB39D24462ACE36CFE5D710CE9B813C84B SWAP1 DUP13 AND OR SWAP1 SSTORE SWAP1 DUP9 MSTORE DUP8 ADD SWAP2 SWAP1 SWAP2 MSTORE DUP5 MLOAD SWAP6 DUP7 SWAP1 SUB SWAP1 SWAP3 ADD DUP6 KECCAK256 SWAP2 DUP6 MSTORE SWAP2 DUP5 ADD MSTORE SWAP1 MLOAD SWAP2 DUP3 SWAP1 SUB ADD SWAP1 KECCAK256 DUP1 SLOAD PUSH20 0xE97BF18735A1AB4A1BA9DDF284D7798A5B0F8A84 SWAP3 AND SWAP2 SWAP1 SWAP2 OR SWAP1 SSTORE JUMP JUMPDEST DUP1 MLOAD PUSH1 0x1 PUSH1 0x1 PUSH1 0xA0 SHL SUB DUP2 AND DUP2 EQ PUSH3 0x4FA JUMPI PUSH1 0x0 DUP1 REVERT JUMPDEST SWAP2 SWAP1 POP JUMP JUMPDEST PUSH1 0x0 DUP1 PUSH1 0x0 DUP1 PUSH1 0x0 DUP1 PUSH1 0xC0 DUP8 DUP10 SUB SLT ISZERO PUSH3 0x519 JUMPI PUSH1 0x0 DUP1 REVERT JUMPDEST PUSH3 0x524 DUP8 PUSH3 0x4E2 JUMP JUMPDEST SWAP6 POP PUSH3 0x534 PUSH1 0x20 DUP9 ADD PUSH3 0x4E2 JUMP JUMPDEST SWAP5 POP PUSH3 0x544 PUSH1 0x40 DUP9 ADD PUSH3 0x4E2 JUMP JUMPDEST SWAP4 POP PUSH3 0x554 PUSH1 0x60 DUP9 ADD PUSH3 0x4E2 JUMP JUMPDEST SWAP3 POP PUSH3 0x564 PUSH1 0x80 DUP9 ADD PUSH3 0x4E2 JUMP JUMPDEST SWAP2 POP PUSH3 0x574 PUSH1 0xA0 DUP9 ADD PUSH3 0x4E2 JUMP JUMPDEST SWAP1 POP SWAP3 SWAP6 POP SWAP3 SWAP6 POP SWAP3 SWAP6 JUMP JUMPDEST PUSH1 0x80 MLOAD PUSH2 0x3852 PUSH3 0x59C PUSH1 0x0 CODECOPY PUSH1 0x0 PUSH2 0x443 ADD MSTORE PUSH2 0x3852 PUSH1 0x0 RETURN INVALID PUSH1 0x80 PUSH1 0x40 MSTORE PUSH1 0x4 CALLDATASIZE LT PUSH2 0x260 JUMPI PUSH1 0x0 CALLDATALOAD PUSH1 0xE0 SHR DUP1 PUSH4 0x7A07E8B6 GT PUSH2 0x144 JUMPI DUP1 PUSH4 0xCBB110DC GT PUSH2 0xB6 JUMPI DUP1 PUSH4 0xE0E06078 GT PUSH2 0x7A JUMPI DUP1 PUSH4 0xE0E06078 EQ PUSH2 0x83F JUMPI DUP1 PUSH4 0xEBB6BFC4 EQ PUSH2 0x85F JUMPI DUP1 PUSH4 0xEED3E097 EQ PUSH2 0x88C JUMPI DUP1 PUSH4 0xF2FDE38B EQ PUSH2 0x8AC JUMPI DUP1 PUSH4 0xF3F247EB EQ PUSH2 0x8CC JUMPI DUP1 PUSH4 0xFC4C2D54 EQ PUSH2 0x8FC JUMPI PUSH1 0x0 DUP1 REVERT JUMPDEST DUP1 PUSH4 0xCBB110DC EQ PUSH2 0x744 JUMPI DUP1 PUSH4 0xD34DDC05 EQ PUSH2 0x764 JUMPI DUP1 PUSH4 0xD3C7C2C7 EQ PUSH2 0x7D7 JUMPI DUP1 PUSH4 0xD6787124 EQ PUSH2 0x7F9 JUMPI DUP1 PUSH4 0xDB296602 EQ PUSH2 0x80F JUMPI PUSH1 0x0 DUP1 REVERT JUMPDEST DUP1 PUSH4 0xAC6C93D7 GT PUSH2 0x108 JUMPI DUP1 PUSH4 0xAC6C93D7 EQ PUSH2 0x62E JUMPI DUP1 PUSH4 0xACA06AB2 EQ PUSH2 0x686 JUMPI DUP1 PUSH4 0xB5A27544 EQ PUSH2 0x6A6 JUMPI DUP1 PUSH4 0xC0416606 EQ PUSH2 0x6DB JUMPI DUP1 PUSH4 0xC3B88B42 EQ PUSH2 0x6F1 JUMPI DUP1 PUSH4 0xC927E8DC EQ PUSH2 0x724 JUMPI PUSH1 0x0 DUP1 REVERT JUMPDEST DUP1 PUSH4 0x7A07E8B6 EQ PUSH2 0x5BD JUMPI DUP1 PUSH4 0x8456CB59 EQ PUSH2 0x5D0 JUMPI DUP1 PUSH4 0x85CBC881 EQ PUSH2 0x5E5 JUMPI DUP1 PUSH4 0x8DA5CB5B EQ PUSH2 0x5FB JUMPI DUP1 PUSH4 0x9ADAD854 EQ PUSH2 0x619 JUMPI PUSH1 0x0 DUP1 REVERT JUMPDEST DUP1 PUSH4 0x3C4B40B8 GT PUSH2 0x1DD JUMPI DUP1 PUSH4 0x551512DE GT PUSH2 0x1A1 JUMPI DUP1 PUSH4 0x551512DE EQ PUSH2 0x4F9 JUMPI DUP1 PUSH4 0x59C97CAB EQ PUSH2 0x519 JUMPI DUP1 PUSH4 0x5C975ABB EQ PUSH2 0x554 JUMPI DUP1 PUSH4 0x715018A6 EQ PUSH2 0x573 JUMPI DUP1 PUSH4 0x77F14C30 EQ PUSH2 0x588 JUMPI DUP1 PUSH4 0x789701E8 EQ PUSH2 0x5A7 JUMPI PUSH1 0x0 DUP1 REVERT JUMPDEST DUP1 PUSH4 0x3C4B40B8 EQ PUSH2 0x431 JUMPI DUP1 PUSH4 0x3F4BA83A EQ PUSH2 0x465 JUMPI DUP1 PUSH4 0x4CBE933B EQ PUSH2 0x47A JUMPI DUP1 PUSH4 0x4D4EF3C2 EQ PUSH2 0x49A JUMPI DUP1 PUSH4 0x4FB4EFF1 EQ PUSH2 0x4B5 JUMPI PUSH1 0x0 DUP1 REVERT JUMPDEST DUP1 PUSH4 0x23194159 GT PUSH2 0x224 JUMPI DUP1 PUSH4 0x23194159 EQ PUSH2 0x344 JUMPI DUP1 PUSH4 0x2D0FACA1 EQ PUSH2 0x364 JUMPI DUP1 PUSH4 0x2F6EE695 EQ PUSH2 0x3C2 JUMPI DUP1 PUSH4 0x35C38D1E EQ PUSH2 0x3D7 JUMPI DUP1 PUSH4 0x39F65C09 EQ PUSH2 0x404 JUMPI PUSH1 0x0 DUP1 REVERT JUMPDEST DUP1 PUSH4 0x96402CB EQ PUSH2 0x26C JUMPI DUP1 PUSH4 0xB4535E6 EQ PUSH2 0x29E JUMPI DUP1 PUSH4 0x17F85F85 EQ PUSH2 0x2CF JUMPI DUP1 PUSH4 0x1F255276 EQ PUSH2 0x2F1 JUMPI DUP1 PUSH4 0x1F597B6E EQ PUSH2 0x329 JUMPI PUSH1 0x0 DUP1 REVERT JUMPDEST CALLDATASIZE PUSH2 0x267 JUMPI STOP JUMPDEST PUSH1 0x0 DUP1 REVERT JUMPDEST CALLVALUE DUP1 ISZERO PUSH2 0x278 JUMPI PUSH1 0x0 DUP1 REVERT JUMPDEST POP PUSH2 0x28B PUSH11 0x52B7D2DCC80CD2E4000000 DUP2 JUMP JUMPDEST PUSH1 0x40 MLOAD SWAP1 DUP2 MSTORE PUSH1 0x20 ADD JUMPDEST PUSH1 0x40 MLOAD DUP1 SWAP2 SUB SWAP1 RETURN JUMPDEST CALLVALUE DUP1 ISZERO PUSH2 0x2AA JUMPI PUSH1 0x0 DUP1 REVERT JUMPDEST POP PUSH1 0x1 SLOAD PUSH2 0x2BF SWAP1 PUSH1 0x1 PUSH1 0xA8 SHL SWAP1 DIV PUSH1 0xFF AND DUP2 JUMP JUMPDEST PUSH1 0x40 MLOAD SWAP1 ISZERO ISZERO DUP2 MSTORE PUSH1 0x20 ADD PUSH2 0x295 JUMP JUMPDEST CALLVALUE DUP1 ISZERO PUSH2 0x2DB JUMPI PUSH1 0x0 DUP1 REVERT JUMPDEST POP PUSH2 0x2EF PUSH2 0x2EA CALLDATASIZE PUSH1 0x4 PUSH2 0x2EC3 JUMP JUMPDEST PUSH2 0x912 JUMP JUMPDEST STOP JUMPDEST CALLVALUE DUP1 ISZERO PUSH2 0x2FD JUMPI PUSH1 0x0 DUP1 REVERT JUMPDEST POP PUSH2 0x311 PUSH2 0x30C CALLDATASIZE PUSH1 0x4 PUSH2 0x2FB1 JUMP JUMPDEST PUSH2 0x98A JUMP JUMPDEST PUSH1 0x40 MLOAD PUSH1 0x1 PUSH1 0x1 PUSH1 0xA0 SHL SUB SWAP1 SWAP2 AND DUP2 MSTORE PUSH1 0x20 ADD PUSH2 0x295 JUMP JUMPDEST CALLVALUE DUP1 ISZERO PUSH2 0x335 JUMPI PUSH1 0x0 DUP1 REVERT JUMPDEST POP PUSH2 0x28B PUSH7 0x470DE4DF820000 DUP2 JUMP JUMPDEST CALLVALUE DUP1 ISZERO PUSH2 0x350 JUMPI PUSH1 0x0 DUP1 REVERT JUMPDEST POP PUSH2 0x2EF PUSH2 0x35F CALLDATASIZE PUSH1 0x4 PUSH2 0x300B JUMP JUMPDEST PUSH2 0x9DA JUMP JUMPDEST CALLVALUE DUP1 ISZERO PUSH2 0x370 JUMPI PUSH1 0x0 DUP1 REVERT JUMPDEST POP PUSH2 0x311 PUSH2 0x37F CALLDATASIZE PUSH1 0x4 PUSH2 0x2FB1 JUMP JUMPDEST DUP2 MLOAD PUSH1 0x20 DUP2 DUP5 ADD DUP2 ADD DUP1 MLOAD PUSH1 0x11 DUP3 MSTORE SWAP3 DUP3 ADD SWAP5 DUP3 ADD SWAP5 SWAP1 SWAP5 KECCAK256 SWAP2 SWAP1 SWAP4 MSTORE DUP2 MLOAD DUP1 DUP4 ADD DUP5 ADD DUP1 MLOAD SWAP3 DUP2 MSTORE SWAP1 DUP5 ADD SWAP3 SWAP1 SWAP4 ADD SWAP2 SWAP1 SWAP2 KECCAK256 SWAP2 MSTORE SLOAD PUSH1 0x1 PUSH1 0x1 PUSH1 0xA0 SHL SUB AND DUP2 JUMP JUMPDEST CALLVALUE DUP1 ISZERO PUSH2 0x3CE JUMPI PUSH1 0x0 DUP1 REVERT JUMPDEST POP PUSH2 0x28B PUSH1 0x12 DUP2 JUMP JUMPDEST CALLVALUE DUP1 ISZERO PUSH2 0x3E3 JUMPI PUSH1 0x0 DUP1 REVERT JUMPDEST POP PUSH2 0x3F7 PUSH2 0x3F2 CALLDATASIZE PUSH1 0x4 PUSH2 0x2EC3 JUMP JUMPDEST PUSH2 0xFDA JUMP JUMPDEST PUSH1 0x40 MLOAD PUSH2 0x295 SWAP2 SWAP1 PUSH2 0x30FB JUMP JUMPDEST CALLVALUE DUP1 ISZERO PUSH2 0x410 JUMPI PUSH1 0x0 DUP1 REVERT JUMPDEST POP PUSH2 0x28B PUSH2 0x41F CALLDATASIZE PUSH1 0x4 PUSH2 0x2EC3 JUMP JUMPDEST PUSH1 0x4 PUSH1 0x20 MSTORE PUSH1 0x0 SWAP1 DUP2 MSTORE PUSH1 0x40 SWAP1 KECCAK256 SLOAD DUP2 JUMP JUMPDEST CALLVALUE DUP1 ISZERO PUSH2 0x43D JUMPI PUSH1 0x0 DUP1 REVERT JUMPDEST POP PUSH2 0x311 PUSH32 0x0 DUP2 JUMP JUMPDEST CALLVALUE DUP1 ISZERO PUSH2 0x471 JUMPI PUSH1 0x0 DUP1 REVERT JUMPDEST POP PUSH2 0x2EF PUSH2 0x1093 JUMP JUMPDEST CALLVALUE DUP1 ISZERO PUSH2 0x486 JUMPI PUSH1 0x0 DUP1 REVERT JUMPDEST POP PUSH2 0x2EF PUSH2 0x495 CALLDATASIZE PUSH1 0x4 PUSH2 0x318D JUMP JUMPDEST PUSH2 0x10A5 JUMP JUMPDEST CALLVALUE DUP1 ISZERO PUSH2 0x4A6 JUMPI PUSH1 0x0 DUP1 REVERT JUMPDEST POP PUSH2 0x28B PUSH7 0x38D7EA4C68000 DUP2 JUMP JUMPDEST CALLVALUE DUP1 ISZERO PUSH2 0x4C1 JUMPI PUSH1 0x0 DUP1 REVERT JUMPDEST POP PUSH2 0x4CA PUSH2 0x12C2 JUMP JUMPDEST PUSH1 0x40 DUP1 MLOAD SWAP7 DUP8 MSTORE PUSH1 0x20 DUP8 ADD SWAP6 SWAP1 SWAP6 MSTORE SWAP4 DUP6 ADD SWAP3 SWAP1 SWAP3 MSTORE PUSH1 0x60 DUP5 ADD MSTORE PUSH1 0x80 DUP4 ADD MSTORE ISZERO ISZERO PUSH1 0xA0 DUP3 ADD MSTORE PUSH1 0xC0 ADD PUSH2 0x295 JUMP JUMPDEST CALLVALUE DUP1 ISZERO PUSH2 0x505 JUMPI PUSH1 0x0 DUP1 REVERT JUMPDEST POP PUSH2 0x2EF PUSH2 0x514 CALLDATASIZE PUSH1 0x4 PUSH2 0x3234 JUMP JUMPDEST PUSH2 0x1314 JUMP JUMPDEST CALLVALUE DUP1 ISZERO PUSH2 0x525 JUMPI PUSH1 0x0 DUP1 REVERT JUMPDEST POP PUSH2 0x539 PUSH2 0x534 CALLDATASIZE PUSH1 0x4 PUSH2 0x3270 JUMP JUMPDEST PUSH2 0x1419 JUMP JUMPDEST PUSH1 0x40 DUP1 MLOAD SWAP4 DUP5 MSTORE PUSH1 0x20 DUP5 ADD SWAP3 SWAP1 SWAP3 MSTORE SWAP1 DUP3 ADD MSTORE PUSH1 0x60 ADD PUSH2 0x295 JUMP JUMPDEST CALLVALUE DUP1 ISZERO PUSH2 0x560 JUMPI PUSH1 0x0 DUP1 REVERT JUMPDEST POP PUSH1 0x1 SLOAD PUSH1 0x1 PUSH1 0xA0 SHL SWAP1 DIV PUSH1 0xFF AND PUSH2 0x2BF JUMP JUMPDEST CALLVALUE DUP1 ISZERO PUSH2 0x57F JUMPI PUSH1 0x0 DUP1 REVERT JUMPDEST POP PUSH2 0x2EF PUSH2 0x15F7 JUMP JUMPDEST CALLVALUE DUP1 ISZERO PUSH2 0x594 JUMPI PUSH1 0x0 DUP1 REVERT JUMPDEST POP PUSH2 0x28B PUSH11 0x422CA8B0A00A425000000 DUP2 JUMP JUMPDEST CALLVALUE DUP1 ISZERO PUSH2 0x5B3 JUMPI PUSH1 0x0 DUP1 REVERT JUMPDEST POP PUSH2 0x28B PUSH1 0x7 SLOAD DUP2 JUMP JUMPDEST PUSH2 0x2EF PUSH2 0x5CB CALLDATASIZE PUSH1 0x4 PUSH2 0x3289 JUMP JUMPDEST PUSH2 0x1609 JUMP JUMPDEST CALLVALUE DUP1 ISZERO PUSH2 0x5DC JUMPI PUSH1 0x0 DUP1 REVERT JUMPDEST POP PUSH2 0x2EF PUSH2 0x1D28 JUMP JUMPDEST CALLVALUE DUP1 ISZERO PUSH2 0x5F1 JUMPI PUSH1 0x0 DUP1 REVERT JUMPDEST POP PUSH2 0x28B PUSH1 0x8 SLOAD DUP2 JUMP JUMPDEST CALLVALUE DUP1 ISZERO PUSH2 0x607 JUMPI PUSH1 0x0 DUP1 REVERT JUMPDEST POP PUSH1 0x1 SLOAD PUSH1 0x1 PUSH1 0x1 PUSH1 0xA0 SHL SUB AND PUSH2 0x311 JUMP JUMPDEST CALLVALUE DUP1 ISZERO PUSH2 0x625 JUMPI PUSH1 0x0 DUP1 REVERT JUMPDEST POP PUSH2 0x28B PUSH2 0x1D38 JUMP JUMPDEST CALLVALUE DUP1 ISZERO PUSH2 0x63A JUMPI PUSH1 0x0 DUP1 REVERT JUMPDEST POP PUSH2 0x64E PUSH2 0x649 CALLDATASIZE PUSH1 0x4 PUSH2 0x3270 JUMP JUMPDEST PUSH2 0x1D91 JUMP JUMPDEST PUSH1 0x40 DUP1 MLOAD PUSH1 0x1 PUSH1 0x1 PUSH1 0xA0 SHL SUB SWAP8 DUP9 AND DUP2 MSTORE SWAP7 SWAP1 SWAP6 AND PUSH1 0x20 DUP8 ADD MSTORE SWAP4 DUP6 ADD SWAP3 SWAP1 SWAP3 MSTORE PUSH1 0x60 DUP5 ADD MSTORE PUSH1 0x80 DUP4 ADD MSTORE PUSH1 0xA0 DUP3 ADD MSTORE PUSH1 0xC0 ADD PUSH2 0x295 JUMP JUMPDEST CALLVALUE DUP1 ISZERO PUSH2 0x692 JUMPI PUSH1 0x0 DUP1 REVERT JUMPDEST POP PUSH2 0x311 PUSH2 0x6A1 CALLDATASIZE PUSH1 0x4 PUSH2 0x3270 JUMP JUMPDEST PUSH2 0x1DE4 JUMP JUMPDEST CALLVALUE DUP1 ISZERO PUSH2 0x6B2 JUMPI PUSH1 0x0 DUP1 REVERT JUMPDEST POP PUSH2 0x6C6 PUSH2 0x6C1 CALLDATASIZE PUSH1 0x4 PUSH2 0x32BC JUMP JUMPDEST PUSH2 0x1E0E JUMP JUMPDEST PUSH1 0x40 DUP1 MLOAD SWAP3 DUP4 MSTORE PUSH1 0x20 DUP4 ADD SWAP2 SWAP1 SWAP2 MSTORE ADD PUSH2 0x295 JUMP JUMPDEST CALLVALUE DUP1 ISZERO PUSH2 0x6E7 JUMPI PUSH1 0x0 DUP1 REVERT JUMPDEST POP PUSH2 0x28B PUSH2 0xE10 DUP2 JUMP JUMPDEST CALLVALUE DUP1 ISZERO PUSH2 0x6FD JUMPI PUSH1 0x0 DUP1 REVERT JUMPDEST POP PUSH2 0x711 PUSH2 0x70C CALLDATASIZE PUSH1 0x4 PUSH2 0x2EC3 JUMP JUMPDEST PUSH2 0x1FFB JUMP JUMPDEST PUSH1 0x40 MLOAD PUSH2 0x295 SWAP8 SWAP7 SWAP6 SWAP5 SWAP4 SWAP3 SWAP2 SWAP1 PUSH2 0x3336 JUMP JUMPDEST CALLVALUE DUP1 ISZERO PUSH2 0x730 JUMPI PUSH1 0x0 DUP1 REVERT JUMPDEST POP PUSH2 0x2EF PUSH2 0x73F CALLDATASIZE PUSH1 0x4 PUSH2 0x3388 JUMP JUMPDEST PUSH2 0x20CD JUMP JUMPDEST CALLVALUE DUP1 ISZERO PUSH2 0x750 JUMPI PUSH1 0x0 DUP1 REVERT JUMPDEST POP PUSH2 0x311 PUSH2 0x75F CALLDATASIZE PUSH1 0x4 PUSH2 0x2EC3 JUMP JUMPDEST PUSH2 0x2114 JUMP JUMPDEST CALLVALUE DUP1 ISZERO PUSH2 0x770 JUMPI PUSH1 0x0 DUP1 REVERT JUMPDEST POP PUSH1 0x9 SLOAD PUSH1 0xA SLOAD PUSH1 0xB SLOAD PUSH1 0xC SLOAD PUSH1 0xD SLOAD PUSH2 0x79D SWAP5 PUSH1 0x1 PUSH1 0x1 PUSH1 0xA0 SHL SUB SWAP1 DUP2 AND SWAP5 DUP2 AND SWAP4 DUP2 AND SWAP3 DUP2 AND SWAP2 AND DUP6 JUMP JUMPDEST PUSH1 0x40 DUP1 MLOAD PUSH1 0x1 PUSH1 0x1 PUSH1 0xA0 SHL SUB SWAP7 DUP8 AND DUP2 MSTORE SWAP5 DUP7 AND PUSH1 0x20 DUP7 ADD MSTORE SWAP3 DUP6 AND SWAP3 DUP5 ADD SWAP3 SWAP1 SWAP3 MSTORE DUP4 AND PUSH1 0x60 DUP4 ADD MSTORE SWAP1 SWAP2 AND PUSH1 0x80 DUP3 ADD MSTORE PUSH1 0xA0 ADD PUSH2 0x295 JUMP JUMPDEST CALLVALUE DUP1 ISZERO PUSH2 0x7E3 JUMPI PUSH1 0x0 DUP1 REVERT JUMPDEST POP PUSH2 0x7EC PUSH2 0x226F JUMP JUMPDEST PUSH1 0x40 MLOAD PUSH2 0x295 SWAP2 SWAP1 PUSH2 0x33A5 JUMP JUMPDEST CALLVALUE DUP1 ISZERO PUSH2 0x805 JUMPI PUSH1 0x0 DUP1 REVERT JUMPDEST POP PUSH2 0x28B PUSH1 0x12 SLOAD DUP2 JUMP JUMPDEST CALLVALUE DUP1 ISZERO PUSH2 0x81B JUMPI PUSH1 0x0 DUP1 REVERT JUMPDEST POP PUSH2 0x2BF PUSH2 0x82A CALLDATASIZE PUSH1 0x4 PUSH2 0x2EC3 JUMP JUMPDEST PUSH1 0xF PUSH1 0x20 MSTORE PUSH1 0x0 SWAP1 DUP2 MSTORE PUSH1 0x40 SWAP1 KECCAK256 SLOAD PUSH1 0xFF AND DUP2 JUMP JUMPDEST CALLVALUE DUP1 ISZERO PUSH2 0x84B JUMPI PUSH1 0x0 DUP1 REVERT JUMPDEST POP PUSH2 0x2EF PUSH2 0x85A CALLDATASIZE PUSH1 0x4 PUSH2 0x33F2 JUMP JUMPDEST PUSH2 0x22D1 JUMP JUMPDEST CALLVALUE DUP1 ISZERO PUSH2 0x86B JUMPI PUSH1 0x0 DUP1 REVERT JUMPDEST POP PUSH2 0x28B PUSH2 0x87A CALLDATASIZE PUSH1 0x4 PUSH2 0x3270 JUMP JUMPDEST PUSH1 0x10 PUSH1 0x20 MSTORE PUSH1 0x0 SWAP1 DUP2 MSTORE PUSH1 0x40 SWAP1 KECCAK256 SLOAD DUP2 JUMP JUMPDEST CALLVALUE DUP1 ISZERO PUSH2 0x898 JUMPI PUSH1 0x0 DUP1 REVERT JUMPDEST POP PUSH2 0x64E PUSH2 0x8A7 CALLDATASIZE PUSH1 0x4 PUSH2 0x32BC JUMP JUMPDEST PUSH2 0x23CA JUMP JUMPDEST CALLVALUE DUP1 ISZERO PUSH2 0x8B8 JUMPI PUSH1 0x0 DUP1 REVERT JUMPDEST POP PUSH2 0x2EF PUSH2 0x8C7 CALLDATASIZE PUSH1 0x4 PUSH2 0x2EC3 JUMP JUMPDEST PUSH2 0x242A JUMP JUMPDEST CALLVALUE DUP1 ISZERO PUSH2 0x8D8 JUMPI PUSH1 0x0 DUP1 REVERT JUMPDEST POP PUSH2 0x2BF PUSH2 0x8E7 CALLDATASIZE PUSH1 0x4 PUSH2 0x3270 JUMP JUMPDEST PUSH1 0xE PUSH1 0x20 MSTORE PUSH1 0x0 SWAP1 DUP2 MSTORE PUSH1 0x40 SWAP1 KECCAK256 SLOAD PUSH1 0xFF AND DUP2 JUMP JUMPDEST CALLVALUE DUP1 ISZERO PUSH2 0x908 JUMPI PUSH1 0x0 DUP1 REVERT JUMPDEST POP PUSH2 0x28B PUSH2 0x3E8 DUP2 JUMP JUMPDEST PUSH2 0x91A PUSH2 0x24A0 JUMP JUMPDEST PUSH1 0x1 PUSH1 0x1 PUSH1 0xA0 SHL SUB DUP2 AND PUSH2 0x966 JUMPI PUSH1 0x40 MLOAD PUSH3 0x461BCD PUSH1 0xE5 SHL DUP2 MSTORE PUSH1 0x20 PUSH1 0x4 DUP3 ADD MSTORE PUSH1 0xE PUSH1 0x24 DUP3 ADD MSTORE PUSH14 0x496E76616C6964206F7261636C65 PUSH1 0x90 SHL PUSH1 0x44 DUP3 ADD MSTORE PUSH1 0x64 ADD JUMPDEST PUSH1 0x40 MLOAD DUP1 SWAP2 SUB SWAP1 REVERT JUMPDEST PUSH1 0x1 PUSH1 0x1 PUSH1 0xA0 SHL SUB AND PUSH1 0x0 SWAP1 DUP2 MSTORE PUSH1 0xF PUSH1 0x20 MSTORE PUSH1 0x40 SWAP1 KECCAK256 DUP1 SLOAD PUSH1 0xFF NOT AND PUSH1 0x1 OR SWAP1 SSTORE JUMP JUMPDEST PUSH1 0x0 PUSH1 0x11 DUP4 PUSH1 0x40 MLOAD PUSH2 0x99C SWAP2 SWAP1 PUSH2 0x345D JUMP JUMPDEST SWAP1 DUP2 MSTORE PUSH1 0x20 ADD PUSH1 0x40 MLOAD DUP1 SWAP2 SUB SWAP1 KECCAK256 DUP3 PUSH1 0x40 MLOAD PUSH2 0x9B8 SWAP2 SWAP1 PUSH2 0x345D JUMP JUMPDEST SWAP1 DUP2 MSTORE PUSH1 0x40 MLOAD SWAP1 DUP2 SWAP1 SUB PUSH1 0x20 ADD SWAP1 KECCAK256 SLOAD PUSH1 0x1 PUSH1 0x1 PUSH1 0xA0 SHL SUB AND SWAP1 POP JUMPDEST SWAP3 SWAP2 POP POP JUMP JUMPDEST CALLER PUSH1 0x0 SWAP1 DUP2 MSTORE PUSH1 0xF PUSH1 0x20 MSTORE PUSH1 0x40 SWAP1 KECCAK256 SLOAD PUSH1 0xFF AND PUSH2 0xA30 JUMPI PUSH1 0x40 MLOAD PUSH3 0x461BCD PUSH1 0xE5 SHL DUP2 MSTORE PUSH1 0x20 PUSH1 0x4 DUP3 ADD MSTORE PUSH1 0x14 PUSH1 0x24 DUP3 ADD MSTORE PUSH20 0x4E6F7420612074727573746564206F7261636C65 PUSH1 0x60 SHL PUSH1 0x44 DUP3 ADD MSTORE PUSH1 0x64 ADD PUSH2 0x95D JUMP JUMPDEST PUSH2 0xA38 PUSH2 0x24FA JUMP JUMPDEST PUSH2 0xA40 PUSH2 0x2553 JUMP JUMPDEST PUSH1 0x1 PUSH1 0x1 PUSH1 0xA0 SHL SUB DUP3 AND PUSH2 0xA86 JUMPI PUSH1 0x40 MLOAD PUSH3 0x461BCD PUSH1 0xE5 SHL DUP2 MSTORE PUSH1 0x20 PUSH1 0x4 DUP3 ADD MSTORE PUSH1 0xD PUSH1 0x24 DUP3 ADD MSTORE PUSH13 0x24B73B30B634B210313ABCB2B9 PUSH1 0x99 SHL PUSH1 0x44 DUP3 ADD MSTORE PUSH1 0x64 ADD PUSH2 0x95D JUMP JUMPDEST DUP1 MLOAD PUSH2 0xAC6 JUMPI PUSH1 0x40 MLOAD PUSH3 0x461BCD PUSH1 0xE5 SHL DUP2 MSTORE PUSH1 0x20 PUSH1 0x4 DUP3 ADD MSTORE PUSH1 0xF PUSH1 0x24 DUP3 ADD MSTORE PUSH15 0x92DCECC2D8D2C840E8F040D0C2E6D PUSH1 0x8B SHL PUSH1 0x44 DUP3 ADD MSTORE PUSH1 0x64 ADD PUSH2 0x95D JUMP JUMPDEST DUP1 MLOAD PUSH1 0x0 SWAP1 DUP2 MSTORE PUSH1 0xE PUSH1 0x20 MSTORE PUSH1 0x40 SWAP1 KECCAK256 SLOAD PUSH1 0xFF AND ISZERO PUSH2 0xB1B JUMPI PUSH1 0x40 MLOAD PUSH3 0x461BCD PUSH1 0xE5 SHL DUP2 MSTORE PUSH1 0x20 PUSH1 0x4 DUP3 ADD MSTORE PUSH1 0x11 PUSH1 0x24 DUP3 ADD MSTORE PUSH17 0x105B1C9958591E481C1C9BD8D95CDCD959 PUSH1 0x7A SHL PUSH1 0x44 DUP3 ADD MSTORE PUSH1 0x64 ADD PUSH2 0x95D JUMP JUMPDEST TIMESTAMP PUSH2 0xE10 DUP3 PUSH1 0xA0 ADD MLOAD PUSH2 0xB2E SWAP2 SWAP1 PUSH2 0x348F JUMP JUMPDEST GT PUSH2 0xB6B JUMPI PUSH1 0x40 MLOAD PUSH3 0x461BCD PUSH1 0xE5 SHL DUP2 MSTORE PUSH1 0x20 PUSH1 0x4 DUP3 ADD MSTORE PUSH1 0xD PUSH1 0x24 DUP3 ADD MSTORE PUSH13 0x141C9BDBD988195E1C1A5C9959 PUSH1 0x9A SHL PUSH1 0x44 DUP3 ADD MSTORE PUSH1 0x64 ADD PUSH2 0x95D JUMP JUMPDEST PUSH2 0xB78 DUP2 PUSH1 0x20 ADD MLOAD PUSH2 0x25A0 JUMP JUMPDEST PUSH2 0xBB6 JUMPI PUSH1 0x40 MLOAD PUSH3 0x461BCD PUSH1 0xE5 SHL DUP2 MSTORE PUSH1 0x20 PUSH1 0x4 DUP3 ADD MSTORE PUSH1 0xF PUSH1 0x24 DUP3 ADD MSTORE PUSH15 0x496E76616C6964206E6574776F726B PUSH1 0x88 SHL PUSH1 0x44 DUP3 ADD MSTORE PUSH1 0x64 ADD PUSH2 0x95D JUMP JUMPDEST DUP1 MLOAD PUSH1 0x20 DUP1 DUP4 ADD MLOAD PUSH1 0x40 DUP1 DUP6 ADD MLOAD PUSH1 0x60 DUP7 ADD MLOAD PUSH1 0x80 DUP8 ADD MLOAD PUSH1 0xA0 DUP9 ADD MLOAD SWAP4 MLOAD PUSH1 0x0 SWAP8 PUSH2 0xBE8 SWAP8 SWAP1 SWAP7 SWAP6 SWAP2 DUP12 SWAP2 ADD PUSH2 0x34A2 JUMP JUMPDEST PUSH1 0x40 MLOAD PUSH1 0x20 DUP2 DUP4 SUB SUB DUP2 MSTORE SWAP1 PUSH1 0x40 MSTORE DUP1 MLOAD SWAP1 PUSH1 0x20 ADD KECCAK256 SWAP1 POP PUSH1 0x0 PUSH2 0xC47 DUP4 PUSH1 0xC0 ADD MLOAD PUSH2 0xC41 DUP5 PUSH32 0x19457468657265756D205369676E6564204D6573736167653A0A333200000000 PUSH1 0x0 SWAP1 DUP2 MSTORE PUSH1 0x1C SWAP2 SWAP1 SWAP2 MSTORE PUSH1 0x3C SWAP1 KECCAK256 SWAP1 JUMP JUMPDEST SWAP1 PUSH2 0x2685 JUMP JUMPDEST PUSH1 0x1 PUSH1 0x1 PUSH1 0xA0 SHL SUB DUP2 AND PUSH1 0x0 SWAP1 DUP2 MSTORE PUSH1 0xF PUSH1 0x20 MSTORE PUSH1 0x40 SWAP1 KECCAK256 SLOAD SWAP1 SWAP2 POP PUSH1 0xFF AND PUSH2 0xCA6 JUMPI PUSH1 0x40 MLOAD PUSH3 0x461BCD PUSH1 0xE5 SHL DUP2 MSTORE PUSH1 0x20 PUSH1 0x4 DUP3 ADD MSTORE PUSH1 0x11 PUSH1 0x24 DUP3 ADD MSTORE PUSH17 0x496E76616C6964207369676E6174757265 PUSH1 0x78 SHL PUSH1 0x44 DUP3 ADD MSTORE PUSH1 0x64 ADD PUSH2 0x95D JUMP JUMPDEST PUSH1 0x1 SLOAD PUSH1 0x0 SWAP1 PUSH1 0x1 PUSH1 0xA8 SHL SWAP1 DIV PUSH1 0xFF AND ISZERO PUSH2 0xCD3 JUMPI PUSH2 0xCC8 DUP5 PUSH1 0x60 ADD MLOAD PUSH2 0x1419 JUMP JUMPDEST POP SWAP1 SWAP2 POP PUSH2 0xD00 SWAP1 POP JUMP JUMPDEST PUSH7 0x470DE4DF820000 DUP5 PUSH1 0x60 ADD MLOAD PUSH8 0xDE0B6B3A7640000 PUSH2 0xCF3 SWAP2 SWAP1 PUSH2 0x350F JUMP JUMPDEST PUSH2 0xCFD SWAP2 SWAP1 PUSH2 0x3526 JUMP JUMPDEST SWAP1 POP JUMPDEST PUSH1 0x0 DUP2 GT PUSH2 0xD45 JUMPI PUSH1 0x40 MLOAD PUSH3 0x461BCD PUSH1 0xE5 SHL DUP2 MSTORE PUSH1 0x20 PUSH1 0x4 DUP3 ADD MSTORE PUSH1 0x12 PUSH1 0x24 DUP3 ADD MSTORE PUSH18 0x125B9D985B1A5908109052C8185B5BDD5B9D PUSH1 0x72 SHL PUSH1 0x44 DUP3 ADD MSTORE PUSH1 0x64 ADD PUSH2 0x95D JUMP JUMPDEST PUSH11 0x52B7D2DCC80CD2E4000000 DUP2 PUSH1 0x7 SLOAD PUSH2 0xD5F SWAP2 SWAP1 PUSH2 0x348F JUMP JUMPDEST GT ISZERO PUSH2 0xDA4 JUMPI PUSH1 0x40 MLOAD PUSH3 0x461BCD PUSH1 0xE5 SHL DUP2 MSTORE PUSH1 0x20 PUSH1 0x4 DUP3 ADD MSTORE PUSH1 0x14 PUSH1 0x24 DUP3 ADD MSTORE PUSH20 0x4578636565647320746F74616C20737570706C79 PUSH1 0x60 SHL PUSH1 0x44 DUP3 ADD MSTORE PUSH1 0x64 ADD PUSH2 0x95D JUMP JUMPDEST PUSH1 0x0 PUSH2 0xDB2 PUSH2 0xE10 TIMESTAMP PUSH2 0x3526 JUMP JUMPDEST PUSH1 0x0 DUP2 DUP2 MSTORE PUSH1 0x10 PUSH1 0x20 MSTORE PUSH1 0x40 SWAP1 KECCAK256 SLOAD SWAP1 SWAP2 POP PUSH11 0x422CA8B0A00A425000000 SWAP1 PUSH2 0xDDC SWAP1 DUP5 SWAP1 PUSH2 0x348F JUMP JUMPDEST GT ISZERO PUSH2 0xE22 JUMPI PUSH1 0x40 MLOAD PUSH3 0x461BCD PUSH1 0xE5 SHL DUP2 MSTORE PUSH1 0x20 PUSH1 0x4 DUP3 ADD MSTORE PUSH1 0x15 PUSH1 0x24 DUP3 ADD MSTORE PUSH21 0x121BDD5C9B1E481B1A5B5A5D08195E18D959591959 PUSH1 0x5A SHL PUSH1 0x44 DUP3 ADD MSTORE PUSH1 0x64 ADD PUSH2 0x95D JUMP JUMPDEST DUP5 MLOAD PUSH1 0x0 SWAP1 DUP2 MSTORE PUSH1 0xE PUSH1 0x20 MSTORE PUSH1 0x40 SWAP1 KECCAK256 DUP1 SLOAD PUSH1 0xFF NOT AND PUSH1 0x1 OR SWAP1 SSTORE PUSH2 0xE47 DUP7 DUP4 PUSH2 0x26A9 JUMP JUMPDEST DUP2 PUSH1 0x7 PUSH1 0x0 DUP3 DUP3 SLOAD PUSH2 0xE59 SWAP2 SWAP1 PUSH2 0x348F JUMP JUMPDEST SWAP1 SWAP2 SSTORE POP POP PUSH1 0x60 DUP6 ADD MLOAD PUSH1 0x8 DUP1 SLOAD PUSH1 0x0 SWAP1 PUSH2 0xE75 SWAP1 DUP5 SWAP1 PUSH2 0x348F JUMP JUMPDEST SWAP1 SWAP2 SSTORE POP POP PUSH1 0x1 PUSH1 0x1 PUSH1 0xA0 SHL SUB DUP7 AND PUSH1 0x0 SWAP1 DUP2 MSTORE PUSH1 0x4 PUSH1 0x20 MSTORE PUSH1 0x40 DUP2 KECCAK256 DUP1 SLOAD DUP5 SWAP3 SWAP1 PUSH2 0xEA2 SWAP1 DUP5 SWAP1 PUSH2 0x348F JUMP JUMPDEST SWAP1 SWAP2 SSTORE POP POP PUSH1 0x0 DUP2 DUP2 MSTORE PUSH1 0x10 PUSH1 0x20 MSTORE PUSH1 0x40 DUP2 KECCAK256 DUP1 SLOAD DUP5 SWAP3 SWAP1 PUSH2 0xEC5 SWAP1 DUP5 SWAP1 PUSH2 0x348F JUMP JUMPDEST SWAP1 SWAP2 SSTORE POP POP PUSH1 0x1 SLOAD PUSH1 0x1 PUSH1 0xA8 SHL SWAP1 DIV PUSH1 0xFF AND ISZERO PUSH2 0xF37 JUMPI PUSH2 0xEE4 PUSH2 0x1D38 JUMP JUMPDEST PUSH1 0x12 DUP2 SWAP1 SSTORE PUSH1 0x7 SLOAD PUSH1 0x40 MLOAD PUSH32 0xC519AF3206E5C325883986D7E86F3CD5415959F018339D023529ED7D6F4ED141 SWAP3 PUSH2 0xF2E SWAP3 SWAP2 TIMESTAMP SWAP1 SWAP3 DUP4 MSTORE PUSH1 0x20 DUP4 ADD SWAP2 SWAP1 SWAP2 MSTORE PUSH1 0x40 DUP3 ADD MSTORE PUSH1 0x60 ADD SWAP1 JUMP JUMPDEST PUSH1 0x40 MLOAD DUP1 SWAP2 SUB SWAP1 LOG1 JUMPDEST DUP5 PUSH1 0x40 ADD MLOAD PUSH1 0x40 MLOAD PUSH2 0xF49 SWAP2 SWAP1 PUSH2 0x345D JUMP JUMPDEST PUSH1 0x40 MLOAD DUP1 SWAP2 SUB SWAP1 KECCAK256 DUP6 PUSH1 0x20 ADD MLOAD PUSH1 0x40 MLOAD PUSH2 0xF63 SWAP2 SWAP1 PUSH2 0x345D JUMP JUMPDEST PUSH1 0x40 DUP1 MLOAD SWAP2 DUP3 SWAP1 SUB DUP3 KECCAK256 DUP9 MLOAD PUSH1 0x60 DUP1 DUP12 ADD MLOAD PUSH1 0x12 SLOAD SWAP3 DUP7 MSTORE PUSH1 0x20 DUP7 ADD MSTORE DUP5 DUP5 ADD DUP9 SWAP1 MSTORE DUP5 ADD MSTORE TIMESTAMP PUSH1 0x80 DUP5 ADD MSTORE SWAP1 MLOAD SWAP1 SWAP2 PUSH1 0x1 PUSH1 0x1 PUSH1 0xA0 SHL SUB DUP11 AND SWAP2 PUSH32 0xF53767326419E47456340542E4D5FE0B426C6DE7ECC392267681C29F0171CDDF SWAP2 DUP2 SWAP1 SUB PUSH1 0xA0 ADD SWAP1 LOG4 POP POP POP POP PUSH2 0xFD6 PUSH1 0x1 PUSH1 0x0 SSTORE JUMP JUMPDEST POP POP JUMP JUMPDEST PUSH1 0x1 PUSH1 0x1 PUSH1 0xA0 SHL SUB DUP2 AND PUSH1 0x0 SWAP1 DUP2 MSTORE PUSH1 0x5 PUSH1 0x20 SWAP1 DUP2 MSTORE PUSH1 0x40 DUP1 DUP4 KECCAK256 DUP1 SLOAD DUP3 MLOAD DUP2 DUP6 MUL DUP2 ADD DUP6 ADD SWAP1 SWAP4 MSTORE DUP1 DUP4 MSTORE PUSH1 0x60 SWAP5 SWAP3 SWAP4 SWAP2 SWAP3 SWAP1 SWAP2 DUP5 ADD JUMPDEST DUP3 DUP3 LT ISZERO PUSH2 0x1088 JUMPI PUSH1 0x0 DUP5 DUP2 MSTORE PUSH1 0x20 SWAP1 DUP2 SWAP1 KECCAK256 PUSH1 0x40 DUP1 MLOAD PUSH1 0xC0 DUP2 ADD DUP3 MSTORE PUSH1 0x6 DUP7 MUL SWAP1 SWAP3 ADD DUP1 SLOAD PUSH1 0x1 PUSH1 0x1 PUSH1 0xA0 SHL SUB SWAP1 DUP2 AND DUP5 MSTORE PUSH1 0x1 DUP1 DUP4 ADD SLOAD SWAP1 SWAP2 AND DUP5 DUP7 ADD MSTORE PUSH1 0x2 DUP3 ADD SLOAD SWAP3 DUP5 ADD SWAP3 SWAP1 SWAP3 MSTORE PUSH1 0x3 DUP2 ADD SLOAD PUSH1 0x60 DUP5 ADD MSTORE PUSH1 0x4 DUP2 ADD SLOAD PUSH1 0x80 DUP5 ADD MSTORE PUSH1 0x5 ADD SLOAD PUSH1 0xA0 DUP4 ADD MSTORE SWAP1 DUP4 MSTORE SWAP1 SWAP3 ADD SWAP2 ADD PUSH2 0x1012 JUMP JUMPDEST POP POP POP POP SWAP1 POP SWAP2 SWAP1 POP JUMP JUMPDEST PUSH2 0x109B PUSH2 0x24A0 JUMP JUMPDEST PUSH2 0x10A3 PUSH2 0x281D JUMP JUMPDEST JUMP JUMPDEST PUSH2 0x10AD PUSH2 0x24A0 JUMP JUMPDEST PUSH1 0x40 MLOAD DUP1 PUSH1 0xE0 ADD PUSH1 0x40 MSTORE DUP1 DUP9 ISZERO ISZERO DUP2 MSTORE PUSH1 0x20 ADD DUP8 PUSH1 0xFF AND DUP2 MSTORE PUSH1 0x20 ADD DUP7 DUP2 MSTORE PUSH1 0x20 ADD DUP6 DUP2 MSTORE PUSH1 0x20 ADD DUP5 DUP2 MSTORE PUSH1 0x20 ADD DUP4 DUP2 MSTORE PUSH1 0x20 ADD DUP3 PUSH1 0x1 PUSH1 0x1 PUSH1 0xA0 SHL SUB AND DUP2 MSTORE POP PUSH1 0x2 PUSH1 0x0 DUP11 PUSH1 0x1 PUSH1 0x1 PUSH1 0xA0 SHL SUB AND PUSH1 0x1 PUSH1 0x1 PUSH1 0xA0 SHL SUB AND DUP2 MSTORE PUSH1 0x20 ADD SWAP1 DUP2 MSTORE PUSH1 0x20 ADD PUSH1 0x0 KECCAK256 PUSH1 0x0 DUP3 ADD MLOAD DUP2 PUSH1 0x0 ADD PUSH1 0x0 PUSH2 0x100 EXP DUP2 SLOAD DUP2 PUSH1 0xFF MUL NOT AND SWAP1 DUP4 ISZERO ISZERO MUL OR SWAP1 SSTORE POP PUSH1 0x20 DUP3 ADD MLOAD DUP2 PUSH1 0x0 ADD PUSH1 0x1 PUSH2 0x100 EXP DUP2 SLOAD DUP2 PUSH1 0xFF MUL NOT AND SWAP1 DUP4 PUSH1 0xFF AND MUL OR SWAP1 SSTORE POP PUSH1 0x40 DUP3 ADD MLOAD DUP2 PUSH1 0x1 ADD SSTORE PUSH1 0x60 DUP3 ADD MLOAD DUP2 PUSH1 0x2 ADD SSTORE PUSH1 0x80 DUP3 ADD MLOAD DUP2 PUSH1 0x3 ADD SSTORE PUSH1 0xA0 DUP3 ADD MLOAD DUP2 PUSH1 0x4 ADD SWAP1 DUP2 PUSH2 0x1187 SWAP2 SWAP1 PUSH2 0x35D0 JUMP JUMPDEST POP PUSH1 0xC0 SWAP2 SWAP1 SWAP2 ADD MLOAD PUSH1 0x5 SWAP1 SWAP2 ADD DUP1 SLOAD PUSH1 0x1 PUSH1 0x1 PUSH1 0xA0 SHL SUB NOT AND PUSH1 0x1 PUSH1 0x1 PUSH1 0xA0 SHL SUB SWAP1 SWAP3 AND SWAP2 SWAP1 SWAP2 OR SWAP1 SSTORE DUP7 ISZERO PUSH2 0x126B JUMPI PUSH1 0x0 DUP1 JUMPDEST PUSH1 0x3 SLOAD DUP2 LT ISZERO PUSH2 0x1217 JUMPI DUP10 PUSH1 0x1 PUSH1 0x1 PUSH1 0xA0 SHL SUB AND PUSH1 0x3 DUP3 DUP2 SLOAD DUP2 LT PUSH2 0x11E2 JUMPI PUSH2 0x11E2 PUSH2 0x3690 JUMP JUMPDEST PUSH1 0x0 SWAP2 DUP3 MSTORE PUSH1 0x20 SWAP1 SWAP2 KECCAK256 ADD SLOAD PUSH1 0x1 PUSH1 0x1 PUSH1 0xA0 SHL SUB AND SUB PUSH2 0x1205 JUMPI PUSH1 0x1 SWAP2 POP PUSH2 0x1217 JUMP JUMPDEST DUP1 PUSH2 0x120F DUP2 PUSH2 0x36A6 JUMP JUMPDEST SWAP2 POP POP PUSH2 0x11BB JUMP JUMPDEST POP DUP1 PUSH2 0x1269 JUMPI PUSH1 0x3 DUP1 SLOAD PUSH1 0x1 DUP2 ADD DUP3 SSTORE PUSH1 0x0 SWAP2 SWAP1 SWAP2 MSTORE PUSH32 0xC2575A0E9E593C00F959F8C92F12DB2869C3395A3B0502D05E2516446F71F85B ADD DUP1 SLOAD PUSH1 0x1 PUSH1 0x1 PUSH1 0xA0 SHL SUB NOT AND PUSH1 0x1 PUSH1 0x1 PUSH1 0xA0 SHL SUB DUP12 AND OR SWAP1 SSTORE JUMPDEST POP JUMPDEST PUSH1 0x40 DUP1 MLOAD DUP9 ISZERO ISZERO DUP2 MSTORE PUSH1 0x20 DUP2 ADD DUP8 SWAP1 MSTORE TIMESTAMP DUP2 DUP4 ADD MSTORE SWAP1 MLOAD PUSH1 0x1 PUSH1 0x1 PUSH1 0xA0 SHL SUB DUP11 AND SWAP2 PUSH32 0xDB8CE90D26EB0F2C05E210F29BD0A57D60F404F3F8022CEE68265EA6E8CA3835 SWAP2 SWAP1 DUP2 SWAP1 SUB PUSH1 0x60 ADD SWAP1 LOG2 POP POP POP POP POP POP POP POP JUMP JUMPDEST PUSH1 0x0 DUP1 PUSH1 0x0 DUP1 PUSH1 0x0 DUP1 PUSH1 0x7 SLOAD PUSH1 0x8 SLOAD PUSH2 0x12D9 PUSH2 0x1D38 JUMP JUMPDEST PUSH1 0x7 SLOAD PUSH2 0x12F1 SWAP1 PUSH11 0x52B7D2DCC80CD2E4000000 PUSH2 0x36BF JUMP JUMPDEST PUSH1 0x6 SLOAD PUSH1 0x1 SLOAD SWAP5 SWAP12 SWAP4 SWAP11 POP SWAP2 SWAP9 POP SWAP7 POP SWAP5 POP PUSH1 0x1 PUSH1 0xA8 SHL SWAP1 SWAP2 DIV PUSH1 0xFF AND SWAP3 POP SWAP1 POP JUMP JUMPDEST PUSH2 0x131C PUSH2 0x24A0 JUMP JUMPDEST PUSH1 0x1 PUSH1 0x1 PUSH1 0xA0 SHL SUB DUP2 AND PUSH2 0x1366 JUMPI PUSH1 0x40 MLOAD PUSH3 0x461BCD PUSH1 0xE5 SHL DUP2 MSTORE PUSH1 0x20 PUSH1 0x4 DUP3 ADD MSTORE PUSH1 0x11 PUSH1 0x24 DUP3 ADD MSTORE PUSH17 0x125B9D985B1A59081C9958DA5C1A595B9D PUSH1 0x7A SHL PUSH1 0x44 DUP3 ADD MSTORE PUSH1 0x64 ADD PUSH2 0x95D JUMP JUMPDEST PUSH1 0x1 PUSH1 0x1 PUSH1 0xA0 SHL SUB DUP4 AND PUSH2 0x1400 JUMPI SELFBALANCE DUP3 GT ISZERO PUSH2 0x13C4 JUMPI PUSH1 0x40 MLOAD PUSH3 0x461BCD PUSH1 0xE5 SHL DUP2 MSTORE PUSH1 0x20 PUSH1 0x4 DUP3 ADD MSTORE PUSH1 0x18 PUSH1 0x24 DUP3 ADD MSTORE PUSH32 0x496E73756666696369656E74204554482062616C616E63650000000000000000 PUSH1 0x44 DUP3 ADD MSTORE PUSH1 0x64 ADD PUSH2 0x95D JUMP JUMPDEST PUSH1 0x40 MLOAD PUSH1 0x1 PUSH1 0x1 PUSH1 0xA0 SHL SUB DUP3 AND SWAP1 DUP4 ISZERO PUSH2 0x8FC MUL SWAP1 DUP5 SWAP1 PUSH1 0x0 DUP2 DUP2 DUP2 DUP6 DUP9 DUP9 CALL SWAP4 POP POP POP POP ISZERO DUP1 ISZERO PUSH2 0x13FA JUMPI RETURNDATASIZE PUSH1 0x0 DUP1 RETURNDATACOPY RETURNDATASIZE PUSH1 0x0 REVERT JUMPDEST POP POP POP POP JUMP JUMPDEST PUSH2 0x1414 PUSH1 0x1 PUSH1 0x1 PUSH1 0xA0 SHL SUB DUP5 AND DUP3 DUP5 PUSH2 0x2872 JUMP JUMPDEST POP POP POP JUMP JUMPDEST PUSH1 0x0 DUP1 PUSH1 0x0 PUSH1 0x1 PUSH1 0x15 SWAP1 SLOAD SWAP1 PUSH2 0x100 EXP SWAP1 DIV PUSH1 0xFF AND PUSH2 0x1471 JUMPI PUSH7 0x470DE4DF820000 PUSH2 0x144C DUP6 PUSH8 0xDE0B6B3A7640000 PUSH2 0x350F JUMP JUMPDEST PUSH2 0x1456 SWAP2 SWAP1 PUSH2 0x3526 JUMP JUMPDEST SWAP3 POP PUSH7 0x470DE4DF820000 SWAP2 POP PUSH7 0x470DE4DF820000 SWAP1 POP PUSH2 0x15F0 JUMP JUMPDEST PUSH1 0x0 PUSH2 0x147B PUSH2 0x1D38 JUMP JUMPDEST PUSH1 0x7 SLOAD SWAP1 SWAP2 POP DUP6 SWAP1 PUSH1 0x0 SWAP1 PUSH9 0x3635C9ADC5DEA00000 JUMPDEST PUSH1 0x0 DUP5 GT DUP1 ISZERO PUSH2 0x14AB JUMPI POP PUSH11 0x52B7D2DCC80CD2E4000000 DUP3 LT JUMPDEST ISZERO PUSH2 0x1570 JUMPI PUSH1 0x0 PUSH2 0x3E8 PUSH2 0x14C6 PUSH7 0x38D7EA4C68000 DUP6 PUSH2 0x350F JUMP JUMPDEST PUSH2 0x14D0 SWAP2 SWAP1 PUSH2 0x3526 JUMP JUMPDEST PUSH2 0x14E1 SWAP1 PUSH7 0x470DE4DF820000 PUSH2 0x348F JUMP JUMPDEST SWAP1 POP DUP2 PUSH1 0x0 PUSH8 0xDE0B6B3A7640000 PUSH2 0x14F9 DUP5 DUP5 PUSH2 0x350F JUMP JUMPDEST PUSH2 0x1503 SWAP2 SWAP1 PUSH2 0x3526 JUMP JUMPDEST SWAP1 POP DUP7 DUP2 GT PUSH2 0x1535 JUMPI PUSH2 0x1516 DUP3 DUP8 PUSH2 0x348F JUMP JUMPDEST SWAP6 POP PUSH2 0x1522 DUP2 DUP9 PUSH2 0x36BF JUMP JUMPDEST SWAP7 POP PUSH2 0x152E DUP3 DUP7 PUSH2 0x348F JUMP JUMPDEST SWAP5 POP PUSH2 0x1568 JUMP JUMPDEST PUSH1 0x0 DUP4 PUSH2 0x154A DUP10 PUSH8 0xDE0B6B3A7640000 PUSH2 0x350F JUMP JUMPDEST PUSH2 0x1554 SWAP2 SWAP1 PUSH2 0x3526 JUMP JUMPDEST SWAP1 POP PUSH2 0x1560 DUP2 DUP9 PUSH2 0x348F JUMP JUMPDEST SWAP7 POP PUSH1 0x0 SWAP8 POP POP JUMPDEST POP POP POP PUSH2 0x1491 JUMP JUMPDEST DUP3 SWAP8 POP PUSH1 0x0 DUP4 GT PUSH2 0x1581 JUMPI DUP5 PUSH2 0x15A8 JUMP JUMPDEST DUP3 PUSH2 0x158C DUP6 DUP12 PUSH2 0x36BF JUMP JUMPDEST PUSH2 0x159E SWAP1 PUSH8 0xDE0B6B3A7640000 PUSH2 0x350F JUMP JUMPDEST PUSH2 0x15A8 SWAP2 SWAP1 PUSH2 0x3526 JUMP JUMPDEST SWAP7 POP PUSH2 0x3E8 PUSH7 0x38D7EA4C68000 DUP10 PUSH1 0x7 SLOAD PUSH2 0x15C3 SWAP2 SWAP1 PUSH2 0x348F JUMP JUMPDEST PUSH2 0x15CD SWAP2 SWAP1 PUSH2 0x350F JUMP JUMPDEST PUSH2 0x15D7 SWAP2 SWAP1 PUSH2 0x3526 JUMP JUMPDEST PUSH2 0x15E8 SWAP1 PUSH7 0x470DE4DF820000 PUSH2 0x348F JUMP JUMPDEST SWAP6 POP POP POP POP POP POP JUMPDEST SWAP2 SWAP4 SWAP1 SWAP3 POP JUMP JUMPDEST PUSH2 0x15FF PUSH2 0x24A0 JUMP JUMPDEST PUSH2 0x10A3 PUSH1 0x0 PUSH2 0x28D5 JUMP JUMPDEST PUSH2 0x1611 PUSH2 0x24FA JUMP JUMPDEST PUSH2 0x1619 PUSH2 0x2553 JUMP JUMPDEST PUSH1 0x1 PUSH1 0x1 PUSH1 0xA0 SHL SUB DUP4 AND PUSH1 0x0 SWAP1 DUP2 MSTORE PUSH1 0x2 PUSH1 0x20 MSTORE PUSH1 0x40 SWAP1 KECCAK256 SLOAD PUSH1 0xFF AND PUSH2 0x1681 JUMPI PUSH1 0x40 MLOAD PUSH3 0x461BCD PUSH1 0xE5 SHL DUP2 MSTORE PUSH1 0x20 PUSH1 0x4 DUP3 ADD MSTORE PUSH1 0x1B PUSH1 0x24 DUP3 ADD MSTORE PUSH32 0x5061796D656E7420746F6B656E206E6F7420737570706F727465640000000000 PUSH1 0x44 DUP3 ADD MSTORE PUSH1 0x64 ADD PUSH2 0x95D JUMP JUMPDEST PUSH1 0x0 DUP3 GT PUSH2 0x16DF JUMPI PUSH1 0x40 MLOAD PUSH3 0x461BCD PUSH1 0xE5 SHL DUP2 MSTORE PUSH1 0x20 PUSH1 0x4 DUP3 ADD MSTORE PUSH1 0x25 PUSH1 0x24 DUP3 ADD MSTORE PUSH32 0x5061796D656E7420616D6F756E74206D75737420626520677265617465722074 PUSH1 0x44 DUP3 ADD MSTORE PUSH5 0x68616E203 PUSH1 0xDC SHL PUSH1 0x64 DUP3 ADD MSTORE PUSH1 0x84 ADD PUSH2 0x95D JUMP JUMPDEST PUSH1 0x1 PUSH1 0x1 PUSH1 0xA0 SHL SUB DUP4 AND PUSH1 0x0 SWAP1 DUP2 MSTORE PUSH1 0x2 PUSH1 0x20 DUP2 DUP2 MSTORE PUSH1 0x40 DUP1 DUP5 KECCAK256 DUP2 MLOAD PUSH1 0xE0 DUP2 ADD DUP4 MSTORE DUP2 SLOAD PUSH1 0xFF DUP1 DUP3 AND ISZERO ISZERO DUP4 MSTORE PUSH2 0x100 SWAP1 SWAP2 DIV AND SWAP4 DUP2 ADD SWAP4 SWAP1 SWAP4 MSTORE PUSH1 0x1 DUP2 ADD SLOAD SWAP2 DUP4 ADD SWAP2 SWAP1 SWAP2 MSTORE SWAP2 DUP3 ADD SLOAD PUSH1 0x60 DUP3 ADD MSTORE PUSH1 0x3 DUP3 ADD SLOAD PUSH1 0x80 DUP3 ADD MSTORE PUSH1 0x4 DUP3 ADD DUP1 SLOAD SWAP2 SWAP3 SWAP2 PUSH1 0xA0 DUP5 ADD SWAP2 SWAP1 PUSH2 0x1752 SWAP1 PUSH2 0x3548 JUMP JUMPDEST DUP1 PUSH1 0x1F ADD PUSH1 0x20 DUP1 SWAP2 DIV MUL PUSH1 0x20 ADD PUSH1 0x40 MLOAD SWAP1 DUP2 ADD PUSH1 0x40 MSTORE DUP1 SWAP3 SWAP2 SWAP1 DUP2 DUP2 MSTORE PUSH1 0x20 ADD DUP3 DUP1 SLOAD PUSH2 0x177E SWAP1 PUSH2 0x3548 JUMP JUMPDEST DUP1 ISZERO PUSH2 0x17CB JUMPI DUP1 PUSH1 0x1F LT PUSH2 0x17A0 JUMPI PUSH2 0x100 DUP1 DUP4 SLOAD DIV MUL DUP4 MSTORE SWAP2 PUSH1 0x20 ADD SWAP2 PUSH2 0x17CB JUMP JUMPDEST DUP3 ADD SWAP2 SWAP1 PUSH1 0x0 MSTORE PUSH1 0x20 PUSH1 0x0 KECCAK256 SWAP1 JUMPDEST DUP2 SLOAD DUP2 MSTORE SWAP1 PUSH1 0x1 ADD SWAP1 PUSH1 0x20 ADD DUP1 DUP4 GT PUSH2 0x17AE JUMPI DUP3 SWAP1 SUB PUSH1 0x1F AND DUP3 ADD SWAP2 JUMPDEST POP POP POP SWAP2 DUP4 MSTORE POP POP PUSH1 0x5 SWAP2 SWAP1 SWAP2 ADD SLOAD PUSH1 0x1 PUSH1 0x1 PUSH1 0xA0 SHL SUB AND PUSH1 0x20 SWAP1 SWAP2 ADD MSTORE SWAP1 POP PUSH1 0x0 DUP1 PUSH2 0x17F8 DUP7 DUP7 PUSH2 0x1E0E JUMP JUMPDEST SWAP2 POP SWAP2 POP DUP3 PUSH1 0x60 ADD MLOAD DUP3 LT ISZERO PUSH2 0x1850 JUMPI PUSH1 0x40 MLOAD PUSH3 0x461BCD PUSH1 0xE5 SHL DUP2 MSTORE PUSH1 0x20 PUSH1 0x4 DUP3 ADD MSTORE PUSH1 0x1D PUSH1 0x24 DUP3 ADD MSTORE PUSH32 0x42656C6F77206D696E696D756D20707572636861736520616D6F756E74000000 PUSH1 0x44 DUP3 ADD MSTORE PUSH1 0x64 ADD PUSH2 0x95D JUMP JUMPDEST DUP3 PUSH1 0x80 ADD MLOAD DUP3 GT ISZERO PUSH2 0x18A4 JUMPI PUSH1 0x40 MLOAD PUSH3 0x461BCD PUSH1 0xE5 SHL DUP2 MSTORE PUSH1 0x20 PUSH1 0x4 DUP3 ADD MSTORE PUSH1 0x1D PUSH1 0x24 DUP3 ADD MSTORE PUSH32 0x41626F7665206D6178696D756D20707572636861736520616D6F756E74000000 PUSH1 0x44 DUP3 ADD MSTORE PUSH1 0x64 ADD PUSH2 0x95D JUMP JUMPDEST DUP4 DUP2 LT ISZERO PUSH2 0x18F4 JUMPI PUSH1 0x40 MLOAD PUSH3 0x461BCD PUSH1 0xE5 SHL DUP2 MSTORE PUSH1 0x20 PUSH1 0x4 DUP3 ADD MSTORE PUSH1 0x1B PUSH1 0x24 DUP3 ADD MSTORE PUSH32 0x536C69707061676520746F6C6572616E63652065786365656465640000000000 PUSH1 0x44 DUP3 ADD MSTORE PUSH1 0x64 ADD PUSH2 0x95D JUMP JUMPDEST PUSH11 0x52B7D2DCC80CD2E4000000 DUP2 PUSH1 0x7 SLOAD PUSH2 0x190E SWAP2 SWAP1 PUSH2 0x348F JUMP JUMPDEST GT ISZERO PUSH2 0x195C JUMPI PUSH1 0x40 MLOAD PUSH3 0x461BCD PUSH1 0xE5 SHL DUP2 MSTORE PUSH1 0x20 PUSH1 0x4 DUP3 ADD MSTORE PUSH1 0x18 PUSH1 0x24 DUP3 ADD MSTORE PUSH32 0x4578636565647320617661696C61626C6520737570706C790000000000000000 PUSH1 0x44 DUP3 ADD MSTORE PUSH1 0x64 ADD PUSH2 0x95D JUMP JUMPDEST PUSH1 0x0 PUSH2 0x1967 DUP8 PUSH2 0x2114 JUMP JUMPDEST SWAP1 POP PUSH1 0x1 PUSH1 0x1 PUSH1 0xA0 SHL SUB DUP8 AND PUSH2 0x19F9 JUMPI DUP6 CALLVALUE EQ PUSH2 0x19BD JUMPI PUSH1 0x40 MLOAD PUSH3 0x461BCD PUSH1 0xE5 SHL DUP2 MSTORE PUSH1 0x20 PUSH1 0x4 DUP3 ADD MSTORE PUSH1 0x14 PUSH1 0x24 DUP3 ADD MSTORE PUSH20 0x125B98DBDC9C9958DD0811551208185B5BDD5B9D PUSH1 0x62 SHL PUSH1 0x44 DUP3 ADD MSTORE PUSH1 0x64 ADD PUSH2 0x95D JUMP JUMPDEST PUSH1 0x40 MLOAD PUSH1 0x1 PUSH1 0x1 PUSH1 0xA0 SHL SUB DUP3 AND SWAP1 DUP8 ISZERO PUSH2 0x8FC MUL SWAP1 DUP9 SWAP1 PUSH1 0x0 DUP2 DUP2 DUP2 DUP6 DUP9 DUP9 CALL SWAP4 POP POP POP POP ISZERO DUP1 ISZERO PUSH2 0x19F3 JUMPI RETURNDATASIZE PUSH1 0x0 DUP1 RETURNDATACOPY RETURNDATASIZE PUSH1 0x0 REVERT JUMPDEST POP PUSH2 0x1A0E JUMP JUMPDEST PUSH2 0x1A0E PUSH1 0x1 PUSH1 0x1 PUSH1 0xA0 SHL SUB DUP9 AND CALLER DUP4 DUP10 PUSH2 0x2927 JUMP JUMPDEST PUSH2 0x1A18 CALLER DUP4 PUSH2 0x26A9 JUMP JUMPDEST DUP2 PUSH1 0x7 PUSH1 0x0 DUP3 DUP3 SLOAD PUSH2 0x1A2A SWAP2 SWAP1 PUSH2 0x348F JUMP JUMPDEST SWAP3 POP POP DUP2 SWAP1 SSTORE POP DUP3 PUSH1 0x8 PUSH1 0x0 DUP3 DUP3 SLOAD PUSH2 0x1A43 SWAP2 SWAP1 PUSH2 0x348F JUMP JUMPDEST SWAP1 SWAP2 SSTORE POP POP CALLER PUSH1 0x0 SWAP1 DUP2 MSTORE PUSH1 0x4 PUSH1 0x20 MSTORE PUSH1 0x40 DUP2 KECCAK256 DUP1 SLOAD DUP5 SWAP3 SWAP1 PUSH2 0x1A67 SWAP1 DUP5 SWAP1 PUSH2 0x348F JUMP JUMPDEST SWAP1 SWAP2 SSTORE POP POP PUSH1 0x1 SLOAD PUSH1 0x1 PUSH1 0xA8 SHL SWAP1 DIV PUSH1 0xFF AND ISZERO PUSH2 0x1AD9 JUMPI PUSH2 0x1A86 PUSH2 0x1D38 JUMP JUMPDEST PUSH1 0x12 DUP2 SWAP1 SSTORE PUSH1 0x7 SLOAD PUSH1 0x40 MLOAD PUSH32 0xC519AF3206E5C325883986D7E86F3CD5415959F018339D023529ED7D6F4ED141 SWAP3 PUSH2 0x1AD0 SWAP3 SWAP2 TIMESTAMP SWAP1 SWAP3 DUP4 MSTORE PUSH1 0x20 DUP4 ADD SWAP2 SWAP1 SWAP2 MSTORE PUSH1 0x40 DUP3 ADD MSTORE PUSH1 0x60 ADD SWAP1 JUMP JUMPDEST PUSH1 0x40 MLOAD DUP1 SWAP2 SUB SWAP1 LOG1 JUMPDEST PUSH1 0x0 PUSH1 0x40 MLOAD DUP1 PUSH1 0xC0 ADD PUSH1 0x40 MSTORE DUP1 CALLER PUSH1 0x1 PUSH1 0x1 PUSH1 0xA0 SHL SUB AND DUP2 MSTORE PUSH1 0x20 ADD DUP10 PUSH1 0x1 PUSH1 0x1 PUSH1 0xA0 SHL SUB AND DUP2 MSTORE PUSH1 0x20 ADD DUP9 DUP2 MSTORE PUSH1 0x20 ADD DUP5 DUP2 MSTORE PUSH1 0x20 ADD DUP6 DUP2 MSTORE PUSH1 0x20 ADD TIMESTAMP DUP2 MSTORE POP SWAP1 POP PUSH1 0x5 PUSH1 0x0 CALLER PUSH1 0x1 PUSH1 0x1 PUSH1 0xA0 SHL SUB AND PUSH1 0x1 PUSH1 0x1 PUSH1 0xA0 SHL SUB AND DUP2 MSTORE PUSH1 0x20 ADD SWAP1 DUP2 MSTORE PUSH1 0x20 ADD PUSH1 0x0 KECCAK256 DUP2 SWAP1 DUP1 PUSH1 0x1 DUP2 SLOAD ADD DUP1 DUP3 SSTORE DUP1 SWAP2 POP POP PUSH1 0x1 SWAP1 SUB SWAP1 PUSH1 0x0 MSTORE PUSH1 0x20 PUSH1 0x0 KECCAK256 SWAP1 PUSH1 0x6 MUL ADD PUSH1 0x0 SWAP1 SWAP2 SWAP1 SWAP2 SWAP1 SWAP2 POP PUSH1 0x0 DUP3 ADD MLOAD DUP2 PUSH1 0x0 ADD PUSH1 0x0 PUSH2 0x100 EXP DUP2 SLOAD DUP2 PUSH1 0x1 PUSH1 0x1 PUSH1 0xA0 SHL SUB MUL NOT AND SWAP1 DUP4 PUSH1 0x1 PUSH1 0x1 PUSH1 0xA0 SHL SUB AND MUL OR SWAP1 SSTORE POP PUSH1 0x20 DUP3 ADD MLOAD DUP2 PUSH1 0x1 ADD PUSH1 0x0 PUSH2 0x100 EXP DUP2 SLOAD DUP2 PUSH1 0x1 PUSH1 0x1 PUSH1 0xA0 SHL SUB MUL NOT AND SWAP1 DUP4 PUSH1 0x1 PUSH1 0x1 PUSH1 0xA0 SHL SUB AND MUL OR SWAP1 SSTORE POP PUSH1 0x40 DUP3 ADD MLOAD DUP2 PUSH1 0x2 ADD SSTORE PUSH1 0x60 DUP3 ADD MLOAD DUP2 PUSH1 0x3 ADD SSTORE PUSH1 0x80 DUP3 ADD MLOAD DUP2 PUSH1 0x4 ADD SSTORE PUSH1 0xA0 DUP3 ADD MLOAD DUP2 PUSH1 0x5 ADD SSTORE POP POP PUSH1 0x6 DUP2 SWAP1 DUP1 PUSH1 0x1 DUP2 SLOAD ADD DUP1 DUP3 SSTORE DUP1 SWAP2 POP POP PUSH1 0x1 SWAP1 SUB SWAP1 PUSH1 0x0 MSTORE PUSH1 0x20 PUSH1 0x0 KECCAK256 SWAP1 PUSH1 0x6 MUL ADD PUSH1 0x0 SWAP1 SWAP2 SWAP1 SWAP2 SWAP1 SWAP2 POP PUSH1 0x0 DUP3 ADD MLOAD DUP2 PUSH1 0x0 ADD PUSH1 0x0 PUSH2 0x100 EXP DUP2 SLOAD DUP2 PUSH1 0x1 PUSH1 0x1 PUSH1 0xA0 SHL SUB MUL NOT AND SWAP1 DUP4 PUSH1 0x1 PUSH1 0x1 PUSH1 0xA0 SHL SUB AND MUL OR SWAP1 SSTORE POP PUSH1 0x20 DUP3 ADD MLOAD DUP2 PUSH1 0x1 ADD PUSH1 0x0 PUSH2 0x100 EXP DUP2 SLOAD DUP2 PUSH1 0x1 PUSH1 0x1 PUSH1 0xA0 SHL SUB MUL NOT AND SWAP1 DUP4 PUSH1 0x1 PUSH1 0x1 PUSH1 0xA0 SHL SUB AND MUL OR SWAP1 SSTORE POP PUSH1 0x40 DUP3 ADD MLOAD DUP2 PUSH1 0x2 ADD SSTORE PUSH1 0x60 DUP3 ADD MLOAD DUP2 PUSH1 0x3 ADD SSTORE PUSH1 0x80 DUP3 ADD MLOAD DUP2 PUSH1 0x4 ADD SSTORE PUSH1 0xA0 DUP3 ADD MLOAD DUP2 PUSH1 0x5 ADD SSTORE POP POP DUP8 PUSH1 0x1 PUSH1 0x1 PUSH1 0xA0 SHL SUB AND CALLER PUSH1 0x1 PUSH1 0x1 PUSH1 0xA0 SHL SUB AND PUSH32 0x355B943140B1C8C99B2758A4D21C8858E602443ED75603E2465689D647ABF154 DUP10 DUP7 DUP9 DUP8 TIMESTAMP PUSH1 0x40 MLOAD PUSH2 0x1D11 SWAP6 SWAP5 SWAP4 SWAP3 SWAP2 SWAP1 SWAP5 DUP6 MSTORE PUSH1 0x20 DUP6 ADD SWAP4 SWAP1 SWAP4 MSTORE PUSH1 0x40 DUP5 ADD SWAP2 SWAP1 SWAP2 MSTORE PUSH1 0x1 PUSH1 0x1 PUSH1 0xA0 SHL SUB AND PUSH1 0x60 DUP4 ADD MSTORE PUSH1 0x80 DUP3 ADD MSTORE PUSH1 0xA0 ADD SWAP1 JUMP JUMPDEST PUSH1 0x40 MLOAD DUP1 SWAP2 SUB SWAP1 LOG3 POP POP POP POP POP PUSH2 0x1414 PUSH1 0x1 PUSH1 0x0 SSTORE JUMP JUMPDEST PUSH2 0x1D30 PUSH2 0x24A0 JUMP JUMPDEST PUSH2 0x10A3 PUSH2 0x295F JUMP JUMPDEST PUSH1 0x1 SLOAD PUSH1 0x0 SWAP1 PUSH1 0x1 PUSH1 0xA8 SHL SWAP1 DIV PUSH1 0xFF AND ISZERO PUSH2 0x1D85 JUMPI PUSH2 0x3E8 PUSH7 0x38D7EA4C68000 PUSH1 0x7 SLOAD PUSH2 0x1D65 SWAP2 SWAP1 PUSH2 0x350F JUMP JUMPDEST PUSH2 0x1D6F SWAP2 SWAP1 PUSH2 0x3526 JUMP JUMPDEST PUSH2 0x1D80 SWAP1 PUSH7 0x470DE4DF820000 PUSH2 0x348F JUMP JUMPDEST SWAP1 POP SWAP1 JUMP JUMPDEST POP PUSH7 0x470DE4DF820000 SWAP1 JUMP JUMPDEST PUSH1 0x6 DUP2 DUP2 SLOAD DUP2 LT PUSH2 0x1DA1 JUMPI PUSH1 0x0 DUP1 REVERT JUMPDEST PUSH1 0x0 SWAP2 DUP3 MSTORE PUSH1 0x20 SWAP1 SWAP2 KECCAK256 PUSH1 0x6 SWAP1 SWAP2 MUL ADD DUP1 SLOAD PUSH1 0x1 DUP3 ADD SLOAD PUSH1 0x2 DUP4 ADD SLOAD PUSH1 0x3 DUP5 ADD SLOAD PUSH1 0x4 DUP6 ADD SLOAD PUSH1 0x5 SWAP1 SWAP6 ADD SLOAD PUSH1 0x1 PUSH1 0x1 PUSH1 0xA0 SHL SUB SWAP5 DUP6 AND SWAP7 POP SWAP4 SWAP1 SWAP3 AND SWAP4 SWAP1 SWAP3 DUP7 JUMP JUMPDEST PUSH1 0x3 DUP2 DUP2 SLOAD DUP2 LT PUSH2 0x1DF4 JUMPI PUSH1 0x0 DUP1 REVERT JUMPDEST PUSH1 0x0 SWAP2 DUP3 MSTORE PUSH1 0x20 SWAP1 SWAP2 KECCAK256 ADD SLOAD PUSH1 0x1 PUSH1 0x1 PUSH1 0xA0 SHL SUB AND SWAP1 POP DUP2 JUMP JUMPDEST PUSH1 0x1 PUSH1 0x1 PUSH1 0xA0 SHL SUB DUP3 AND PUSH1 0x0 SWAP1 DUP2 MSTORE PUSH1 0x2 PUSH1 0x20 DUP2 DUP2 MSTORE PUSH1 0x40 DUP1 DUP5 KECCAK256 DUP2 MLOAD PUSH1 0xE0 DUP2 ADD DUP4 MSTORE DUP2 SLOAD PUSH1 0xFF DUP1 DUP3 AND ISZERO ISZERO DUP4 MSTORE PUSH2 0x100 SWAP1 SWAP2 DIV AND SWAP4 DUP2 ADD SWAP4 SWAP1 SWAP4 MSTORE PUSH1 0x1 DUP2 ADD SLOAD SWAP2 DUP4 ADD SWAP2 SWAP1 SWAP2 MSTORE SWAP2 DUP3 ADD SLOAD PUSH1 0x60 DUP3 ADD MSTORE PUSH1 0x3 DUP3 ADD SLOAD PUSH1 0x80 DUP3 ADD MSTORE PUSH1 0x4 DUP3 ADD DUP1 SLOAD DUP5 SWAP4 DUP5 SWAP4 SWAP3 SWAP1 SWAP2 PUSH1 0xA0 DUP5 ADD SWAP2 SWAP1 PUSH2 0x1E85 SWAP1 PUSH2 0x3548 JUMP JUMPDEST DUP1 PUSH1 0x1F ADD PUSH1 0x20 DUP1 SWAP2 DIV MUL PUSH1 0x20 ADD PUSH1 0x40 MLOAD SWAP1 DUP2 ADD PUSH1 0x40 MSTORE DUP1 SWAP3 SWAP2 SWAP1 DUP2 DUP2 MSTORE PUSH1 0x20 ADD DUP3 DUP1 SLOAD PUSH2 0x1EB1 SWAP1 PUSH2 0x3548 JUMP JUMPDEST DUP1 ISZERO PUSH2 0x1EFE JUMPI DUP1 PUSH1 0x1F LT PUSH2 0x1ED3 JUMPI PUSH2 0x100 DUP1 DUP4 SLOAD DIV MUL DUP4 MSTORE SWAP2 PUSH1 0x20 ADD SWAP2 PUSH2 0x1EFE JUMP JUMPDEST DUP3 ADD SWAP2 SWAP1 PUSH1 0x0 MSTORE PUSH1 0x20 PUSH1 0x0 KECCAK256 SWAP1 JUMPDEST DUP2 SLOAD DUP2 MSTORE SWAP1 PUSH1 0x1 ADD SWAP1 PUSH1 0x20 ADD DUP1 DUP4 GT PUSH2 0x1EE1 JUMPI DUP3 SWAP1 SUB PUSH1 0x1F AND DUP3 ADD SWAP2 JUMPDEST POP POP POP SWAP2 DUP4 MSTORE POP POP PUSH1 0x5 SWAP2 SWAP1 SWAP2 ADD SLOAD PUSH1 0x1 PUSH1 0x1 PUSH1 0xA0 SHL SUB SWAP1 DUP2 AND PUSH1 0x20 SWAP1 SWAP3 ADD SWAP2 SWAP1 SWAP2 MSTORE SWAP1 SWAP2 POP DUP6 AND PUSH2 0x1F54 JUMPI PUSH8 0xDE0B6B3A7640000 DUP2 PUSH1 0x40 ADD MLOAD DUP6 PUSH2 0x1F43 SWAP2 SWAP1 PUSH2 0x350F JUMP JUMPDEST PUSH2 0x1F4D SWAP2 SWAP1 PUSH2 0x3526 JUMP JUMPDEST SWAP3 POP PUSH2 0x1FA5 JUMP JUMPDEST PUSH1 0x0 DUP2 PUSH1 0x20 ADD MLOAD PUSH1 0x12 PUSH2 0x1F67 SWAP2 SWAP1 PUSH2 0x36D2 JUMP JUMPDEST PUSH2 0x1F72 SWAP1 PUSH1 0xA PUSH2 0x37C7 JUMP JUMPDEST PUSH2 0x1F7C SWAP1 DUP7 PUSH2 0x350F JUMP JUMPDEST SWAP1 POP PUSH8 0xDE0B6B3A7640000 DUP3 PUSH1 0x40 ADD MLOAD DUP3 PUSH2 0x1F97 SWAP2 SWAP1 PUSH2 0x350F JUMP JUMPDEST PUSH2 0x1FA1 SWAP2 SWAP1 PUSH2 0x3526 JUMP JUMPDEST SWAP4 POP POP JUMPDEST PUSH1 0x1 SLOAD PUSH1 0x1 PUSH1 0xA8 SHL SWAP1 DIV PUSH1 0xFF AND ISZERO PUSH2 0x1FCB JUMPI PUSH2 0x1FC0 DUP4 PUSH2 0x1419 JUMP JUMPDEST POP SWAP1 SWAP3 POP PUSH2 0x1FF2 SWAP1 POP JUMP JUMPDEST PUSH7 0x470DE4DF820000 PUSH2 0x1FE5 DUP5 PUSH8 0xDE0B6B3A7640000 PUSH2 0x350F JUMP JUMPDEST PUSH2 0x1FEF SWAP2 SWAP1 PUSH2 0x3526 JUMP JUMPDEST SWAP2 POP JUMPDEST POP JUMPDEST SWAP3 POP SWAP3 SWAP1 POP JUMP JUMPDEST PUSH1 0x2 PUSH1 0x20 DUP2 SWAP1 MSTORE PUSH1 0x0 SWAP2 DUP3 MSTORE PUSH1 0x40 SWAP1 SWAP2 KECCAK256 DUP1 SLOAD PUSH1 0x1 DUP3 ADD SLOAD SWAP3 DUP3 ADD SLOAD PUSH1 0x3 DUP4 ADD SLOAD PUSH1 0x4 DUP5 ADD DUP1 SLOAD PUSH1 0xFF DUP1 DUP7 AND SWAP8 PUSH2 0x100 SWAP1 SWAP7 DIV AND SWAP6 SWAP2 SWAP1 PUSH2 0x203B SWAP1 PUSH2 0x3548 JUMP JUMPDEST DUP1 PUSH1 0x1F ADD PUSH1 0x20 DUP1 SWAP2 DIV MUL PUSH1 0x20 ADD PUSH1 0x40 MLOAD SWAP1 DUP2 ADD PUSH1 0x40 MSTORE DUP1 SWAP3 SWAP2 SWAP1 DUP2 DUP2 MSTORE PUSH1 0x20 ADD DUP3 DUP1 SLOAD PUSH2 0x2067 SWAP1 PUSH2 0x3548 JUMP JUMPDEST DUP1 ISZERO PUSH2 0x20B4 JUMPI DUP1 PUSH1 0x1F LT PUSH2 0x2089 JUMPI PUSH2 0x100 DUP1 DUP4 SLOAD DIV MUL DUP4 MSTORE SWAP2 PUSH1 0x20 ADD SWAP2 PUSH2 0x20B4 JUMP JUMPDEST DUP3 ADD SWAP2 SWAP1 PUSH1 0x0 MSTORE PUSH1 0x20 PUSH1 0x0 KECCAK256 SWAP1 JUMPDEST DUP2 SLOAD DUP2 MSTORE SWAP1 PUSH1 0x1 ADD SWAP1 PUSH1 0x20 ADD DUP1 DUP4 GT PUSH2 0x2097 JUMPI DUP3 SWAP1 SUB PUSH1 0x1F AND DUP3 ADD SWAP2 JUMPDEST POP POP POP PUSH1 0x5 SWAP1 SWAP4 ADD SLOAD SWAP2 SWAP3 POP POP PUSH1 0x1 PUSH1 0x1 PUSH1 0xA0 SHL SUB AND DUP8 JUMP JUMPDEST PUSH2 0x20D5 PUSH2 0x24A0 JUMP JUMPDEST PUSH1 0x1 DUP1 SLOAD DUP3 ISZERO DUP1 ISZERO PUSH1 0x1 PUSH1 0xA8 SHL MUL PUSH1 0xFF PUSH1 0xA8 SHL NOT SWAP1 SWAP3 AND SWAP2 SWAP1 SWAP2 OR SWAP1 SWAP2 SSTORE PUSH2 0x2105 JUMPI PUSH2 0x20FF PUSH2 0x1D38 JUMP JUMPDEST PUSH1 0x12 SSTORE POP JUMP JUMPDEST PUSH7 0x470DE4DF820000 PUSH1 0x12 SSTORE JUMPDEST POP JUMP JUMPDEST PUSH1 0x0 PUSH1 0x1 PUSH1 0x1 PUSH1 0xA0 SHL SUB DUP3 AND PUSH2 0x2135 JUMPI POP POP PUSH1 0x9 SLOAD PUSH1 0x1 PUSH1 0x1 PUSH1 0xA0 SHL SUB AND SWAP1 JUMP JUMPDEST PUSH1 0x1 PUSH1 0x1 PUSH1 0xA0 SHL SUB DUP3 AND PUSH1 0x0 SWAP1 DUP2 MSTORE PUSH1 0x2 PUSH1 0x20 DUP2 DUP2 MSTORE PUSH1 0x40 DUP1 DUP5 KECCAK256 DUP2 MLOAD PUSH1 0xE0 DUP2 ADD DUP4 MSTORE DUP2 SLOAD PUSH1 0xFF DUP1 DUP3 AND ISZERO ISZERO DUP4 MSTORE PUSH2 0x100 SWAP1 SWAP2 DIV AND SWAP4 DUP2 ADD SWAP4 SWAP1 SWAP4 MSTORE PUSH1 0x1 DUP2 ADD SLOAD SWAP2 DUP4 ADD SWAP2 SWAP1 SWAP2 MSTORE SWAP2 DUP3 ADD SLOAD PUSH1 0x60 DUP3 ADD MSTORE PUSH1 0x3 DUP3 ADD SLOAD PUSH1 0x80 DUP3 ADD MSTORE PUSH1 0x4 DUP3 ADD DUP1 SLOAD SWAP2 SWAP3 SWAP2 PUSH1 0xA0 DUP5 ADD SWAP2 SWAP1 PUSH2 0x21A8 SWAP1 PUSH2 0x3548 JUMP JUMPDEST DUP1 PUSH1 0x1F ADD PUSH1 0x20 DUP1 SWAP2 DIV MUL PUSH1 0x20 ADD PUSH1 0x40 MLOAD SWAP1 DUP2 ADD PUSH1 0x40 MSTORE DUP1 SWAP3 SWAP2 SWAP1 DUP2 DUP2 MSTORE PUSH1 0x20 ADD DUP3 DUP1 SLOAD PUSH2 0x21D4 SWAP1 PUSH2 0x3548 JUMP JUMPDEST DUP1 ISZERO PUSH2 0x2221 JUMPI DUP1 PUSH1 0x1F LT PUSH2 0x21F6 JUMPI PUSH2 0x100 DUP1 DUP4 SLOAD DIV MUL DUP4 MSTORE SWAP2 PUSH1 0x20 ADD SWAP2 PUSH2 0x2221 JUMP JUMPDEST DUP3 ADD SWAP2 SWAP1 PUSH1 0x0 MSTORE PUSH1 0x20 PUSH1 0x0 KECCAK256 SWAP1 JUMPDEST DUP2 SLOAD DUP2 MSTORE SWAP1 PUSH1 0x1 ADD SWAP1 PUSH1 0x20 ADD DUP1 DUP4 GT PUSH2 0x2204 JUMPI DUP3 SWAP1 SUB PUSH1 0x1F AND DUP3 ADD SWAP2 JUMPDEST POP POP POP SWAP2 DUP4 MSTORE POP POP PUSH1 0x5 SWAP2 SWAP1 SWAP2 ADD SLOAD PUSH1 0x1 PUSH1 0x1 PUSH1 0xA0 SHL SUB SWAP1 DUP2 AND PUSH1 0x20 SWAP1 SWAP3 ADD SWAP2 SWAP1 SWAP2 MSTORE PUSH1 0xC0 DUP3 ADD MLOAD SWAP2 SWAP3 POP AND ISZERO PUSH2 0x225C JUMPI PUSH1 0xC0 ADD MLOAD SWAP3 SWAP2 POP POP JUMP JUMPDEST POP POP PUSH1 0xD SLOAD PUSH1 0x1 PUSH1 0x1 PUSH1 0xA0 SHL SUB AND SWAP2 SWAP1 POP JUMP JUMPDEST PUSH1 0x60 PUSH1 0x3 DUP1 SLOAD DUP1 PUSH1 0x20 MUL PUSH1 0x20 ADD PUSH1 0x40 MLOAD SWAP1 DUP2 ADD PUSH1 0x40 MSTORE DUP1 SWAP3 SWAP2 SWAP1 DUP2 DUP2 MSTORE PUSH1 0x20 ADD DUP3 DUP1 SLOAD DUP1 ISZERO PUSH2 0x22C7 JUMPI PUSH1 0x20 MUL DUP3 ADD SWAP2 SWAP1 PUSH1 0x0 MSTORE PUSH1 0x20 PUSH1 0x0 KECCAK256 SWAP1 JUMPDEST DUP2 SLOAD PUSH1 0x1 PUSH1 0x1 PUSH1 0xA0 SHL SUB AND DUP2 MSTORE PUSH1 0x1 SWAP1 SWAP2 ADD SWAP1 PUSH1 0x20 ADD DUP1 DUP4 GT PUSH2 0x22A9 JUMPI JUMPDEST POP POP POP POP POP SWAP1 POP SWAP1 JUMP JUMPDEST PUSH2 0x22D9 PUSH2 0x24A0 JUMP JUMPDEST PUSH2 0x22E2 DUP4 PUSH2 0x25A0 JUMP JUMPDEST PUSH2 0x2320 JUMPI PUSH1 0x40 MLOAD PUSH3 0x461BCD PUSH1 0xE5 SHL DUP2 MSTORE PUSH1 0x20 PUSH1 0x4 DUP3 ADD MSTORE PUSH1 0xF PUSH1 0x24 DUP3 ADD MSTORE PUSH15 0x496E76616C6964206E6574776F726B PUSH1 0x88 SHL PUSH1 0x44 DUP3 ADD MSTORE PUSH1 0x64 ADD PUSH2 0x95D JUMP JUMPDEST PUSH1 0x1 PUSH1 0x1 PUSH1 0xA0 SHL SUB DUP2 AND PUSH2 0x2369 JUMPI PUSH1 0x40 MLOAD PUSH3 0x461BCD PUSH1 0xE5 SHL DUP2 MSTORE PUSH1 0x20 PUSH1 0x4 DUP3 ADD MSTORE PUSH1 0x10 PUSH1 0x24 DUP3 ADD MSTORE PUSH16 0x496E76616C6964207472656173757279 PUSH1 0x80 SHL PUSH1 0x44 DUP3 ADD MSTORE PUSH1 0x64 ADD PUSH2 0x95D JUMP JUMPDEST DUP1 PUSH1 0x11 DUP5 PUSH1 0x40 MLOAD PUSH2 0x237A SWAP2 SWAP1 PUSH2 0x345D JUMP JUMPDEST SWAP1 DUP2 MSTORE PUSH1 0x20 ADD PUSH1 0x40 MLOAD DUP1 SWAP2 SUB SWAP1 KECCAK256 DUP4 PUSH1 0x40 MLOAD PUSH2 0x2396 SWAP2 SWAP1 PUSH2 0x345D JUMP JUMPDEST SWAP1 DUP2 MSTORE PUSH1 0x40 MLOAD SWAP1 DUP2 SWAP1 SUB PUSH1 0x20 ADD SWAP1 KECCAK256 DUP1 SLOAD PUSH1 0x1 PUSH1 0x1 PUSH1 0xA0 SHL SUB SWAP3 SWAP1 SWAP3 AND PUSH1 0x1 PUSH1 0x1 PUSH1 0xA0 SHL SUB NOT SWAP1 SWAP3 AND SWAP2 SWAP1 SWAP2 OR SWAP1 SSTORE POP POP POP JUMP JUMPDEST PUSH1 0x5 PUSH1 0x20 MSTORE DUP2 PUSH1 0x0 MSTORE PUSH1 0x40 PUSH1 0x0 KECCAK256 DUP2 DUP2 SLOAD DUP2 LT PUSH2 0x23E6 JUMPI PUSH1 0x0 DUP1 REVERT JUMPDEST PUSH1 0x0 SWAP2 DUP3 MSTORE PUSH1 0x20 SWAP1 SWAP2 KECCAK256 PUSH1 0x6 SWAP1 SWAP2 MUL ADD DUP1 SLOAD PUSH1 0x1 DUP3 ADD SLOAD PUSH1 0x2 DUP4 ADD SLOAD PUSH1 0x3 DUP5 ADD SLOAD PUSH1 0x4 DUP6 ADD SLOAD PUSH1 0x5 SWAP1 SWAP6 ADD SLOAD PUSH1 0x1 PUSH1 0x1 PUSH1 0xA0 SHL SUB SWAP5 DUP6 AND SWAP8 POP SWAP3 SWAP1 SWAP4 AND SWAP5 POP SWAP3 SWAP1 DUP7 JUMP JUMPDEST PUSH2 0x2432 PUSH2 0x24A0 JUMP JUMPDEST PUSH1 0x1 PUSH1 0x1 PUSH1 0xA0 SHL SUB DUP2 AND PUSH2 0x2497 JUMPI PUSH1 0x40 MLOAD PUSH3 0x461BCD PUSH1 0xE5 SHL DUP2 MSTORE PUSH1 0x20 PUSH1 0x4 DUP3 ADD MSTORE PUSH1 0x26 PUSH1 0x24 DUP3 ADD MSTORE PUSH32 0x4F776E61626C653A206E6577206F776E657220697320746865207A65726F2061 PUSH1 0x44 DUP3 ADD MSTORE PUSH6 0x646472657373 PUSH1 0xD0 SHL PUSH1 0x64 DUP3 ADD MSTORE PUSH1 0x84 ADD PUSH2 0x95D JUMP JUMPDEST PUSH2 0x2111 DUP2 PUSH2 0x28D5 JUMP JUMPDEST PUSH1 0x1 SLOAD PUSH1 0x1 PUSH1 0x1 PUSH1 0xA0 SHL SUB AND CALLER EQ PUSH2 0x10A3 JUMPI PUSH1 0x40 MLOAD PUSH3 0x461BCD PUSH1 0xE5 SHL DUP2 MSTORE PUSH1 0x20 PUSH1 0x4 DUP3 ADD DUP2 SWAP1 MSTORE PUSH1 0x24 DUP3 ADD MSTORE PUSH32 0x4F776E61626C653A2063616C6C6572206973206E6F7420746865206F776E6572 PUSH1 0x44 DUP3 ADD MSTORE PUSH1 0x64 ADD PUSH2 0x95D JUMP JUMPDEST PUSH1 0x2 PUSH1 0x0 SLOAD SUB PUSH2 0x254C JUMPI PUSH1 0x40 MLOAD PUSH3 0x461BCD PUSH1 0xE5 SHL DUP2 MSTORE PUSH1 0x20 PUSH1 0x4 DUP3 ADD MSTORE PUSH1 0x1F PUSH1 0x24 DUP3 ADD MSTORE PUSH32 0x5265656E7472616E637947756172643A207265656E7472616E742063616C6C00 PUSH1 0x44 DUP3 ADD MSTORE PUSH1 0x64 ADD PUSH2 0x95D JUMP JUMPDEST PUSH1 0x2 PUSH1 0x0 SSTORE JUMP JUMPDEST PUSH1 0x1 SLOAD PUSH1 0x1 PUSH1 0xA0 SHL SWAP1 DIV PUSH1 0xFF AND ISZERO PUSH2 0x10A3 JUMPI PUSH1 0x40 MLOAD PUSH3 0x461BCD PUSH1 0xE5 SHL DUP2 MSTORE PUSH1 0x20 PUSH1 0x4 DUP3 ADD MSTORE PUSH1 0x10 PUSH1 0x24 DUP3 ADD MSTORE PUSH16 0x14185D5CD8589B194E881C185D5CD959 PUSH1 0x82 SHL PUSH1 0x44 DUP3 ADD MSTORE PUSH1 0x64 ADD PUSH2 0x95D JUMP JUMPDEST PUSH1 0x40 DUP1 MLOAD DUP1 DUP3 ADD SWAP1 SWAP2 MSTORE PUSH1 0x8 DUP2 MSTORE PUSH8 0x657468657265756D PUSH1 0xC0 SHL PUSH1 0x20 SWAP2 DUP3 ADD MSTORE DUP2 MLOAD SWAP1 DUP3 ADD KECCAK256 PUSH1 0x0 SWAP1 PUSH32 0x541111248B45B7A8DC3F5579F630E74CB01456EA6AC067D3F4D793245A255155 EQ DUP1 PUSH2 0x2635 JUMPI POP PUSH1 0x40 DUP1 MLOAD DUP1 DUP3 ADD SWAP1 SWAP2 MSTORE PUSH1 0x3 DUP2 MSTORE PUSH3 0x627363 PUSH1 0xE8 SHL PUSH1 0x20 SWAP2 DUP3 ADD MSTORE DUP3 MLOAD SWAP1 DUP4 ADD KECCAK256 PUSH32 0x83D57B2915DAE13AFB3BDEAC7357363ED5E6545FB90A89F09722F0F95F9EFA91 EQ JUMPDEST DUP1 PUSH2 0x9D4 JUMPI POP POP PUSH1 0x40 DUP1 MLOAD DUP1 DUP3 ADD SWAP1 SWAP2 MSTORE PUSH1 0x7 DUP2 MSTORE PUSH7 0x3837B63CB3B7B7 PUSH1 0xC9 SHL PUSH1 0x20 SWAP2 DUP3 ADD MSTORE DUP2 MLOAD SWAP2 ADD KECCAK256 PUSH32 0xAC63FA1FE369E75C38D62F0F4D465B48B3CD5159F0FB416332899402031D1408 EQ SWAP1 JUMP JUMPDEST PUSH1 0x0 DUP1 PUSH1 0x0 PUSH2 0x2694 DUP6 DUP6 PUSH2 0x29A2 JUMP JUMPDEST SWAP2 POP SWAP2 POP PUSH2 0x26A1 DUP2 PUSH2 0x29E4 JUMP JUMPDEST POP SWAP4 SWAP3 POP POP POP JUMP JUMPDEST PUSH1 0x1 PUSH1 0x1 PUSH1 0xA0 SHL SUB DUP3 AND PUSH2 0x26F3 JUMPI PUSH1 0x40 MLOAD PUSH3 0x461BCD PUSH1 0xE5 SHL DUP2 MSTORE PUSH1 0x20 PUSH1 0x4 DUP3 ADD MSTORE PUSH1 0x11 PUSH1 0x24 DUP3 ADD MSTORE PUSH17 0x125B9D985B1A59081C9958DA5C1A595B9D PUSH1 0x7A SHL PUSH1 0x44 DUP3 ADD MSTORE PUSH1 0x64 ADD PUSH2 0x95D JUMP JUMPDEST PUSH1 0x0 DUP2 GT PUSH2 0x2734 JUMPI PUSH1 0x40 MLOAD PUSH3 0x461BCD PUSH1 0xE5 SHL DUP2 MSTORE PUSH1 0x20 PUSH1 0x4 DUP3 ADD MSTORE PUSH1 0xE PUSH1 0x24 DUP3 ADD MSTORE PUSH14 0x125B9D985B1A5908185B5BDD5B9D PUSH1 0x92 SHL PUSH1 0x44 DUP3 ADD MSTORE PUSH1 0x64 ADD PUSH2 0x95D JUMP JUMPDEST DUP1 SELFBALANCE LT ISZERO PUSH2 0x2784 JUMPI PUSH1 0x40 MLOAD PUSH3 0x461BCD PUSH1 0xE5 SHL DUP2 MSTORE PUSH1 0x20 PUSH1 0x4 DUP3 ADD MSTORE PUSH1 0x18 PUSH1 0x24 DUP3 ADD MSTORE PUSH32 0x496E73756666696369656E742042414B2062616C616E63650000000000000000 PUSH1 0x44 DUP3 ADD MSTORE PUSH1 0x64 ADD PUSH2 0x95D JUMP JUMPDEST PUSH1 0x0 DUP3 PUSH1 0x1 PUSH1 0x1 PUSH1 0xA0 SHL SUB AND DUP3 PUSH1 0x40 MLOAD PUSH1 0x0 PUSH1 0x40 MLOAD DUP1 DUP4 SUB DUP2 DUP6 DUP8 GAS CALL SWAP3 POP POP POP RETURNDATASIZE DUP1 PUSH1 0x0 DUP2 EQ PUSH2 0x27D1 JUMPI PUSH1 0x40 MLOAD SWAP2 POP PUSH1 0x1F NOT PUSH1 0x3F RETURNDATASIZE ADD AND DUP3 ADD PUSH1 0x40 MSTORE RETURNDATASIZE DUP3 MSTORE RETURNDATASIZE PUSH1 0x0 PUSH1 0x20 DUP5 ADD RETURNDATACOPY PUSH2 0x27D6 JUMP JUMPDEST PUSH1 0x60 SWAP2 POP JUMPDEST POP POP SWAP1 POP DUP1 PUSH2 0x1414 JUMPI PUSH1 0x40 MLOAD PUSH3 0x461BCD PUSH1 0xE5 SHL DUP2 MSTORE PUSH1 0x20 PUSH1 0x4 DUP3 ADD MSTORE PUSH1 0x13 PUSH1 0x24 DUP3 ADD MSTORE PUSH19 0x109052C81D1C985B9CD9995C8819985A5B1959 PUSH1 0x6A SHL PUSH1 0x44 DUP3 ADD MSTORE PUSH1 0x64 ADD PUSH2 0x95D JUMP JUMPDEST PUSH2 0x2825 PUSH2 0x2B2E JUMP JUMPDEST PUSH1 0x1 DUP1 SLOAD PUSH1 0xFF PUSH1 0xA0 SHL NOT AND SWAP1 SSTORE PUSH32 0x5DB9EE0A495BF2E6FF9C91A7834C1BA4FDD244A5E8AA4E537BD38AEAE4B073AA CALLER JUMPDEST PUSH1 0x40 MLOAD PUSH1 0x1 PUSH1 0x1 PUSH1 0xA0 SHL SUB SWAP1 SWAP2 AND DUP2 MSTORE PUSH1 0x20 ADD PUSH1 0x40 MLOAD DUP1 SWAP2 SUB SWAP1 LOG1 JUMP JUMPDEST PUSH1 0x40 MLOAD PUSH1 0x1 PUSH1 0x1 PUSH1 0xA0 SHL SUB DUP4 AND PUSH1 0x24 DUP3 ADD MSTORE PUSH1 0x44 DUP2 ADD DUP3 SWAP1 MSTORE PUSH2 0x1414 SWAP1 DUP5 SWAP1 PUSH4 0xA9059CBB PUSH1 0xE0 SHL SWAP1 PUSH1 0x64 ADD JUMPDEST PUSH1 0x40 DUP1 MLOAD PUSH1 0x1F NOT DUP2 DUP5 SUB ADD DUP2 MSTORE SWAP2 SWAP1 MSTORE PUSH1 0x20 DUP2 ADD DUP1 MLOAD PUSH1 0x1 PUSH1 0x1 PUSH1 0xE0 SHL SUB AND PUSH1 0x1 PUSH1 0x1 PUSH1 0xE0 SHL SUB NOT SWAP1 SWAP4 AND SWAP3 SWAP1 SWAP3 OR SWAP1 SWAP2 MSTORE PUSH2 0x2B7E JUMP JUMPDEST PUSH1 0x1 DUP1 SLOAD PUSH1 0x1 PUSH1 0x1 PUSH1 0xA0 SHL SUB DUP4 DUP2 AND PUSH1 0x1 PUSH1 0x1 PUSH1 0xA0 SHL SUB NOT DUP4 AND DUP2 OR SWAP1 SWAP4 SSTORE PUSH1 0x40 MLOAD SWAP2 AND SWAP2 SWAP1 DUP3 SWAP1 PUSH32 0x8BE0079C531659141344CD1FD0A4F28419497F9722A3DAAFE3B4186F6B6457E0 SWAP1 PUSH1 0x0 SWAP1 LOG3 POP POP JUMP JUMPDEST PUSH1 0x40 MLOAD PUSH1 0x1 PUSH1 0x1 PUSH1 0xA0 SHL SUB DUP1 DUP6 AND PUSH1 0x24 DUP4 ADD MSTORE DUP4 AND PUSH1 0x44 DUP3 ADD MSTORE PUSH1 0x64 DUP2 ADD DUP3 SWAP1 MSTORE PUSH2 0x13FA SWAP1 DUP6 SWAP1 PUSH4 0x23B872DD PUSH1 0xE0 SHL SWAP1 PUSH1 0x84 ADD PUSH2 0x289E JUMP JUMPDEST PUSH2 0x2967 PUSH2 0x2553 JUMP JUMPDEST PUSH1 0x1 DUP1 SLOAD PUSH1 0xFF PUSH1 0xA0 SHL NOT AND PUSH1 0x1 PUSH1 0xA0 SHL OR SWAP1 SSTORE PUSH32 0x62E78CEA01BEE320CD4E420270B5EA74000D11B0C9F74754EBDBFC544B05A258 PUSH2 0x2855 CALLER SWAP1 JUMP JUMPDEST PUSH1 0x0 DUP1 DUP3 MLOAD PUSH1 0x41 SUB PUSH2 0x29D8 JUMPI PUSH1 0x20 DUP4 ADD MLOAD PUSH1 0x40 DUP5 ADD MLOAD PUSH1 0x60 DUP6 ADD MLOAD PUSH1 0x0 BYTE PUSH2 0x29CC DUP8 DUP3 DUP6 DUP6 PUSH2 0x2C53 JUMP JUMPDEST SWAP5 POP SWAP5 POP POP POP POP PUSH2 0x1FF4 JUMP JUMPDEST POP PUSH1 0x0 SWAP1 POP PUSH1 0x2 PUSH2 0x1FF4 JUMP JUMPDEST PUSH1 0x0 DUP2 PUSH1 0x4 DUP2 GT ISZERO PUSH2 0x29F8 JUMPI PUSH2 0x29F8 PUSH2 0x37D6 JUMP JUMPDEST SUB PUSH2 0x2A00 JUMPI POP JUMP JUMPDEST PUSH1 0x1 DUP2 PUSH1 0x4 DUP2 GT ISZERO PUSH2 0x2A14 JUMPI PUSH2 0x2A14 PUSH2 0x37D6 JUMP JUMPDEST SUB PUSH2 0x2A61 JUMPI PUSH1 0x40 MLOAD PUSH3 0x461BCD PUSH1 0xE5 SHL DUP2 MSTORE PUSH1 0x20 PUSH1 0x4 DUP3 ADD MSTORE PUSH1 0x18 PUSH1 0x24 DUP3 ADD MSTORE PUSH32 0x45434453413A20696E76616C6964207369676E61747572650000000000000000 PUSH1 0x44 DUP3 ADD MSTORE PUSH1 0x64 ADD PUSH2 0x95D JUMP JUMPDEST PUSH1 0x2 DUP2 PUSH1 0x4 DUP2 GT ISZERO PUSH2 0x2A75 JUMPI PUSH2 0x2A75 PUSH2 0x37D6 JUMP JUMPDEST SUB PUSH2 0x2AC2 JUMPI PUSH1 0x40 MLOAD PUSH3 0x461BCD PUSH1 0xE5 SHL DUP2 MSTORE PUSH1 0x20 PUSH1 0x4 DUP3 ADD MSTORE PUSH1 0x1F PUSH1 0x24 DUP3 ADD MSTORE PUSH32 0x45434453413A20696E76616C6964207369676E6174757265206C656E67746800 PUSH1 0x44 DUP3 ADD MSTORE PUSH1 0x64 ADD PUSH2 0x95D JUMP JUMPDEST PUSH1 0x3 DUP2 PUSH1 0x4 DUP2 GT ISZERO PUSH2 0x2AD6 JUMPI PUSH2 0x2AD6 PUSH2 0x37D6 JUMP JUMPDEST SUB PUSH2 0x2111 JUMPI PUSH1 0x40 MLOAD PUSH3 0x461BCD PUSH1 0xE5 SHL DUP2 MSTORE PUSH1 0x20 PUSH1 0x4 DUP3 ADD MSTORE PUSH1 0x22 PUSH1 0x24 DUP3 ADD MSTORE PUSH32 0x45434453413A20696E76616C6964207369676E6174757265202773272076616C PUSH1 0x44 DUP3 ADD MSTORE PUSH2 0x7565 PUSH1 0xF0 SHL PUSH1 0x64 DUP3 ADD MSTORE PUSH1 0x84 ADD PUSH2 0x95D JUMP JUMPDEST PUSH1 0x1 SLOAD PUSH1 0x1 PUSH1 0xA0 SHL SWAP1 DIV PUSH1 0xFF AND PUSH2 0x10A3 JUMPI PUSH1 0x40 MLOAD PUSH3 0x461BCD PUSH1 0xE5 SHL DUP2 MSTORE PUSH1 0x20 PUSH1 0x4 DUP3 ADD MSTORE PUSH1 0x14 PUSH1 0x24 DUP3 ADD MSTORE PUSH20 0x14185D5CD8589B194E881B9BDD081C185D5CD959 PUSH1 0x62 SHL PUSH1 0x44 DUP3 ADD MSTORE PUSH1 0x64 ADD PUSH2 0x95D JUMP JUMPDEST PUSH1 0x0 PUSH2 0x2BD3 DUP3 PUSH1 0x40 MLOAD DUP1 PUSH1 0x40 ADD PUSH1 0x40 MSTORE DUP1 PUSH1 0x20 DUP2 MSTORE PUSH1 0x20 ADD PUSH32 0x5361666545524332303A206C6F772D6C6576656C2063616C6C206661696C6564 DUP2 MSTORE POP DUP6 PUSH1 0x1 PUSH1 0x1 PUSH1 0xA0 SHL SUB AND PUSH2 0x2D17 SWAP1 SWAP3 SWAP2 SWAP1 PUSH4 0xFFFFFFFF AND JUMP JUMPDEST SWAP1 POP DUP1 MLOAD PUSH1 0x0 EQ DUP1 PUSH2 0x2BF4 JUMPI POP DUP1 DUP1 PUSH1 0x20 ADD SWAP1 MLOAD DUP2 ADD SWAP1 PUSH2 0x2BF4 SWAP2 SWAP1 PUSH2 0x37EC JUMP JUMPDEST PUSH2 0x1414 JUMPI PUSH1 0x40 MLOAD PUSH3 0x461BCD PUSH1 0xE5 SHL DUP2 MSTORE PUSH1 0x20 PUSH1 0x4 DUP3 ADD MSTORE PUSH1 0x2A PUSH1 0x24 DUP3 ADD MSTORE PUSH32 0x5361666545524332303A204552433230206F7065726174696F6E20646964206E PUSH1 0x44 DUP3 ADD MSTORE PUSH10 0x1BDD081CDD58D8D95959 PUSH1 0xB2 SHL PUSH1 0x64 DUP3 ADD MSTORE PUSH1 0x84 ADD PUSH2 0x95D JUMP JUMPDEST PUSH1 0x0 DUP1 PUSH32 0x7FFFFFFFFFFFFFFFFFFFFFFFFFFFFFFF5D576E7357A4501DDFE92F46681B20A0 DUP4 GT ISZERO PUSH2 0x2C8A JUMPI POP PUSH1 0x0 SWAP1 POP PUSH1 0x3 PUSH2 0x2D0E JUMP JUMPDEST PUSH1 0x40 DUP1 MLOAD PUSH1 0x0 DUP1 DUP3 MSTORE PUSH1 0x20 DUP3 ADD DUP1 DUP5 MSTORE DUP10 SWAP1 MSTORE PUSH1 0xFF DUP9 AND SWAP3 DUP3 ADD SWAP3 SWAP1 SWAP3 MSTORE PUSH1 0x60 DUP2 ADD DUP7 SWAP1 MSTORE PUSH1 0x80 DUP2 ADD DUP6 SWAP1 MSTORE PUSH1 0x1 SWAP1 PUSH1 0xA0 ADD PUSH1 0x20 PUSH1 0x40 MLOAD PUSH1 0x20 DUP2 SUB SWAP1 DUP1 DUP5 SUB SWAP1 DUP6 GAS STATICCALL ISZERO DUP1 ISZERO PUSH2 0x2CDE JUMPI RETURNDATASIZE PUSH1 0x0 DUP1 RETURNDATACOPY RETURNDATASIZE PUSH1 0x0 REVERT JUMPDEST POP POP PUSH1 0x40 MLOAD PUSH1 0x1F NOT ADD MLOAD SWAP2 POP POP PUSH1 0x1 PUSH1 0x1 PUSH1 0xA0 SHL SUB DUP2 AND PUSH2 0x2D07 JUMPI PUSH1 0x0 PUSH1 0x1 SWAP3 POP SWAP3 POP POP PUSH2 0x2D0E JUMP JUMPDEST SWAP2 POP PUSH1 0x0 SWAP1 POP JUMPDEST SWAP5 POP SWAP5 SWAP3 POP POP POP JUMP JUMPDEST PUSH1 0x60 PUSH2 0x2D26 DUP5 DUP5 PUSH1 0x0 DUP6 PUSH2 0x2D2E JUMP JUMPDEST SWAP5 SWAP4 POP POP POP POP JUMP JUMPDEST PUSH1 0x60 DUP3 SELFBALANCE LT ISZERO PUSH2 0x2D8F JUMPI PUSH1 0x40 MLOAD PUSH3 0x461BCD PUSH1 0xE5 SHL DUP2 MSTORE PUSH1 0x20 PUSH1 0x4 DUP3 ADD MSTORE PUSH1 0x26 PUSH1 0x24 DUP3 ADD MSTORE PUSH32 0x416464726573733A20696E73756666696369656E742062616C616E636520666F PUSH1 0x44 DUP3 ADD MSTORE PUSH6 0x1C8818D85B1B PUSH1 0xD2 SHL PUSH1 0x64 DUP3 ADD MSTORE PUSH1 0x84 ADD PUSH2 0x95D JUMP JUMPDEST PUSH1 0x0 DUP1 DUP7 PUSH1 0x1 PUSH1 0x1 PUSH1 0xA0 SHL SUB AND DUP6 DUP8 PUSH1 0x40 MLOAD PUSH2 0x2DAB SWAP2 SWAP1 PUSH2 0x345D JUMP JUMPDEST PUSH1 0x0 PUSH1 0x40 MLOAD DUP1 DUP4 SUB DUP2 DUP6 DUP8 GAS CALL SWAP3 POP POP POP RETURNDATASIZE DUP1 PUSH1 0x0 DUP2 EQ PUSH2 0x2DE8 JUMPI PUSH1 0x40 MLOAD SWAP2 POP PUSH1 0x1F NOT PUSH1 0x3F RETURNDATASIZE ADD AND DUP3 ADD PUSH1 0x40 MSTORE RETURNDATASIZE DUP3 MSTORE RETURNDATASIZE PUSH1 0x0 PUSH1 0x20 DUP5 ADD RETURNDATACOPY PUSH2 0x2DED JUMP JUMPDEST PUSH1 0x60 SWAP2 POP JUMPDEST POP SWAP2 POP SWAP2 POP PUSH2 0x2DFE DUP8 DUP4 DUP4 DUP8 PUSH2 0x2E09 JUMP JUMPDEST SWAP8 SWAP7 POP POP POP POP POP POP POP JUMP JUMPDEST PUSH1 0x60 DUP4 ISZERO PUSH2 0x2E78 JUMPI DUP3 MLOAD PUSH1 0x0 SUB PUSH2 0x2E71 JUMPI PUSH1 0x1 PUSH1 0x1 PUSH1 0xA0 SHL SUB DUP6 AND EXTCODESIZE PUSH2 0x2E71 JUMPI PUSH1 0x40 MLOAD PUSH3 0x461BCD PUSH1 0xE5 SHL DUP2 MSTORE PUSH1 0x20 PUSH1 0x4 DUP3 ADD MSTORE PUSH1 0x1D PUSH1 0x24 DUP3 ADD MSTORE PUSH32 0x416464726573733A2063616C6C20746F206E6F6E2D636F6E7472616374000000 PUSH1 0x44 DUP3 ADD MSTORE PUSH1 0x64 ADD PUSH2 0x95D JUMP JUMPDEST POP DUP2 PUSH2 0x2D26 JUMP JUMPDEST PUSH2 0x2D26 DUP4 DUP4 DUP2 MLOAD ISZERO PUSH2 0x2E8D JUMPI DUP2 MLOAD DUP1 DUP4 PUSH1 0x20 ADD REVERT JUMPDEST DUP1 PUSH1 0x40 MLOAD PUSH3 0x461BCD PUSH1 0xE5 SHL DUP2 MSTORE PUSH1 0x4 ADD PUSH2 0x95D SWAP2 SWAP1 PUSH2 0x3809 JUMP JUMPDEST DUP1 CALLDATALOAD PUSH1 0x1 PUSH1 0x1 PUSH1 0xA0 SHL SUB DUP2 AND DUP2 EQ PUSH2 0x2EBE JUMPI PUSH1 0x0 DUP1 REVERT JUMPDEST SWAP2 SWAP1 POP JUMP JUMPDEST PUSH1 0x0 PUSH1 0x20 DUP3 DUP5 SUB SLT ISZERO PUSH2 0x2ED5 JUMPI PUSH1 0x0 DUP1 REVERT JUMPDEST PUSH2 0x2EDE DUP3 PUSH2 0x2EA7 JUMP JUMPDEST SWAP4 SWAP3 POP POP POP JUMP JUMPDEST PUSH4 0x4E487B71 PUSH1 0xE0 SHL PUSH1 0x0 MSTORE PUSH1 0x41 PUSH1 0x4 MSTORE PUSH1 0x24 PUSH1 0x0 REVERT JUMPDEST PUSH1 0x40 MLOAD PUSH1 0xE0 DUP2 ADD PUSH8 0xFFFFFFFFFFFFFFFF DUP2 GT DUP3 DUP3 LT OR ISZERO PUSH2 0x2F1E JUMPI PUSH2 0x2F1E PUSH2 0x2EE5 JUMP JUMPDEST PUSH1 0x40 MSTORE SWAP1 JUMP JUMPDEST PUSH1 0x0 DUP3 PUSH1 0x1F DUP4 ADD SLT PUSH2 0x2F35 JUMPI PUSH1 0x0 DUP1 REVERT JUMPDEST DUP2 CALLDATALOAD PUSH8 0xFFFFFFFFFFFFFFFF DUP1 DUP3 GT ISZERO PUSH2 0x2F50 JUMPI PUSH2 0x2F50 PUSH2 0x2EE5 JUMP JUMPDEST PUSH1 0x40 MLOAD PUSH1 0x1F DUP4 ADD PUSH1 0x1F NOT SWAP1 DUP2 AND PUSH1 0x3F ADD AND DUP2 ADD SWAP1 DUP3 DUP3 GT DUP2 DUP4 LT OR ISZERO PUSH2 0x2F78 JUMPI PUSH2 0x2F78 PUSH2 0x2EE5 JUMP JUMPDEST DUP2 PUSH1 0x40 MSTORE DUP4 DUP2 MSTORE DUP7 PUSH1 0x20 DUP6 DUP9 ADD ADD GT ISZERO PUSH2 0x2F91 JUMPI PUSH1 0x0 DUP1 REVERT JUMPDEST DUP4 PUSH1 0x20 DUP8 ADD PUSH1 0x20 DUP4 ADD CALLDATACOPY PUSH1 0x0 PUSH1 0x20 DUP6 DUP4 ADD ADD MSTORE DUP1 SWAP5 POP POP POP POP POP SWAP3 SWAP2 POP POP JUMP JUMPDEST PUSH1 0x0 DUP1 PUSH1 0x40 DUP4 DUP6 SUB SLT ISZERO PUSH2 0x2FC4 JUMPI PUSH1 0x0 DUP1 REVERT JUMPDEST DUP3 CALLDATALOAD PUSH8 0xFFFFFFFFFFFFFFFF DUP1 DUP3 GT ISZERO PUSH2 0x2FDC JUMPI PUSH1 0x0 DUP1 REVERT JUMPDEST PUSH2 0x2FE8 DUP7 DUP4 DUP8 ADD PUSH2 0x2F24 JUMP JUMPDEST SWAP4 POP PUSH1 0x20 DUP6 ADD CALLDATALOAD SWAP2 POP DUP1 DUP3 GT ISZERO PUSH2 0x2FFE JUMPI PUSH1 0x0 DUP1 REVERT JUMPDEST POP PUSH2 0x1FEF DUP6 DUP3 DUP7 ADD PUSH2 0x2F24 JUMP JUMPDEST PUSH1 0x0 DUP1 PUSH1 0x40 DUP4 DUP6 SUB SLT ISZERO PUSH2 0x301E JUMPI PUSH1 0x0 DUP1 REVERT JUMPDEST PUSH2 0x3027 DUP4 PUSH2 0x2EA7 JUMP JUMPDEST SWAP2 POP PUSH1 0x20 DUP4 ADD CALLDATALOAD PUSH8 0xFFFFFFFFFFFFFFFF DUP1 DUP3 GT ISZERO PUSH2 0x3044 JUMPI PUSH1 0x0 DUP1 REVERT JUMPDEST SWAP1 DUP5 ADD SWAP1 PUSH1 0xE0 DUP3 DUP8 SUB SLT ISZERO PUSH2 0x3058 JUMPI PUSH1 0x0 DUP1 REVERT JUMPDEST PUSH2 0x3060 PUSH2 0x2EFB JUMP JUMPDEST DUP3 CALLDATALOAD DUP2 MSTORE PUSH1 0x20 DUP4 ADD CALLDATALOAD DUP3 DUP2 GT ISZERO PUSH2 0x3076 JUMPI PUSH1 0x0 DUP1 REVERT JUMPDEST PUSH2 0x3082 DUP9 DUP3 DUP7 ADD PUSH2 0x2F24 JUMP JUMPDEST PUSH1 0x20 DUP4 ADD MSTORE POP PUSH1 0x40 DUP4 ADD CALLDATALOAD DUP3 DUP2 GT ISZERO PUSH2 0x309A JUMPI PUSH1 0x0 DUP1 REVERT JUMPDEST PUSH2 0x30A6 DUP9 DUP3 DUP7 ADD PUSH2 0x2F24 JUMP JUMPDEST PUSH1 0x40 DUP4 ADD MSTORE POP PUSH1 0x60 DUP4 ADD CALLDATALOAD PUSH1 0x60 DUP3 ADD MSTORE PUSH1 0x80 DUP4 ADD CALLDATALOAD PUSH1 0x80 DUP3 ADD MSTORE PUSH1 0xA0 DUP4 ADD CALLDATALOAD PUSH1 0xA0 DUP3 ADD MSTORE PUSH1 0xC0 DUP4 ADD CALLDATALOAD DUP3 DUP2 GT ISZERO PUSH2 0x30DC JUMPI PUSH1 0x0 DUP1 REVERT JUMPDEST PUSH2 0x30E8 DUP9 DUP3 DUP7 ADD PUSH2 0x2F24 JUMP JUMPDEST PUSH1 0xC0 DUP4 ADD MSTORE POP DUP1 SWAP4 POP POP POP POP SWAP3 POP SWAP3 SWAP1 POP JUMP JUMPDEST PUSH1 0x20 DUP1 DUP3 MSTORE DUP3 MLOAD DUP3 DUP3 ADD DUP2 SWAP1 MSTORE PUSH1 0x0 SWAP2 SWAP1 PUSH1 0x40 SWAP1 DUP2 DUP6 ADD SWAP1 DUP7 DUP5 ADD DUP6 JUMPDEST DUP3 DUP2 LT ISZERO PUSH2 0x3172 JUMPI DUP2 MLOAD DUP1 MLOAD PUSH1 0x1 PUSH1 0x1 PUSH1 0xA0 SHL SUB SWAP1 DUP2 AND DUP7 MSTORE DUP8 DUP3 ADD MLOAD AND DUP8 DUP7 ADD MSTORE DUP6 DUP2 ADD MLOAD DUP7 DUP7 ADD MSTORE PUSH1 0x60 DUP1 DUP3 ADD MLOAD SWAP1 DUP7 ADD MSTORE PUSH1 0x80 DUP1 DUP3 ADD MLOAD SWAP1 DUP7 ADD MSTORE PUSH1 0xA0 SWAP1 DUP2 ADD MLOAD SWAP1 DUP6 ADD MSTORE PUSH1 0xC0 SWAP1 SWAP4 ADD SWAP3 SWAP1 DUP6 ADD SWAP1 PUSH1 0x1 ADD PUSH2 0x3118 JUMP JUMPDEST POP SWAP2 SWAP8 SWAP7 POP POP POP POP POP POP POP JUMP JUMPDEST DUP1 ISZERO ISZERO DUP2 EQ PUSH2 0x2111 JUMPI PUSH1 0x0 DUP1 REVERT JUMPDEST PUSH1 0x0 DUP1 PUSH1 0x0 DUP1 PUSH1 0x0 DUP1 PUSH1 0x0 DUP1 PUSH2 0x100 DUP10 DUP12 SUB SLT ISZERO PUSH2 0x31AA JUMPI PUSH1 0x0 DUP1 REVERT JUMPDEST PUSH2 0x31B3 DUP10 PUSH2 0x2EA7 JUMP JUMPDEST SWAP8 POP PUSH1 0x20 DUP10 ADD CALLDATALOAD PUSH2 0x31C3 DUP2 PUSH2 0x317F JUMP JUMPDEST SWAP7 POP PUSH1 0x40 DUP10 ADD CALLDATALOAD PUSH1 0xFF DUP2 AND DUP2 EQ PUSH2 0x31D9 JUMPI PUSH1 0x0 DUP1 REVERT JUMPDEST SWAP6 POP PUSH1 0x60 DUP10 ADD CALLDATALOAD SWAP5 POP PUSH1 0x80 DUP10 ADD CALLDATALOAD SWAP4 POP PUSH1 0xA0 DUP10 ADD CALLDATALOAD SWAP3 POP PUSH1 0xC0 DUP10 ADD CALLDATALOAD PUSH8 0xFFFFFFFFFFFFFFFF DUP2 GT ISZERO PUSH2 0x320A JUMPI PUSH1 0x0 DUP1 REVERT JUMPDEST PUSH2 0x3216 DUP12 DUP3 DUP13 ADD PUSH2 0x2F24 JUMP JUMPDEST SWAP3 POP POP PUSH2 0x3225 PUSH1 0xE0 DUP11 ADD PUSH2 0x2EA7 JUMP JUMPDEST SWAP1 POP SWAP3 SWAP6 SWAP9 POP SWAP3 SWAP6 SWAP9 SWAP1 SWAP4 SWAP7 POP JUMP JUMPDEST PUSH1 0x0 DUP1 PUSH1 0x0 PUSH1 0x60 DUP5 DUP7 SUB SLT ISZERO PUSH2 0x3249 JUMPI PUSH1 0x0 DUP1 REVERT JUMPDEST PUSH2 0x3252 DUP5 PUSH2 0x2EA7 JUMP JUMPDEST SWAP3 POP PUSH1 0x20 DUP5 ADD CALLDATALOAD SWAP2 POP PUSH2 0x3267 PUSH1 0x40 DUP6 ADD PUSH2 0x2EA7 JUMP JUMPDEST SWAP1 POP SWAP3 POP SWAP3 POP SWAP3 JUMP JUMPDEST PUSH1 0x0 PUSH1 0x20 DUP3 DUP5 SUB SLT ISZERO PUSH2 0x3282 JUMPI PUSH1 0x0 DUP1 REVERT JUMPDEST POP CALLDATALOAD SWAP2 SWAP1 POP JUMP JUMPDEST PUSH1 0x0 DUP1 PUSH1 0x0 PUSH1 0x60 DUP5 DUP7 SUB SLT ISZERO PUSH2 0x329E JUMPI PUSH1 0x0 DUP1 REVERT JUMPDEST PUSH2 0x32A7 DUP5 PUSH2 0x2EA7 JUMP JUMPDEST SWAP6 PUSH1 0x20 DUP6 ADD CALLDATALOAD SWAP6 POP PUSH1 0x40 SWAP1 SWAP5 ADD CALLDATALOAD SWAP4 SWAP3 POP POP POP JUMP JUMPDEST PUSH1 0x0 DUP1 PUSH1 0x40 DUP4 DUP6 SUB SLT ISZERO PUSH2 0x32CF JUMPI PUSH1 0x0 DUP1 REVERT JUMPDEST PUSH2 0x32D8 DUP4 PUSH2 0x2EA7 JUMP JUMPDEST SWAP5 PUSH1 0x20 SWAP4 SWAP1 SWAP4 ADD CALLDATALOAD SWAP4 POP POP POP JUMP JUMPDEST PUSH1 0x0 JUMPDEST DUP4 DUP2 LT ISZERO PUSH2 0x3301 JUMPI DUP2 DUP2 ADD MLOAD DUP4 DUP3 ADD MSTORE PUSH1 0x20 ADD PUSH2 0x32E9 JUMP JUMPDEST POP POP PUSH1 0x0 SWAP2 ADD MSTORE JUMP JUMPDEST PUSH1 0x0 DUP2 MLOAD DUP1 DUP5 MSTORE PUSH2 0x3322 DUP2 PUSH1 0x20 DUP7 ADD PUSH1 0x20 DUP7 ADD PUSH2 0x32E6 JUMP JUMPDEST PUSH1 0x1F ADD PUSH1 0x1F NOT AND SWAP3 SWAP1 SWAP3 ADD PUSH1 0x20 ADD SWAP3 SWAP2 POP POP JUMP JUMPDEST DUP8 ISZERO ISZERO DUP2 MSTORE PUSH1 0xFF DUP8 AND PUSH1 0x20 DUP3 ADD MSTORE DUP6 PUSH1 0x40 DUP3 ADD MSTORE DUP5 PUSH1 0x60 DUP3 ADD MSTORE DUP4 PUSH1 0x80 DUP3 ADD MSTORE PUSH1 0xE0 PUSH1 0xA0 DUP3 ADD MSTORE PUSH1 0x0 PUSH2 0x336C PUSH1 0xE0 DUP4 ADD DUP6 PUSH2 0x330A JUMP JUMPDEST SWAP1 POP PUSH1 0x1 DUP1 PUSH1 0xA0 SHL SUB DUP4 AND PUSH1 0xC0 DUP4 ADD MSTORE SWAP9 SWAP8 POP POP POP POP POP POP POP POP JUMP JUMPDEST PUSH1 0x0 PUSH1 0x20 DUP3 DUP5 SUB SLT ISZERO PUSH2 0x339A JUMPI PUSH1 0x0 DUP1 REVERT JUMPDEST DUP2 CALLDATALOAD PUSH2 0x2EDE DUP2 PUSH2 0x317F JUMP JUMPDEST PUSH1 0x20 DUP1 DUP3 MSTORE DUP3 MLOAD DUP3 DUP3 ADD DUP2 SWAP1 MSTORE PUSH1 0x0 SWAP2 SWAP1 DUP5 DUP3 ADD SWAP1 PUSH1 0x40 DUP6 ADD SWAP1 DUP5 JUMPDEST DUP2 DUP2 LT ISZERO PUSH2 0x33E6 JUMPI DUP4 MLOAD PUSH1 0x1 PUSH1 0x1 PUSH1 0xA0 SHL SUB AND DUP4 MSTORE SWAP3 DUP5 ADD SWAP3 SWAP2 DUP5 ADD SWAP2 PUSH1 0x1 ADD PUSH2 0x33C1 JUMP JUMPDEST POP SWAP1 SWAP7 SWAP6 POP POP POP POP POP POP JUMP JUMPDEST PUSH1 0x0 DUP1 PUSH1 0x0 PUSH1 0x60 DUP5 DUP7 SUB SLT ISZERO PUSH2 0x3407 JUMPI PUSH1 0x0 DUP1 REVERT JUMPDEST DUP4 CALLDATALOAD PUSH8 0xFFFFFFFFFFFFFFFF DUP1 DUP3 GT ISZERO PUSH2 0x341F JUMPI PUSH1 0x0 DUP1 REVERT JUMPDEST PUSH2 0x342B DUP8 DUP4 DUP9 ADD PUSH2 0x2F24 JUMP JUMPDEST SWAP5 POP PUSH1 0x20 DUP7 ADD CALLDATALOAD SWAP2 POP DUP1 DUP3 GT ISZERO PUSH2 0x3441 JUMPI PUSH1 0x0 DUP1 REVERT JUMPDEST POP PUSH2 0x344E DUP7 DUP3 DUP8 ADD PUSH2 0x2F24 JUMP JUMPDEST SWAP3 POP POP PUSH2 0x3267 PUSH1 0x40 DUP6 ADD PUSH2 0x2EA7 JUMP JUMPDEST PUSH1 0x0 DUP3 MLOAD PUSH2 0x346F DUP2 DUP5 PUSH1 0x20 DUP8 ADD PUSH2 0x32E6 JUMP JUMPDEST SWAP2 SWAP1 SWAP2 ADD SWAP3 SWAP2 POP POP JUMP JUMPDEST PUSH4 0x4E487B71 PUSH1 0xE0 SHL PUSH1 0x0 MSTORE PUSH1 0x11 PUSH1 0x4 MSTORE PUSH1 0x24 PUSH1 0x0 REVERT JUMPDEST DUP1 DUP3 ADD DUP1 DUP3 GT ISZERO PUSH2 0x9D4 JUMPI PUSH2 0x9D4 PUSH2 0x3479 JUMP JUMPDEST DUP8 DUP2 MSTORE PUSH1 0x0 DUP8 MLOAD PUSH2 0x34BA DUP2 PUSH1 0x20 DUP6 ADD PUSH1 0x20 DUP13 ADD PUSH2 0x32E6 JUMP JUMPDEST DUP1 DUP4 ADD SWAP1 POP DUP8 MLOAD PUSH2 0x34D2 DUP2 PUSH1 0x20 DUP5 ADD PUSH1 0x20 DUP13 ADD PUSH2 0x32E6 JUMP JUMPDEST PUSH1 0x20 SWAP2 ADD SWAP1 DUP2 ADD SWAP7 SWAP1 SWAP7 MSTORE POP POP PUSH1 0x40 DUP5 ADD SWAP3 SWAP1 SWAP3 MSTORE PUSH1 0x60 DUP1 DUP5 ADD SWAP2 SWAP1 SWAP2 MSTORE SHL PUSH12 0xFFFFFFFFFFFFFFFFFFFFFFFF NOT AND PUSH1 0x80 DUP3 ADD MSTORE PUSH1 0x94 ADD SWAP4 SWAP3 POP POP POP JUMP JUMPDEST DUP1 DUP3 MUL DUP2 ISZERO DUP3 DUP3 DIV DUP5 EQ OR PUSH2 0x9D4 JUMPI PUSH2 0x9D4 PUSH2 0x3479 JUMP JUMPDEST PUSH1 0x0 DUP3 PUSH2 0x3543 JUMPI PUSH4 0x4E487B71 PUSH1 0xE0 SHL PUSH1 0x0 MSTORE PUSH1 0x12 PUSH1 0x4 MSTORE PUSH1 0x24 PUSH1 0x0 REVERT JUMPDEST POP DIV SWAP1 JUMP JUMPDEST PUSH1 0x1 DUP2 DUP2 SHR SWAP1 DUP3 AND DUP1 PUSH2 0x355C JUMPI PUSH1 0x7F DUP3 AND SWAP2 POP JUMPDEST PUSH1 0x20 DUP3 LT DUP2 SUB PUSH2 0x357C JUMPI PUSH4 0x4E487B71 PUSH1 0xE0 SHL PUSH1 0x0 MSTORE PUSH1 0x22 PUSH1 0x4 MSTORE PUSH1 0x24 PUSH1 0x0 REVERT JUMPDEST POP SWAP2 SWAP1 POP JUMP JUMPDEST PUSH1 0x1F DUP3 GT ISZERO PUSH2 0x1414 JUMPI PUSH1 0x0 DUP2 DUP2 MSTORE PUSH1 0x20 DUP2 KECCAK256 PUSH1 0x1F DUP6 ADD PUSH1 0x5 SHR DUP2 ADD PUSH1 0x20 DUP7 LT ISZERO PUSH2 0x35A9 JUMPI POP DUP1 JUMPDEST PUSH1 0x1F DUP6 ADD PUSH1 0x5 SHR DUP3 ADD SWAP2 POP JUMPDEST DUP2 DUP2 LT ISZERO PUSH2 0x35C8 JUMPI DUP3 DUP2 SSTORE PUSH1 0x1 ADD PUSH2 0x35B5 JUMP JUMPDEST POP POP POP POP POP POP JUMP JUMPDEST DUP2 MLOAD PUSH8 0xFFFFFFFFFFFFFFFF DUP2 GT ISZERO PUSH2 0x35EA JUMPI PUSH2 0x35EA PUSH2 0x2EE5 JUMP JUMPDEST PUSH2 0x35FE DUP2 PUSH2 0x35F8 DUP5 SLOAD PUSH2 0x3548 JUMP JUMPDEST DUP5 PUSH2 0x3582 JUMP JUMPDEST PUSH1 0x20 DUP1 PUSH1 0x1F DUP4 GT PUSH1 0x1 DUP2 EQ PUSH2 0x3633 JUMPI PUSH1 0x0 DUP5 ISZERO PUSH2 0x361B JUMPI POP DUP6 DUP4 ADD MLOAD JUMPDEST PUSH1 0x0 NOT PUSH1 0x3 DUP7 SWAP1 SHL SHR NOT AND PUSH1 0x1 DUP6 SWAP1 SHL OR DUP6 SSTORE PUSH2 0x35C8 JUMP JUMPDEST PUSH1 0x0 DUP6 DUP2 MSTORE PUSH1 0x20 DUP2 KECCAK256 PUSH1 0x1F NOT DUP7 AND SWAP2 JUMPDEST DUP3 DUP2 LT ISZERO PUSH2 0x3662 JUMPI DUP9 DUP7 ADD MLOAD DUP3 SSTORE SWAP5 DUP5 ADD SWAP5 PUSH1 0x1 SWAP1 SWAP2 ADD SWAP1 DUP5 ADD PUSH2 0x3643 JUMP JUMPDEST POP DUP6 DUP3 LT ISZERO PUSH2 0x3680 JUMPI DUP8 DUP6 ADD MLOAD PUSH1 0x0 NOT PUSH1 0x3 DUP9 SWAP1 SHL PUSH1 0xF8 AND SHR NOT AND DUP2 SSTORE JUMPDEST POP POP POP POP POP PUSH1 0x1 SWAP1 DUP2 SHL ADD SWAP1 SSTORE POP JUMP JUMPDEST PUSH4 0x4E487B71 PUSH1 0xE0 SHL PUSH1 0x0 MSTORE PUSH1 0x32 PUSH1 0x4 MSTORE PUSH1 0x24 PUSH1 0x0 REVERT JUMPDEST PUSH1 0x0 PUSH1 0x1 DUP3 ADD PUSH2 0x36B8 JUMPI PUSH2 0x36B8 PUSH2 0x3479 JUMP JUMPDEST POP PUSH1 0x1 ADD SWAP1 JUMP JUMPDEST DUP2 DUP2 SUB DUP2 DUP2 GT ISZERO PUSH2 0x9D4 JUMPI PUSH2 0x9D4 PUSH2 0x3479 JUMP JUMPDEST PUSH1 0xFF DUP3 DUP2 AND DUP3 DUP3 AND SUB SWAP1 DUP2 GT ISZERO PUSH2 0x9D4 JUMPI PUSH2 0x9D4 PUSH2 0x3479 JUMP JUMPDEST PUSH1 0x1 DUP2 DUP2 JUMPDEST DUP1 DUP6 GT ISZERO PUSH2 0x1FF2 JUMPI DUP2 PUSH1 0x0 NOT DIV DUP3 GT ISZERO PUSH2 0x370C JUMPI PUSH2 0x370C PUSH2 0x3479 JUMP JUMPDEST DUP1 DUP6 AND ISZERO PUSH2 0x3719 JUMPI SWAP2 DUP2 MUL SWAP2 JUMPDEST SWAP4 DUP5 SHR SWAP4 SWAP1 DUP1 MUL SWAP1 PUSH2 0x36F0 JUMP JUMPDEST PUSH1 0x0 DUP3 PUSH2 0x3735 JUMPI POP PUSH1 0x1 PUSH2 0x9D4 JUMP JUMPDEST DUP2 PUSH2 0x3742 JUMPI POP PUSH1 0x0 PUSH2 0x9D4 JUMP JUMPDEST DUP2 PUSH1 0x1 DUP2 EQ PUSH2 0x3758 JUMPI PUSH1 0x2 DUP2 EQ PUSH2 0x3762 JUMPI PUSH2 0x377E JUMP JUMPDEST PUSH1 0x1 SWAP2 POP POP PUSH2 0x9D4 JUMP JUMPDEST PUSH1 0xFF DUP5 GT ISZERO PUSH2 0x3773 JUMPI PUSH2 0x3773 PUSH2 0x3479 JUMP JUMPDEST POP POP PUSH1 0x1 DUP3 SHL PUSH2 0x9D4 JUMP JUMPDEST POP PUSH1 0x20 DUP4 LT PUSH2 0x133 DUP4 LT AND PUSH1 0x4E DUP5 LT PUSH1 0xB DUP5 LT AND OR ISZERO PUSH2 0x37A1 JUMPI POP DUP2 DUP2 EXP PUSH2 0x9D4 JUMP JUMPDEST PUSH2 0x37AB DUP4 DUP4 PUSH2 0x36EB JUMP JUMPDEST DUP1 PUSH1 0x0 NOT DIV DUP3 GT ISZERO PUSH2 0x37BF JUMPI PUSH2 0x37BF PUSH2 0x3479 JUMP JUMPDEST MUL SWAP4 SWAP3 POP POP POP JUMP JUMPDEST PUSH1 0x0 PUSH2 0x2EDE PUSH1 0xFF DUP5 AND DUP4 PUSH2 0x3726 JUMP JUMPDEST PUSH4 0x4E487B71 PUSH1 0xE0 SHL PUSH1 0x0 MSTORE PUSH1 0x21 PUSH1 0x4 MSTORE PUSH1 0x24 PUSH1 0x0 REVERT JUMPDEST PUSH1 0x0 PUSH1 0x20 DUP3 DUP5 SUB SLT ISZERO PUSH2 0x37FE JUMPI PUSH1 0x0 DUP1 REVERT JUMPDEST DUP2 MLOAD PUSH2 0x2EDE DUP2 PUSH2 0x317F JUMP JUMPDEST PUSH1 0x20 DUP2 MSTORE PUSH1 0x0 PUSH2 0x2EDE PUSH1 0x20 DUP4 ADD DUP5 PUSH2 0x330A JUMP INVALID LOG2 PUSH5 0x6970667358 0x22 SLT KECCAK256 DUP3 0xD2 0x2A DUP12 INVALID 0x49 PUSH25 0x1D0C8F75DC4BCE4365F4D7EF66DCC5CBFA4D818BB77B23C40 PUSH5 0x736F6C6343 STOP ADDMOD EQ STOP CALLER "},"methodIdentifiers":{"BAK_PRICE_USD()":"1f597b6e","CURVE_STEEPNESS()":"fc4c2d54","MAX_HOURLY_DISTRIBUTION()":"77f14c30","PRICE_INCREASE_FACTOR()":"4d4ef3c2","SIGNATURE_EXPIRY()":"c0416606","TOTAL_BAK_SUPPLY()":"096402cb","USD_DECIMALS()":"2f6ee695","addTrustedOracle(address)":"17f85f85","allPurchases(uint256)":"ac6c93d7","bondingCurveEnabled()":"0b4535e6","calculateBondingCurve(uint256)":"59c97cab","calculatePurchase(address,uint256)":"b5a27544","crossChainTreasuries(string,string)":"2d0faca1","currentBakPrice()":"d6787124","emergencyWithdraw(address,uint256,address)":"551512de","enableBondingCurve(bool)":"c927e8dc","fundingWallet()":"3c4b40b8","getCrossChainTreasury(string,string)":"1f255276","getCurrentBakPrice()":"9adad854","getEPOStats()":"4fb4eff1","getSupportedTokens()":"d3c7c2c7","getTreasuryWallet(address)":"cbb110dc","getUserPurchaseHistory(address)":"35c38d1e","hourlyDistributions(uint256)":"ebb6bfc4","owner()":"8da5cb5b","pause()":"8456cb59","paused()":"5c975abb","paymentTokenList(uint256)":"aca06ab2","paymentTokens(address)":"c3b88b42","processCrossChainPurchase(address,(bytes32,string,string,uint256,uint256,uint256,bytes))":"23194159","processedPayments(bytes32)":"f3f247eb","purchaseBAK(address,uint256,uint256)":"7a07e8b6","renounceOwnership()":"715018a6","totalBakSold()":"789701e8","totalUSDRaised()":"85cbc881","transferOwnership(address)":"f2fde38b","trustedOracles(address)":"db296602","unpause()":"3f4ba83a","updateCrossChainTreasury(string,string,address)":"e0e06078","updatePaymentToken(address,bool,uint8,uint256,uint256,uint256,string,address)":"4cbe933b","userPurchaseHistory(address,uint256)":"eed3e097","userPurchases(address)":"39f65c09","walletConfig()":"d34ddc05"}}}}}