{"contracts/BrainArkEPOCrossChain.sol":{"BrainArkEPOCrossChain":{"abi":[{"inputs":[],"stateMutability":"nonpayable","type":"constructor"},{"anonymous":false,"inputs":[{"indexed":true,"internalType":"address","name":"buyer","type":"address"},{"indexed":false,"internalType":"string","name":"sourceChain","type":"string"},{"indexed":false,"internalType":"string","name":"paymentToken","type":"string"},{"indexed":false,"internalType":"uint256","name":"paymentAmount","type":"uint256"},{"indexed":false,"internalType":"uint256","name":"bakAmount","type":"uint256"},{"indexed":false,"internalType":"string","name":"sourceTxHash","type":"string"},{"indexed":false,"internalType":"uint256","name":"timestamp","type":"uint256"}],"name":"CrossChainPurchase","type":"event"},{"anonymous":false,"inputs":[{"indexed":true,"internalType":"address","name":"buyer","type":"address"},{"indexed":false,"internalType":"uint256","name":"bakAmount","type":"uint256"},{"indexed":false,"internalType":"uint256","name":"timestamp","type":"uint256"}],"name":"DirectPurchase","type":"event"},{"anonymous":false,"inputs":[{"indexed":true,"internalType":"address","name":"previousOwner","type":"address"},{"indexed":true,"internalType":"address","name":"newOwner","type":"address"}],"name":"OwnershipTransferred","type":"event"},{"anonymous":false,"inputs":[{"indexed":false,"internalType":"address","name":"account","type":"address"}],"name":"Paused","type":"event"},{"anonymous":false,"inputs":[{"indexed":false,"internalType":"address","name":"account","type":"address"}],"name":"Unpaused","type":"event"},{"inputs":[],"name":"BAK_PRICE_USD","outputs":[{"internalType":"uint256","name":"","type":"uint256"}],"stateMutability":"view","type":"function"},{"inputs":[],"name":"TOTAL_BAK_SUPPLY","outputs":[{"internalType":"uint256","name":"","type":"uint256"}],"stateMutability":"view","type":"function"},{"inputs":[{"internalType":"address","name":"","type":"address"}],"name":"authorizedOracles","outputs":[{"internalType":"bool","name":"","type":"bool"}],"stateMutability":"view","type":"function"},{"inputs":[{"internalType":"uint256","name":"","type":"uint256"}],"name":"crossChainPurchases","outputs":[{"internalType":"address","name":"buyer","type":"address"},{"internalType":"string","name":"sourceChain","type":"string"},{"internalType":"string","name":"paymentToken","type":"string"},{"internalType":"uint256","name":"paymentAmount","type":"uint256"},{"internalType":"uint256","name":"bakAmount","type":"uint256"},{"internalType":"string","name":"sourceTxHash","type":"string"},{"internalType":"uint256","name":"timestamp","type":"uint256"},{"internalType":"bool","name":"processed","type":"bool"}],"stateMutability":"view","type":"function"},{"inputs":[{"internalType":"uint256","name":"amount","type":"uint256"},{"internalType":"address","name":"to","type":"address"}],"name":"emergencyWithdraw","outputs":[],"stateMutability":"nonpayable","type":"function"},{"inputs":[],"name":"getCrossChainPurchaseCount","outputs":[{"internalType":"uint256","name":"","type":"uint256"}],"stateMutability":"view","type":"function"},{"inputs":[],"name":"getStats","outputs":[{"internalType":"uint256","name":"totalSold","type":"uint256"},{"internalType":"uint256","name":"totalRaised","type":"uint256"},{"internalType":"uint256","name":"remainingSupply","type":"uint256"},{"internalType":"uint256","name":"contractBalance","type":"uint256"}],"stateMutability":"view","type":"function"},{"inputs":[{"internalType":"string","name":"txHash","type":"string"}],"name":"isTransactionProcessed","outputs":[{"internalType":"bool","name":"","type":"bool"}],"stateMutability":"view","type":"function"},{"inputs":[],"name":"owner","outputs":[{"internalType":"address","name":"","type":"address"}],"stateMutability":"view","type":"function"},{"inputs":[],"name":"pause","outputs":[],"stateMutability":"nonpayable","type":"function"},{"inputs":[],"name":"paused","outputs":[{"internalType":"bool","name":"","type":"bool"}],"stateMutability":"view","type":"function"},{"inputs":[{"internalType":"address","name":"buyer","type":"address"},{"internalType":"string","name":"sourceChain","type":"string"},{"internalType":"string","name":"paymentToken","type":"string"},{"internalType":"uint256","name":"paymentAmount","type":"uint256"},{"internalType":"string","name":"sourceTxHash","type":"string"}],"name":"processCrossChainPurchase","outputs":[],"stateMutability":"nonpayable","type":"function"},{"inputs":[{"internalType":"string","name":"","type":"string"}],"name":"processedTxHashes","outputs":[{"internalType":"bool","name":"","type":"bool"}],"stateMutability":"view","type":"function"},{"inputs":[],"name":"purchaseBAKDirect","outputs":[],"stateMutability":"payable","type":"function"},{"inputs":[],"name":"renounceOwnership","outputs":[],"stateMutability":"nonpayable","type":"function"},{"inputs":[{"internalType":"address","name":"oracle","type":"address"},{"internalType":"bool","name":"authorized","type":"bool"}],"name":"setAuthorizedOracle","outputs":[],"stateMutability":"nonpayable","type":"function"},{"inputs":[],"name":"totalBakSold","outputs":[{"internalType":"uint256","name":"","type":"uint256"}],"stateMutability":"view","type":"function"},{"inputs":[],"name":"totalUSDRaised","outputs":[{"internalType":"uint256","name":"","type":"uint256"}],"stateMutability":"view","type":"function"},{"inputs":[{"internalType":"address","name":"newOwner","type":"address"}],"name":"transferOwnership","outputs":[],"stateMutability":"nonpayable","type":"function"},{"inputs":[],"name":"unpause","outputs":[],"stateMutability":"nonpayable","type":"function"},{"inputs":[{"internalType":"address","name":"","type":"address"}],"name":"userPurchases","outputs":[{"internalType":"uint256","name":"","type":"uint256"}],"stateMutability":"view","type":"function"},{"stateMutability":"payable","type":"receive"}],"evm":{"bytecode":{"linkReferences":{},"object":"608060405234801561001057600080fd5b50600160005561001f3361004b565b6001805460ff60a01b19168155336000908152600760205260409020805460ff1916909117905561009d565b600180546001600160a01b038381166001600160a01b0319831681179093556040519116919082907f8be0079c531659141344cd1fd0a4f28419497f9722a3daafe3b4186f6b6457e090600090a35050565b6117b3806100ac6000396000f3fe60806040526004361061012e5760003560e01c806380ab2efd116100ab578063a495b9631161006f578063a495b96314610319578063bcb34ea514610321578063c2e9c12214610355578063c59d484714610390578063c7a6de4d146103c5578063f2fde38b146103e557600080fd5b806380ab2efd146102915780638456cb59146102a657806385cbc881146102bb57806387258982146102d15780638da5cb5b146102f157600080fd5b8063409e805e116100f2578063409e805e146101eb5780635c975abb1461020b57806361c992a314610236578063715018a614610266578063789701e81461027b57600080fd5b8063096402cb1461013a5780631f597b6e1461016c5780632f940c701461018757806339f65c09146101a95780633f4ba83a146101d657600080fd5b3661013557005b600080fd5b34801561014657600080fd5b506101596a52b7d2dcc80cd2e400000081565b6040519081526020015b60405180910390f35b34801561017857600080fd5b5061015966470de4df82000081565b34801561019357600080fd5b506101a76101a2366004611215565b610405565b005b3480156101b557600080fd5b506101596101c4366004611241565b60056020526000908152604090205481565b3480156101e257600080fd5b506101a761053d565b3480156101f757600080fd5b506101a7610206366004611306565b61054f565b34801561021757600080fd5b50600154600160a01b900460ff165b6040519015158152602001610163565b34801561024257600080fd5b50610226610251366004611241565b60076020526000908152604090205460ff1681565b34801561027257600080fd5b506101a7610a21565b34801561028757600080fd5b5061015960025481565b34801561029d57600080fd5b50600654610159565b3480156102b257600080fd5b506101a7610a33565b3480156102c757600080fd5b5061015960035481565b3480156102dd57600080fd5b506102266102ec3660046113a9565b610a43565b3480156102fd57600080fd5b506001546040516001600160a01b039091168152602001610163565b6101a7610a6e565b34801561032d57600080fd5b5061034161033c3660046113e6565b610c96565b60405161016398979695949392919061144f565b34801561036157600080fd5b506102266103703660046113a9565b805160208183018101805160048252928201919093012091525460ff1681565b34801561039c57600080fd5b506103a5610e90565b604080519485526020850193909352918301526060820152608001610163565b3480156103d157600080fd5b506101a76103e03660046114c5565b610ec4565b3480156103f157600080fd5b506101a7610400366004611241565b610f46565b61040d610fbf565b6001600160a01b03811661045c5760405162461bcd60e51b8152602060048201526011602482015270125b9d985b1a59081c9958da5c1a595b9d607a1b60448201526064015b60405180910390fd5b478211156104a35760405162461bcd60e51b8152602060048201526014602482015273496e73756666696369656e742062616c616e636560601b6044820152606401610453565b6000816001600160a01b03168360405160006040518083038185875af1925050503d80600081146104f0576040519150601f19603f3d011682016040523d82523d6000602084013e6104f5565b606091505b50509050806105385760405162461bcd60e51b815260206004820152600f60248201526e151c985b9cd9995c8819985a5b1959608a1b6044820152606401610453565b505050565b610545610fbf565b61054d611019565b565b61055761106e565b61055f6110c7565b3360009081526007602052604090205460ff166105b65760405162461bcd60e51b81526020600482015260156024820152744e6f7420617574686f72697a6564206f7261636c6560581b6044820152606401610453565b6001600160a01b0385166106045760405162461bcd60e51b8152602060048201526015602482015274496e76616c6964206275796572206164647265737360581b6044820152606401610453565b6004816040516106149190611501565b9081526040519081900360200190205460ff16156106745760405162461bcd60e51b815260206004820152601d60248201527f5472616e73616374696f6e20616c72656164792070726f6365737365640000006044820152606401610453565b60008151116106c55760405162461bcd60e51b815260206004820152601860248201527f496e76616c6964207472616e73616374696f6e206861736800000000000000006044820152606401610453565b81600066470de4df8200006106e283670de0b6b3a7640000611533565b6106ec9190611550565b90506a52b7d2dcc80cd2e4000000816002546107089190611572565b11156107515760405162461bcd60e51b81526020600482015260186024820152774578636565647320617661696c61626c6520737570706c7960401b6044820152606401610453565b804710156107715760405162461bcd60e51b815260040161045390611585565b60016004846040516107839190611501565b908152604051908190036020018120805492151560ff19909316929092179091556000906001600160a01b0389169083908381818185875af1925050503d80600081146107ec576040519150601f19603f3d011682016040523d82523d6000602084013e6107f1565b606091505b50509050806108385760405162461bcd60e51b8152602060048201526013602482015272109052c81d1c985b9cd9995c8819985a5b1959606a1b6044820152606401610453565b816002600082825461084a9190611572565b9250508190555082600360008282546108639190611572565b90915550506001600160a01b03881660009081526005602052604081208054849290610890908490611572565b909155505060408051610100810182526001600160a01b038a81168252602082018a8152928201899052606082018890526080820185905260a082018790524260c0830152600160e0830181905260068054918201815560005282517ff652222313e28459528d920b65115c16c04f3efc82aaedc97be59f3f377c0d3f600890920291820180546001600160a01b031916919093161782559251919290917ff652222313e28459528d920b65115c16c04f3efc82aaedc97be59f3f377c0d409091019061095d9082611651565b50604082015160028201906109729082611651565b50606082015160038201556080820151600482015560a0820151600582019061099b9082611651565b5060c0820151600682015560e0909101516007909101805460ff19169115159190911790556040516001600160a01b038916907f7dd244a3319a53ed98b53a75a3b13709cbfabac33215a2c547cdf645210781b190610a05908a908a908a9088908b904290611711565b60405180910390a2505050610a1a6001600055565b5050505050565b610a29610fbf565b61054d6000611114565b610a3b610fbf565b61054d611166565b6000600482604051610a559190611501565b9081526040519081900360200190205460ff1692915050565b610a7661106e565b610a7e6110c7565b60003411610ac15760405162461bcd60e51b815260206004820152601060248201526f14185e5b595b9d081c995c5d5a5c995960821b6044820152606401610453565b34600066470de4df820000610ade83670de0b6b3a7640000611533565b610ae89190611550565b90506a52b7d2dcc80cd2e400000081600254610b049190611572565b1115610b4d5760405162461bcd60e51b81526020600482015260186024820152774578636565647320617661696c61626c6520737570706c7960401b6044820152606401610453565b80471015610b6d5760405162461bcd60e51b815260040161045390611585565b604051600090339083908381818185875af1925050503d8060008114610baf576040519150601f19603f3d011682016040523d82523d6000602084013e610bb4565b606091505b5050905080610bfb5760405162461bcd60e51b8152602060048201526013602482015272109052c81d1c985b9cd9995c8819985a5b1959606a1b6044820152606401610453565b8160026000828254610c0d9190611572565b925050819055508260036000828254610c269190611572565b90915550503360009081526005602052604081208054849290610c4a908490611572565b90915550506040805183815242602082015233917f16b0630c5edf6d72a5389ef786ad45f7299b67b9c97793dd772b1ad0cde50cb0910160405180910390a250505061054d6001600055565b60068181548110610ca657600080fd5b6000918252602090912060089091020180546001820180546001600160a01b03909216935090610cd5906115c9565b80601f0160208091040260200160405190810160405280929190818152602001828054610d01906115c9565b8015610d4e5780601f10610d2357610100808354040283529160200191610d4e565b820191906000526020600020905b815481529060010190602001808311610d3157829003601f168201915b505050505090806002018054610d63906115c9565b80601f0160208091040260200160405190810160405280929190818152602001828054610d8f906115c9565b8015610ddc5780601f10610db157610100808354040283529160200191610ddc565b820191906000526020600020905b815481529060010190602001808311610dbf57829003601f168201915b505050505090806003015490806004015490806005018054610dfd906115c9565b80601f0160208091040260200160405190810160405280929190818152602001828054610e29906115c9565b8015610e765780601f10610e4b57610100808354040283529160200191610e76565b820191906000526020600020905b815481529060010190602001808311610e5957829003601f168201915b50505050600683015460079093015491929160ff16905088565b6000806000806002546003546002546a52b7d2dcc80cd2e4000000610eb5919061176a565b47935093509350935090919293565b610ecc610fbf565b6001600160a01b038216610f1b5760405162461bcd60e51b8152602060048201526016602482015275496e76616c6964206f7261636c65206164647265737360501b6044820152606401610453565b6001600160a01b03919091166000908152600760205260409020805460ff1916911515919091179055565b610f4e610fbf565b6001600160a01b038116610fb35760405162461bcd60e51b815260206004820152602660248201527f4f776e61626c653a206e6577206f776e657220697320746865207a65726f206160448201526564647265737360d01b6064820152608401610453565b610fbc81611114565b50565b6001546001600160a01b0316331461054d5760405162461bcd60e51b815260206004820181905260248201527f4f776e61626c653a2063616c6c6572206973206e6f7420746865206f776e65726044820152606401610453565b6110216111a9565b6001805460ff60a01b191690557f5db9ee0a495bf2e6ff9c91a7834c1ba4fdd244a5e8aa4e537bd38aeae4b073aa335b6040516001600160a01b03909116815260200160405180910390a1565b6002600054036110c05760405162461bcd60e51b815260206004820152601f60248201527f5265656e7472616e637947756172643a207265656e7472616e742063616c6c006044820152606401610453565b6002600055565b600154600160a01b900460ff161561054d5760405162461bcd60e51b815260206004820152601060248201526f14185d5cd8589b194e881c185d5cd95960821b6044820152606401610453565b600180546001600160a01b038381166001600160a01b0319831681179093556040519116919082907f8be0079c531659141344cd1fd0a4f28419497f9722a3daafe3b4186f6b6457e090600090a35050565b61116e6110c7565b6001805460ff60a01b1916600160a01b1790557f62e78cea01bee320cd4e420270b5ea74000d11b0c9f74754ebdbfc544b05a2586110513390565b600154600160a01b900460ff1661054d5760405162461bcd60e51b815260206004820152601460248201527314185d5cd8589b194e881b9bdd081c185d5cd95960621b6044820152606401610453565b80356001600160a01b038116811461121057600080fd5b919050565b6000806040838503121561122857600080fd5b82359150611238602084016111f9565b90509250929050565b60006020828403121561125357600080fd5b61125c826111f9565b9392505050565b634e487b7160e01b600052604160045260246000fd5b600082601f83011261128a57600080fd5b813567ffffffffffffffff808211156112a5576112a5611263565b604051601f8301601f19908116603f011681019082821181831017156112cd576112cd611263565b816040528381528660208588010111156112e657600080fd5b836020870160208301376000602085830101528094505050505092915050565b600080600080600060a0868803121561131e57600080fd5b611327866111f9565b9450602086013567ffffffffffffffff8082111561134457600080fd5b61135089838a01611279565b9550604088013591508082111561136657600080fd5b61137289838a01611279565b945060608801359350608088013591508082111561138f57600080fd5b5061139c88828901611279565b9150509295509295909350565b6000602082840312156113bb57600080fd5b813567ffffffffffffffff8111156113d257600080fd5b6113de84828501611279565b949350505050565b6000602082840312156113f857600080fd5b5035919050565b60005b8381101561141a578181015183820152602001611402565b50506000910152565b6000815180845261143b8160208601602086016113ff565b601f01601f19169290920160200192915050565b6001600160a01b0389168152610100602082018190526000906114748382018b611423565b90508281036040840152611488818a611423565b905087606084015286608084015282810360a08401526114a88187611423565b60c0840195909552505090151560e0909101529695505050505050565b600080604083850312156114d857600080fd5b6114e1836111f9565b9150602083013580151581146114f657600080fd5b809150509250929050565b600082516115138184602087016113ff565b9190910192915050565b634e487b7160e01b600052601160045260246000fd5b808202811582820484141761154a5761154a61151d565b92915050565b60008261156d57634e487b7160e01b600052601260045260246000fd5b500490565b8082018082111561154a5761154a61151d565b60208082526024908201527f496e73756666696369656e742042414b2062616c616e636520696e20636f6e746040820152631c9858dd60e21b606082015260800190565b600181811c908216806115dd57607f821691505b6020821081036115fd57634e487b7160e01b600052602260045260246000fd5b50919050565b601f82111561053857600081815260208120601f850160051c8101602086101561162a5750805b601f850160051c820191505b8181101561164957828155600101611636565b505050505050565b815167ffffffffffffffff81111561166b5761166b611263565b61167f8161167984546115c9565b84611603565b602080601f8311600181146116b4576000841561169c5750858301515b600019600386901b1c1916600185901b178555611649565b600085815260208120601f198616915b828110156116e3578886015182559484019460019091019084016116c4565b50858210156117015787850151600019600388901b60f8161c191681555b5050505050600190811b01905550565b60c08152600061172460c0830189611423565b82810360208401526117368189611423565b905086604084015285606084015282810360808401526117568186611423565b9150508260a0830152979650505050505050565b8181038181111561154a5761154a61151d56fea26469706673582212205bcd11f1fb599427922f89d88021aefed8c3a40efc85ac5f69508618492f02bd64736f6c63430008140033","opcodes":"PUSH1 0x80 PUSH1 0x40 MSTORE CALLVALUE DUP1 ISZERO PUSH2 0x10 JUMPI PUSH1 0x0 DUP1 REVERT JUMPDEST POP PUSH1 0x1 PUSH1 0x0 SSTORE PUSH2 0x1F CALLER PUSH2 0x4B JUMP JUMPDEST PUSH1 0x1 DUP1 SLOAD PUSH1 0xFF PUSH1 0xA0 SHL NOT AND DUP2 SSTORE CALLER PUSH1 0x0 SWAP1 DUP2 MSTORE PUSH1 0x7 PUSH1 0x20 MSTORE PUSH1 0x40 SWAP1 KECCAK256 DUP1 SLOAD PUSH1 0xFF NOT AND SWAP1 SWAP2 OR SWAP1 SSTORE PUSH2 0x9D JUMP JUMPDEST PUSH1 0x1 DUP1 SLOAD PUSH1 0x1 PUSH1 0x1 PUSH1 0xA0 SHL SUB DUP4 DUP2 AND PUSH1 0x1 PUSH1 0x1 PUSH1 0xA0 SHL SUB NOT DUP4 AND DUP2 OR SWAP1 SWAP4 SSTORE PUSH1 0x40 MLOAD SWAP2 AND SWAP2 SWAP1 DUP3 SWAP1 PUSH32 0x8BE0079C531659141344CD1FD0A4F28419497F9722A3DAAFE3B4186F6B6457E0 SWAP1 PUSH1 0x0 SWAP1 LOG3 POP POP JUMP JUMPDEST PUSH2 0x17B3 DUP1 PUSH2 0xAC PUSH1 0x0 CODECOPY PUSH1 0x0 RETURN INVALID PUSH1 0x80 PUSH1 0x40 MSTORE PUSH1 0x4 CALLDATASIZE LT PUSH2 0x12E JUMPI PUSH1 0x0 CALLDATALOAD PUSH1 0xE0 SHR DUP1 PUSH4 0x80AB2EFD GT PUSH2 0xAB JUMPI DUP1 PUSH4 0xA495B963 GT PUSH2 0x6F JUMPI DUP1 PUSH4 0xA495B963 EQ PUSH2 0x319 JUMPI DUP1 PUSH4 0xBCB34EA5 EQ PUSH2 0x321 JUMPI DUP1 PUSH4 0xC2E9C122 EQ PUSH2 0x355 JUMPI DUP1 PUSH4 0xC59D4847 EQ PUSH2 0x390 JUMPI DUP1 PUSH4 0xC7A6DE4D EQ PUSH2 0x3C5 JUMPI DUP1 PUSH4 0xF2FDE38B EQ PUSH2 0x3E5 JUMPI PUSH1 0x0 DUP1 REVERT JUMPDEST DUP1 PUSH4 0x80AB2EFD EQ PUSH2 0x291 JUMPI DUP1 PUSH4 0x8456CB59 EQ PUSH2 0x2A6 JUMPI DUP1 PUSH4 0x85CBC881 EQ PUSH2 0x2BB JUMPI DUP1 PUSH4 0x87258982 EQ PUSH2 0x2D1 JUMPI DUP1 PUSH4 0x8DA5CB5B EQ PUSH2 0x2F1 JUMPI PUSH1 0x0 DUP1 REVERT JUMPDEST DUP1 PUSH4 0x409E805E GT PUSH2 0xF2 JUMPI DUP1 PUSH4 0x409E805E EQ PUSH2 0x1EB JUMPI DUP1 PUSH4 0x5C975ABB EQ PUSH2 0x20B JUMPI DUP1 PUSH4 0x61C992A3 EQ PUSH2 0x236 JUMPI DUP1 PUSH4 0x715018A6 EQ PUSH2 0x266 JUMPI DUP1 PUSH4 0x789701E8 EQ PUSH2 0x27B JUMPI PUSH1 0x0 DUP1 REVERT JUMPDEST DUP1 PUSH4 0x96402CB EQ PUSH2 0x13A JUMPI DUP1 PUSH4 0x1F597B6E EQ PUSH2 0x16C JUMPI DUP1 PUSH4 0x2F940C70 EQ PUSH2 0x187 JUMPI DUP1 PUSH4 0x39F65C09 EQ PUSH2 0x1A9 JUMPI DUP1 PUSH4 0x3F4BA83A EQ PUSH2 0x1D6 JUMPI PUSH1 0x0 DUP1 REVERT JUMPDEST CALLDATASIZE PUSH2 0x135 JUMPI STOP JUMPDEST PUSH1 0x0 DUP1 REVERT JUMPDEST CALLVALUE DUP1 ISZERO PUSH2 0x146 JUMPI PUSH1 0x0 DUP1 REVERT JUMPDEST POP PUSH2 0x159 PUSH11 0x52B7D2DCC80CD2E4000000 DUP2 JUMP JUMPDEST PUSH1 0x40 MLOAD SWAP1 DUP2 MSTORE PUSH1 0x20 ADD JUMPDEST PUSH1 0x40 MLOAD DUP1 SWAP2 SUB SWAP1 RETURN JUMPDEST CALLVALUE DUP1 ISZERO PUSH2 0x178 JUMPI PUSH1 0x0 DUP1 REVERT JUMPDEST POP PUSH2 0x159 PUSH7 0x470DE4DF820000 DUP2 JUMP JUMPDEST CALLVALUE DUP1 ISZERO PUSH2 0x193 JUMPI PUSH1 0x0 DUP1 REVERT JUMPDEST POP PUSH2 0x1A7 PUSH2 0x1A2 CALLDATASIZE PUSH1 0x4 PUSH2 0x1215 JUMP JUMPDEST PUSH2 0x405 JUMP JUMPDEST STOP JUMPDEST CALLVALUE DUP1 ISZERO PUSH2 0x1B5 JUMPI PUSH1 0x0 DUP1 REVERT JUMPDEST POP PUSH2 0x159 PUSH2 0x1C4 CALLDATASIZE PUSH1 0x4 PUSH2 0x1241 JUMP JUMPDEST PUSH1 0x5 PUSH1 0x20 MSTORE PUSH1 0x0 SWAP1 DUP2 MSTORE PUSH1 0x40 SWAP1 KECCAK256 SLOAD DUP2 JUMP JUMPDEST CALLVALUE DUP1 ISZERO PUSH2 0x1E2 JUMPI PUSH1 0x0 DUP1 REVERT JUMPDEST POP PUSH2 0x1A7 PUSH2 0x53D JUMP JUMPDEST CALLVALUE DUP1 ISZERO PUSH2 0x1F7 JUMPI PUSH1 0x0 DUP1 REVERT JUMPDEST POP PUSH2 0x1A7 PUSH2 0x206 CALLDATASIZE PUSH1 0x4 PUSH2 0x1306 JUMP JUMPDEST PUSH2 0x54F JUMP JUMPDEST CALLVALUE DUP1 ISZERO PUSH2 0x217 JUMPI PUSH1 0x0 DUP1 REVERT JUMPDEST POP PUSH1 0x1 SLOAD PUSH1 0x1 PUSH1 0xA0 SHL SWAP1 DIV PUSH1 0xFF AND JUMPDEST PUSH1 0x40 MLOAD SWAP1 ISZERO ISZERO DUP2 MSTORE PUSH1 0x20 ADD PUSH2 0x163 JUMP JUMPDEST CALLVALUE DUP1 ISZERO PUSH2 0x242 JUMPI PUSH1 0x0 DUP1 REVERT JUMPDEST POP PUSH2 0x226 PUSH2 0x251 CALLDATASIZE PUSH1 0x4 PUSH2 0x1241 JUMP JUMPDEST PUSH1 0x7 PUSH1 0x20 MSTORE PUSH1 0x0 SWAP1 DUP2 MSTORE PUSH1 0x40 SWAP1 KECCAK256 SLOAD PUSH1 0xFF AND DUP2 JUMP JUMPDEST CALLVALUE DUP1 ISZERO PUSH2 0x272 JUMPI PUSH1 0x0 DUP1 REVERT JUMPDEST POP PUSH2 0x1A7 PUSH2 0xA21 JUMP JUMPDEST CALLVALUE DUP1 ISZERO PUSH2 0x287 JUMPI PUSH1 0x0 DUP1 REVERT JUMPDEST POP PUSH2 0x159 PUSH1 0x2 SLOAD DUP2 JUMP JUMPDEST CALLVALUE DUP1 ISZERO PUSH2 0x29D JUMPI PUSH1 0x0 DUP1 REVERT JUMPDEST POP PUSH1 0x6 SLOAD PUSH2 0x159 JUMP JUMPDEST CALLVALUE DUP1 ISZERO PUSH2 0x2B2 JUMPI PUSH1 0x0 DUP1 REVERT JUMPDEST POP PUSH2 0x1A7 PUSH2 0xA33 JUMP JUMPDEST CALLVALUE DUP1 ISZERO PUSH2 0x2C7 JUMPI PUSH1 0x0 DUP1 REVERT JUMPDEST POP PUSH2 0x159 PUSH1 0x3 SLOAD DUP2 JUMP JUMPDEST CALLVALUE DUP1 ISZERO PUSH2 0x2DD JUMPI PUSH1 0x0 DUP1 REVERT JUMPDEST POP PUSH2 0x226 PUSH2 0x2EC CALLDATASIZE PUSH1 0x4 PUSH2 0x13A9 JUMP JUMPDEST PUSH2 0xA43 JUMP JUMPDEST CALLVALUE DUP1 ISZERO PUSH2 0x2FD JUMPI PUSH1 0x0 DUP1 REVERT JUMPDEST POP PUSH1 0x1 SLOAD PUSH1 0x40 MLOAD PUSH1 0x1 PUSH1 0x1 PUSH1 0xA0 SHL SUB SWAP1 SWAP2 AND DUP2 MSTORE PUSH1 0x20 ADD PUSH2 0x163 JUMP JUMPDEST PUSH2 0x1A7 PUSH2 0xA6E JUMP JUMPDEST CALLVALUE DUP1 ISZERO PUSH2 0x32D JUMPI PUSH1 0x0 DUP1 REVERT JUMPDEST POP PUSH2 0x341 PUSH2 0x33C CALLDATASIZE PUSH1 0x4 PUSH2 0x13E6 JUMP JUMPDEST PUSH2 0xC96 JUMP JUMPDEST PUSH1 0x40 MLOAD PUSH2 0x163 SWAP9 SWAP8 SWAP7 SWAP6 SWAP5 SWAP4 SWAP3 SWAP2 SWAP1 PUSH2 0x144F JUMP JUMPDEST CALLVALUE DUP1 ISZERO PUSH2 0x361 JUMPI PUSH1 0x0 DUP1 REVERT JUMPDEST POP PUSH2 0x226 PUSH2 0x370 CALLDATASIZE PUSH1 0x4 PUSH2 0x13A9 JUMP JUMPDEST DUP1 MLOAD PUSH1 0x20 DUP2 DUP4 ADD DUP2 ADD DUP1 MLOAD PUSH1 0x4 DUP3 MSTORE SWAP3 DUP3 ADD SWAP2 SWAP1 SWAP4 ADD KECCAK256 SWAP2 MSTORE SLOAD PUSH1 0xFF AND DUP2 JUMP JUMPDEST CALLVALUE DUP1 ISZERO PUSH2 0x39C JUMPI PUSH1 0x0 DUP1 REVERT JUMPDEST POP PUSH2 0x3A5 PUSH2 0xE90 JUMP JUMPDEST PUSH1 0x40 DUP1 MLOAD SWAP5 DUP6 MSTORE PUSH1 0x20 DUP6 ADD SWAP4 SWAP1 SWAP4 MSTORE SWAP2 DUP4 ADD MSTORE PUSH1 0x60 DUP3 ADD MSTORE PUSH1 0x80 ADD PUSH2 0x163 JUMP JUMPDEST CALLVALUE DUP1 ISZERO PUSH2 0x3D1 JUMPI PUSH1 0x0 DUP1 REVERT JUMPDEST POP PUSH2 0x1A7 PUSH2 0x3E0 CALLDATASIZE PUSH1 0x4 PUSH2 0x14C5 JUMP JUMPDEST PUSH2 0xEC4 JUMP JUMPDEST CALLVALUE DUP1 ISZERO PUSH2 0x3F1 JUMPI PUSH1 0x0 DUP1 REVERT JUMPDEST POP PUSH2 0x1A7 PUSH2 0x400 CALLDATASIZE PUSH1 0x4 PUSH2 0x1241 JUMP JUMPDEST PUSH2 0xF46 JUMP JUMPDEST PUSH2 0x40D PUSH2 0xFBF JUMP JUMPDEST PUSH1 0x1 PUSH1 0x1 PUSH1 0xA0 SHL SUB DUP2 AND PUSH2 0x45C JUMPI PUSH1 0x40 MLOAD PUSH3 0x461BCD PUSH1 0xE5 SHL DUP2 MSTORE PUSH1 0x20 PUSH1 0x4 DUP3 ADD MSTORE PUSH1 0x11 PUSH1 0x24 DUP3 ADD MSTORE PUSH17 0x125B9D985B1A59081C9958DA5C1A595B9D PUSH1 0x7A SHL PUSH1 0x44 DUP3 ADD MSTORE PUSH1 0x64 ADD JUMPDEST PUSH1 0x40 MLOAD DUP1 SWAP2 SUB SWAP1 REVERT JUMPDEST SELFBALANCE DUP3 GT ISZERO PUSH2 0x4A3 JUMPI PUSH1 0x40 MLOAD PUSH3 0x461BCD PUSH1 0xE5 SHL DUP2 MSTORE PUSH1 0x20 PUSH1 0x4 DUP3 ADD MSTORE PUSH1 0x14 PUSH1 0x24 DUP3 ADD MSTORE PUSH20 0x496E73756666696369656E742062616C616E6365 PUSH1 0x60 SHL PUSH1 0x44 DUP3 ADD MSTORE PUSH1 0x64 ADD PUSH2 0x453 JUMP JUMPDEST PUSH1 0x0 DUP2 PUSH1 0x1 PUSH1 0x1 PUSH1 0xA0 SHL SUB AND DUP4 PUSH1 0x40 MLOAD PUSH1 0x0 PUSH1 0x40 MLOAD DUP1 DUP4 SUB DUP2 DUP6 DUP8 GAS CALL SWAP3 POP POP POP RETURNDATASIZE DUP1 PUSH1 0x0 DUP2 EQ PUSH2 0x4F0 JUMPI PUSH1 0x40 MLOAD SWAP2 POP PUSH1 0x1F NOT PUSH1 0x3F RETURNDATASIZE ADD AND DUP3 ADD PUSH1 0x40 MSTORE RETURNDATASIZE DUP3 MSTORE RETURNDATASIZE PUSH1 0x0 PUSH1 0x20 DUP5 ADD RETURNDATACOPY PUSH2 0x4F5 JUMP JUMPDEST PUSH1 0x60 SWAP2 POP JUMPDEST POP POP SWAP1 POP DUP1 PUSH2 0x538 JUMPI PUSH1 0x40 MLOAD PUSH3 0x461BCD PUSH1 0xE5 SHL DUP2 MSTORE PUSH1 0x20 PUSH1 0x4 DUP3 ADD MSTORE PUSH1 0xF PUSH1 0x24 DUP3 ADD MSTORE PUSH15 0x151C985B9CD9995C8819985A5B1959 PUSH1 0x8A SHL PUSH1 0x44 DUP3 ADD MSTORE PUSH1 0x64 ADD PUSH2 0x453 JUMP JUMPDEST POP POP POP JUMP JUMPDEST PUSH2 0x545 PUSH2 0xFBF JUMP JUMPDEST PUSH2 0x54D PUSH2 0x1019 JUMP JUMPDEST JUMP JUMPDEST PUSH2 0x557 PUSH2 0x106E JUMP JUMPDEST PUSH2 0x55F PUSH2 0x10C7 JUMP JUMPDEST CALLER PUSH1 0x0 SWAP1 DUP2 MSTORE PUSH1 0x7 PUSH1 0x20 MSTORE PUSH1 0x40 SWAP1 KECCAK256 SLOAD PUSH1 0xFF AND PUSH2 0x5B6 JUMPI PUSH1 0x40 MLOAD PUSH3 0x461BCD PUSH1 0xE5 SHL DUP2 MSTORE PUSH1 0x20 PUSH1 0x4 DUP3 ADD MSTORE PUSH1 0x15 PUSH1 0x24 DUP3 ADD MSTORE PUSH21 0x4E6F7420617574686F72697A6564206F7261636C65 PUSH1 0x58 SHL PUSH1 0x44 DUP3 ADD MSTORE PUSH1 0x64 ADD PUSH2 0x453 JUMP JUMPDEST PUSH1 0x1 PUSH1 0x1 PUSH1 0xA0 SHL SUB DUP6 AND PUSH2 0x604 JUMPI PUSH1 0x40 MLOAD PUSH3 0x461BCD PUSH1 0xE5 SHL DUP2 MSTORE PUSH1 0x20 PUSH1 0x4 DUP3 ADD MSTORE PUSH1 0x15 PUSH1 0x24 DUP3 ADD MSTORE PUSH21 0x496E76616C69642062757965722061646472657373 PUSH1 0x58 SHL PUSH1 0x44 DUP3 ADD MSTORE PUSH1 0x64 ADD PUSH2 0x453 JUMP JUMPDEST PUSH1 0x4 DUP2 PUSH1 0x40 MLOAD PUSH2 0x614 SWAP2 SWAP1 PUSH2 0x1501 JUMP JUMPDEST SWAP1 DUP2 MSTORE PUSH1 0x40 MLOAD SWAP1 DUP2 SWAP1 SUB PUSH1 0x20 ADD SWAP1 KECCAK256 SLOAD PUSH1 0xFF AND ISZERO PUSH2 0x674 JUMPI PUSH1 0x40 MLOAD PUSH3 0x461BCD PUSH1 0xE5 SHL DUP2 MSTORE PUSH1 0x20 PUSH1 0x4 DUP3 ADD MSTORE PUSH1 0x1D PUSH1 0x24 DUP3 ADD MSTORE PUSH32 0x5472616E73616374696F6E20616C72656164792070726F636573736564000000 PUSH1 0x44 DUP3 ADD MSTORE PUSH1 0x64 ADD PUSH2 0x453 JUMP JUMPDEST PUSH1 0x0 DUP2 MLOAD GT PUSH2 0x6C5 JUMPI PUSH1 0x40 MLOAD PUSH3 0x461BCD PUSH1 0xE5 SHL DUP2 MSTORE PUSH1 0x20 PUSH1 0x4 DUP3 ADD MSTORE PUSH1 0x18 PUSH1 0x24 DUP3 ADD MSTORE PUSH32 0x496E76616C6964207472616E73616374696F6E20686173680000000000000000 PUSH1 0x44 DUP3 ADD MSTORE PUSH1 0x64 ADD PUSH2 0x453 JUMP JUMPDEST DUP2 PUSH1 0x0 PUSH7 0x470DE4DF820000 PUSH2 0x6E2 DUP4 PUSH8 0xDE0B6B3A7640000 PUSH2 0x1533 JUMP JUMPDEST PUSH2 0x6EC SWAP2 SWAP1 PUSH2 0x1550 JUMP JUMPDEST SWAP1 POP PUSH11 0x52B7D2DCC80CD2E4000000 DUP2 PUSH1 0x2 SLOAD PUSH2 0x708 SWAP2 SWAP1 PUSH2 0x1572 JUMP JUMPDEST GT ISZERO PUSH2 0x751 JUMPI PUSH1 0x40 MLOAD PUSH3 0x461BCD PUSH1 0xE5 SHL DUP2 MSTORE PUSH1 0x20 PUSH1 0x4 DUP3 ADD MSTORE PUSH1 0x18 PUSH1 0x24 DUP3 ADD MSTORE PUSH24 0x4578636565647320617661696C61626C6520737570706C79 PUSH1 0x40 SHL PUSH1 0x44 DUP3 ADD MSTORE PUSH1 0x64 ADD PUSH2 0x453 JUMP JUMPDEST DUP1 SELFBALANCE LT ISZERO PUSH2 0x771 JUMPI PUSH1 0x40 MLOAD PUSH3 0x461BCD PUSH1 0xE5 SHL DUP2 MSTORE PUSH1 0x4 ADD PUSH2 0x453 SWAP1 PUSH2 0x1585 JUMP JUMPDEST PUSH1 0x1 PUSH1 0x4 DUP5 PUSH1 0x40 MLOAD PUSH2 0x783 SWAP2 SWAP1 PUSH2 0x1501 JUMP JUMPDEST SWAP1 DUP2 MSTORE PUSH1 0x40 MLOAD SWAP1 DUP2 SWAP1 SUB PUSH1 0x20 ADD DUP2 KECCAK256 DUP1 SLOAD SWAP3 ISZERO ISZERO PUSH1 0xFF NOT SWAP1 SWAP4 AND SWAP3 SWAP1 SWAP3 OR SWAP1 SWAP2 SSTORE PUSH1 0x0 SWAP1 PUSH1 0x1 PUSH1 0x1 PUSH1 0xA0 SHL SUB DUP10 AND SWAP1 DUP4 SWAP1 DUP4 DUP2 DUP2 DUP2 DUP6 DUP8 GAS CALL SWAP3 POP POP POP RETURNDATASIZE DUP1 PUSH1 0x0 DUP2 EQ PUSH2 0x7EC JUMPI PUSH1 0x40 MLOAD SWAP2 POP PUSH1 0x1F NOT PUSH1 0x3F RETURNDATASIZE ADD AND DUP3 ADD PUSH1 0x40 MSTORE RETURNDATASIZE DUP3 MSTORE RETURNDATASIZE PUSH1 0x0 PUSH1 0x20 DUP5 ADD RETURNDATACOPY PUSH2 0x7F1 JUMP JUMPDEST PUSH1 0x60 SWAP2 POP JUMPDEST POP POP SWAP1 POP DUP1 PUSH2 0x838 JUMPI PUSH1 0x40 MLOAD PUSH3 0x461BCD PUSH1 0xE5 SHL DUP2 MSTORE PUSH1 0x20 PUSH1 0x4 DUP3 ADD MSTORE PUSH1 0x13 PUSH1 0x24 DUP3 ADD MSTORE PUSH19 0x109052C81D1C985B9CD9995C8819985A5B1959 PUSH1 0x6A SHL PUSH1 0x44 DUP3 ADD MSTORE PUSH1 0x64 ADD PUSH2 0x453 JUMP JUMPDEST DUP2 PUSH1 0x2 PUSH1 0x0 DUP3 DUP3 SLOAD PUSH2 0x84A SWAP2 SWAP1 PUSH2 0x1572 JUMP JUMPDEST SWAP3 POP POP DUP2 SWAP1 SSTORE POP DUP3 PUSH1 0x3 PUSH1 0x0 DUP3 DUP3 SLOAD PUSH2 0x863 SWAP2 SWAP1 PUSH2 0x1572 JUMP JUMPDEST SWAP1 SWAP2 SSTORE POP POP PUSH1 0x1 PUSH1 0x1 PUSH1 0xA0 SHL SUB DUP9 AND PUSH1 0x0 SWAP1 DUP2 MSTORE PUSH1 0x5 PUSH1 0x20 MSTORE PUSH1 0x40 DUP2 KECCAK256 DUP1 SLOAD DUP5 SWAP3 SWAP1 PUSH2 0x890 SWAP1 DUP5 SWAP1 PUSH2 0x1572 JUMP JUMPDEST SWAP1 SWAP2 SSTORE POP POP PUSH1 0x40 DUP1 MLOAD PUSH2 0x100 DUP2 ADD DUP3 MSTORE PUSH1 0x1 PUSH1 0x1 PUSH1 0xA0 SHL SUB DUP11 DUP2 AND DUP3 MSTORE PUSH1 0x20 DUP3 ADD DUP11 DUP2 MSTORE SWAP3 DUP3 ADD DUP10 SWAP1 MSTORE PUSH1 0x60 DUP3 ADD DUP9 SWAP1 MSTORE PUSH1 0x80 DUP3 ADD DUP6 SWAP1 MSTORE PUSH1 0xA0 DUP3 ADD DUP8 SWAP1 MSTORE TIMESTAMP PUSH1 0xC0 DUP4 ADD MSTORE PUSH1 0x1 PUSH1 0xE0 DUP4 ADD DUP2 SWAP1 MSTORE PUSH1 0x6 DUP1 SLOAD SWAP2 DUP3 ADD DUP2 SSTORE PUSH1 0x0 MSTORE DUP3 MLOAD PUSH32 0xF652222313E28459528D920B65115C16C04F3EFC82AAEDC97BE59F3F377C0D3F PUSH1 0x8 SWAP1 SWAP3 MUL SWAP2 DUP3 ADD DUP1 SLOAD PUSH1 0x1 PUSH1 0x1 PUSH1 0xA0 SHL SUB NOT AND SWAP2 SWAP1 SWAP4 AND OR DUP3 SSTORE SWAP3 MLOAD SWAP2 SWAP3 SWAP1 SWAP2 PUSH32 0xF652222313E28459528D920B65115C16C04F3EFC82AAEDC97BE59F3F377C0D40 SWAP1 SWAP2 ADD SWAP1 PUSH2 0x95D SWAP1 DUP3 PUSH2 0x1651 JUMP JUMPDEST POP PUSH1 0x40 DUP3 ADD MLOAD PUSH1 0x2 DUP3 ADD SWAP1 PUSH2 0x972 SWAP1 DUP3 PUSH2 0x1651 JUMP JUMPDEST POP PUSH1 0x60 DUP3 ADD MLOAD PUSH1 0x3 DUP3 ADD SSTORE PUSH1 0x80 DUP3 ADD MLOAD PUSH1 0x4 DUP3 ADD SSTORE PUSH1 0xA0 DUP3 ADD MLOAD PUSH1 0x5 DUP3 ADD SWAP1 PUSH2 0x99B SWAP1 DUP3 PUSH2 0x1651 JUMP JUMPDEST POP PUSH1 0xC0 DUP3 ADD MLOAD PUSH1 0x6 DUP3 ADD SSTORE PUSH1 0xE0 SWAP1 SWAP2 ADD MLOAD PUSH1 0x7 SWAP1 SWAP2 ADD DUP1 SLOAD PUSH1 0xFF NOT AND SWAP2 ISZERO ISZERO SWAP2 SWAP1 SWAP2 OR SWAP1 SSTORE PUSH1 0x40 MLOAD PUSH1 0x1 PUSH1 0x1 PUSH1 0xA0 SHL SUB DUP10 AND SWAP1 PUSH32 0x7DD244A3319A53ED98B53A75A3B13709CBFABAC33215A2C547CDF645210781B1 SWAP1 PUSH2 0xA05 SWAP1 DUP11 SWAP1 DUP11 SWAP1 DUP11 SWAP1 DUP9 SWAP1 DUP12 SWAP1 TIMESTAMP SWAP1 PUSH2 0x1711 JUMP JUMPDEST PUSH1 0x40 MLOAD DUP1 SWAP2 SUB SWAP1 LOG2 POP POP POP PUSH2 0xA1A PUSH1 0x1 PUSH1 0x0 SSTORE JUMP JUMPDEST POP POP POP POP POP JUMP JUMPDEST PUSH2 0xA29 PUSH2 0xFBF JUMP JUMPDEST PUSH2 0x54D PUSH1 0x0 PUSH2 0x1114 JUMP JUMPDEST PUSH2 0xA3B PUSH2 0xFBF JUMP JUMPDEST PUSH2 0x54D PUSH2 0x1166 JUMP JUMPDEST PUSH1 0x0 PUSH1 0x4 DUP3 PUSH1 0x40 MLOAD PUSH2 0xA55 SWAP2 SWAP1 PUSH2 0x1501 JUMP JUMPDEST SWAP1 DUP2 MSTORE PUSH1 0x40 MLOAD SWAP1 DUP2 SWAP1 SUB PUSH1 0x20 ADD SWAP1 KECCAK256 SLOAD PUSH1 0xFF AND SWAP3 SWAP2 POP POP JUMP JUMPDEST PUSH2 0xA76 PUSH2 0x106E JUMP JUMPDEST PUSH2 0xA7E PUSH2 0x10C7 JUMP JUMPDEST PUSH1 0x0 CALLVALUE GT PUSH2 0xAC1 JUMPI PUSH1 0x40 MLOAD PUSH3 0x461BCD PUSH1 0xE5 SHL DUP2 MSTORE PUSH1 0x20 PUSH1 0x4 DUP3 ADD MSTORE PUSH1 0x10 PUSH1 0x24 DUP3 ADD MSTORE PUSH16 0x14185E5B595B9D081C995C5D5A5C9959 PUSH1 0x82 SHL PUSH1 0x44 DUP3 ADD MSTORE PUSH1 0x64 ADD PUSH2 0x453 JUMP JUMPDEST CALLVALUE PUSH1 0x0 PUSH7 0x470DE4DF820000 PUSH2 0xADE DUP4 PUSH8 0xDE0B6B3A7640000 PUSH2 0x1533 JUMP JUMPDEST PUSH2 0xAE8 SWAP2 SWAP1 PUSH2 0x1550 JUMP JUMPDEST SWAP1 POP PUSH11 0x52B7D2DCC80CD2E4000000 DUP2 PUSH1 0x2 SLOAD PUSH2 0xB04 SWAP2 SWAP1 PUSH2 0x1572 JUMP JUMPDEST GT ISZERO PUSH2 0xB4D JUMPI PUSH1 0x40 MLOAD PUSH3 0x461BCD PUSH1 0xE5 SHL DUP2 MSTORE PUSH1 0x20 PUSH1 0x4 DUP3 ADD MSTORE PUSH1 0x18 PUSH1 0x24 DUP3 ADD MSTORE PUSH24 0x4578636565647320617661696C61626C6520737570706C79 PUSH1 0x40 SHL PUSH1 0x44 DUP3 ADD MSTORE PUSH1 0x64 ADD PUSH2 0x453 JUMP JUMPDEST DUP1 SELFBALANCE LT ISZERO PUSH2 0xB6D JUMPI PUSH1 0x40 MLOAD PUSH3 0x461BCD PUSH1 0xE5 SHL DUP2 MSTORE PUSH1 0x4 ADD PUSH2 0x453 SWAP1 PUSH2 0x1585 JUMP JUMPDEST PUSH1 0x40 MLOAD PUSH1 0x0 SWAP1 CALLER SWAP1 DUP4 SWAP1 DUP4 DUP2 DUP2 DUP2 DUP6 DUP8 GAS CALL SWAP3 POP POP POP RETURNDATASIZE DUP1 PUSH1 0x0 DUP2 EQ PUSH2 0xBAF JUMPI PUSH1 0x40 MLOAD SWAP2 POP PUSH1 0x1F NOT PUSH1 0x3F RETURNDATASIZE ADD AND DUP3 ADD PUSH1 0x40 MSTORE RETURNDATASIZE DUP3 MSTORE RETURNDATASIZE PUSH1 0x0 PUSH1 0x20 DUP5 ADD RETURNDATACOPY PUSH2 0xBB4 JUMP JUMPDEST PUSH1 0x60 SWAP2 POP JUMPDEST POP POP SWAP1 POP DUP1 PUSH2 0xBFB JUMPI PUSH1 0x40 MLOAD PUSH3 0x461BCD PUSH1 0xE5 SHL DUP2 MSTORE PUSH1 0x20 PUSH1 0x4 DUP3 ADD MSTORE PUSH1 0x13 PUSH1 0x24 DUP3 ADD MSTORE PUSH19 0x109052C81D1C985B9CD9995C8819985A5B1959 PUSH1 0x6A SHL PUSH1 0x44 DUP3 ADD MSTORE PUSH1 0x64 ADD PUSH2 0x453 JUMP JUMPDEST DUP2 PUSH1 0x2 PUSH1 0x0 DUP3 DUP3 SLOAD PUSH2 0xC0D SWAP2 SWAP1 PUSH2 0x1572 JUMP JUMPDEST SWAP3 POP POP DUP2 SWAP1 SSTORE POP DUP3 PUSH1 0x3 PUSH1 0x0 DUP3 DUP3 SLOAD PUSH2 0xC26 SWAP2 SWAP1 PUSH2 0x1572 JUMP JUMPDEST SWAP1 SWAP2 SSTORE POP POP CALLER PUSH1 0x0 SWAP1 DUP2 MSTORE PUSH1 0x5 PUSH1 0x20 MSTORE PUSH1 0x40 DUP2 KECCAK256 DUP1 SLOAD DUP5 SWAP3 SWAP1 PUSH2 0xC4A SWAP1 DUP5 SWAP1 PUSH2 0x1572 JUMP JUMPDEST SWAP1 SWAP2 SSTORE POP POP PUSH1 0x40 DUP1 MLOAD DUP4 DUP2 MSTORE TIMESTAMP PUSH1 0x20 DUP3 ADD MSTORE CALLER SWAP2 PUSH32 0x16B0630C5EDF6D72A5389EF786AD45F7299B67B9C97793DD772B1AD0CDE50CB0 SWAP2 ADD PUSH1 0x40 MLOAD DUP1 SWAP2 SUB SWAP1 LOG2 POP POP POP PUSH2 0x54D PUSH1 0x1 PUSH1 0x0 SSTORE JUMP JUMPDEST PUSH1 0x6 DUP2 DUP2 SLOAD DUP2 LT PUSH2 0xCA6 JUMPI PUSH1 0x0 DUP1 REVERT JUMPDEST PUSH1 0x0 SWAP2 DUP3 MSTORE PUSH1 0x20 SWAP1 SWAP2 KECCAK256 PUSH1 0x8 SWAP1 SWAP2 MUL ADD DUP1 SLOAD PUSH1 0x1 DUP3 ADD DUP1 SLOAD PUSH1 0x1 PUSH1 0x1 PUSH1 0xA0 SHL SUB SWAP1 SWAP3 AND SWAP4 POP SWAP1 PUSH2 0xCD5 SWAP1 PUSH2 0x15C9 JUMP JUMPDEST DUP1 PUSH1 0x1F ADD PUSH1 0x20 DUP1 SWAP2 DIV MUL PUSH1 0x20 ADD PUSH1 0x40 MLOAD SWAP1 DUP2 ADD PUSH1 0x40 MSTORE DUP1 SWAP3 SWAP2 SWAP1 DUP2 DUP2 MSTORE PUSH1 0x20 ADD DUP3 DUP1 SLOAD PUSH2 0xD01 SWAP1 PUSH2 0x15C9 JUMP JUMPDEST DUP1 ISZERO PUSH2 0xD4E JUMPI DUP1 PUSH1 0x1F LT PUSH2 0xD23 JUMPI PUSH2 0x100 DUP1 DUP4 SLOAD DIV MUL DUP4 MSTORE SWAP2 PUSH1 0x20 ADD SWAP2 PUSH2 0xD4E JUMP JUMPDEST DUP3 ADD SWAP2 SWAP1 PUSH1 0x0 MSTORE PUSH1 0x20 PUSH1 0x0 KECCAK256 SWAP1 JUMPDEST DUP2 SLOAD DUP2 MSTORE SWAP1 PUSH1 0x1 ADD SWAP1 PUSH1 0x20 ADD DUP1 DUP4 GT PUSH2 0xD31 JUMPI DUP3 SWAP1 SUB PUSH1 0x1F AND DUP3 ADD SWAP2 JUMPDEST POP POP POP POP POP SWAP1 DUP1 PUSH1 0x2 ADD DUP1 SLOAD PUSH2 0xD63 SWAP1 PUSH2 0x15C9 JUMP JUMPDEST DUP1 PUSH1 0x1F ADD PUSH1 0x20 DUP1 SWAP2 DIV MUL PUSH1 0x20 ADD PUSH1 0x40 MLOAD SWAP1 DUP2 ADD PUSH1 0x40 MSTORE DUP1 SWAP3 SWAP2 SWAP1 DUP2 DUP2 MSTORE PUSH1 0x20 ADD DUP3 DUP1 SLOAD PUSH2 0xD8F SWAP1 PUSH2 0x15C9 JUMP JUMPDEST DUP1 ISZERO PUSH2 0xDDC JUMPI DUP1 PUSH1 0x1F LT PUSH2 0xDB1 JUMPI PUSH2 0x100 DUP1 DUP4 SLOAD DIV MUL DUP4 MSTORE SWAP2 PUSH1 0x20 ADD SWAP2 PUSH2 0xDDC JUMP JUMPDEST DUP3 ADD SWAP2 SWAP1 PUSH1 0x0 MSTORE PUSH1 0x20 PUSH1 0x0 KECCAK256 SWAP1 JUMPDEST DUP2 SLOAD DUP2 MSTORE SWAP1 PUSH1 0x1 ADD SWAP1 PUSH1 0x20 ADD DUP1 DUP4 GT PUSH2 0xDBF JUMPI DUP3 SWAP1 SUB PUSH1 0x1F AND DUP3 ADD SWAP2 JUMPDEST POP POP POP POP POP SWAP1 DUP1 PUSH1 0x3 ADD SLOAD SWAP1 DUP1 PUSH1 0x4 ADD SLOAD SWAP1 DUP1 PUSH1 0x5 ADD DUP1 SLOAD PUSH2 0xDFD SWAP1 PUSH2 0x15C9 JUMP JUMPDEST DUP1 PUSH1 0x1F ADD PUSH1 0x20 DUP1 SWAP2 DIV MUL PUSH1 0x20 ADD PUSH1 0x40 MLOAD SWAP1 DUP2 ADD PUSH1 0x40 MSTORE DUP1 SWAP3 SWAP2 SWAP1 DUP2 DUP2 MSTORE PUSH1 0x20 ADD DUP3 DUP1 SLOAD PUSH2 0xE29 SWAP1 PUSH2 0x15C9 JUMP JUMPDEST DUP1 ISZERO PUSH2 0xE76 JUMPI DUP1 PUSH1 0x1F LT PUSH2 0xE4B JUMPI PUSH2 0x100 DUP1 DUP4 SLOAD DIV MUL DUP4 MSTORE SWAP2 PUSH1 0x20 ADD SWAP2 PUSH2 0xE76 JUMP JUMPDEST DUP3 ADD SWAP2 SWAP1 PUSH1 0x0 MSTORE PUSH1 0x20 PUSH1 0x0 KECCAK256 SWAP1 JUMPDEST DUP2 SLOAD DUP2 MSTORE SWAP1 PUSH1 0x1 ADD SWAP1 PUSH1 0x20 ADD DUP1 DUP4 GT PUSH2 0xE59 JUMPI DUP3 SWAP1 SUB PUSH1 0x1F AND DUP3 ADD SWAP2 JUMPDEST POP POP POP POP PUSH1 0x6 DUP4 ADD SLOAD PUSH1 0x7 SWAP1 SWAP4 ADD SLOAD SWAP2 SWAP3 SWAP2 PUSH1 0xFF AND SWAP1 POP DUP9 JUMP JUMPDEST PUSH1 0x0 DUP1 PUSH1 0x0 DUP1 PUSH1 0x2 SLOAD PUSH1 0x3 SLOAD PUSH1 0x2 SLOAD PUSH11 0x52B7D2DCC80CD2E4000000 PUSH2 0xEB5 SWAP2 SWAP1 PUSH2 0x176A JUMP JUMPDEST SELFBALANCE SWAP4 POP SWAP4 POP SWAP4 POP SWAP4 POP SWAP1 SWAP2 SWAP3 SWAP4 JUMP JUMPDEST PUSH2 0xECC PUSH2 0xFBF JUMP JUMPDEST PUSH1 0x1 PUSH1 0x1 PUSH1 0xA0 SHL SUB DUP3 AND PUSH2 0xF1B JUMPI PUSH1 0x40 MLOAD PUSH3 0x461BCD PUSH1 0xE5 SHL DUP2 MSTORE PUSH1 0x20 PUSH1 0x4 DUP3 ADD MSTORE PUSH1 0x16 PUSH1 0x24 DUP3 ADD MSTORE PUSH22 0x496E76616C6964206F7261636C652061646472657373 PUSH1 0x50 SHL PUSH1 0x44 DUP3 ADD MSTORE PUSH1 0x64 ADD PUSH2 0x453 JUMP JUMPDEST PUSH1 0x1 PUSH1 0x1 PUSH1 0xA0 SHL SUB SWAP2 SWAP1 SWAP2 AND PUSH1 0x0 SWAP1 DUP2 MSTORE PUSH1 0x7 PUSH1 0x20 MSTORE PUSH1 0x40 SWAP1 KECCAK256 DUP1 SLOAD PUSH1 0xFF NOT AND SWAP2 ISZERO ISZERO SWAP2 SWAP1 SWAP2 OR SWAP1 SSTORE JUMP JUMPDEST PUSH2 0xF4E PUSH2 0xFBF JUMP JUMPDEST PUSH1 0x1 PUSH1 0x1 PUSH1 0xA0 SHL SUB DUP2 AND PUSH2 0xFB3 JUMPI PUSH1 0x40 MLOAD PUSH3 0x461BCD PUSH1 0xE5 SHL DUP2 MSTORE PUSH1 0x20 PUSH1 0x4 DUP3 ADD MSTORE PUSH1 0x26 PUSH1 0x24 DUP3 ADD MSTORE PUSH32 0x4F776E61626C653A206E6577206F776E657220697320746865207A65726F2061 PUSH1 0x44 DUP3 ADD MSTORE PUSH6 0x646472657373 PUSH1 0xD0 SHL PUSH1 0x64 DUP3 ADD MSTORE PUSH1 0x84 ADD PUSH2 0x453 JUMP JUMPDEST PUSH2 0xFBC DUP2 PUSH2 0x1114 JUMP JUMPDEST POP JUMP JUMPDEST PUSH1 0x1 SLOAD PUSH1 0x1 PUSH1 0x1 PUSH1 0xA0 SHL SUB AND CALLER EQ PUSH2 0x54D JUMPI PUSH1 0x40 MLOAD PUSH3 0x461BCD PUSH1 0xE5 SHL DUP2 MSTORE PUSH1 0x20 PUSH1 0x4 DUP3 ADD DUP2 SWAP1 MSTORE PUSH1 0x24 DUP3 ADD MSTORE PUSH32 0x4F776E61626C653A2063616C6C6572206973206E6F7420746865206F776E6572 PUSH1 0x44 DUP3 ADD MSTORE PUSH1 0x64 ADD PUSH2 0x453 JUMP JUMPDEST PUSH2 0x1021 PUSH2 0x11A9 JUMP JUMPDEST PUSH1 0x1 DUP1 SLOAD PUSH1 0xFF PUSH1 0xA0 SHL NOT AND SWAP1 SSTORE PUSH32 0x5DB9EE0A495BF2E6FF9C91A7834C1BA4FDD244A5E8AA4E537BD38AEAE4B073AA CALLER JUMPDEST PUSH1 0x40 MLOAD PUSH1 0x1 PUSH1 0x1 PUSH1 0xA0 SHL SUB SWAP1 SWAP2 AND DUP2 MSTORE PUSH1 0x20 ADD PUSH1 0x40 MLOAD DUP1 SWAP2 SUB SWAP1 LOG1 JUMP JUMPDEST PUSH1 0x2 PUSH1 0x0 SLOAD SUB PUSH2 0x10C0 JUMPI PUSH1 0x40 MLOAD PUSH3 0x461BCD PUSH1 0xE5 SHL DUP2 MSTORE PUSH1 0x20 PUSH1 0x4 DUP3 ADD MSTORE PUSH1 0x1F PUSH1 0x24 DUP3 ADD MSTORE PUSH32 0x5265656E7472616E637947756172643A207265656E7472616E742063616C6C00 PUSH1 0x44 DUP3 ADD MSTORE PUSH1 0x64 ADD PUSH2 0x453 JUMP JUMPDEST PUSH1 0x2 PUSH1 0x0 SSTORE JUMP JUMPDEST PUSH1 0x1 SLOAD PUSH1 0x1 PUSH1 0xA0 SHL SWAP1 DIV PUSH1 0xFF AND ISZERO PUSH2 0x54D JUMPI PUSH1 0x40 MLOAD PUSH3 0x461BCD PUSH1 0xE5 SHL DUP2 MSTORE PUSH1 0x20 PUSH1 0x4 DUP3 ADD MSTORE PUSH1 0x10 PUSH1 0x24 DUP3 ADD MSTORE PUSH16 0x14185D5CD8589B194E881C185D5CD959 PUSH1 0x82 SHL PUSH1 0x44 DUP3 ADD MSTORE PUSH1 0x64 ADD PUSH2 0x453 JUMP JUMPDEST PUSH1 0x1 DUP1 SLOAD PUSH1 0x1 PUSH1 0x1 PUSH1 0xA0 SHL SUB DUP4 DUP2 AND PUSH1 0x1 PUSH1 0x1 PUSH1 0xA0 SHL SUB NOT DUP4 AND DUP2 OR SWAP1 SWAP4 SSTORE PUSH1 0x40 MLOAD SWAP2 AND SWAP2 SWAP1 DUP3 SWAP1 PUSH32 0x8BE0079C531659141344CD1FD0A4F28419497F9722A3DAAFE3B4186F6B6457E0 SWAP1 PUSH1 0x0 SWAP1 LOG3 POP POP JUMP JUMPDEST PUSH2 0x116E PUSH2 0x10C7 JUMP JUMPDEST PUSH1 0x1 DUP1 SLOAD PUSH1 0xFF PUSH1 0xA0 SHL NOT AND PUSH1 0x1 PUSH1 0xA0 SHL OR SWAP1 SSTORE PUSH32 0x62E78CEA01BEE320CD4E420270B5EA74000D11B0C9F74754EBDBFC544B05A258 PUSH2 0x1051 CALLER SWAP1 JUMP JUMPDEST PUSH1 0x1 SLOAD PUSH1 0x1 PUSH1 0xA0 SHL SWAP1 DIV PUSH1 0xFF AND PUSH2 0x54D JUMPI PUSH1 0x40 MLOAD PUSH3 0x461BCD PUSH1 0xE5 SHL DUP2 MSTORE PUSH1 0x20 PUSH1 0x4 DUP3 ADD MSTORE PUSH1 0x14 PUSH1 0x24 DUP3 ADD MSTORE PUSH20 0x14185D5CD8589B194E881B9BDD081C185D5CD959 PUSH1 0x62 SHL PUSH1 0x44 DUP3 ADD MSTORE PUSH1 0x64 ADD PUSH2 0x453 JUMP JUMPDEST DUP1 CALLDATALOAD PUSH1 0x1 PUSH1 0x1 PUSH1 0xA0 SHL SUB DUP2 AND DUP2 EQ PUSH2 0x1210 JUMPI PUSH1 0x0 DUP1 REVERT JUMPDEST SWAP2 SWAP1 POP JUMP JUMPDEST PUSH1 0x0 DUP1 PUSH1 0x40 DUP4 DUP6 SUB SLT ISZERO PUSH2 0x1228 JUMPI PUSH1 0x0 DUP1 REVERT JUMPDEST DUP3 CALLDATALOAD SWAP2 POP PUSH2 0x1238 PUSH1 0x20 DUP5 ADD PUSH2 0x11F9 JUMP JUMPDEST SWAP1 POP SWAP3 POP SWAP3 SWAP1 POP JUMP JUMPDEST PUSH1 0x0 PUSH1 0x20 DUP3 DUP5 SUB SLT ISZERO PUSH2 0x1253 JUMPI PUSH1 0x0 DUP1 REVERT JUMPDEST PUSH2 0x125C DUP3 PUSH2 0x11F9 JUMP JUMPDEST SWAP4 SWAP3 POP POP POP JUMP JUMPDEST PUSH4 0x4E487B71 PUSH1 0xE0 SHL PUSH1 0x0 MSTORE PUSH1 0x41 PUSH1 0x4 MSTORE PUSH1 0x24 PUSH1 0x0 REVERT JUMPDEST PUSH1 0x0 DUP3 PUSH1 0x1F DUP4 ADD SLT PUSH2 0x128A JUMPI PUSH1 0x0 DUP1 REVERT JUMPDEST DUP2 CALLDATALOAD PUSH8 0xFFFFFFFFFFFFFFFF DUP1 DUP3 GT ISZERO PUSH2 0x12A5 JUMPI PUSH2 0x12A5 PUSH2 0x1263 JUMP JUMPDEST PUSH1 0x40 MLOAD PUSH1 0x1F DUP4 ADD PUSH1 0x1F NOT SWAP1 DUP2 AND PUSH1 0x3F ADD AND DUP2 ADD SWAP1 DUP3 DUP3 GT DUP2 DUP4 LT OR ISZERO PUSH2 0x12CD JUMPI PUSH2 0x12CD PUSH2 0x1263 JUMP JUMPDEST DUP2 PUSH1 0x40 MSTORE DUP4 DUP2 MSTORE DUP7 PUSH1 0x20 DUP6 DUP9 ADD ADD GT ISZERO PUSH2 0x12E6 JUMPI PUSH1 0x0 DUP1 REVERT JUMPDEST DUP4 PUSH1 0x20 DUP8 ADD PUSH1 0x20 DUP4 ADD CALLDATACOPY PUSH1 0x0 PUSH1 0x20 DUP6 DUP4 ADD ADD MSTORE DUP1 SWAP5 POP POP POP POP POP SWAP3 SWAP2 POP POP JUMP JUMPDEST PUSH1 0x0 DUP1 PUSH1 0x0 DUP1 PUSH1 0x0 PUSH1 0xA0 DUP7 DUP9 SUB SLT ISZERO PUSH2 0x131E JUMPI PUSH1 0x0 DUP1 REVERT JUMPDEST PUSH2 0x1327 DUP7 PUSH2 0x11F9 JUMP JUMPDEST SWAP5 POP PUSH1 0x20 DUP7 ADD CALLDATALOAD PUSH8 0xFFFFFFFFFFFFFFFF DUP1 DUP3 GT ISZERO PUSH2 0x1344 JUMPI PUSH1 0x0 DUP1 REVERT JUMPDEST PUSH2 0x1350 DUP10 DUP4 DUP11 ADD PUSH2 0x1279 JUMP JUMPDEST SWAP6 POP PUSH1 0x40 DUP9 ADD CALLDATALOAD SWAP2 POP DUP1 DUP3 GT ISZERO PUSH2 0x1366 JUMPI PUSH1 0x0 DUP1 REVERT JUMPDEST PUSH2 0x1372 DUP10 DUP4 DUP11 ADD PUSH2 0x1279 JUMP JUMPDEST SWAP5 POP PUSH1 0x60 DUP9 ADD CALLDATALOAD SWAP4 POP PUSH1 0x80 DUP9 ADD CALLDATALOAD SWAP2 POP DUP1 DUP3 GT ISZERO PUSH2 0x138F JUMPI PUSH1 0x0 DUP1 REVERT JUMPDEST POP PUSH2 0x139C DUP9 DUP3 DUP10 ADD PUSH2 0x1279 JUMP JUMPDEST SWAP2 POP POP SWAP3 SWAP6 POP SWAP3 SWAP6 SWAP1 SWAP4 POP JUMP JUMPDEST PUSH1 0x0 PUSH1 0x20 DUP3 DUP5 SUB SLT ISZERO PUSH2 0x13BB JUMPI PUSH1 0x0 DUP1 REVERT JUMPDEST DUP2 CALLDATALOAD PUSH8 0xFFFFFFFFFFFFFFFF DUP2 GT ISZERO PUSH2 0x13D2 JUMPI PUSH1 0x0 DUP1 REVERT JUMPDEST PUSH2 0x13DE DUP5 DUP3 DUP6 ADD PUSH2 0x1279 JUMP JUMPDEST SWAP5 SWAP4 POP POP POP POP JUMP JUMPDEST PUSH1 0x0 PUSH1 0x20 DUP3 DUP5 SUB SLT ISZERO PUSH2 0x13F8 JUMPI PUSH1 0x0 DUP1 REVERT JUMPDEST POP CALLDATALOAD SWAP2 SWAP1 POP JUMP JUMPDEST PUSH1 0x0 JUMPDEST DUP4 DUP2 LT ISZERO PUSH2 0x141A JUMPI DUP2 DUP2 ADD MLOAD DUP4 DUP3 ADD MSTORE PUSH1 0x20 ADD PUSH2 0x1402 JUMP JUMPDEST POP POP PUSH1 0x0 SWAP2 ADD MSTORE JUMP JUMPDEST PUSH1 0x0 DUP2 MLOAD DUP1 DUP5 MSTORE PUSH2 0x143B DUP2 PUSH1 0x20 DUP7 ADD PUSH1 0x20 DUP7 ADD PUSH2 0x13FF JUMP JUMPDEST PUSH1 0x1F ADD PUSH1 0x1F NOT AND SWAP3 SWAP1 SWAP3 ADD PUSH1 0x20 ADD SWAP3 SWAP2 POP POP JUMP JUMPDEST PUSH1 0x1 PUSH1 0x1 PUSH1 0xA0 SHL SUB DUP10 AND DUP2 MSTORE PUSH2 0x100 PUSH1 0x20 DUP3 ADD DUP2 SWAP1 MSTORE PUSH1 0x0 SWAP1 PUSH2 0x1474 DUP4 DUP3 ADD DUP12 PUSH2 0x1423 JUMP JUMPDEST SWAP1 POP DUP3 DUP2 SUB PUSH1 0x40 DUP5 ADD MSTORE PUSH2 0x1488 DUP2 DUP11 PUSH2 0x1423 JUMP JUMPDEST SWAP1 POP DUP8 PUSH1 0x60 DUP5 ADD MSTORE DUP7 PUSH1 0x80 DUP5 ADD MSTORE DUP3 DUP2 SUB PUSH1 0xA0 DUP5 ADD MSTORE PUSH2 0x14A8 DUP2 DUP8 PUSH2 0x1423 JUMP JUMPDEST PUSH1 0xC0 DUP5 ADD SWAP6 SWAP1 SWAP6 MSTORE POP POP SWAP1 ISZERO ISZERO PUSH1 0xE0 SWAP1 SWAP2 ADD MSTORE SWAP7 SWAP6 POP POP POP POP POP POP JUMP JUMPDEST PUSH1 0x0 DUP1 PUSH1 0x40 DUP4 DUP6 SUB SLT ISZERO PUSH2 0x14D8 JUMPI PUSH1 0x0 DUP1 REVERT JUMPDEST PUSH2 0x14E1 DUP4 PUSH2 0x11F9 JUMP JUMPDEST SWAP2 POP PUSH1 0x20 DUP4 ADD CALLDATALOAD DUP1 ISZERO ISZERO DUP2 EQ PUSH2 0x14F6 JUMPI PUSH1 0x0 DUP1 REVERT JUMPDEST DUP1 SWAP2 POP POP SWAP3 POP SWAP3 SWAP1 POP JUMP JUMPDEST PUSH1 0x0 DUP3 MLOAD PUSH2 0x1513 DUP2 DUP5 PUSH1 0x20 DUP8 ADD PUSH2 0x13FF JUMP JUMPDEST SWAP2 SWAP1 SWAP2 ADD SWAP3 SWAP2 POP POP JUMP JUMPDEST PUSH4 0x4E487B71 PUSH1 0xE0 SHL PUSH1 0x0 MSTORE PUSH1 0x11 PUSH1 0x4 MSTORE PUSH1 0x24 PUSH1 0x0 REVERT JUMPDEST DUP1 DUP3 MUL DUP2 ISZERO DUP3 DUP3 DIV DUP5 EQ OR PUSH2 0x154A JUMPI PUSH2 0x154A PUSH2 0x151D JUMP JUMPDEST SWAP3 SWAP2 POP POP JUMP JUMPDEST PUSH1 0x0 DUP3 PUSH2 0x156D JUMPI PUSH4 0x4E487B71 PUSH1 0xE0 SHL PUSH1 0x0 MSTORE PUSH1 0x12 PUSH1 0x4 MSTORE PUSH1 0x24 PUSH1 0x0 REVERT JUMPDEST POP DIV SWAP1 JUMP JUMPDEST DUP1 DUP3 ADD DUP1 DUP3 GT ISZERO PUSH2 0x154A JUMPI PUSH2 0x154A PUSH2 0x151D JUMP JUMPDEST PUSH1 0x20 DUP1 DUP3 MSTORE PUSH1 0x24 SWAP1 DUP3 ADD MSTORE PUSH32 0x496E73756666696369656E742042414B2062616C616E636520696E20636F6E74 PUSH1 0x40 DUP3 ADD MSTORE PUSH4 0x1C9858DD PUSH1 0xE2 SHL PUSH1 0x60 DUP3 ADD MSTORE PUSH1 0x80 ADD SWAP1 JUMP JUMPDEST PUSH1 0x1 DUP2 DUP2 SHR SWAP1 DUP3 AND DUP1 PUSH2 0x15DD JUMPI PUSH1 0x7F DUP3 AND SWAP2 POP JUMPDEST PUSH1 0x20 DUP3 LT DUP2 SUB PUSH2 0x15FD JUMPI PUSH4 0x4E487B71 PUSH1 0xE0 SHL PUSH1 0x0 MSTORE PUSH1 0x22 PUSH1 0x4 MSTORE PUSH1 0x24 PUSH1 0x0 REVERT JUMPDEST POP SWAP2 SWAP1 POP JUMP JUMPDEST PUSH1 0x1F DUP3 GT ISZERO PUSH2 0x538 JUMPI PUSH1 0x0 DUP2 DUP2 MSTORE PUSH1 0x20 DUP2 KECCAK256 PUSH1 0x1F DUP6 ADD PUSH1 0x5 SHR DUP2 ADD PUSH1 0x20 DUP7 LT ISZERO PUSH2 0x162A JUMPI POP DUP1 JUMPDEST PUSH1 0x1F DUP6 ADD PUSH1 0x5 SHR DUP3 ADD SWAP2 POP JUMPDEST DUP2 DUP2 LT ISZERO PUSH2 0x1649 JUMPI DUP3 DUP2 SSTORE PUSH1 0x1 ADD PUSH2 0x1636 JUMP JUMPDEST POP POP POP POP POP POP JUMP JUMPDEST DUP2 MLOAD PUSH8 0xFFFFFFFFFFFFFFFF DUP2 GT ISZERO PUSH2 0x166B JUMPI PUSH2 0x166B PUSH2 0x1263 JUMP JUMPDEST PUSH2 0x167F DUP2 PUSH2 0x1679 DUP5 SLOAD PUSH2 0x15C9 JUMP JUMPDEST DUP5 PUSH2 0x1603 JUMP JUMPDEST PUSH1 0x20 DUP1 PUSH1 0x1F DUP4 GT PUSH1 0x1 DUP2 EQ PUSH2 0x16B4 JUMPI PUSH1 0x0 DUP5 ISZERO PUSH2 0x169C JUMPI POP DUP6 DUP4 ADD MLOAD JUMPDEST PUSH1 0x0 NOT PUSH1 0x3 DUP7 SWAP1 SHL SHR NOT AND PUSH1 0x1 DUP6 SWAP1 SHL OR DUP6 SSTORE PUSH2 0x1649 JUMP JUMPDEST PUSH1 0x0 DUP6 DUP2 MSTORE PUSH1 0x20 DUP2 KECCAK256 PUSH1 0x1F NOT DUP7 AND SWAP2 JUMPDEST DUP3 DUP2 LT ISZERO PUSH2 0x16E3 JUMPI DUP9 DUP7 ADD MLOAD DUP3 SSTORE SWAP5 DUP5 ADD SWAP5 PUSH1 0x1 SWAP1 SWAP2 ADD SWAP1 DUP5 ADD PUSH2 0x16C4 JUMP JUMPDEST POP DUP6 DUP3 LT ISZERO PUSH2 0x1701 JUMPI DUP8 DUP6 ADD MLOAD PUSH1 0x0 NOT PUSH1 0x3 DUP9 SWAP1 SHL PUSH1 0xF8 AND SHR NOT AND DUP2 SSTORE JUMPDEST POP POP POP POP POP PUSH1 0x1 SWAP1 DUP2 SHL ADD SWAP1 SSTORE POP JUMP JUMPDEST PUSH1 0xC0 DUP2 MSTORE PUSH1 0x0 PUSH2 0x1724 PUSH1 0xC0 DUP4 ADD DUP10 PUSH2 0x1423 JUMP JUMPDEST DUP3 DUP2 SUB PUSH1 0x20 DUP5 ADD MSTORE PUSH2 0x1736 DUP2 DUP10 PUSH2 0x1423 JUMP JUMPDEST SWAP1 POP DUP7 PUSH1 0x40 DUP5 ADD MSTORE DUP6 PUSH1 0x60 DUP5 ADD MSTORE DUP3 DUP2 SUB PUSH1 0x80 DUP5 ADD MSTORE PUSH2 0x1756 DUP2 DUP7 PUSH2 0x1423 JUMP JUMPDEST SWAP2 POP POP DUP3 PUSH1 0xA0 DUP4 ADD MSTORE SWAP8 SWAP7 POP POP POP POP POP POP POP JUMP JUMPDEST DUP2 DUP2 SUB DUP2 DUP2 GT ISZERO PUSH2 0x154A JUMPI PUSH2 0x154A PUSH2 0x151D JUMP INVALID LOG2 PUSH5 0x6970667358 0x22 SLT KECCAK256 JUMPDEST 0xCD GT CALL 0xFB MSIZE SWAP5 0x27 SWAP3 0x2F DUP10 0xD8 DUP1 0x21 0xAE INVALID 0xD8 0xC3 LOG4 0xE 0xFC DUP6 0xAC PUSH0 PUSH10 0x508618492F02BD64736F PUSH13 0x63430008140033000000000000 "},"methodIdentifiers":{"BAK_PRICE_USD()":"1f597b6e","TOTAL_BAK_SUPPLY()":"096402cb","authorizedOracles(address)":"61c992a3","crossChainPurchases(uint256)":"bcb34ea5","emergencyWithdraw(uint256,address)":"2f940c70","getCrossChainPurchaseCount()":"80ab2efd","getStats()":"c59d4847","isTransactionProcessed(string)":"87258982","owner()":"8da5cb5b","pause()":"8456cb59","paused()":"5c975abb","processCrossChainPurchase(address,string,string,uint256,string)":"409e805e","processedTxHashes(string)":"c2e9c122","purchaseBAKDirect()":"a495b963","renounceOwnership()":"715018a6","setAuthorizedOracle(address,bool)":"c7a6de4d","totalBakSold()":"789701e8","totalUSDRaised()":"85cbc881","transferOwnership(address)":"f2fde38b","unpause()":"3f4ba83a","userPurchases(address)":"39f65c09"}}}}}