{
  "_format": "hh-sol-artifact-1",
  "contractName": "BrainArkEPOEnhanced",
  "sourceName": "contracts/BrainArkEPOEnhanced.sol",
  "abi": [
    {
      "inputs": [
        {
          "internalType": "address",
          "name": "_fundingWallet",
          "type": "address"
        },
        {
          "internalType": "address",
          "name": "_ethWallet",
          "type": "address"
        },
        {
          "internalType": "address",
          "name": "_usdtWallet",
          "type": "address"
        },
        {
          "internalType": "address",
          "name": "_usdcWallet",
          "type": "address"
        },
        {
          "internalType": "address",
          "name": "_bnbWallet",
          "type": "address"
        },
        {
          "internalType": "address",
          "name": "_defaultWallet",
          "type": "address"
        }
      ],
      "stateMutability": "nonpayable",
      "type": "constructor"
    },
    {
      "anonymous": false,
      "inputs": [
        {
          "indexed": false,
          "internalType": "uint256",
          "name": "totalSold",
          "type": "uint256"
        },
        {
          "indexed": false,
          "internalType": "uint256",
          "name": "newPrice",
          "type": "uint256"
        },
        {
          "indexed": false,
          "internalType": "uint256",
          "name": "timestamp",
          "type": "uint256"
        }
      ],
      "name": "BondingCurveUpdate",
      "type": "event"
    },
    {
      "anonymous": false,
      "inputs": [
        {
          "indexed": true,
          "internalType": "address",
          "name": "buyer",
          "type": "address"
        },
        {
          "indexed": true,
          "internalType": "string",
          "name": "sourceNetwork",
          "type": "string"
        },
        {
          "indexed": true,
          "internalType": "string",
          "name": "paymentToken",
          "type": "string"
        },
        {
          "indexed": false,
          "internalType": "bytes32",
          "name": "txHash",
          "type": "bytes32"
        },
        {
          "indexed": false,
          "internalType": "uint256",
          "name": "paymentAmountUSD",
          "type": "uint256"
        },
        {
          "indexed": false,
          "internalType": "uint256",
          "name": "bakAmount",
          "type": "uint256"
        },
        {
          "indexed": false,
          "internalType": "uint256",
          "name": "effectivePrice",
          "type": "uint256"
        },
        {
          "indexed": false,
          "internalType": "uint256",
          "name": "timestamp",
          "type": "uint256"
        }
      ],
      "name": "CrossChainPurchase",
      "type": "event"
    },
    {
      "anonymous": false,
      "inputs": [
        {
          "indexed": true,
          "internalType": "address",
          "name": "previousOwner",
          "type": "address"
        },
        {
          "indexed": true,
          "internalType": "address",
          "name": "newOwner",
          "type": "address"
        }
      ],
      "name": "OwnershipTransferred",
      "type": "event"
    },
    {
      "anonymous": false,
      "inputs": [
        {
          "indexed": false,
          "internalType": "address",
          "name": "account",
          "type": "address"
        }
      ],
      "name": "Paused",
      "type": "event"
    },
    {
      "anonymous": false,
      "inputs": [
        {
          "indexed": true,
          "internalType": "address",
          "name": "token",
          "type": "address"
        },
        {
          "indexed": false,
          "internalType": "bool",
          "name": "enabled",
          "type": "bool"
        },
        {
          "indexed": false,
          "internalType": "uint256",
          "name": "priceUSD",
          "type": "uint256"
        },
        {
          "indexed": false,
          "internalType": "uint256",
          "name": "timestamp",
          "type": "uint256"
        }
      ],
      "name": "PaymentTokenUpdated",
      "type": "event"
    },
    {
      "anonymous": false,
      "inputs": [
        {
          "indexed": true,
          "internalType": "address",
          "name": "buyer",
          "type": "address"
        },
        {
          "indexed": true,
          "internalType": "address",
          "name": "paymentToken",
          "type": "address"
        },
        {
          "indexed": false,
          "internalType": "uint256",
          "name": "paymentAmount",
          "type": "uint256"
        },
        {
          "indexed": false,
          "internalType": "uint256",
          "name": "bakAmount",
          "type": "uint256"
        },
        {
          "indexed": false,
          "internalType": "uint256",
          "name": "usdValue",
          "type": "uint256"
        },
        {
          "indexed": false,
          "internalType": "address",
          "name": "treasuryWallet",
          "type": "address"
        },
        {
          "indexed": false,
          "internalType": "uint256",
          "name": "timestamp",
          "type": "uint256"
        }
      ],
      "name": "TokenPurchase",
      "type": "event"
    },
    {
      "anonymous": false,
      "inputs": [
        {
          "indexed": false,
          "internalType": "address",
          "name": "account",
          "type": "address"
        }
      ],
      "name": "Unpaused",
      "type": "event"
    },
    {
      "inputs": [],
      "name": "BAK_PRICE_END",
      "outputs": [
        {
          "internalType": "uint256",
          "name": "",
          "type": "uint256"
        }
      ],
      "stateMutability": "view",
      "type": "function"
    },
    {
      "inputs": [],
      "name": "BAK_PRICE_START",
      "outputs": [
        {
          "internalType": "uint256",
          "name": "",
          "type": "uint256"
        }
      ],
      "stateMutability": "view",
      "type": "function"
    },
    {
      "inputs": [],
      "name": "CURVE_STEEPNESS",
      "outputs": [
        {
          "internalType": "uint256",
          "name": "",
          "type": "uint256"
        }
      ],
      "stateMutability": "view",
      "type": "function"
    },
    {
      "inputs": [],
      "name": "PRICE_INCREASE_FACTOR",
      "outputs": [
        {
          "internalType": "uint256",
          "name": "",
          "type": "uint256"
        }
      ],
      "stateMutability": "view",
      "type": "function"
    },
    {
      "inputs": [],
      "name": "SIGNATURE_EXPIRY",
      "outputs": [
        {
          "internalType": "uint256",
          "name": "",
          "type": "uint256"
        }
      ],
      "stateMutability": "view",
      "type": "function"
    },
    {
      "inputs": [],
      "name": "TOTAL_BAK_SUPPLY",
      "outputs": [
        {
          "internalType": "uint256",
          "name": "",
          "type": "uint256"
        }
      ],
      "stateMutability": "view",
      "type": "function"
    },
    {
      "inputs": [],
      "name": "USD_DECIMALS",
      "outputs": [
        {
          "internalType": "uint256",
          "name": "",
          "type": "uint256"
        }
      ],
      "stateMutability": "view",
      "type": "function"
    },
    {
      "inputs": [
        {
          "internalType": "uint256",
          "name": "",
          "type": "uint256"
        }
      ],
      "name": "allPurchases",
      "outputs": [
        {
          "internalType": "address",
          "name": "buyer",
          "type": "address"
        },
        {
          "internalType": "address",
          "name": "paymentToken",
          "type": "address"
        },
        {
          "internalType": "uint256",
          "name": "paymentAmount",
          "type": "uint256"
        },
        {
          "internalType": "uint256",
          "name": "bakAmount",
          "type": "uint256"
        },
        {
          "internalType": "uint256",
          "name": "usdValue",
          "type": "uint256"
        },
        {
          "internalType": "uint256",
          "name": "timestamp",
          "type": "uint256"
        }
      ],
      "stateMutability": "view",
      "type": "function"
    },
    {
      "inputs": [],
      "name": "bondingCurveEnabled",
      "outputs": [
        {
          "internalType": "bool",
          "name": "",
          "type": "bool"
        }
      ],
      "stateMutability": "view",
      "type": "function"
    },
    {
      "inputs": [
        {
          "internalType": "uint256",
          "name": "usdAmount",
          "type": "uint256"
        }
      ],
      "name": "calculateBondingCurve",
      "outputs": [
        {
          "internalType": "uint256",
          "name": "bakAmount",
          "type": "uint256"
        },
        {
          "internalType": "uint256",
          "name": "averagePrice",
          "type": "uint256"
        },
        {
          "internalType": "uint256",
          "name": "newPrice",
          "type": "uint256"
        }
      ],
      "stateMutability": "view",
      "type": "function"
    },
    {
      "inputs": [
        {
          "internalType": "address",
          "name": "paymentToken",
          "type": "address"
        },
        {
          "internalType": "uint256",
          "name": "paymentAmount",
          "type": "uint256"
        }
      ],
      "name": "calculatePurchase",
      "outputs": [
        {
          "internalType": "uint256",
          "name": "usdValue",
          "type": "uint256"
        },
        {
          "internalType": "uint256",
          "name": "bakAmount",
          "type": "uint256"
        }
      ],
      "stateMutability": "view",
      "type": "function"
    },
    {
      "inputs": [
        {
          "internalType": "string",
          "name": "",
          "type": "string"
        },
        {
          "internalType": "string",
          "name": "",
          "type": "string"
        }
      ],
      "name": "crossChainTreasuries",
      "outputs": [
        {
          "internalType": "address",
          "name": "",
          "type": "address"
        }
      ],
      "stateMutability": "view",
      "type": "function"
    },
    {
      "inputs": [],
      "name": "currentBakPrice",
      "outputs": [
        {
          "internalType": "uint256",
          "name": "",
          "type": "uint256"
        }
      ],
      "stateMutability": "view",
      "type": "function"
    },
    {
      "inputs": [
        {
          "internalType": "address",
          "name": "token",
          "type": "address"
        },
        {
          "internalType": "uint256",
          "name": "amount",
          "type": "uint256"
        },
        {
          "internalType": "address",
          "name": "to",
          "type": "address"
        }
      ],
      "name": "emergencyWithdraw",
      "outputs": [],
      "stateMutability": "nonpayable",
      "type": "function"
    },
    {
      "inputs": [
        {
          "internalType": "bool",
          "name": "enabled",
          "type": "bool"
        }
      ],
      "name": "enableBondingCurve",
      "outputs": [],
      "stateMutability": "nonpayable",
      "type": "function"
    },
    {
      "inputs": [],
      "name": "fundingWallet",
      "outputs": [
        {
          "internalType": "address",
          "name": "",
          "type": "address"
        }
      ],
      "stateMutability": "view",
      "type": "function"
    },
    {
      "inputs": [
        {
          "internalType": "string",
          "name": "network",
          "type": "string"
        },
        {
          "internalType": "string",
          "name": "token",
          "type": "string"
        }
      ],
      "name": "getCrossChainTreasury",
      "outputs": [
        {
          "internalType": "address",
          "name": "",
          "type": "address"
        }
      ],
      "stateMutability": "view",
      "type": "function"
    },
    {
      "inputs": [],
      "name": "getCurrentBakPrice",
      "outputs": [
        {
          "internalType": "uint256",
          "name": "",
          "type": "uint256"
        }
      ],
      "stateMutability": "view",
      "type": "function"
    },
    {
      "inputs": [],
      "name": "getEPOStats",
      "outputs": [
        {
          "internalType": "uint256",
          "name": "_totalBakSold",
          "type": "uint256"
        },
        {
          "internalType": "uint256",
          "name": "_totalUSDRaised",
          "type": "uint256"
        },
        {
          "internalType": "uint256",
          "name": "_currentPrice",
          "type": "uint256"
        },
        {
          "internalType": "uint256",
          "name": "_remainingSupply",
          "type": "uint256"
        },
        {
          "internalType": "uint256",
          "name": "_totalPurchases",
          "type": "uint256"
        },
        {
          "internalType": "bool",
          "name": "_bondingCurveEnabled",
          "type": "bool"
        }
      ],
      "stateMutability": "view",
      "type": "function"
    },
    {
      "inputs": [],
      "name": "getSupportedTokens",
      "outputs": [
        {
          "internalType": "address[]",
          "name": "",
          "type": "address[]"
        }
      ],
      "stateMutability": "view",
      "type": "function"
    },
    {
      "inputs": [
        {
          "internalType": "address",
          "name": "paymentToken",
          "type": "address"
        }
      ],
      "name": "getTreasuryWallet",
      "outputs": [
        {
          "internalType": "address",
          "name": "",
          "type": "address"
        }
      ],
      "stateMutability": "view",
      "type": "function"
    },
    {
      "inputs": [
        {
          "internalType": "address",
          "name": "user",
          "type": "address"
        }
      ],
      "name": "getUserPurchaseHistory",
      "outputs": [
        {
          "components": [
            {
              "internalType": "address",
              "name": "buyer",
              "type": "address"
            },
            {
              "internalType": "address",
              "name": "paymentToken",
              "type": "address"
            },
            {
              "internalType": "uint256",
              "name": "paymentAmount",
              "type": "uint256"
            },
            {
              "internalType": "uint256",
              "name": "bakAmount",
              "type": "uint256"
            },
            {
              "internalType": "uint256",
              "name": "usdValue",
              "type": "uint256"
            },
            {
              "internalType": "uint256",
              "name": "timestamp",
              "type": "uint256"
            }
          ],
          "internalType": "struct BrainArkEPOEnhanced.PurchaseInfo[]",
          "name": "",
          "type": "tuple[]"
        }
      ],
      "stateMutability": "view",
      "type": "function"
    },
    {
      "inputs": [],
      "name": "owner",
      "outputs": [
        {
          "internalType": "address",
          "name": "",
          "type": "address"
        }
      ],
      "stateMutability": "view",
      "type": "function"
    },
    {
      "inputs": [],
      "name": "pause",
      "outputs": [],
      "stateMutability": "nonpayable",
      "type": "function"
    },
    {
      "inputs": [],
      "name": "paused",
      "outputs": [
        {
          "internalType": "bool",
          "name": "",
          "type": "bool"
        }
      ],
      "stateMutability": "view",
      "type": "function"
    },
    {
      "inputs": [
        {
          "internalType": "uint256",
          "name": "",
          "type": "uint256"
        }
      ],
      "name": "paymentTokenList",
      "outputs": [
        {
          "internalType": "address",
          "name": "",
          "type": "address"
        }
      ],
      "stateMutability": "view",
      "type": "function"
    },
    {
      "inputs": [
        {
          "internalType": "address",
          "name": "",
          "type": "address"
        }
      ],
      "name": "paymentTokens",
      "outputs": [
        {
          "internalType": "bool",
          "name": "enabled",
          "type": "bool"
        },
        {
          "internalType": "uint8",
          "name": "decimals",
          "type": "uint8"
        },
        {
          "internalType": "uint256",
          "name": "priceUSD",
          "type": "uint256"
        },
        {
          "internalType": "uint256",
          "name": "minPurchaseUSD",
          "type": "uint256"
        },
        {
          "internalType": "uint256",
          "name": "maxPurchaseUSD",
          "type": "uint256"
        },
        {
          "internalType": "string",
          "name": "symbol",
          "type": "string"
        },
        {
          "internalType": "address",
          "name": "treasuryWallet",
          "type": "address"
        }
      ],
      "stateMutability": "view",
      "type": "function"
    },
    {
      "inputs": [
        {
          "internalType": "address",
          "name": "buyer",
          "type": "address"
        },
        {
          "components": [
            {
              "internalType": "bytes32",
              "name": "txHash",
              "type": "bytes32"
            },
            {
              "internalType": "string",
              "name": "sourceNetwork",
              "type": "string"
            },
            {
              "internalType": "string",
              "name": "paymentToken",
              "type": "string"
            },
            {
              "internalType": "uint256",
              "name": "paymentAmountUSD",
              "type": "uint256"
            },
            {
              "internalType": "uint256",
              "name": "blockNumber",
              "type": "uint256"
            },
            {
              "internalType": "uint256",
              "name": "timestamp",
              "type": "uint256"
            },
            {
              "internalType": "bytes",
              "name": "signature",
              "type": "bytes"
            }
          ],
          "internalType": "struct BrainArkEPOEnhanced.CrossChainProof",
          "name": "proof",
          "type": "tuple"
        }
      ],
      "name": "processCrossChainPurchase",
      "outputs": [],
      "stateMutability": "nonpayable",
      "type": "function"
    },
    {
      "inputs": [
        {
          "internalType": "bytes32",
          "name": "",
          "type": "bytes32"
        }
      ],
      "name": "processedPayments",
      "outputs": [
        {
          "internalType": "bool",
          "name": "",
          "type": "bool"
        }
      ],
      "stateMutability": "view",
      "type": "function"
    },
    {
      "inputs": [
        {
          "internalType": "address",
          "name": "paymentToken",
          "type": "address"
        },
        {
          "internalType": "uint256",
          "name": "paymentAmount",
          "type": "uint256"
        },
        {
          "internalType": "uint256",
          "name": "minBakAmount",
          "type": "uint256"
        }
      ],
      "name": "purchaseBAK",
      "outputs": [],
      "stateMutability": "payable",
      "type": "function"
    },
    {
      "inputs": [],
      "name": "renounceOwnership",
      "outputs": [],
      "stateMutability": "nonpayable",
      "type": "function"
    },
    {
      "inputs": [],
      "name": "totalBakSold",
      "outputs": [
        {
          "internalType": "uint256",
          "name": "",
          "type": "uint256"
        }
      ],
      "stateMutability": "view",
      "type": "function"
    },
    {
      "inputs": [],
      "name": "totalUSDRaised",
      "outputs": [
        {
          "internalType": "uint256",
          "name": "",
          "type": "uint256"
        }
      ],
      "stateMutability": "view",
      "type": "function"
    },
    {
      "inputs": [
        {
          "internalType": "address",
          "name": "newOwner",
          "type": "address"
        }
      ],
      "name": "transferOwnership",
      "outputs": [],
      "stateMutability": "nonpayable",
      "type": "function"
    },
    {
      "inputs": [],
      "name": "unpause",
      "outputs": [],
      "stateMutability": "nonpayable",
      "type": "function"
    },
    {
      "inputs": [
        {
          "internalType": "string",
          "name": "network",
          "type": "string"
        },
        {
          "internalType": "string",
          "name": "token",
          "type": "string"
        },
        {
          "internalType": "address",
          "name": "treasury",
          "type": "address"
        }
      ],
      "name": "updateCrossChainTreasury",
      "outputs": [],
      "stateMutability": "nonpayable",
      "type": "function"
    },
    {
      "inputs": [
        {
          "internalType": "address",
          "name": "token",
          "type": "address"
        },
        {
          "internalType": "bool",
          "name": "enabled",
          "type": "bool"
        },
        {
          "internalType": "uint8",
          "name": "decimals",
          "type": "uint8"
        },
        {
          "internalType": "uint256",
          "name": "priceUSD",
          "type": "uint256"
        },
        {
          "internalType": "uint256",
          "name": "minPurchaseUSD",
          "type": "uint256"
        },
        {
          "internalType": "uint256",
          "name": "maxPurchaseUSD",
          "type": "uint256"
        },
        {
          "internalType": "string",
          "name": "symbol",
          "type": "string"
        },
        {
          "internalType": "address",
          "name": "treasuryWallet",
          "type": "address"
        }
      ],
      "name": "updatePaymentToken",
      "outputs": [],
      "stateMutability": "nonpayable",
      "type": "function"
    },
    {
      "inputs": [
        {
          "internalType": "address",
          "name": "",
          "type": "address"
        },
        {
          "internalType": "uint256",
          "name": "",
          "type": "uint256"
        }
      ],
      "name": "userPurchaseHistory",
      "outputs": [
        {
          "internalType": "address",
          "name": "buyer",
          "type": "address"
        },
        {
          "internalType": "address",
          "name": "paymentToken",
          "type": "address"
        },
        {
          "internalType": "uint256",
          "name": "paymentAmount",
          "type": "uint256"
        },
        {
          "internalType": "uint256",
          "name": "bakAmount",
          "type": "uint256"
        },
        {
          "internalType": "uint256",
          "name": "usdValue",
          "type": "uint256"
        },
        {
          "internalType": "uint256",
          "name": "timestamp",
          "type": "uint256"
        }
      ],
      "stateMutability": "view",
      "type": "function"
    },
    {
      "inputs": [
        {
          "internalType": "address",
          "name": "",
          "type": "address"
        }
      ],
      "name": "userPurchases",
      "outputs": [
        {
          "internalType": "uint256",
          "name": "",
          "type": "uint256"
        }
      ],
      "stateMutability": "view",
      "type": "function"
    },
    {
      "inputs": [],
      "name": "walletConfig",
      "outputs": [
        {
          "internalType": "address",
          "name": "ethWallet",
          "type": "address"
        },
        {
          "internalType": "address",
          "name": "usdtWallet",
          "type": "address"
        },
        {
          "internalType": "address",
          "name": "usdcWallet",
          "type": "address"
        },
        {
          "internalType": "address",
          "name": "bnbWallet",
          "type": "address"
        },
        {
          "internalType": "address",
          "name": "defaultWallet",
          "type": "address"
        }
      ],
      "stateMutability": "view",
      "type": "function"
    },
    {
      "stateMutability": "payable",
      "type": "receive"
    }
  ],
  "bytecode": "0x60a06040526001805460ff60a81b1916600160a81b1790553480156200002457600080fd5b506040516200399c3803806200399c8339810160408190526200004791620004ea565b600160005562000057336200027a565b6001805460ff60a01b191690556001600160a01b038616620000c05760405162461bcd60e51b815260206004820152601660248201527f496e76616c69642066756e64696e672077616c6c65740000000000000000000060448201526064015b60405180910390fd5b6001600160a01b038116620001185760405162461bcd60e51b815260206004820152601660248201527f496e76616c69642064656661756c742077616c6c6574000000000000000000006044820152606401620000b7565b6001600160a01b0380871660805266470de4df8200006010556040805160a0810190915290819087166200014d57826200014f565b865b6001600160a01b0316815260200160006001600160a01b0316866001600160a01b0316036200017f578262000181565b855b6001600160a01b0316815260200160006001600160a01b0316856001600160a01b031603620001b15782620001b3565b845b6001600160a01b0316815260200160006001600160a01b0316846001600160a01b031603620001e35782620001e5565b835b6001600160a01b0390811682528381166020928301528251600980549183166001600160a01b031992831617905591830151600a80549183169184169190911790556040830151600b80549183169184169190911790556060830151600c8054918316918416919091179055608090920151600d80549190931691161790556200026e620002cc565b5050505050506200056b565b600180546001600160a01b038381166001600160a01b0319831681179093556040519116919082907f8be0079c531659141344cd1fd0a4f28419497f9722a3daafe3b4186f6b6457e090600090a35050565b73c9de877a53f85bf51d76faed0c8c8842efb35782600f604051620002ff9067657468657265756d60c01b815260080190565b90815260408051918290036020018220631554d11560e21b8084526004808501929092528251938490036024908101852080546001600160a01b03979097166001600160a01b031997881617905567657468657265756d60c01b8552600f600886018190528451958690036028018620635553444360e01b80885287860191909152855196879003830187208054733a9ca3d316f2032d3a21741cbea2e047fd3c1145908a161790556262736360e81b808852600380890184905287519889900360239081018a20878b528a8901528851998a900386018a20805473c13527f3bbaaf4cd726d07a78da9c5b74876527f908d161790559189528801839052865197889003018720818852878601528551968790038301872080547321fccbb9b9b7c620bcba61b6668c30f64c22859c908a16179055663837b63cb3b7b760c91b808852600780890184905287519889900360279081018a20968a528988019690965287519889900385018920805473d413afab39d24462ace36cfe5d710ce9b813c84b908c16179055908852870191909152845195869003909201852091855291840152905191829003019020805473e97bf18735a1ab4a1ba9ddf284d7798a5b0f8a849216919091179055565b80516001600160a01b0381168114620004e557600080fd5b919050565b60008060008060008060c087890312156200050457600080fd5b6200050f87620004cd565b95506200051f60208801620004cd565b94506200052f60408801620004cd565b93506200053f60608801620004cd565b92506200054f60808801620004cd565b91506200055f60a08801620004cd565b90509295509295509295565b6080516134156200058760003960006103e701526134156000f3fe60806040526004361061023f5760003560e01c80638456cb591161012e578063cbb110dc116100ab578063e43b77861161006f578063e43b7786146107c9578063eed3e097146107e4578063f2fde38b14610804578063f3f247eb14610824578063fc4c2d541461085457600080fd5b8063cbb110dc146106de578063d34ddc05146106fe578063d3c7c2c714610771578063d678712414610793578063e0e06078146107a957600080fd5b8063aca06ab2116100f2578063aca06ab214610620578063b5a2754414610640578063c041660614610675578063c3b88b421461068b578063c927e8dc146106be57600080fd5b80638456cb591461056a57806385cbc8811461057f5780638da5cb5b146105955780639adad854146105b3578063ac6c93d7146105c857600080fd5b80634cbe933b116101bc5780635c975abb116101805780635c975abb146104f2578063715018a614610511578063789701e8146105265780637a07e8b61461053c5780637b1f67331461054f57600080fd5b80634cbe933b1461041e5780634d4ef3c21461043e5780634fb4eff114610453578063551512de1461049757806359c97cab146104b757600080fd5b80632f6ee695116102035780632f6ee6951461036657806335c38d1e1461037b57806339f65c09146103a85780633c4b40b8146103d55780633f4ba83a1461040957600080fd5b8063096402cb1461024b5780630b4535e61461027d5780631f255276146102ae57806323194159146102e65780632d0faca11461030857600080fd5b3661024657005b600080fd5b34801561025757600080fd5b5061026a6a52b7d2dcc80cd2e400000081565b6040519081526020015b60405180910390f35b34801561028957600080fd5b5060015461029e90600160a81b900460ff1681565b6040519015158152602001610274565b3480156102ba57600080fd5b506102ce6102c9366004612bb9565b61086a565b6040516001600160a01b039091168152602001610274565b3480156102f257600080fd5b50610306610301366004612c2f565b6108ba565b005b34801561031457600080fd5b506102ce610323366004612bb9565b8151602081840181018051600f8252928201948201949094209190935281518083018401805192815290840192909301919091209152546001600160a01b031681565b34801561037257600080fd5b5061026a601281565b34801561038757600080fd5b5061039b610396366004612d1f565b610d2e565b6040516102749190612d41565b3480156103b457600080fd5b5061026a6103c3366004612d1f565b60046020526000908152604090205481565b3480156103e157600080fd5b506102ce7f000000000000000000000000000000000000000000000000000000000000000081565b34801561041557600080fd5b50610306610de7565b34801561042a57600080fd5b50610306610439366004612dd3565b610df9565b34801561044a57600080fd5b5061026a611016565b34801561045f57600080fd5b50610468611058565b6040805196875260208701959095529385019290925260608401526080830152151560a082015260c001610274565b3480156104a357600080fd5b506103066104b2366004612e7a565b6110aa565b3480156104c357600080fd5b506104d76104d2366004612eb6565b6111af565b60408051938452602084019290925290820152606001610274565b3480156104fe57600080fd5b50600154600160a01b900460ff1661029e565b34801561051d57600080fd5b506103066113c0565b34801561053257600080fd5b5061026a60075481565b61030661054a366004612ecf565b6113d2565b34801561055b57600080fd5b5061026a66470de4df82000081565b34801561057657600080fd5b50610306611af1565b34801561058b57600080fd5b5061026a60085481565b3480156105a157600080fd5b506001546001600160a01b03166102ce565b3480156105bf57600080fd5b5061026a611b01565b3480156105d457600080fd5b506105e86105e3366004612eb6565b611b73565b604080516001600160a01b039788168152969095166020870152938501929092526060840152608083015260a082015260c001610274565b34801561062c57600080fd5b506102ce61063b366004612eb6565b611bc6565b34801561064c57600080fd5b5061066061065b366004612f02565b611bf0565b60408051928352602083019190915201610274565b34801561068157600080fd5b5061026a610e1081565b34801561069757600080fd5b506106ab6106a6366004612d1f565b611ddc565b6040516102749796959493929190612f7c565b3480156106ca57600080fd5b506103066106d9366004612fce565b611eae565b3480156106ea57600080fd5b506102ce6106f9366004612d1f565b611ef5565b34801561070a57600080fd5b50600954600a54600b54600c54600d54610737946001600160a01b03908116948116938116928116911685565b604080516001600160a01b03968716815294861660208601529285169284019290925283166060830152909116608082015260a001610274565b34801561077d57600080fd5b50610786612050565b6040516102749190612feb565b34801561079f57600080fd5b5061026a60105481565b3480156107b557600080fd5b506103066107c4366004613038565b6120b2565b3480156107d557600080fd5b5061026a668e1bc9bf04000081565b3480156107f057600080fd5b506105e86107ff366004612f02565b6121f0565b34801561081057600080fd5b5061030661081f366004612d1f565b612250565b34801561083057600080fd5b5061029e61083f366004612eb6565b600e6020526000908152604090205460ff1681565b34801561086057600080fd5b5061026a6103e881565b6000600f8360405161087c91906130a3565b90815260200160405180910390208260405161089891906130a3565b908152604051908190036020019020546001600160a01b031690505b92915050565b6108c26122c6565b6108ca612320565b6108d2612379565b6001600160a01b03821661091d5760405162461bcd60e51b815260206004820152600d60248201526c24b73b30b634b210313abcb2b960991b60448201526064015b60405180910390fd5b805161095d5760405162461bcd60e51b815260206004820152600f60248201526e092dcecc2d8d2c840e8f040d0c2e6d608b1b6044820152606401610914565b80516000908152600e602052604090205460ff16156109b25760405162461bcd60e51b8152602060048201526011602482015270105b1c9958591e481c1c9bd8d95cdcd959607a1b6044820152606401610914565b42610e108260a001516109c591906130d5565b11610a025760405162461bcd60e51b815260206004820152600d60248201526c141c9bdbd988195e1c1a5c9959609a1b6044820152606401610914565b610a0f81602001516123c6565b610a4d5760405162461bcd60e51b815260206004820152600f60248201526e496e76616c6964206e6574776f726b60881b6044820152606401610914565b610a5a81604001516124ab565b610a9e5760405162461bcd60e51b815260206004820152601560248201527424b73b30b634b2103830bcb6b2b73a103a37b5b2b760591b6044820152606401610914565b600154600090600160a81b900460ff1615610acb57610ac082606001516111af565b50909150610af89050565b66470de4df8200008260600151670de0b6b3a7640000610aeb91906130e8565b610af591906130ff565b90505b60008111610b3d5760405162461bcd60e51b8152602060048201526012602482015271125b9d985b1a5908109052c8185b5bdd5b9d60721b6044820152606401610914565b6a52b7d2dcc80cd2e400000081600754610b5791906130d5565b1115610b9c5760405162461bcd60e51b81526020600482015260146024820152734578636565647320746f74616c20737570706c7960601b6044820152606401610914565b81516000908152600e60205260409020805460ff19166001179055610bc1838261253f565b8060076000828254610bd391906130d5565b9091555050606082015160088054600090610bef9084906130d5565b90915550506001600160a01b03831660009081526004602052604081208054839290610c1c9084906130d5565b9091555050600154600160a81b900460ff1615610c8e57610c3b611b01565b60108190556007546040517fc519af3206e5c325883986d7e86f3cd5415959f018339d023529ed7d6f4ed14192610c85929142909283526020830191909152604082015260600190565b60405180910390a15b8160400151604051610ca091906130a3565b60405180910390208260200151604051610cba91906130a3565b6040805191829003822085516060808801516010549286526020860152848401879052840152426080840152905190916001600160a01b038716917ff53767326419e47456340542e4d5fe0b426c6de7ecc392267681c29f0171cddf9181900360a00190a450610d2a6001600055565b5050565b6001600160a01b0381166000908152600560209081526040808320805482518185028101850190935280835260609492939192909184015b82821015610ddc5760008481526020908190206040805160c0810182526006860290920180546001600160a01b0390811684526001808301549091168486015260028201549284019290925260038101546060840152600481015460808401526005015460a08301529083529092019101610d66565b505050509050919050565b610def6122c6565b610df76126b3565b565b610e016122c6565b6040518060e0016040528088151581526020018760ff168152602001868152602001858152602001848152602001838152602001826001600160a01b0316815250600260008a6001600160a01b03166001600160a01b0316815260200190815260200160002060008201518160000160006101000a81548160ff02191690831515021790555060208201518160000160016101000a81548160ff021916908360ff16021790555060408201518160010155606082015181600201556080820151816003015560a0820151816004019081610edb91906131a9565b5060c09190910151600590910180546001600160a01b0319166001600160a01b039092169190911790558615610fbf576000805b600354811015610f6b57896001600160a01b031660038281548110610f3657610f36613269565b6000918252602090912001546001600160a01b031603610f595760019150610f6b565b80610f638161327f565b915050610f0f565b5080610fbd57600380546001810182556000919091527fc2575a0e9e593c00f959f8c92f12db2869c3395a3b0502d05e2516446f71f85b0180546001600160a01b0319166001600160a01b038b161790555b505b60408051881515815260208101879052428183015290516001600160a01b038a16917fdb8ce90d26eb0f2c05e210f29bd0a57d60f404f3f8022cee68265ea6e8ca3835919081900360600190a25050505050505050565b611033670de0b6b3a76400006a52b7d2dcc80cd2e40000006130ff565b61104b66470de4df820000668e1bc9bf040000613298565b61105591906130ff565b81565b60008060008060008060075460085461106f611b01565b600754611087906a52b7d2dcc80cd2e4000000613298565b600654600154949b939a5091985096509450600160a81b90910460ff1692509050565b6110b26122c6565b6001600160a01b0381166110fc5760405162461bcd60e51b8152602060048201526011602482015270125b9d985b1a59081c9958da5c1a595b9d607a1b6044820152606401610914565b6001600160a01b038316611196574782111561115a5760405162461bcd60e51b815260206004820152601860248201527f496e73756666696369656e74204554482062616c616e636500000000000000006044820152606401610914565b6040516001600160a01b0382169083156108fc029084906000818181858888f19350505050158015611190573d6000803e3d6000fd5b50505050565b6111aa6001600160a01b0384168284612708565b505050565b6000806000600160159054906101000a900460ff166112075766470de4df8200006111e285670de0b6b3a76400006130e8565b6111ec91906130ff565b925066470de4df820000915066470de4df82000090506113b9565b6000611211611b01565b6007549091508590600090683635c9adc5dea000005b60008411801561124157506a52b7d2dcc80cd2e400000082105b156113205760006a52b7d2dcc80cd2e400000061126c66470de4df820000668e1bc9bf040000613298565b61127690856130e8565b61128091906130ff565b6112919066470de4df8200006130d5565b9050816000670de0b6b3a76400006112a984846130e8565b6112b391906130ff565b90508681116112e5576112c682876130d5565b95506112d28188613298565b96506112de82866130d5565b9450611318565b6000836112fa89670de0b6b3a76400006130e8565b61130491906130ff565b905061131081886130d5565b965060009750505b505050611227565b829750600083116113315784611358565b8261133c858b613298565b61134e90670de0b6b3a76400006130e8565b61135891906130ff565b96506a52b7d2dcc80cd2e400000061137e66470de4df820000668e1bc9bf040000613298565b8960075461138c91906130d5565b61139691906130e8565b6113a091906130ff565b6113b19066470de4df8200006130d5565b955050505050505b9193909250565b6113c86122c6565b610df7600061276b565b6113da612320565b6113e2612379565b6001600160a01b03831660009081526002602052604090205460ff1661144a5760405162461bcd60e51b815260206004820152601b60248201527f5061796d656e7420746f6b656e206e6f7420737570706f7274656400000000006044820152606401610914565b600082116114a85760405162461bcd60e51b815260206004820152602560248201527f5061796d656e7420616d6f756e74206d75737420626520677265617465722074604482015264068616e20360dc1b6064820152608401610914565b6001600160a01b0383166000908152600260208181526040808420815160e081018352815460ff8082161515835261010090910416938101939093526001810154918301919091529182015460608201526003820154608082015260048201805491929160a08401919061151b90613121565b80601f016020809104026020016040519081016040528092919081815260200182805461154790613121565b80156115945780601f1061156957610100808354040283529160200191611594565b820191906000526020600020905b81548152906001019060200180831161157757829003601f168201915b5050509183525050600591909101546001600160a01b031660209091015290506000806115c18686611bf0565b9150915082606001518210156116195760405162461bcd60e51b815260206004820152601d60248201527f42656c6f77206d696e696d756d20707572636861736520616d6f756e740000006044820152606401610914565b826080015182111561166d5760405162461bcd60e51b815260206004820152601d60248201527f41626f7665206d6178696d756d20707572636861736520616d6f756e740000006044820152606401610914565b838110156116bd5760405162461bcd60e51b815260206004820152601b60248201527f536c69707061676520746f6c6572616e636520657863656564656400000000006044820152606401610914565b6a52b7d2dcc80cd2e4000000816007546116d791906130d5565b11156117255760405162461bcd60e51b815260206004820152601860248201527f4578636565647320617661696c61626c6520737570706c7900000000000000006044820152606401610914565b600061173087611ef5565b90506001600160a01b0387166117c2578534146117865760405162461bcd60e51b8152602060048201526014602482015273125b98dbdc9c9958dd0811551208185b5bdd5b9d60621b6044820152606401610914565b6040516001600160a01b0382169087156108fc029088906000818181858888f193505050501580156117bc573d6000803e3d6000fd5b506117d7565b6117d76001600160a01b0388163383896127bd565b6117e1338361253f565b81600760008282546117f391906130d5565b92505081905550826008600082825461180c91906130d5565b909155505033600090815260046020526040812080548492906118309084906130d5565b9091555050600154600160a81b900460ff16156118a25761184f611b01565b60108190556007546040517fc519af3206e5c325883986d7e86f3cd5415959f018339d023529ed7d6f4ed14192611899929142909283526020830191909152604082015260600190565b60405180910390a15b60006040518060c00160405280336001600160a01b03168152602001896001600160a01b0316815260200188815260200184815260200185815260200142815250905060056000336001600160a01b03166001600160a01b0316815260200190815260200160002081908060018154018082558091505060019003906000526020600020906006020160009091909190915060008201518160000160006101000a8154816001600160a01b0302191690836001600160a01b0316021790555060208201518160010160006101000a8154816001600160a01b0302191690836001600160a01b0316021790555060408201518160020155606082015181600301556080820151816004015560a082015181600501555050600681908060018154018082558091505060019003906000526020600020906006020160009091909190915060008201518160000160006101000a8154816001600160a01b0302191690836001600160a01b0316021790555060208201518160010160006101000a8154816001600160a01b0302191690836001600160a01b0316021790555060408201518160020155606082015181600301556080820151816004015560a082015181600501555050876001600160a01b0316336001600160a01b03167f355b943140b1c8c99b2758a4d21c8858e602443ed75603e2465689d647abf1548986888742604051611ada959493929190948552602085019390935260408401919091526001600160a01b03166060830152608082015260a00190565b60405180910390a350505050506111aa6001600055565b611af96122c6565b610df76127f5565b600154600090600160a81b900460ff1615611b67576a52b7d2dcc80cd2e4000000611b3a66470de4df820000668e1bc9bf040000613298565b600754611b4791906130e8565b611b5191906130ff565b611b629066470de4df8200006130d5565b905090565b5066470de4df82000090565b60068181548110611b8357600080fd5b60009182526020909120600690910201805460018201546002830154600384015460048501546005909501546001600160a01b0394851696509390921693909286565b60038181548110611bd657600080fd5b6000918252602090912001546001600160a01b0316905081565b6001600160a01b0382166000908152600260208181526040808420815160e081018352815460ff808216151583526101009091041693810193909352600181015491830191909152918201546060820152600382015460808201526004820180548493849392909160a084019190611c6790613121565b80601f0160208091040260200160405190810160405280929190818152602001828054611c9390613121565b8015611ce05780601f10611cb557610100808354040283529160200191611ce0565b820191906000526020600020905b815481529060010190602001808311611cc357829003601f168201915b5050509183525050600591909101546001600160a01b039081166020909201919091529091508516611d3657670de0b6b3a7640000816040015185611d2591906130e8565b611d2f91906130ff565b9250611d87565b600081602001516012611d4991906132ab565b611d5490600a6133a0565b611d5e90866130e8565b9050670de0b6b3a7640000826040015182611d7991906130e8565b611d8391906130ff565b9350505b600154600160a81b900460ff1615611dad57611da2836111af565b50909250611dd49050565b66470de4df820000611dc784670de0b6b3a76400006130e8565b611dd191906130ff565b91505b509250929050565b60026020819052600091825260409091208054600182015492820154600383015460048401805460ff8086169761010090960416959190611e1c90613121565b80601f0160208091040260200160405190810160405280929190818152602001828054611e4890613121565b8015611e955780601f10611e6a57610100808354040283529160200191611e95565b820191906000526020600020905b815481529060010190602001808311611e7857829003601f168201915b505050600590930154919250506001600160a01b031687565b611eb66122c6565b6001805482158015600160a81b0260ff60a81b1990921691909117909155611ee657611ee0611b01565b60105550565b66470de4df8200006010555b50565b60006001600160a01b038216611f165750506009546001600160a01b031690565b6001600160a01b0382166000908152600260208181526040808420815160e081018352815460ff8082161515835261010090910416938101939093526001810154918301919091529182015460608201526003820154608082015260048201805491929160a084019190611f8990613121565b80601f0160208091040260200160405190810160405280929190818152602001828054611fb590613121565b80156120025780601f10611fd757610100808354040283529160200191612002565b820191906000526020600020905b815481529060010190602001808311611fe557829003601f168201915b5050509183525050600591909101546001600160a01b0390811660209092019190915260c0820151919250161561203d5760c0015192915050565b5050600d546001600160a01b0316919050565b606060038054806020026020016040519081016040528092919081815260200182805480156120a857602002820191906000526020600020905b81546001600160a01b0316815260019091019060200180831161208a575b5050505050905090565b6120ba6122c6565b6120c3836123c6565b6121015760405162461bcd60e51b815260206004820152600f60248201526e496e76616c6964206e6574776f726b60881b6044820152606401610914565b61210a826124ab565b6121465760405162461bcd60e51b815260206004820152600d60248201526c24b73b30b634b2103a37b5b2b760991b6044820152606401610914565b6001600160a01b03811661218f5760405162461bcd60e51b815260206004820152601060248201526f496e76616c696420747265617375727960801b6044820152606401610914565b80600f846040516121a091906130a3565b9081526020016040518091039020836040516121bc91906130a3565b90815260405190819003602001902080546001600160a01b03929092166001600160a01b0319909216919091179055505050565b6005602052816000526040600020818154811061220c57600080fd5b60009182526020909120600690910201805460018201546002830154600384015460048501546005909501546001600160a01b039485169750929093169450929086565b6122586122c6565b6001600160a01b0381166122bd5760405162461bcd60e51b815260206004820152602660248201527f4f776e61626c653a206e6577206f776e657220697320746865207a65726f206160448201526564647265737360d01b6064820152608401610914565b611ef28161276b565b6001546001600160a01b03163314610df75760405162461bcd60e51b815260206004820181905260248201527f4f776e61626c653a2063616c6c6572206973206e6f7420746865206f776e65726044820152606401610914565b6002600054036123725760405162461bcd60e51b815260206004820152601f60248201527f5265656e7472616e637947756172643a207265656e7472616e742063616c6c006044820152606401610914565b6002600055565b600154600160a01b900460ff1615610df75760405162461bcd60e51b815260206004820152601060248201526f14185d5cd8589b194e881c185d5cd95960821b6044820152606401610914565b604080518082019091526008815267657468657265756d60c01b6020918201528151908201206000907f541111248b45b7a8dc3f5579f630e74cb01456ea6ac067d3f4d793245a255155148061245b575060408051808201909152600381526262736360e81b6020918201528251908301207f83d57b2915dae13afb3bdeac7357363ed5e6545fb90a89f09722f0f95f9efa91145b806108b45750506040805180820190915260078152663837b63cb3b7b760c91b60209182015281519101207fac63fa1fe369e75c38d62f0f4d465b48b3cd5159f0fb416332899402031d14081490565b6040805180820190915260048152631554d11560e21b6020918201528151908201206000907f8b1a1d9c2b109e527c9134b25b1a1833b16b6594f92daa9f6d9b7a6024bce9d014806108b45750506040805180820190915260048152635553444360e01b60209182015281519101207fd6aca1be9729c13d677335161321649cccae6a591554772516700f986f942eaa1490565b6001600160a01b0382166125895760405162461bcd60e51b8152602060048201526011602482015270125b9d985b1a59081c9958da5c1a595b9d607a1b6044820152606401610914565b600081116125ca5760405162461bcd60e51b815260206004820152600e60248201526d125b9d985b1a5908185b5bdd5b9d60921b6044820152606401610914565b8047101561261a5760405162461bcd60e51b815260206004820152601860248201527f496e73756666696369656e742042414b2062616c616e636500000000000000006044820152606401610914565b6000826001600160a01b03168260405160006040518083038185875af1925050503d8060008114612667576040519150601f19603f3d011682016040523d82523d6000602084013e61266c565b606091505b50509050806111aa5760405162461bcd60e51b8152602060048201526013602482015272109052c81d1c985b9cd9995c8819985a5b1959606a1b6044820152606401610914565b6126bb612838565b6001805460ff60a01b191690557f5db9ee0a495bf2e6ff9c91a7834c1ba4fdd244a5e8aa4e537bd38aeae4b073aa335b6040516001600160a01b03909116815260200160405180910390a1565b6040516001600160a01b0383166024820152604481018290526111aa90849063a9059cbb60e01b906064015b60408051601f198184030181529190526020810180516001600160e01b03166001600160e01b031990931692909217909152612888565b600180546001600160a01b038381166001600160a01b0319831681179093556040519116919082907f8be0079c531659141344cd1fd0a4f28419497f9722a3daafe3b4186f6b6457e090600090a35050565b6040516001600160a01b03808516602483015283166044820152606481018290526111909085906323b872dd60e01b90608401612734565b6127fd612379565b6001805460ff60a01b1916600160a01b1790557f62e78cea01bee320cd4e420270b5ea74000d11b0c9f74754ebdbfc544b05a2586126eb3390565b600154600160a01b900460ff16610df75760405162461bcd60e51b815260206004820152601460248201527314185d5cd8589b194e881b9bdd081c185d5cd95960621b6044820152606401610914565b60006128dd826040518060400160405280602081526020017f5361666545524332303a206c6f772d6c6576656c2063616c6c206661696c6564815250856001600160a01b031661295d9092919063ffffffff16565b90508051600014806128fe5750808060200190518101906128fe91906133af565b6111aa5760405162461bcd60e51b815260206004820152602a60248201527f5361666545524332303a204552433230206f7065726174696f6e20646964206e6044820152691bdd081cdd58d8d9595960b21b6064820152608401610914565b606061296c8484600085612974565b949350505050565b6060824710156129d55760405162461bcd60e51b815260206004820152602660248201527f416464726573733a20696e73756666696369656e742062616c616e636520666f6044820152651c8818d85b1b60d21b6064820152608401610914565b600080866001600160a01b031685876040516129f191906130a3565b60006040518083038185875af1925050503d8060008114612a2e576040519150601f19603f3d011682016040523d82523d6000602084013e612a33565b606091505b5091509150612a4487838387612a4f565b979650505050505050565b60608315612abe578251600003612ab7576001600160a01b0385163b612ab75760405162461bcd60e51b815260206004820152601d60248201527f416464726573733a2063616c6c20746f206e6f6e2d636f6e74726163740000006044820152606401610914565b508161296c565b61296c8383815115612ad35781518083602001fd5b8060405162461bcd60e51b815260040161091491906133cc565b634e487b7160e01b600052604160045260246000fd5b60405160e0810167ffffffffffffffff81118282101715612b2657612b26612aed565b60405290565b600082601f830112612b3d57600080fd5b813567ffffffffffffffff80821115612b5857612b58612aed565b604051601f8301601f19908116603f01168101908282118183101715612b8057612b80612aed565b81604052838152866020858801011115612b9957600080fd5b836020870160208301376000602085830101528094505050505092915050565b60008060408385031215612bcc57600080fd5b823567ffffffffffffffff80821115612be457600080fd5b612bf086838701612b2c565b93506020850135915080821115612c0657600080fd5b50611dd185828601612b2c565b80356001600160a01b0381168114612c2a57600080fd5b919050565b60008060408385031215612c4257600080fd5b612c4b83612c13565b9150602083013567ffffffffffffffff80821115612c6857600080fd5b9084019060e08287031215612c7c57600080fd5b612c84612b03565b82358152602083013582811115612c9a57600080fd5b612ca688828601612b2c565b602083015250604083013582811115612cbe57600080fd5b612cca88828601612b2c565b604083015250606083013560608201526080830135608082015260a083013560a082015260c083013582811115612d0057600080fd5b612d0c88828601612b2c565b60c0830152508093505050509250929050565b600060208284031215612d3157600080fd5b612d3a82612c13565b9392505050565b602080825282518282018190526000919060409081850190868401855b82811015612db857815180516001600160a01b0390811686528782015116878601528581015186860152606080820151908601526080808201519086015260a0908101519085015260c09093019290850190600101612d5e565b5091979650505050505050565b8015158114611ef257600080fd5b600080600080600080600080610100898b031215612df057600080fd5b612df989612c13565b97506020890135612e0981612dc5565b9650604089013560ff81168114612e1f57600080fd5b9550606089013594506080890135935060a0890135925060c089013567ffffffffffffffff811115612e5057600080fd5b612e5c8b828c01612b2c565b925050612e6b60e08a01612c13565b90509295985092959890939650565b600080600060608486031215612e8f57600080fd5b612e9884612c13565b925060208401359150612ead60408501612c13565b90509250925092565b600060208284031215612ec857600080fd5b5035919050565b600080600060608486031215612ee457600080fd5b612eed84612c13565b95602085013595506040909401359392505050565b60008060408385031215612f1557600080fd5b612f1e83612c13565b946020939093013593505050565b60005b83811015612f47578181015183820152602001612f2f565b50506000910152565b60008151808452612f68816020860160208601612f2c565b601f01601f19169290920160200192915050565b871515815260ff8716602082015285604082015284606082015283608082015260e060a08201526000612fb260e0830185612f50565b905060018060a01b03831660c083015298975050505050505050565b600060208284031215612fe057600080fd5b8135612d3a81612dc5565b6020808252825182820181905260009190848201906040850190845b8181101561302c5783516001600160a01b031683529284019291840191600101613007565b50909695505050505050565b60008060006060848603121561304d57600080fd5b833567ffffffffffffffff8082111561306557600080fd5b61307187838801612b2c565b9450602086013591508082111561308757600080fd5b5061309486828701612b2c565b925050612ead60408501612c13565b600082516130b5818460208701612f2c565b9190910192915050565b634e487b7160e01b600052601160045260246000fd5b808201808211156108b4576108b46130bf565b80820281158282048414176108b4576108b46130bf565b60008261311c57634e487b7160e01b600052601260045260246000fd5b500490565b600181811c9082168061313557607f821691505b60208210810361315557634e487b7160e01b600052602260045260246000fd5b50919050565b601f8211156111aa57600081815260208120601f850160051c810160208610156131825750805b601f850160051c820191505b818110156131a15782815560010161318e565b505050505050565b815167ffffffffffffffff8111156131c3576131c3612aed565b6131d7816131d18454613121565b8461315b565b602080601f83116001811461320c57600084156131f45750858301515b600019600386901b1c1916600185901b1785556131a1565b600085815260208120601f198616915b8281101561323b5788860151825594840194600190910190840161321c565b50858210156132595787850151600019600388901b60f8161c191681555b5050505050600190811b01905550565b634e487b7160e01b600052603260045260246000fd5b600060018201613291576132916130bf565b5060010190565b818103818111156108b4576108b46130bf565b60ff82811682821603908111156108b4576108b46130bf565b600181815b80851115611dd45781600019048211156132e5576132e56130bf565b808516156132f257918102915b93841c93908002906132c9565b60008261330e575060016108b4565b8161331b575060006108b4565b8160018114613331576002811461333b57613357565b60019150506108b4565b60ff84111561334c5761334c6130bf565b50506001821b6108b4565b5060208310610133831016604e8410600b841016171561337a575081810a6108b4565b61338483836132c4565b8060001904821115613398576133986130bf565b029392505050565b6000612d3a60ff8416836132ff565b6000602082840312156133c157600080fd5b8151612d3a81612dc5565b602081526000612d3a6020830184612f5056fea26469706673582212208fe35559f3e55549ea22682ac0adcab98d5f64e18ad7569c07ed8f3f6a34ad1464736f6c63430008140033",
  "linkReferences": {},
  "deployedLinkReferences": {}
}