{
  "_format": "hh-sol-artifact-1",
  "contractName": "BrainArkValidatorTimeLock",
  "sourceName": "contracts/BrainArkValidatorTimeLock.sol",
  "abi": [
    {
      "inputs": [
        {
          "internalType": "address",
          "name": "_bakToken",
          "type": "address"
        },
        {
          "internalType": "address",
          "name": "_validatorRewardDistributor",
          "type": "address"
        },
        {
          "internalType": "uint256",
          "name": "_startTime",
          "type": "uint256"
        }
      ],
      "stateMutability": "nonpayable",
      "type": "constructor"
    },
    {
      "inputs": [],
      "name": "EnforcedPause",
      "type": "error"
    },
    {
      "inputs": [],
      "name": "ExpectedPause",
      "type": "error"
    },
    {
      "inputs": [
        {
          "internalType": "address",
          "name": "owner",
          "type": "address"
        }
      ],
      "name": "OwnableInvalidOwner",
      "type": "error"
    },
    {
      "inputs": [
        {
          "internalType": "address",
          "name": "account",
          "type": "address"
        }
      ],
      "name": "OwnableUnauthorizedAccount",
      "type": "error"
    },
    {
      "inputs": [],
      "name": "ReentrancyGuardReentrantCall",
      "type": "error"
    },
    {
      "inputs": [
        {
          "internalType": "address",
          "name": "token",
          "type": "address"
        }
      ],
      "name": "SafeERC20FailedOperation",
      "type": "error"
    },
    {
      "anonymous": false,
      "inputs": [
        {
          "indexed": false,
          "internalType": "uint256",
          "name": "amount",
          "type": "uint256"
        },
        {
          "indexed": false,
          "internalType": "uint256",
          "name": "timestamp",
          "type": "uint256"
        }
      ],
      "name": "EmergencyWithdrawExecuted",
      "type": "event"
    },
    {
      "anonymous": false,
      "inputs": [
        {
          "indexed": false,
          "internalType": "uint256",
          "name": "requestTime",
          "type": "uint256"
        }
      ],
      "name": "EmergencyWithdrawRequested",
      "type": "event"
    },
    {
      "anonymous": false,
      "inputs": [
        {
          "indexed": true,
          "internalType": "address",
          "name": "previousOwner",
          "type": "address"
        },
        {
          "indexed": true,
          "internalType": "address",
          "name": "newOwner",
          "type": "address"
        }
      ],
      "name": "OwnershipTransferred",
      "type": "event"
    },
    {
      "anonymous": false,
      "inputs": [
        {
          "indexed": false,
          "internalType": "address",
          "name": "account",
          "type": "address"
        }
      ],
      "name": "Paused",
      "type": "event"
    },
    {
      "anonymous": false,
      "inputs": [
        {
          "indexed": false,
          "internalType": "uint256",
          "name": "amount",
          "type": "uint256"
        },
        {
          "indexed": false,
          "internalType": "uint256",
          "name": "timestamp",
          "type": "uint256"
        },
        {
          "indexed": false,
          "internalType": "uint256",
          "name": "totalReleased",
          "type": "uint256"
        }
      ],
      "name": "TokensReleased",
      "type": "event"
    },
    {
      "anonymous": false,
      "inputs": [
        {
          "indexed": false,
          "internalType": "address",
          "name": "account",
          "type": "address"
        }
      ],
      "name": "Unpaused",
      "type": "event"
    },
    {
      "anonymous": false,
      "inputs": [
        {
          "indexed": false,
          "internalType": "address",
          "name": "newDistributor",
          "type": "address"
        }
      ],
      "name": "ValidatorRewardDistributorUpdated",
      "type": "event"
    },
    {
      "inputs": [],
      "name": "ANNUAL_RELEASE_AMOUNT",
      "outputs": [
        {
          "internalType": "uint256",
          "name": "",
          "type": "uint256"
        }
      ],
      "stateMutability": "view",
      "type": "function"
    },
    {
      "inputs": [],
      "name": "LOCK_DURATION",
      "outputs": [
        {
          "internalType": "uint256",
          "name": "",
          "type": "uint256"
        }
      ],
      "stateMutability": "view",
      "type": "function"
    },
    {
      "inputs": [],
      "name": "MONTHLY_RELEASE_AMOUNT",
      "outputs": [
        {
          "internalType": "uint256",
          "name": "",
          "type": "uint256"
        }
      ],
      "stateMutability": "view",
      "type": "function"
    },
    {
      "inputs": [],
      "name": "RELEASE_INTERVAL",
      "outputs": [
        {
          "internalType": "uint256",
          "name": "",
          "type": "uint256"
        }
      ],
      "stateMutability": "view",
      "type": "function"
    },
    {
      "inputs": [],
      "name": "TOTAL_LOCKED_AMOUNT",
      "outputs": [
        {
          "internalType": "uint256",
          "name": "",
          "type": "uint256"
        }
      ],
      "stateMutability": "view",
      "type": "function"
    },
    {
      "inputs": [],
      "name": "bakToken",
      "outputs": [
        {
          "internalType": "contract IERC20",
          "name": "",
          "type": "address"
        }
      ],
      "stateMutability": "view",
      "type": "function"
    },
    {
      "inputs": [],
      "name": "calculateReleaseAmount",
      "outputs": [
        {
          "internalType": "uint256",
          "name": "",
          "type": "uint256"
        }
      ],
      "stateMutability": "view",
      "type": "function"
    },
    {
      "inputs": [],
      "name": "checkReleaseStatus",
      "outputs": [
        {
          "internalType": "bool",
          "name": "canRelease_",
          "type": "bool"
        },
        {
          "internalType": "uint256",
          "name": "releaseAmount",
          "type": "uint256"
        },
        {
          "internalType": "uint256",
          "name": "timeUntilRelease",
          "type": "uint256"
        }
      ],
      "stateMutability": "view",
      "type": "function"
    },
    {
      "inputs": [],
      "name": "emergencyPause",
      "outputs": [],
      "stateMutability": "nonpayable",
      "type": "function"
    },
    {
      "inputs": [],
      "name": "emergencyWithdrawDelay",
      "outputs": [
        {
          "internalType": "uint256",
          "name": "",
          "type": "uint256"
        }
      ],
      "stateMutability": "view",
      "type": "function"
    },
    {
      "inputs": [],
      "name": "emergencyWithdrawEnabled",
      "outputs": [
        {
          "internalType": "bool",
          "name": "",
          "type": "bool"
        }
      ],
      "stateMutability": "view",
      "type": "function"
    },
    {
      "inputs": [],
      "name": "emergencyWithdrawRequestTime",
      "outputs": [
        {
          "internalType": "uint256",
          "name": "",
          "type": "uint256"
        }
      ],
      "stateMutability": "view",
      "type": "function"
    },
    {
      "inputs": [],
      "name": "endTime",
      "outputs": [
        {
          "internalType": "uint256",
          "name": "",
          "type": "uint256"
        }
      ],
      "stateMutability": "view",
      "type": "function"
    },
    {
      "inputs": [],
      "name": "executeEmergencyWithdraw",
      "outputs": [],
      "stateMutability": "nonpayable",
      "type": "function"
    },
    {
      "inputs": [],
      "name": "getContractStatus",
      "outputs": [
        {
          "internalType": "uint256",
          "name": "locked",
          "type": "uint256"
        },
        {
          "internalType": "uint256",
          "name": "released",
          "type": "uint256"
        },
        {
          "internalType": "uint256",
          "name": "nextRelease",
          "type": "uint256"
        },
        {
          "internalType": "uint256",
          "name": "progress",
          "type": "uint256"
        }
      ],
      "stateMutability": "view",
      "type": "function"
    },
    {
      "inputs": [],
      "name": "getLockParameters",
      "outputs": [
        {
          "internalType": "uint256",
          "name": "totalLocked",
          "type": "uint256"
        },
        {
          "internalType": "uint256",
          "name": "annualRelease",
          "type": "uint256"
        },
        {
          "internalType": "uint256",
          "name": "monthlyRelease",
          "type": "uint256"
        },
        {
          "internalType": "uint256",
          "name": "lockDuration",
          "type": "uint256"
        },
        {
          "internalType": "uint256",
          "name": "startTimestamp",
          "type": "uint256"
        },
        {
          "internalType": "uint256",
          "name": "endTimestamp",
          "type": "uint256"
        }
      ],
      "stateMutability": "view",
      "type": "function"
    },
    {
      "inputs": [],
      "name": "getProjectedReleases",
      "outputs": [
        {
          "internalType": "uint256",
          "name": "totalMonths",
          "type": "uint256"
        },
        {
          "internalType": "uint256",
          "name": "projectedTotal",
          "type": "uint256"
        }
      ],
      "stateMutability": "pure",
      "type": "function"
    },
    {
      "inputs": [],
      "name": "lastReleaseTime",
      "outputs": [
        {
          "internalType": "uint256",
          "name": "",
          "type": "uint256"
        }
      ],
      "stateMutability": "view",
      "type": "function"
    },
    {
      "inputs": [],
      "name": "nextReleaseTime",
      "outputs": [
        {
          "internalType": "uint256",
          "name": "",
          "type": "uint256"
        }
      ],
      "stateMutability": "view",
      "type": "function"
    },
    {
      "inputs": [],
      "name": "owner",
      "outputs": [
        {
          "internalType": "address",
          "name": "",
          "type": "address"
        }
      ],
      "stateMutability": "view",
      "type": "function"
    },
    {
      "inputs": [],
      "name": "paused",
      "outputs": [
        {
          "internalType": "bool",
          "name": "",
          "type": "bool"
        }
      ],
      "stateMutability": "view",
      "type": "function"
    },
    {
      "inputs": [],
      "name": "releaseTokens",
      "outputs": [],
      "stateMutability": "nonpayable",
      "type": "function"
    },
    {
      "inputs": [],
      "name": "renounceOwnership",
      "outputs": [],
      "stateMutability": "nonpayable",
      "type": "function"
    },
    {
      "inputs": [],
      "name": "requestEmergencyWithdraw",
      "outputs": [],
      "stateMutability": "nonpayable",
      "type": "function"
    },
    {
      "inputs": [],
      "name": "startTime",
      "outputs": [
        {
          "internalType": "uint256",
          "name": "",
          "type": "uint256"
        }
      ],
      "stateMutability": "view",
      "type": "function"
    },
    {
      "inputs": [],
      "name": "totalReleased",
      "outputs": [
        {
          "internalType": "uint256",
          "name": "",
          "type": "uint256"
        }
      ],
      "stateMutability": "view",
      "type": "function"
    },
    {
      "inputs": [
        {
          "internalType": "address",
          "name": "newOwner",
          "type": "address"
        }
      ],
      "name": "transferOwnership",
      "outputs": [],
      "stateMutability": "nonpayable",
      "type": "function"
    },
    {
      "inputs": [],
      "name": "unpause",
      "outputs": [],
      "stateMutability": "nonpayable",
      "type": "function"
    },
    {
      "inputs": [
        {
          "internalType": "address",
          "name": "_newDistributor",
          "type": "address"
        }
      ],
      "name": "updateValidatorRewardDistributor",
      "outputs": [],
      "stateMutability": "nonpayable",
      "type": "function"
    },
    {
      "inputs": [],
      "name": "validatorRewardDistributor",
      "outputs": [
        {
          "internalType": "address",
          "name": "",
          "type": "address"
        }
      ],
      "stateMutability": "view",
      "type": "function"
    }
  ],
  "bytecode": "0x6101006040526005805460ff1916905562093a806006553480156200002357600080fd5b50604051620013333803806200133383398101604081905262000046916200023f565b600160005533806200007357604051631e4fbdf760e01b8152600060048201526024015b60405180910390fd5b6200007e81620001c8565b506001600160a01b038316620000d75760405162461bcd60e51b815260206004820152601960248201527f496e76616c69642042414b20746f6b656e20616464726573730000000000000060448201526064016200006a565b6001600160a01b0382166200012f5760405162461bcd60e51b815260206004820152601b60248201527f496e76616c6964206469737472696275746f722061646472657373000000000060448201526064016200006a565b42811015620001815760405162461bcd60e51b815260206004820181905260248201527f53746172742074696d65206d75737420626520696e207468652066757475726560448201526064016200006a565b6001600160a01b03808416608052821660a05260c0819052620001a963386409008262000280565b60e052620001bb62278d008262000280565b60045550620002a8915050565b600180546001600160a01b03838116610100818102610100600160a81b031985161790945560405193909204169182907f8be0079c531659141344cd1fd0a4f28419497f9722a3daafe3b4186f6b6457e090600090a35050565b80516001600160a01b03811681146200023a57600080fd5b919050565b6000806000606084860312156200025557600080fd5b620002608462000222565b9250620002706020850162000222565b9150604084015190509250925092565b80820180821115620002a257634e487b7160e01b600052601160045260246000fd5b92915050565b60805160a05160c05160e05161100b62000328600039600081816102390152818161041d0152818161087c01526109f201526000818161032a015281816103f701528181610850015261098201526000818161028d0152610b60015260008181610483015281816106fa015281816107d60152610b3e015261100b6000f3fe608060405234801561001057600080fd5b50600436106101da5760003560e01c806372070b8111610104578063cde5f58f116100a2578063dfaf734a11610071578063dfaf734a1461046c578063e33b7de314610475578063f1218db01461047e578063f2fde38b146104a557600080fd5b8063cde5f58f146103ac578063d9469d13146103b6578063dd7d4e0714610449578063de7489e51461045a57600080fd5b8063a96f8668116100de578063a96f866814610362578063b3ba5b511461036a578063c032846b1461037c578063c28f7c3b146103a457600080fd5b806372070b811461031c57806378e97925146103255780638da5cb5b1461034c57600080fd5b8063427b99741161017c5780635c975abb1161014b5780635c975abb146102f7578063646e945b146103025780636d6a48891461030b578063715018a61461031457600080fd5b8063427b997414610288578063485d3834146102c757806351858e27146102d25780635747e69f146102da57600080fd5b80632a8821cc116101b85780632a8821cc1461022c5780633197cbb614610234578063340349d21461025b5780633f4ba83a1461028057600080fd5b806309f24524146101df5780630af3b59a146101fa5780631aebc29314610217575b600080fd5b6101e76104b8565b6040519081526020015b60405180910390f35b610202610567565b604080519283526020830191909152016101f1565b61022a610225366004610f11565b610586565b005b61022a610629565b6101e77f000000000000000000000000000000000000000000000000000000000000000081565b61026361083c565b6040805193151584526020840192909252908201526060016101f1565b61022a6108ea565b6102af7f000000000000000000000000000000000000000000000000000000000000000081565b6040516001600160a01b0390911681526020016101f1565b6101e7633864090081565b61022a6108fc565b6005546102e79060ff1681565b60405190151581526020016101f1565b60015460ff166102e7565b6101e760075481565b6101e760045481565b61022a61090c565b6101e760065481565b6101e77f000000000000000000000000000000000000000000000000000000000000000081565b60015461010090046001600160a01b03166102af565b61022a61091e565b6101e76a0b07716e251a248034000081565b610384610bd2565b6040805194855260208501939093529183015260608201526080016101f1565b61022a610c28565b6101e762278d0081565b604080516714adf4b7320334b9601c1b81526a0b07716e251a2480340000602082015269eb4972b05d9ebcbc000091810191909152633864090060608201527f000000000000000000000000000000000000000000000000000000000000000060808201527f000000000000000000000000000000000000000000000000000000000000000060a082015260c0016101f1565b6101e769eb4972b05d9ebcbc000081565b6101e76714adf4b7320334b9601c1b81565b6101e760035481565b6101e760025481565b6102af7f000000000000000000000000000000000000000000000000000000000000000081565b61022a6104b3366004610f11565b610c7f565b60006004544210806104d757506714adf4b7320334b9601c1b60025410155b156104e25750600090565b600062278d006004546104f59190610f57565b6104ff9042610f57565b9050600061051062278d0083610f70565b90508060000361051e575060015b600061053469eb4972b05d9ebcbc000083610f92565b905060006002546714adf4b7320334b9601c1b6105519190610f57565b90508082111561055f578091505b509392505050565b610168600061058069eb4972b05d9ebcbc000083610f92565b90509091565b61058e610cbd565b6001600160a01b0381166105e95760405162461bcd60e51b815260206004820152601b60248201527f496e76616c6964206469737472696275746f722061646472657373000000000060448201526064015b60405180910390fd5b6040516001600160a01b03821681527f78588b5a307338706a1f30628473b89e474e8f59a0defabf46559921b967bdd9906020015b60405180910390a150565b610631610cbd565b60055460ff166106835760405162461bcd60e51b815260206004820152601e60248201527f456d657267656e6379207769746864726177206e6f7420656e61626c6564000060448201526064016105e0565b6006546007546106939190610fa9565b4210156106e25760405162461bcd60e51b815260206004820181905260248201527f456d657267656e63792077697468647261772064656c6179206e6f74206d657460448201526064016105e0565b6040516370a0823160e01b81523060048201526000907f00000000000000000000000000000000000000000000000000000000000000006001600160a01b0316906370a0823190602401602060405180830381865afa158015610749573d6000803e3d6000fd5b505050506040513d601f19601f8201168201806040525081019061076d9190610fbc565b9050600081116107b75760405162461bcd60e51b81526020600482015260156024820152744e6f20746f6b656e7320746f20776974686472617760581b60448201526064016105e0565b6001546107fd9061010090046001600160a01b03166001600160a01b037f0000000000000000000000000000000000000000000000000000000000000000169083610cf0565b6005805460ff19169055604080518281524260208201527f6c7180f0ae61d4344d7d15bb00641184202a73b189564aeb59973c3534217832910161061e565b6000806000600454421015801561087357507f00000000000000000000000000000000000000000000000000000000000000004210155b801561089f57507f00000000000000000000000000000000000000000000000000000000000000004211155b80156108b757506714adf4b7320334b9601c1b600254105b92506108c16104b8565b91506004544210156108e257426004546108db9190610f57565b9050909192565b506000909192565b6108f2610cbd565b6108fa610d47565b565b610904610cbd565b6108fa610d94565b610914610cbd565b6108fa6000610dcf565b610926610e29565b61092e610e53565b6004544210156109805760405162461bcd60e51b815260206004820152601860248201527f52656c656173652074696d65206e6f742072656163686564000000000000000060448201526064016105e0565b7f00000000000000000000000000000000000000000000000000000000000000004210156109f05760405162461bcd60e51b815260206004820152601760248201527f4c6f636b20706572696f64206e6f74207374617274656400000000000000000060448201526064016105e0565b7f0000000000000000000000000000000000000000000000000000000000000000421115610a545760405162461bcd60e51b8152602060048201526011602482015270131bd8dac81c195c9a5bd908195b991959607a1b60448201526064016105e0565b6714adf4b7320334b9601c1b60025410610ab05760405162461bcd60e51b815260206004820152601b60248201527f416c6c20746f6b656e7320616c72656164792072656c6561736564000000000060448201526064016105e0565b6000610aba6104b8565b905060008111610b035760405162461bcd60e51b81526020600482015260146024820152734e6f20746f6b656e7320746f2072656c6561736560601b60448201526064016105e0565b8060026000828254610b159190610fa9565b9091555050426003819055610b2e9062278d0090610fa9565b600455610b856001600160a01b037f0000000000000000000000000000000000000000000000000000000000000000167f000000000000000000000000000000000000000000000000000000000000000083610cf0565b6002546040805183815242602082015280820192909252517fea91ec69d9ab5a214205bad93781970df8c1f8fa5321a97b10a6cbbe99c29d9c9181900360600190a1506108fa6001600055565b6000806000806002546714adf4b7320334b9601c1b610bf19190610f57565b600254600454919550935091506714adf4b7320334b9601c1b610c1684612710610f92565b610c209190610f70565b905090919293565b610c30610cbd565b6005805460ff191660011790554260078190556040517f6c51e0e9648746b65a27425fd08714243ff8799934a67ee370cde94eb5e4150391610c759190815260200190565b60405180910390a1565b610c87610cbd565b6001600160a01b038116610cb157604051631e4fbdf760e01b8152600060048201526024016105e0565b610cba81610dcf565b50565b6001546001600160a01b036101009091041633146108fa5760405163118cdaa760e01b81523360048201526024016105e0565b604080516001600160a01b038416602482015260448082018490528251808303909101815260649091019091526020810180516001600160e01b031663a9059cbb60e01b179052610d42908490610e77565b505050565b610d4f610eee565b6001805460ff191690557f5db9ee0a495bf2e6ff9c91a7834c1ba4fdd244a5e8aa4e537bd38aeae4b073aa335b6040516001600160a01b039091168152602001610c75565b610d9c610e53565b6001805460ff1916811790557f62e78cea01bee320cd4e420270b5ea74000d11b0c9f74754ebdbfc544b05a25833610d7c565b600180546001600160a01b03838116610100818102610100600160a81b031985161790945560405193909204169182907f8be0079c531659141344cd1fd0a4f28419497f9722a3daafe3b4186f6b6457e090600090a35050565b600260005403610e4c57604051633ee5aeb560e01b815260040160405180910390fd5b6002600055565b60015460ff16156108fa5760405163d93c066560e01b815260040160405180910390fd5b600080602060008451602086016000885af180610e9a576040513d6000823e3d81fd5b50506000513d91508115610eb2578060011415610ebf565b6001600160a01b0384163b155b15610ee857604051635274afe760e01b81526001600160a01b03851660048201526024016105e0565b50505050565b60015460ff166108fa57604051638dfc202b60e01b815260040160405180910390fd5b600060208284031215610f2357600080fd5b81356001600160a01b0381168114610f3a57600080fd5b9392505050565b634e487b7160e01b600052601160045260246000fd5b81810381811115610f6a57610f6a610f41565b92915050565b600082610f8d57634e487b7160e01b600052601260045260246000fd5b500490565b8082028115828204841417610f6a57610f6a610f41565b80820180821115610f6a57610f6a610f41565b600060208284031215610fce57600080fd5b505191905056fea2646970667358221220940e1979722bcdc8dbbb6258058d59a9b46d6b1b56de0414ab5d2e5adca9441264736f6c63430008140033",
  "linkReferences": {},
  "deployedLinkReferences": {}
}