{
  "_format": "hh-sol-artifact-1",
  "contractName": "BrainArkAirdrop",
  "sourceName": "contracts/BrainArkAirdrop.sol",
  "abi": [
    {
      "inputs": [
        {
          "internalType": "address",
          "name": "_fundingWallet",
          "type": "address"
        }
      ],
      "stateMutability": "nonpayable",
      "type": "constructor"
    },
    {
      "anonymous": false,
      "inputs": [
        {
          "indexed": true,
          "internalType": "address",
          "name": "user",
          "type": "address"
        },
        {
          "indexed": false,
          "internalType": "uint256",
          "name": "amount",
          "type": "uint256"
        },
        {
          "indexed": true,
          "internalType": "address",
          "name": "referrer",
          "type": "address"
        },
        {
          "indexed": false,
          "internalType": "uint256",
          "name": "referralBonus",
          "type": "uint256"
        },
        {
          "indexed": false,
          "internalType": "uint256",
          "name": "timestamp",
          "type": "uint256"
        }
      ],
      "name": "AirdropClaimed",
      "type": "event"
    },
    {
      "anonymous": false,
      "inputs": [
        {
          "indexed": false,
          "internalType": "uint256",
          "name": "totalParticipants",
          "type": "uint256"
        },
        {
          "indexed": false,
          "internalType": "uint256",
          "name": "totalDistributed",
          "type": "uint256"
        },
        {
          "indexed": false,
          "internalType": "uint256",
          "name": "timestamp",
          "type": "uint256"
        }
      ],
      "name": "DistributionTriggered",
      "type": "event"
    },
    {
      "anonymous": false,
      "inputs": [
        {
          "indexed": true,
          "internalType": "address",
          "name": "previousOwner",
          "type": "address"
        },
        {
          "indexed": true,
          "internalType": "address",
          "name": "newOwner",
          "type": "address"
        }
      ],
      "name": "OwnershipTransferred",
      "type": "event"
    },
    {
      "anonymous": false,
      "inputs": [
        {
          "indexed": false,
          "internalType": "address",
          "name": "account",
          "type": "address"
        }
      ],
      "name": "Paused",
      "type": "event"
    },
    {
      "anonymous": false,
      "inputs": [
        {
          "indexed": true,
          "internalType": "address",
          "name": "referrer",
          "type": "address"
        },
        {
          "indexed": true,
          "internalType": "address",
          "name": "referee",
          "type": "address"
        },
        {
          "indexed": false,
          "internalType": "uint256",
          "name": "bonus",
          "type": "uint256"
        },
        {
          "indexed": false,
          "internalType": "uint256",
          "name": "timestamp",
          "type": "uint256"
        }
      ],
      "name": "ReferralBonusPaid",
      "type": "event"
    },
    {
      "anonymous": false,
      "inputs": [
        {
          "indexed": true,
          "internalType": "address",
          "name": "user",
          "type": "address"
        },
        {
          "indexed": false,
          "internalType": "string",
          "name": "taskType",
          "type": "string"
        },
        {
          "indexed": false,
          "internalType": "bool",
          "name": "verified",
          "type": "bool"
        },
        {
          "indexed": false,
          "internalType": "uint256",
          "name": "timestamp",
          "type": "uint256"
        }
      ],
      "name": "SocialTaskCompleted",
      "type": "event"
    },
    {
      "anonymous": false,
      "inputs": [
        {
          "indexed": false,
          "internalType": "address",
          "name": "account",
          "type": "address"
        }
      ],
      "name": "Unpaused",
      "type": "event"
    },
    {
      "inputs": [],
      "name": "COINS_PER_USER",
      "outputs": [
        {
          "internalType": "uint256",
          "name": "",
          "type": "uint256"
        }
      ],
      "stateMutability": "view",
      "type": "function"
    },
    {
      "inputs": [],
      "name": "REFERRAL_BONUS",
      "outputs": [
        {
          "internalType": "uint256",
          "name": "",
          "type": "uint256"
        }
      ],
      "stateMutability": "view",
      "type": "function"
    },
    {
      "inputs": [],
      "name": "REFERRAL_POOL",
      "outputs": [
        {
          "internalType": "uint256",
          "name": "",
          "type": "uint256"
        }
      ],
      "stateMutability": "view",
      "type": "function"
    },
    {
      "inputs": [],
      "name": "TARGET_PARTICIPANTS",
      "outputs": [
        {
          "internalType": "uint256",
          "name": "",
          "type": "uint256"
        }
      ],
      "stateMutability": "view",
      "type": "function"
    },
    {
      "inputs": [],
      "name": "TOTAL_AIRDROP_SUPPLY",
      "outputs": [
        {
          "internalType": "uint256",
          "name": "",
          "type": "uint256"
        }
      ],
      "stateMutability": "view",
      "type": "function"
    },
    {
      "inputs": [
        {
          "internalType": "address",
          "name": "verifier",
          "type": "address"
        }
      ],
      "name": "addSocialVerifier",
      "outputs": [],
      "stateMutability": "nonpayable",
      "type": "function"
    },
    {
      "inputs": [
        {
          "internalType": "address",
          "name": "user",
          "type": "address"
        }
      ],
      "name": "canClaim",
      "outputs": [
        {
          "internalType": "bool",
          "name": "",
          "type": "bool"
        }
      ],
      "stateMutability": "view",
      "type": "function"
    },
    {
      "inputs": [
        {
          "internalType": "address",
          "name": "referrer",
          "type": "address"
        }
      ],
      "name": "claimAirdrop",
      "outputs": [],
      "stateMutability": "nonpayable",
      "type": "function"
    },
    {
      "inputs": [
        {
          "internalType": "uint256",
          "name": "startIndex",
          "type": "uint256"
        },
        {
          "internalType": "uint256",
          "name": "endIndex",
          "type": "uint256"
        }
      ],
      "name": "distributeTokens",
      "outputs": [],
      "stateMutability": "nonpayable",
      "type": "function"
    },
    {
      "inputs": [],
      "name": "distributionActive",
      "outputs": [
        {
          "internalType": "bool",
          "name": "",
          "type": "bool"
        }
      ],
      "stateMutability": "view",
      "type": "function"
    },
    {
      "inputs": [],
      "name": "distributionStartTime",
      "outputs": [
        {
          "internalType": "uint256",
          "name": "",
          "type": "uint256"
        }
      ],
      "stateMutability": "view",
      "type": "function"
    },
    {
      "inputs": [],
      "name": "distributionTriggered",
      "outputs": [
        {
          "internalType": "bool",
          "name": "",
          "type": "bool"
        }
      ],
      "stateMutability": "view",
      "type": "function"
    },
    {
      "inputs": [],
      "name": "emergencyStop",
      "outputs": [],
      "stateMutability": "nonpayable",
      "type": "function"
    },
    {
      "inputs": [],
      "name": "fundingWallet",
      "outputs": [
        {
          "internalType": "address",
          "name": "",
          "type": "address"
        }
      ],
      "stateMutability": "view",
      "type": "function"
    },
    {
      "inputs": [],
      "name": "getAirdropStats",
      "outputs": [
        {
          "components": [
            {
              "internalType": "uint256",
              "name": "totalParticipants",
              "type": "uint256"
            },
            {
              "internalType": "uint256",
              "name": "totalClaimed",
              "type": "uint256"
            },
            {
              "internalType": "uint256",
              "name": "totalReferralBonuses",
              "type": "uint256"
            },
            {
              "internalType": "uint256",
              "name": "remainingSupply",
              "type": "uint256"
            },
            {
              "internalType": "bool",
              "name": "distributionActive",
              "type": "bool"
            },
            {
              "internalType": "uint256",
              "name": "distributionStartTime",
              "type": "uint256"
            }
          ],
          "internalType": "struct BrainArkAirdrop.AirdropStats",
          "name": "",
          "type": "tuple"
        }
      ],
      "stateMutability": "view",
      "type": "function"
    },
    {
      "inputs": [
        {
          "internalType": "uint256",
          "name": "offset",
          "type": "uint256"
        },
        {
          "internalType": "uint256",
          "name": "limit",
          "type": "uint256"
        }
      ],
      "name": "getParticipants",
      "outputs": [
        {
          "internalType": "address[]",
          "name": "",
          "type": "address[]"
        }
      ],
      "stateMutability": "view",
      "type": "function"
    },
    {
      "inputs": [
        {
          "internalType": "address",
          "name": "user",
          "type": "address"
        }
      ],
      "name": "getUserInfo",
      "outputs": [
        {
          "components": [
            {
              "internalType": "bool",
              "name": "hasClaimed",
              "type": "bool"
            },
            {
              "internalType": "bool",
              "name": "twitterFollowed",
              "type": "bool"
            },
            {
              "internalType": "bool",
              "name": "twitterRetweeted",
              "type": "bool"
            },
            {
              "internalType": "bool",
              "name": "telegramJoined",
              "type": "bool"
            },
            {
              "internalType": "address",
              "name": "referrer",
              "type": "address"
            },
            {
              "internalType": "uint256",
              "name": "referralCount",
              "type": "uint256"
            },
            {
              "internalType": "uint256",
              "name": "totalEarned",
              "type": "uint256"
            },
            {
              "internalType": "uint256",
              "name": "claimTimestamp",
              "type": "uint256"
            }
          ],
          "internalType": "struct BrainArkAirdrop.User",
          "name": "",
          "type": "tuple"
        }
      ],
      "stateMutability": "view",
      "type": "function"
    },
    {
      "inputs": [],
      "name": "owner",
      "outputs": [
        {
          "internalType": "address",
          "name": "",
          "type": "address"
        }
      ],
      "stateMutability": "view",
      "type": "function"
    },
    {
      "inputs": [
        {
          "internalType": "uint256",
          "name": "",
          "type": "uint256"
        }
      ],
      "name": "participants",
      "outputs": [
        {
          "internalType": "address",
          "name": "",
          "type": "address"
        }
      ],
      "stateMutability": "view",
      "type": "function"
    },
    {
      "inputs": [],
      "name": "pause",
      "outputs": [],
      "stateMutability": "nonpayable",
      "type": "function"
    },
    {
      "inputs": [],
      "name": "paused",
      "outputs": [
        {
          "internalType": "bool",
          "name": "",
          "type": "bool"
        }
      ],
      "stateMutability": "view",
      "type": "function"
    },
    {
      "inputs": [
        {
          "internalType": "address",
          "name": "verifier",
          "type": "address"
        }
      ],
      "name": "removeSocialVerifier",
      "outputs": [],
      "stateMutability": "nonpayable",
      "type": "function"
    },
    {
      "inputs": [],
      "name": "renounceOwnership",
      "outputs": [],
      "stateMutability": "nonpayable",
      "type": "function"
    },
    {
      "inputs": [
        {
          "internalType": "address",
          "name": "",
          "type": "address"
        }
      ],
      "name": "socialVerifiers",
      "outputs": [
        {
          "internalType": "bool",
          "name": "",
          "type": "bool"
        }
      ],
      "stateMutability": "view",
      "type": "function"
    },
    {
      "inputs": [],
      "name": "totalClaimed",
      "outputs": [
        {
          "internalType": "uint256",
          "name": "",
          "type": "uint256"
        }
      ],
      "stateMutability": "view",
      "type": "function"
    },
    {
      "inputs": [],
      "name": "totalReferralBonuses",
      "outputs": [
        {
          "internalType": "uint256",
          "name": "",
          "type": "uint256"
        }
      ],
      "stateMutability": "view",
      "type": "function"
    },
    {
      "inputs": [
        {
          "internalType": "address",
          "name": "newOwner",
          "type": "address"
        }
      ],
      "name": "transferOwnership",
      "outputs": [],
      "stateMutability": "nonpayable",
      "type": "function"
    },
    {
      "inputs": [],
      "name": "triggerDistribution",
      "outputs": [],
      "stateMutability": "nonpayable",
      "type": "function"
    },
    {
      "inputs": [],
      "name": "unpause",
      "outputs": [],
      "stateMutability": "nonpayable",
      "type": "function"
    },
    {
      "inputs": [
        {
          "internalType": "address",
          "name": "",
          "type": "address"
        }
      ],
      "name": "users",
      "outputs": [
        {
          "internalType": "bool",
          "name": "hasClaimed",
          "type": "bool"
        },
        {
          "internalType": "bool",
          "name": "twitterFollowed",
          "type": "bool"
        },
        {
          "internalType": "bool",
          "name": "twitterRetweeted",
          "type": "bool"
        },
        {
          "internalType": "bool",
          "name": "telegramJoined",
          "type": "bool"
        },
        {
          "internalType": "address",
          "name": "referrer",
          "type": "address"
        },
        {
          "internalType": "uint256",
          "name": "referralCount",
          "type": "uint256"
        },
        {
          "internalType": "uint256",
          "name": "totalEarned",
          "type": "uint256"
        },
        {
          "internalType": "uint256",
          "name": "claimTimestamp",
          "type": "uint256"
        }
      ],
      "stateMutability": "view",
      "type": "function"
    },
    {
      "inputs": [
        {
          "internalType": "address",
          "name": "user",
          "type": "address"
        },
        {
          "internalType": "string",
          "name": "taskType",
          "type": "string"
        },
        {
          "internalType": "bool",
          "name": "verified",
          "type": "bool"
        }
      ],
      "name": "verifySocialTask",
      "outputs": [],
      "stateMutability": "nonpayable",
      "type": "function"
    },
    {
      "stateMutability": "payable",
      "type": "receive"
    }
  ],
  "bytecode": "0x60a06040523480156200001157600080fd5b5060405162001d0c38038062001d0c833981016040819052620000349162000121565b60016000556200004433620000cf565b6001805460ff60a01b191690556001600160a01b038116620000ac5760405162461bcd60e51b815260206004820152601660248201527f496e76616c69642066756e64696e672077616c6c657400000000000000000000604482015260640160405180910390fd5b6001600160a01b03166080526008805460ff191660011790554260075562000153565b600180546001600160a01b038381166001600160a01b0319831681179093556040519116919082907f8be0079c531659141344cd1fd0a4f28419497f9722a3daafe3b4186f6b6457e090600090a35050565b6000602082840312156200013457600080fd5b81516001600160a01b03811681146200014c57600080fd5b9392505050565b608051611b9d6200016f60003960006103130152611b9d6000f3fe6080604052600436106101db5760003560e01c80636628924011610102578063bf3506c111610095578063ded0ed1611610064578063ded0ed16146106fc578063e1913c8114610729578063f2fde38b14610745578063fedd970b1461076557600080fd5b8063bf3506c114610643578063c4d92a7514610663578063c6e5546c146106c6578063d54ad2a1146106e657600080fd5b80638da859b0116100d15780638da859b01461053357806399fb15d2146105495780639be70a3914610563578063a87430ba1461058257600080fd5b806366289240146104bb578063715018a6146104eb5780638456cb59146105005780638da5cb5b1461051557600080fd5b806335cd4b461161017a5780635c975abb116101495780635c975abb1461036a5780636386c1c71461038957806363a599a41461048657806365f8c6c51461049b57600080fd5b806335cd4b46146102ec5780633c4b40b8146103015780633f4ba83a14610335578063415175e51461034a57600080fd5b806314c9fd15116101b657806314c9fd15146102535780631ed43cde1461026f57806327c9af401461028557806335c1d349146102b457600080fd5b806268ae1d146101e757806310526f641461020957806310bd37991461023357600080fd5b366101e257005b600080fd5b3480156101f357600080fd5b5061020761020236600461188a565b610784565b005b34801561021557600080fd5b50610220620f424081565b6040519081526020015b60405180910390f35b34801561023f57600080fd5b5061020761024e36600461188a565b6107b0565b34801561025f57600080fd5b50610220678ac7230489e8000081565b34801561027b57600080fd5b5061022060065481565b34801561029157600080fd5b506008546102a490610100900460ff1681565b604051901515815260200161022a565b3480156102c057600080fd5b506102d46102cf3660046118ac565b6107d9565b6040516001600160a01b03909116815260200161022a565b3480156102f857600080fd5b50610207610803565b34801561030d57600080fd5b506102d47f000000000000000000000000000000000000000000000000000000000000000081565b34801561034157600080fd5b50610207610866565b34801561035657600080fd5b506102076103653660046118eb565b610876565b34801561037657600080fd5b50600154600160a01b900460ff166102a4565b34801561039557600080fd5b506104796103a436600461188a565b6040805161010081018252600080825260208201819052918101829052606081018290526080810182905260a0810182905260c0810182905260e0810191909152506001600160a01b0390811660009081526002602081815260409283902083516101008082018652825460ff808216151584529181048216151594830194909452620100008404811615159582019590955263010000008304909416151560608501526401000000009091049093166080830152600183015460a083015282015460c082015260039091015460e082015290565b60405161022a91906119bd565b34801561049257600080fd5b50610207610aa1565b3480156104a757600080fd5b506102076104b636600461188a565b610ab5565b3480156104c757600080fd5b506102a46104d636600461188a565b60036020526000908152604090205460ff1681565b3480156104f757600080fd5b50610207610f76565b34801561050c57600080fd5b50610207610f88565b34801561052157600080fd5b506001546001600160a01b03166102d4565b34801561053f57600080fd5b5061022060075481565b34801561055557600080fd5b506008546102a49060ff1681565b34801561056f57600080fd5b506102206a0422ca8b0a00a42500000081565b34801561058e57600080fd5b506105f761059d36600461188a565b6002602081905260009182526040909120805460018201549282015460039092015460ff80831694610100840482169462010000850483169463010000008104909316936401000000009093046001600160a01b03169288565b60408051981515895296151560208901529415159587019590955291151560608601526001600160a01b0316608085015260a084015260c083019190915260e08201526101000161022a565b34801561064f57600080fd5b506102a461065e36600461188a565b610f98565b34801561066f57600080fd5b5061067861105a565b60405161022a9190600060c0820190508251825260208301516020830152604083015160408301526060830151606083015260808301511515608083015260a083015160a083015292915050565b3480156106d257600080fd5b506102076106e1366004611a2f565b61110f565b3480156106f257600080fd5b5061022060055481565b34801561070857600080fd5b5061071c610717366004611a2f565b611266565b60405161022a9190611a51565b34801561073557600080fd5b50610220672c68af0bb140000081565b34801561075157600080fd5b5061020761076036600461188a565b61139f565b34801561077157600080fd5b506102206a084595161401484a00000081565b61078c611415565b6001600160a01b03166000908152600360205260409020805460ff19166001179055565b6107b8611415565b6001600160a01b03166000908152600360205260409020805460ff19169055565b600481815481106107e957600080fd5b6000918252602090912001546001600160a01b0316905081565b61080b611415565b600854610100900460ff161561085c5760405162461bcd60e51b8152602060048201526011602482015270105b1c9958591e481d1c9a59d9d95c9959607a1b60448201526064015b60405180910390fd5b61086461146f565b565b61086e611415565b61086461151f565b3360009081526003602052604090205460ff166108d55760405162461bcd60e51b815260206004820152601760248201527f4e6f7420617574686f72697a65642076657269666965720000000000000000006044820152606401610853565b60408051808201909152600e81526d747769747465725f666f6c6c6f7760901b6020918201528251908301207f234dc79d425056e723b4f084af383804ee8ad4db577c82b602d965b6df2289e301610955576001600160a01b0383166000908152600260205260409020805461ff00191661010083151502179055610a57565b60408051808201909152600f81526e1d1dda5d1d195c97dc995d1dd9595d608a1b6020918201528251908301207fcdb636be9de7c5dd787bd16e44d3e2a8a0fa4587de8e651b19ad1c17e307580b016109d8576001600160a01b0383166000908152600260205260409020805462ff000019166201000083151502179055610a57565b60408051808201909152600d81526c3a32b632b3b930b6afb537b4b760991b6020918201528251908301207f658c318f3a808e1d66e30612a487e2b4dbb6a5d6ba8d32600844fdf02a344bd201610a57576001600160a01b0383166000908152600260205260409020805463ff00000019166301000000831515021790555b826001600160a01b03167faa90bd489466a1ac754940853d9f5978eec465ff74a2f8902a1bb4efbbcaf26f838342604051610a9493929190611a9e565b60405180910390a2505050565b610aa9611415565b6008805460ff19169055565b610abd61156f565b610ac56115c8565b60085460ff16610b175760405162461bcd60e51b815260206004820152601760248201527f446973747269627574696f6e206e6f74206163746976650000000000000000006044820152606401610853565b3360009081526002602052604090205460ff1615610b695760405162461bcd60e51b815260206004820152600f60248201526e105b1c9958591e4818db185a5b5959608a1b6044820152606401610853565b600454620f424011610bbd5760405162461bcd60e51b815260206004820152601b60248201527f546172676574207061727469636970616e7473207265616368656400000000006044820152606401610853565b33600090815260026020526040902054610100900460ff168015610bf657503360009081526002602052604090205462010000900460ff165b8015610c185750336000908152600260205260409020546301000000900460ff165b610c645760405162461bcd60e51b815260206004820152601a60248201527f536f6369616c207461736b73206e6f7420636f6d706c657465640000000000006044820152606401610853565b6001600160a01b03811615610d2b57336001600160a01b03821603610cc35760405162461bcd60e51b815260206004820152601560248201527421b0b73737ba103932b332b9103cb7bab939b2b63360591b6044820152606401610853565b6001600160a01b03811660009081526002602052604090205460ff16610d2b5760405162461bcd60e51b815260206004820152601e60248201527f5265666572726572206d7573742062652061207061727469636970616e7400006044820152606401610853565b33600081815260026020819052604082208054600163ffffff01600160c01b03199091166401000000006001600160a01b038816021781178255678ac7230489e800009282018390554260039092019190915560048054918201815583527f8a35acfbc15ff81a39ae7d344fd709f28e8600b4aa8c65c6b64bfe7fe36bd19b0180546001600160a01b03191690931790925560058054909190610dcf908490611b12565b90915550600090506001600160a01b03821615801590610e0f57506a0422ca8b0a00a425000000672c68af0bb1400000600654610e0c9190611b12565b11155b15610eea576001600160a01b0382166000908152600260205260408120600101805491610e3b83611b25565b90915550506001600160a01b03821660009081526002602081905260408220018054672c68af0bb14000009290610e73908490611b12565b92505081905550672c68af0bb140000060066000828254610e949190611b12565b909155505060408051672c68af0bb1400000808252426020830152925033916001600160a01b038516917fb1da5bd041c3a852a00414e52da5f60612375abee4e87c90003be773e8dc5c8d910160405180910390a35b60408051678ac7230489e80000815260208101839052428183015290516001600160a01b0384169133917f3cb8c6a38aba406aca184814facaa86f1566aeedcea8c492b98b38fdc335125c9181900360600190a3600454620f424011801590610f5b5750600854610100900460ff16155b15610f6857610f6861146f565b50610f736001600055565b50565b610f7e611415565b6108646000611615565b610f90611415565b610864611667565b60085460009060ff168015610fc657506001600160a01b03821660009081526002602052604090205460ff16155b8015610fef57506001600160a01b038216600090815260026020526040902054610100900460ff165b801561101957506001600160a01b03821660009081526002602052604090205462010000900460ff165b801561104457506001600160a01b0382166000908152600260205260409020546301000000900460ff165b80156110545750600454620f4240115b92915050565b6110956040518060c0016040528060008152602001600081526020016000815260200160008152602001600015158152602001600081525090565b6040805160c081018252600454815260055460208201819052600654928201839052909160608301916110de6a0422ca8b0a00a4250000006a084595161401484a000000611b12565b6110e89190611b3e565b6110f29190611b3e565b815260085460ff1615156020820152600754604090910152919050565b611117611415565b600854610100900460ff1661116e5760405162461bcd60e51b815260206004820152601a60248201527f446973747269627574696f6e206e6f74207472696767657265640000000000006044820152606401610853565b6004548111156111b45760405162461bcd60e51b8152602060048201526011602482015270092dcecc2d8d2c840cadcc840d2dcc8caf607b1b6044820152606401610853565b8082106111f35760405162461bcd60e51b815260206004820152600d60248201526c496e76616c69642072616e676560981b6044820152606401610853565b815b818110156112615760006004828154811061121257611212611b51565b60009182526020808320909101546001600160a01b031680835260029182905260409092200154909150801561124c5761124c82826116aa565b5050808061125990611b25565b9150506111f5565b505050565b60045460609083106112b15760405162461bcd60e51b81526020600482015260146024820152734f6666736574206f7574206f6620626f756e647360601b6044820152606401610853565b60006112bd8385611b12565b6004549091508111156112cf57506004545b60006112db8583611b3e565b67ffffffffffffffff8111156112f3576112f36118c5565b60405190808252806020026020018201604052801561131c578160200160208202803683370190505b509050845b82811015611396576004818154811061133c5761133c611b51565b6000918252602090912001546001600160a01b03168261135c8884611b3e565b8151811061136c5761136c611b51565b6001600160a01b03909216602092830291909101909101528061138e81611b25565b915050611321565b50949350505050565b6113a7611415565b6001600160a01b03811661140c5760405162461bcd60e51b815260206004820152602660248201527f4f776e61626c653a206e6577206f776e657220697320746865207a65726f206160448201526564647265737360d01b6064820152608401610853565b610f7381611615565b6001546001600160a01b031633146108645760405162461bcd60e51b815260206004820181905260248201527f4f776e61626c653a2063616c6c6572206973206e6f7420746865206f776e65726044820152606401610853565b600454620f424011156114b95760405162461bcd60e51b815260206004820152601260248201527115185c99d95d081b9bdd081c995858da195960721b6044820152606401610853565b6008805461ffff19166101001790556004546006546005547faf593603e764f8d0aea850523b7ccdef382a737faf774a893739162c34e10b9592916114fd91611b12565b60408051928352602083019190915242908201526060015b60405180910390a1565b61152761181e565b6001805460ff60a01b191690557f5db9ee0a495bf2e6ff9c91a7834c1ba4fdd244a5e8aa4e537bd38aeae4b073aa335b6040516001600160a01b039091168152602001611515565b6002600054036115c15760405162461bcd60e51b815260206004820152601f60248201527f5265656e7472616e637947756172643a207265656e7472616e742063616c6c006044820152606401610853565b6002600055565b600154600160a01b900460ff16156108645760405162461bcd60e51b815260206004820152601060248201526f14185d5cd8589b194e881c185d5cd95960821b6044820152606401610853565b600180546001600160a01b038381166001600160a01b0319831681179093556040519116919082907f8be0079c531659141344cd1fd0a4f28419497f9722a3daafe3b4186f6b6457e090600090a35050565b61166f6115c8565b6001805460ff60a01b1916600160a01b1790557f62e78cea01bee320cd4e420270b5ea74000d11b0c9f74754ebdbfc544b05a2586115573390565b6001600160a01b0382166116f45760405162461bcd60e51b8152602060048201526011602482015270125b9d985b1a59081c9958da5c1a595b9d607a1b6044820152606401610853565b600081116117355760405162461bcd60e51b815260206004820152600e60248201526d125b9d985b1a5908185b5bdd5b9d60921b6044820152606401610853565b804710156117855760405162461bcd60e51b815260206004820152601d60248201527f496e73756666696369656e7420636f6e74726163742062616c616e63650000006044820152606401610853565b6000826001600160a01b03168260405160006040518083038185875af1925050503d80600081146117d2576040519150601f19603f3d011682016040523d82523d6000602084013e6117d7565b606091505b50509050806112615760405162461bcd60e51b8152602060048201526013602482015272109052c81d1c985b9cd9995c8819985a5b1959606a1b6044820152606401610853565b600154600160a01b900460ff166108645760405162461bcd60e51b815260206004820152601460248201527314185d5cd8589b194e881b9bdd081c185d5cd95960621b6044820152606401610853565b80356001600160a01b038116811461188557600080fd5b919050565b60006020828403121561189c57600080fd5b6118a58261186e565b9392505050565b6000602082840312156118be57600080fd5b5035919050565b634e487b7160e01b600052604160045260246000fd5b8035801515811461188557600080fd5b60008060006060848603121561190057600080fd5b6119098461186e565b9250602084013567ffffffffffffffff8082111561192657600080fd5b818601915086601f83011261193a57600080fd5b81358181111561194c5761194c6118c5565b604051601f8201601f19908116603f01168101908382118183101715611974576119746118c5565b8160405282815289602084870101111561198d57600080fd5b8260208601602083013760006020848301015280965050505050506119b4604085016118db565b90509250925092565b6000610100820190508251151582526020830151151560208301526040830151151560408301526060830151151560608301526080830151611a0a60808401826001600160a01b03169052565b5060a083015160a083015260c083015160c083015260e083015160e083015292915050565b60008060408385031215611a4257600080fd5b50508035926020909101359150565b6020808252825182820181905260009190848201906040850190845b81811015611a925783516001600160a01b031683529284019291840191600101611a6d565b50909695505050505050565b606081526000845180606084015260005b81811015611acc5760208188018101516080868401015201611aaf565b506000608082850101526080601f19601f8301168401019150508315156020830152826040830152949350505050565b634e487b7160e01b600052601160045260246000fd5b8082018082111561105457611054611afc565b600060018201611b3757611b37611afc565b5060010190565b8181038181111561105457611054611afc565b634e487b7160e01b600052603260045260246000fdfea2646970667358221220bba875c2459f6c8cda1871133f484ed8070e3fda3ea01347bd293b19f719fbcc64736f6c63430008140033",
  "linkReferences": {},
  "deployedLinkReferences": {}
}